{
	"contracts/Charity.sol": {
		"Charity": {
			"abi": [
				{
					"inputs": [
						{
							"internalType": "address",
							"name": "_charityAddress",
							"type": "address"
						}
					],
					"stateMutability": "nonpayable",
					"type": "constructor"
				},
				{
					"anonymous": false,
					"inputs": [
						{
							"indexed": true,
							"internalType": "address",
							"name": "donor",
							"type": "address"
						},
						{
							"indexed": false,
							"internalType": "uint256",
							"name": "amount",
							"type": "uint256"
						},
						{
							"indexed": false,
							"internalType": "uint256",
							"name": "timestamp",
							"type": "uint256"
						}
					],
					"name": "Donated",
					"type": "event"
				},
				{
					"inputs": [],
					"name": "charityAddress",
					"outputs": [
						{
							"internalType": "address",
							"name": "",
							"type": "address"
						}
					],
					"stateMutability": "view",
					"type": "function"
				},
				{
					"inputs": [],
					"name": "donate",
					"outputs": [],
					"stateMutability": "payable",
					"type": "function"
				},
				{
					"inputs": [
						{
							"internalType": "uint256",
							"name": "",
							"type": "uint256"
						}
					],
					"name": "donations",
					"outputs": [
						{
							"internalType": "address",
							"name": "donor",
							"type": "address"
						},
						{
							"internalType": "uint256",
							"name": "amount",
							"type": "uint256"
						},
						{
							"internalType": "uint256",
							"name": "timestamp",
							"type": "uint256"
						}
					],
					"stateMutability": "view",
					"type": "function"
				},
				{
					"inputs": [],
					"name": "getDonationCount",
					"outputs": [
						{
							"internalType": "uint256",
							"name": "",
							"type": "uint256"
						}
					],
					"stateMutability": "view",
					"type": "function"
				},
				{
					"inputs": [],
					"name": "getDonations",
					"outputs": [
						{
							"components": [
								{
									"internalType": "address",
									"name": "donor",
									"type": "address"
								},
								{
									"internalType": "uint256",
									"name": "amount",
									"type": "uint256"
								},
								{
									"internalType": "uint256",
									"name": "timestamp",
									"type": "uint256"
								}
							],
							"internalType": "struct Charity.Donation[]",
							"name": "",
							"type": "tuple[]"
						}
					],
					"stateMutability": "view",
					"type": "function"
				},
				{
					"inputs": [
						{
							"internalType": "uint256",
							"name": "amount",
							"type": "uint256"
						}
					],
					"name": "withdraw",
					"outputs": [],
					"stateMutability": "nonpayable",
					"type": "function"
				}
			],
			"devdoc": {
				"kind": "dev",
				"methods": {},
				"version": 1
			},
			"evm": {
				"assembly": "    /* \"contracts/Charity.sol\":60:1258  contract Charity {... */\n  mstore(0x40, 0x80)\n    /* \"contracts/Charity.sol\":345:433  constructor(address _charityAddress) {... */\n  callvalue\n  dup1\n  iszero\n  tag_1\n  jumpi\n  0x00\n  dup1\n  revert\ntag_1:\n  pop\n  mload(0x40)\n  sub(codesize, bytecodeSize)\n  dup1\n  bytecodeSize\n  dup4\n  codecopy\n  dup2\n  dup2\n  add\n  0x40\n  mstore\n  dup2\n  add\n  swap1\n  tag_2\n  swap2\n  swap1\n  tag_3\n  jump\t// in\ntag_2:\n    /* \"contracts/Charity.sol\":410:425  _charityAddress */\n  dup1\n    /* \"contracts/Charity.sol\":393:407  charityAddress */\n  0x01\n  0x00\n    /* \"contracts/Charity.sol\":393:425  charityAddress = _charityAddress */\n  0x0100\n  exp\n  dup2\n  sload\n  dup2\n  0xffffffffffffffffffffffffffffffffffffffff\n  mul\n  not\n  and\n  swap1\n  dup4\n  0xffffffffffffffffffffffffffffffffffffffff\n  and\n  mul\n  or\n  swap1\n  sstore\n  pop\n    /* \"contracts/Charity.sol\":345:433  constructor(address _charityAddress) {... */\n  pop\n    /* \"contracts/Charity.sol\":60:1258  contract Charity {... */\n  jump(tag_6)\n    /* \"#utility.yul\":88:205   */\ntag_8:\n    /* \"#utility.yul\":197:198   */\n  0x00\n    /* \"#utility.yul\":194:195   */\n  dup1\n    /* \"#utility.yul\":187:199   */\n  revert\n    /* \"#utility.yul\":334:460   */\ntag_10:\n    /* \"#utility.yul\":371:378   */\n  0x00\n    /* \"#utility.yul\":411:453   */\n  0xffffffffffffffffffffffffffffffffffffffff\n    /* \"#utility.yul\":404:409   */\n  dup3\n    /* \"#utility.yul\":400:454   */\n  and\n    /* \"#utility.yul\":389:454   */\n  swap1\n  pop\n    /* \"#utility.yul\":334:460   */\n  swap2\n  swap1\n  pop\n  jump\t// out\n    /* \"#utility.yul\":466:562   */\ntag_11:\n    /* \"#utility.yul\":503:510   */\n  0x00\n    /* \"#utility.yul\":532:556   */\n  tag_20\n    /* \"#utility.yul\":550:555   */\n  dup3\n    /* \"#utility.yul\":532:556   */\n  tag_10\n  jump\t// in\ntag_20:\n    /* \"#utility.yul\":521:556   */\n  swap1\n  pop\n    /* \"#utility.yul\":466:562   */\n  swap2\n  swap1\n  pop\n  jump\t// out\n    /* \"#utility.yul\":568:690   */\ntag_12:\n    /* \"#utility.yul\":641:665   */\n  tag_22\n    /* \"#utility.yul\":659:664   */\n  dup2\n    /* \"#utility.yul\":641:665   */\n  tag_11\n  jump\t// in\ntag_22:\n    /* \"#utility.yul\":634:639   */\n  dup2\n    /* \"#utility.yul\":631:666   */\n  eq\n    /* \"#utility.yul\":621:684   */\n  tag_23\n  jumpi\n    /* \"#utility.yul\":680:681   */\n  0x00\n    /* \"#utility.yul\":677:678   */\n  dup1\n    /* \"#utility.yul\":670:682   */\n  revert\n    /* \"#utility.yul\":621:684   */\ntag_23:\n    /* \"#utility.yul\":568:690   */\n  pop\n  jump\t// out\n    /* \"#utility.yul\":696:839   */\ntag_13:\n    /* \"#utility.yul\":753:758   */\n  0x00\n    /* \"#utility.yul\":784:790   */\n  dup2\n    /* \"#utility.yul\":778:791   */\n  mload\n    /* \"#utility.yul\":769:791   */\n  swap1\n  pop\n    /* \"#utility.yul\":800:833   */\n  tag_25\n    /* \"#utility.yul\":827:832   */\n  dup2\n    /* \"#utility.yul\":800:833   */\n  tag_12\n  jump\t// in\ntag_25:\n    /* \"#utility.yul\":696:839   */\n  swap3\n  swap2\n  pop\n  pop\n  jump\t// out\n    /* \"#utility.yul\":845:1196   */\ntag_3:\n    /* \"#utility.yul\":915:921   */\n  0x00\n    /* \"#utility.yul\":964:966   */\n  0x20\n    /* \"#utility.yul\":952:961   */\n  dup3\n    /* \"#utility.yul\":943:950   */\n  dup5\n    /* \"#utility.yul\":939:962   */\n  sub\n    /* \"#utility.yul\":935:967   */\n  slt\n    /* \"#utility.yul\":932:1051   */\n  iszero\n  tag_27\n  jumpi\n    /* \"#utility.yul\":970:1049   */\n  tag_28\n  tag_8\n  jump\t// in\ntag_28:\n    /* \"#utility.yul\":932:1051   */\ntag_27:\n    /* \"#utility.yul\":1090:1091   */\n  0x00\n    /* \"#utility.yul\":1115:1179   */\n  tag_29\n    /* \"#utility.yul\":1171:1178   */\n  dup5\n    /* \"#utility.yul\":1162:1168   */\n  dup3\n    /* \"#utility.yul\":1151:1160   */\n  dup6\n    /* \"#utility.yul\":1147:1169   */\n  add\n    /* \"#utility.yul\":1115:1179   */\n  tag_13\n  jump\t// in\ntag_29:\n    /* \"#utility.yul\":1105:1179   */\n  swap2\n  pop\n    /* \"#utility.yul\":1061:1189   */\n  pop\n    /* \"#utility.yul\":845:1196   */\n  swap3\n  swap2\n  pop\n  pop\n  jump\t// out\n    /* \"contracts/Charity.sol\":60:1258  contract Charity {... */\ntag_6:\n  dataSize(sub_0)\n  dup1\n  dataOffset(sub_0)\n  0x00\n  codecopy\n  0x00\n  return\nstop\n\nsub_0: assembly {\n        /* \"contracts/Charity.sol\":60:1258  contract Charity {... */\n      mstore(0x40, 0x80)\n      jumpi(tag_1, lt(calldatasize, 0x04))\n      shr(0xe0, calldataload(0x00))\n      dup1\n      0x2e1a7d4d\n      eq\n      tag_2\n      jumpi\n      dup1\n      0xafcf2fc4\n      eq\n      tag_3\n      jumpi\n      dup1\n      0xe25f8416\n      eq\n      tag_4\n      jumpi\n      dup1\n      0xe55a62a8\n      eq\n      tag_5\n      jumpi\n      dup1\n      0xed88c68e\n      eq\n      tag_6\n      jumpi\n      dup1\n      0xf8626af8\n      eq\n      tag_7\n      jumpi\n    tag_1:\n      0x00\n      dup1\n      revert\n        /* \"contracts/Charity.sol\":999:1255  function withdraw(uint256 amount) external {... */\n    tag_2:\n      callvalue\n      dup1\n      iszero\n      tag_8\n      jumpi\n      0x00\n      dup1\n      revert\n    tag_8:\n      pop\n      tag_9\n      0x04\n      dup1\n      calldatasize\n      sub\n      dup2\n      add\n      swap1\n      tag_10\n      swap2\n      swap1\n      tag_11\n      jump\t// in\n    tag_10:\n      tag_12\n      jump\t// in\n    tag_9:\n      stop\n        /* \"contracts/Charity.sol\":227:256  address public charityAddress */\n    tag_3:\n      callvalue\n      dup1\n      iszero\n      tag_13\n      jumpi\n      0x00\n      dup1\n      revert\n    tag_13:\n      pop\n      tag_14\n      tag_15\n      jump\t// in\n    tag_14:\n      mload(0x40)\n      tag_16\n      swap2\n      swap1\n      tag_17\n      jump\t// in\n    tag_16:\n      mload(0x40)\n      dup1\n      swap2\n      sub\n      swap1\n      return\n        /* \"contracts/Charity.sol\":890:991  function getDonations() external view returns (Donation[] memory) {... */\n    tag_4:\n      callvalue\n      dup1\n      iszero\n      tag_18\n      jumpi\n      0x00\n      dup1\n      revert\n    tag_18:\n      pop\n      tag_19\n      tag_20\n      jump\t// in\n    tag_19:\n      mload(0x40)\n      tag_21\n      swap2\n      swap1\n      tag_22\n      jump\t// in\n    tag_21:\n      mload(0x40)\n      dup1\n      swap2\n      sub\n      swap1\n      return\n        /* \"contracts/Charity.sol\":780:882  function getDonationCount() external view returns (uint256) {... */\n    tag_5:\n      callvalue\n      dup1\n      iszero\n      tag_23\n      jumpi\n      0x00\n      dup1\n      revert\n    tag_23:\n      pop\n      tag_24\n      tag_25\n      jump\t// in\n    tag_24:\n      mload(0x40)\n      tag_26\n      swap2\n      swap1\n      tag_27\n      jump\t// in\n    tag_26:\n      mload(0x40)\n      dup1\n      swap2\n      sub\n      swap1\n      return\n        /* \"contracts/Charity.sol\":441:772  function donate() external payable {... */\n    tag_6:\n      tag_28\n      tag_29\n      jump\t// in\n    tag_28:\n      stop\n        /* \"contracts/Charity.sol\":193:220  Donation[] public donations */\n    tag_7:\n      callvalue\n      dup1\n      iszero\n      tag_30\n      jumpi\n      0x00\n      dup1\n      revert\n    tag_30:\n      pop\n      tag_31\n      0x04\n      dup1\n      calldatasize\n      sub\n      dup2\n      add\n      swap1\n      tag_32\n      swap2\n      swap1\n      tag_11\n      jump\t// in\n    tag_32:\n      tag_33\n      jump\t// in\n    tag_31:\n      mload(0x40)\n      tag_34\n      swap4\n      swap3\n      swap2\n      swap1\n      tag_35\n      jump\t// in\n    tag_34:\n      mload(0x40)\n      dup1\n      swap2\n      sub\n      swap1\n      return\n        /* \"contracts/Charity.sol\":999:1255  function withdraw(uint256 amount) external {... */\n    tag_12:\n        /* \"contracts/Charity.sol\":1075:1089  charityAddress */\n      0x01\n      0x00\n      swap1\n      sload\n      swap1\n      0x0100\n      exp\n      swap1\n      div\n      0xffffffffffffffffffffffffffffffffffffffff\n      and\n        /* \"contracts/Charity.sol\":1061:1089  msg.sender == charityAddress */\n      0xffffffffffffffffffffffffffffffffffffffff\n      and\n        /* \"contracts/Charity.sol\":1061:1071  msg.sender */\n      caller\n        /* \"contracts/Charity.sol\":1061:1089  msg.sender == charityAddress */\n      0xffffffffffffffffffffffffffffffffffffffff\n      and\n      eq\n        /* \"contracts/Charity.sol\":1053:1119  require(msg.sender == charityAddress, \"Only charity can withdraw\") */\n      tag_37\n      jumpi\n      mload(0x40)\n      0x08c379a000000000000000000000000000000000000000000000000000000000\n      dup2\n      mstore\n      0x04\n      add\n      tag_38\n      swap1\n      tag_39\n      jump\t// in\n    tag_38:\n      mload(0x40)\n      dup1\n      swap2\n      sub\n      swap1\n      revert\n    tag_37:\n        /* \"contracts/Charity.sol\":1163:1169  amount */\n      dup1\n        /* \"contracts/Charity.sol\":1138:1159  address(this).balance */\n      selfbalance\n        /* \"contracts/Charity.sol\":1138:1169  address(this).balance >= amount */\n      lt\n      iszero\n        /* \"contracts/Charity.sol\":1130:1194  require(address(this).balance >= amount, \"Insufficient balance\") */\n      tag_40\n      jumpi\n      mload(0x40)\n      0x08c379a000000000000000000000000000000000000000000000000000000000\n      dup2\n      mstore\n      0x04\n      add\n      tag_41\n      swap1\n      tag_42\n      jump\t// in\n    tag_41:\n      mload(0x40)\n      dup1\n      swap2\n      sub\n      swap1\n      revert\n    tag_40:\n        /* \"contracts/Charity.sol\":1215:1229  charityAddress */\n      0x01\n      0x00\n      swap1\n      sload\n      swap1\n      0x0100\n      exp\n      swap1\n      div\n      0xffffffffffffffffffffffffffffffffffffffff\n      and\n        /* \"contracts/Charity.sol\":1207:1239  payable(charityAddress).transfer */\n      0xffffffffffffffffffffffffffffffffffffffff\n      and\n        /* \"contracts/Charity.sol\":1207:1247  payable(charityAddress).transfer(amount) */\n      0x08fc\n        /* \"contracts/Charity.sol\":1240:1246  amount */\n      dup3\n        /* \"contracts/Charity.sol\":1207:1247  payable(charityAddress).transfer(amount) */\n      swap1\n      dup2\n      iszero\n      mul\n      swap1\n      mload(0x40)\n      0x00\n      mload(0x40)\n      dup1\n      dup4\n      sub\n      dup2\n      dup6\n      dup9\n      dup9\n      call\n      swap4\n      pop\n      pop\n      pop\n      pop\n      iszero\n      dup1\n      iszero\n      tag_44\n      jumpi\n      returndatasize\n      0x00\n      dup1\n      returndatacopy\n      revert(0x00, returndatasize)\n    tag_44:\n      pop\n        /* \"contracts/Charity.sol\":999:1255  function withdraw(uint256 amount) external {... */\n      pop\n      jump\t// out\n        /* \"contracts/Charity.sol\":227:256  address public charityAddress */\n    tag_15:\n      0x01\n      0x00\n      swap1\n      sload\n      swap1\n      0x0100\n      exp\n      swap1\n      div\n      0xffffffffffffffffffffffffffffffffffffffff\n      and\n      dup2\n      jump\t// out\n        /* \"contracts/Charity.sol\":890:991  function getDonations() external view returns (Donation[] memory) {... */\n    tag_20:\n        /* \"contracts/Charity.sol\":937:954  Donation[] memory */\n      0x60\n        /* \"contracts/Charity.sol\":974:983  donations */\n      0x00\n        /* \"contracts/Charity.sol\":967:983  return donations */\n      dup1\n      sload\n      dup1\n      0x20\n      mul\n      0x20\n      add\n      mload(0x40)\n      swap1\n      dup2\n      add\n      0x40\n      mstore\n      dup1\n      swap3\n      swap2\n      swap1\n      dup2\n      dup2\n      mstore\n      0x20\n      add\n      0x00\n      swap1\n    tag_46:\n      dup3\n      dup3\n      lt\n      iszero\n      tag_47\n      jumpi\n      dup4\n      dup3\n      swap1\n      0x00\n      mstore\n      keccak256(0x00, 0x20)\n      swap1\n      0x03\n      mul\n      add\n      mload(0x40)\n      dup1\n      0x60\n      add\n      0x40\n      mstore\n      swap1\n      dup2\n      0x00\n      dup3\n      add\n      0x00\n      swap1\n      sload\n      swap1\n      0x0100\n      exp\n      swap1\n      div\n      0xffffffffffffffffffffffffffffffffffffffff\n      and\n      0xffffffffffffffffffffffffffffffffffffffff\n      and\n      0xffffffffffffffffffffffffffffffffffffffff\n      and\n      dup2\n      mstore\n      0x20\n      add\n      0x01\n      dup3\n      add\n      sload\n      dup2\n      mstore\n      0x20\n      add\n      0x02\n      dup3\n      add\n      sload\n      dup2\n      mstore\n      pop\n      pop\n      dup2\n      mstore\n      0x20\n      add\n      swap1\n      0x01\n      add\n      swap1\n      jump(tag_46)\n    tag_47:\n      pop\n      pop\n      pop\n      pop\n      swap1\n      pop\n        /* \"contracts/Charity.sol\":890:991  function getDonations() external view returns (Donation[] memory) {... */\n      swap1\n      jump\t// out\n        /* \"contracts/Charity.sol\":780:882  function getDonationCount() external view returns (uint256) {... */\n    tag_25:\n        /* \"contracts/Charity.sol\":831:838  uint256 */\n      0x00\n        /* \"contracts/Charity.sol\":858:867  donations */\n      dup1\n        /* \"contracts/Charity.sol\":858:874  donations.length */\n      dup1\n      sload\n      swap1\n      pop\n        /* \"contracts/Charity.sol\":851:874  return donations.length */\n      swap1\n      pop\n        /* \"contracts/Charity.sol\":780:882  function getDonationCount() external view returns (uint256) {... */\n      swap1\n      jump\t// out\n        /* \"contracts/Charity.sol\":441:772  function donate() external payable {... */\n    tag_29:\n        /* \"contracts/Charity.sol\":507:508  0 */\n      0x00\n        /* \"contracts/Charity.sol\":495:504  msg.value */\n      callvalue\n        /* \"contracts/Charity.sol\":495:508  msg.value > 0 */\n      gt\n        /* \"contracts/Charity.sol\":487:544  require(msg.value > 0, \"Donation must be greater than 0\") */\n      tag_51\n      jumpi\n      mload(0x40)\n      0x08c379a000000000000000000000000000000000000000000000000000000000\n      dup2\n      mstore\n      0x04\n      add\n      tag_52\n      swap1\n      tag_53\n      jump\t// in\n    tag_52:\n      mload(0x40)\n      dup1\n      swap2\n      sub\n      swap1\n      revert\n    tag_51:\n        /* \"contracts/Charity.sol\":557:566  donations */\n      0x00\n        /* \"contracts/Charity.sol\":572:698  Donation({... */\n      mload(0x40)\n      dup1\n      0x60\n      add\n      0x40\n      mstore\n      dup1\n        /* \"contracts/Charity.sol\":603:613  msg.sender */\n      caller\n        /* \"contracts/Charity.sol\":572:698  Donation({... */\n      0xffffffffffffffffffffffffffffffffffffffff\n      and\n      dup2\n      mstore\n      0x20\n      add\n        /* \"contracts/Charity.sol\":636:645  msg.value */\n      callvalue\n        /* \"contracts/Charity.sol\":572:698  Donation({... */\n      dup2\n      mstore\n      0x20\n      add\n        /* \"contracts/Charity.sol\":671:686  block.timestamp */\n      timestamp\n        /* \"contracts/Charity.sol\":572:698  Donation({... */\n      dup2\n      mstore\n      pop\n        /* \"contracts/Charity.sol\":557:699  donations.push(Donation({... */\n      swap1\n      dup1\n      0x01\n      dup2\n      sload\n      add\n      dup1\n      dup3\n      sstore\n      dup1\n      swap2\n      pop\n      pop\n      0x01\n      swap1\n      sub\n      swap1\n      0x00\n      mstore\n      keccak256(0x00, 0x20)\n      swap1\n      0x03\n      mul\n      add\n      0x00\n      swap1\n      swap2\n      swap1\n      swap2\n      swap1\n      swap2\n      pop\n      0x00\n      dup3\n      add\n      mload\n      dup2\n      0x00\n      add\n      exp(0x0100, 0x00)\n      dup2\n      sload\n      dup2\n      0xffffffffffffffffffffffffffffffffffffffff\n      mul\n      not\n      and\n      swap1\n      dup4\n      0xffffffffffffffffffffffffffffffffffffffff\n      and\n      mul\n      or\n      swap1\n      sstore\n      pop\n      0x20\n      dup3\n      add\n      mload\n      dup2\n      0x01\n      add\n      sstore\n      0x40\n      dup3\n      add\n      mload\n      dup2\n      0x02\n      add\n      sstore\n      pop\n      pop\n        /* \"contracts/Charity.sol\":725:735  msg.sender */\n      caller\n        /* \"contracts/Charity.sol\":717:764  Donated(msg.sender, msg.value, block.timestamp) */\n      0xffffffffffffffffffffffffffffffffffffffff\n      and\n      0x4928895ba6723e8e27b15f32e4c3054a1b6c7f8c03f133558d6fa42b3928d14c\n        /* \"contracts/Charity.sol\":737:746  msg.value */\n      callvalue\n        /* \"contracts/Charity.sol\":748:763  block.timestamp */\n      timestamp\n        /* \"contracts/Charity.sol\":717:764  Donated(msg.sender, msg.value, block.timestamp) */\n      mload(0x40)\n      tag_55\n      swap3\n      swap2\n      swap1\n      tag_56\n      jump\t// in\n    tag_55:\n      mload(0x40)\n      dup1\n      swap2\n      sub\n      swap1\n      log2\n        /* \"contracts/Charity.sol\":441:772  function donate() external payable {... */\n      jump\t// out\n        /* \"contracts/Charity.sol\":193:220  Donation[] public donations */\n    tag_33:\n      0x00\n      dup2\n      dup2\n      sload\n      dup2\n      lt\n      tag_57\n      jumpi\n      0x00\n      dup1\n      revert\n    tag_57:\n      swap1\n      0x00\n      mstore\n      keccak256(0x00, 0x20)\n      swap1\n      0x03\n      mul\n      add\n      0x00\n      swap2\n      pop\n      swap1\n      pop\n      dup1\n      0x00\n      add\n      0x00\n      swap1\n      sload\n      swap1\n      0x0100\n      exp\n      swap1\n      div\n      0xffffffffffffffffffffffffffffffffffffffff\n      and\n      swap1\n      dup1\n      0x01\n      add\n      sload\n      swap1\n      dup1\n      0x02\n      add\n      sload\n      swap1\n      pop\n      dup4\n      jump\t// out\n        /* \"#utility.yul\":88:205   */\n    tag_60:\n        /* \"#utility.yul\":197:198   */\n      0x00\n        /* \"#utility.yul\":194:195   */\n      dup1\n        /* \"#utility.yul\":187:199   */\n      revert\n        /* \"#utility.yul\":334:411   */\n    tag_62:\n        /* \"#utility.yul\":371:378   */\n      0x00\n        /* \"#utility.yul\":400:405   */\n      dup2\n        /* \"#utility.yul\":389:405   */\n      swap1\n      pop\n        /* \"#utility.yul\":334:411   */\n      swap2\n      swap1\n      pop\n      jump\t// out\n        /* \"#utility.yul\":417:539   */\n    tag_63:\n        /* \"#utility.yul\":490:514   */\n      tag_91\n        /* \"#utility.yul\":508:513   */\n      dup2\n        /* \"#utility.yul\":490:514   */\n      tag_62\n      jump\t// in\n    tag_91:\n        /* \"#utility.yul\":483:488   */\n      dup2\n        /* \"#utility.yul\":480:515   */\n      eq\n        /* \"#utility.yul\":470:533   */\n      tag_92\n      jumpi\n        /* \"#utility.yul\":529:530   */\n      0x00\n        /* \"#utility.yul\":526:527   */\n      dup1\n        /* \"#utility.yul\":519:531   */\n      revert\n        /* \"#utility.yul\":470:533   */\n    tag_92:\n        /* \"#utility.yul\":417:539   */\n      pop\n      jump\t// out\n        /* \"#utility.yul\":545:684   */\n    tag_64:\n        /* \"#utility.yul\":591:596   */\n      0x00\n        /* \"#utility.yul\":629:635   */\n      dup2\n        /* \"#utility.yul\":616:636   */\n      calldataload\n        /* \"#utility.yul\":607:636   */\n      swap1\n      pop\n        /* \"#utility.yul\":645:678   */\n      tag_94\n        /* \"#utility.yul\":672:677   */\n      dup2\n        /* \"#utility.yul\":645:678   */\n      tag_63\n      jump\t// in\n    tag_94:\n        /* \"#utility.yul\":545:684   */\n      swap3\n      swap2\n      pop\n      pop\n      jump\t// out\n        /* \"#utility.yul\":690:1019   */\n    tag_11:\n        /* \"#utility.yul\":749:755   */\n      0x00\n        /* \"#utility.yul\":798:800   */\n      0x20\n        /* \"#utility.yul\":786:795   */\n      dup3\n        /* \"#utility.yul\":777:784   */\n      dup5\n        /* \"#utility.yul\":773:796   */\n      sub\n        /* \"#utility.yul\":769:801   */\n      slt\n        /* \"#utility.yul\":766:885   */\n      iszero\n      tag_96\n      jumpi\n        /* \"#utility.yul\":804:883   */\n      tag_97\n      tag_60\n      jump\t// in\n    tag_97:\n        /* \"#utility.yul\":766:885   */\n    tag_96:\n        /* \"#utility.yul\":924:925   */\n      0x00\n        /* \"#utility.yul\":949:1002   */\n      tag_98\n        /* \"#utility.yul\":994:1001   */\n      dup5\n        /* \"#utility.yul\":985:991   */\n      dup3\n        /* \"#utility.yul\":974:983   */\n      dup6\n        /* \"#utility.yul\":970:992   */\n      add\n        /* \"#utility.yul\":949:1002   */\n      tag_64\n      jump\t// in\n    tag_98:\n        /* \"#utility.yul\":939:1002   */\n      swap2\n      pop\n        /* \"#utility.yul\":895:1012   */\n      pop\n        /* \"#utility.yul\":690:1019   */\n      swap3\n      swap2\n      pop\n      pop\n      jump\t// out\n        /* \"#utility.yul\":1025:1151   */\n    tag_65:\n        /* \"#utility.yul\":1062:1069   */\n      0x00\n        /* \"#utility.yul\":1102:1144   */\n      0xffffffffffffffffffffffffffffffffffffffff\n        /* \"#utility.yul\":1095:1100   */\n      dup3\n        /* \"#utility.yul\":1091:1145   */\n      and\n        /* \"#utility.yul\":1080:1145   */\n      swap1\n      pop\n        /* \"#utility.yul\":1025:1151   */\n      swap2\n      swap1\n      pop\n      jump\t// out\n        /* \"#utility.yul\":1157:1253   */\n    tag_66:\n        /* \"#utility.yul\":1194:1201   */\n      0x00\n        /* \"#utility.yul\":1223:1247   */\n      tag_101\n        /* \"#utility.yul\":1241:1246   */\n      dup3\n        /* \"#utility.yul\":1223:1247   */\n      tag_65\n      jump\t// in\n    tag_101:\n        /* \"#utility.yul\":1212:1247   */\n      swap1\n      pop\n        /* \"#utility.yul\":1157:1253   */\n      swap2\n      swap1\n      pop\n      jump\t// out\n        /* \"#utility.yul\":1259:1377   */\n    tag_67:\n        /* \"#utility.yul\":1346:1370   */\n      tag_103\n        /* \"#utility.yul\":1364:1369   */\n      dup2\n        /* \"#utility.yul\":1346:1370   */\n      tag_66\n      jump\t// in\n    tag_103:\n        /* \"#utility.yul\":1341:1344   */\n      dup3\n        /* \"#utility.yul\":1334:1371   */\n      mstore\n        /* \"#utility.yul\":1259:1377   */\n      pop\n      pop\n      jump\t// out\n        /* \"#utility.yul\":1383:1605   */\n    tag_17:\n        /* \"#utility.yul\":1476:1480   */\n      0x00\n        /* \"#utility.yul\":1514:1516   */\n      0x20\n        /* \"#utility.yul\":1503:1512   */\n      dup3\n        /* \"#utility.yul\":1499:1517   */\n      add\n        /* \"#utility.yul\":1491:1517   */\n      swap1\n      pop\n        /* \"#utility.yul\":1527:1598   */\n      tag_105\n        /* \"#utility.yul\":1595:1596   */\n      0x00\n        /* \"#utility.yul\":1584:1593   */\n      dup4\n        /* \"#utility.yul\":1580:1597   */\n      add\n        /* \"#utility.yul\":1571:1577   */\n      dup5\n        /* \"#utility.yul\":1527:1598   */\n      tag_67\n      jump\t// in\n    tag_105:\n        /* \"#utility.yul\":1383:1605   */\n      swap3\n      swap2\n      pop\n      pop\n      jump\t// out\n        /* \"#utility.yul\":1611:1748   */\n    tag_68:\n        /* \"#utility.yul\":1701:1707   */\n      0x00\n        /* \"#utility.yul\":1735:1740   */\n      dup2\n        /* \"#utility.yul\":1729:1741   */\n      mload\n        /* \"#utility.yul\":1719:1741   */\n      swap1\n      pop\n        /* \"#utility.yul\":1611:1748   */\n      swap2\n      swap1\n      pop\n      jump\t// out\n        /* \"#utility.yul\":1754:1961   */\n    tag_69:\n        /* \"#utility.yul\":1876:1887   */\n      0x00\n        /* \"#utility.yul\":1910:1916   */\n      dup3\n        /* \"#utility.yul\":1905:1908   */\n      dup3\n        /* \"#utility.yul\":1898:1917   */\n      mstore\n        /* \"#utility.yul\":1950:1954   */\n      0x20\n        /* \"#utility.yul\":1945:1948   */\n      dup3\n        /* \"#utility.yul\":1941:1955   */\n      add\n        /* \"#utility.yul\":1926:1955   */\n      swap1\n      pop\n        /* \"#utility.yul\":1754:1961   */\n      swap3\n      swap2\n      pop\n      pop\n      jump\t// out\n        /* \"#utility.yul\":1967:2122   */\n    tag_70:\n        /* \"#utility.yul\":2057:2061   */\n      0x00\n        /* \"#utility.yul\":2080:2083   */\n      dup2\n        /* \"#utility.yul\":2072:2083   */\n      swap1\n      pop\n        /* \"#utility.yul\":2110:2114   */\n      0x20\n        /* \"#utility.yul\":2105:2108   */\n      dup3\n        /* \"#utility.yul\":2101:2115   */\n      add\n        /* \"#utility.yul\":2093:2115   */\n      swap1\n      pop\n        /* \"#utility.yul\":1967:2122   */\n      swap2\n      swap1\n      pop\n      jump\t// out\n        /* \"#utility.yul\":2128:2236   */\n    tag_71:\n        /* \"#utility.yul\":2205:2229   */\n      tag_110\n        /* \"#utility.yul\":2223:2228   */\n      dup2\n        /* \"#utility.yul\":2205:2229   */\n      tag_66\n      jump\t// in\n    tag_110:\n        /* \"#utility.yul\":2200:2203   */\n      dup3\n        /* \"#utility.yul\":2193:2230   */\n      mstore\n        /* \"#utility.yul\":2128:2236   */\n      pop\n      pop\n      jump\t// out\n        /* \"#utility.yul\":2242:2350   */\n    tag_72:\n        /* \"#utility.yul\":2319:2343   */\n      tag_112\n        /* \"#utility.yul\":2337:2342   */\n      dup2\n        /* \"#utility.yul\":2319:2343   */\n      tag_62\n      jump\t// in\n    tag_112:\n        /* \"#utility.yul\":2314:2317   */\n      dup3\n        /* \"#utility.yul\":2307:2344   */\n      mstore\n        /* \"#utility.yul\":2242:2350   */\n      pop\n      pop\n      jump\t// out\n        /* \"#utility.yul\":2414:3089   */\n    tag_73:\n        /* \"#utility.yul\":2547:2551   */\n      0x60\n        /* \"#utility.yul\":2542:2545   */\n      dup3\n        /* \"#utility.yul\":2538:2552   */\n      add\n        /* \"#utility.yul\":2635:2639   */\n      0x00\n        /* \"#utility.yul\":2628:2633   */\n      dup3\n        /* \"#utility.yul\":2624:2640   */\n      add\n        /* \"#utility.yul\":2618:2641   */\n      mload\n        /* \"#utility.yul\":2654:2717   */\n      tag_114\n        /* \"#utility.yul\":2711:2715   */\n      0x00\n        /* \"#utility.yul\":2706:2709   */\n      dup6\n        /* \"#utility.yul\":2702:2716   */\n      add\n        /* \"#utility.yul\":2688:2700   */\n      dup3\n        /* \"#utility.yul\":2654:2717   */\n      tag_71\n      jump\t// in\n    tag_114:\n        /* \"#utility.yul\":2562:2727   */\n      pop\n        /* \"#utility.yul\":2811:2815   */\n      0x20\n        /* \"#utility.yul\":2804:2809   */\n      dup3\n        /* \"#utility.yul\":2800:2816   */\n      add\n        /* \"#utility.yul\":2794:2817   */\n      mload\n        /* \"#utility.yul\":2830:2893   */\n      tag_115\n        /* \"#utility.yul\":2887:2891   */\n      0x20\n        /* \"#utility.yul\":2882:2885   */\n      dup6\n        /* \"#utility.yul\":2878:2892   */\n      add\n        /* \"#utility.yul\":2864:2876   */\n      dup3\n        /* \"#utility.yul\":2830:2893   */\n      tag_72\n      jump\t// in\n    tag_115:\n        /* \"#utility.yul\":2737:2903   */\n      pop\n        /* \"#utility.yul\":2990:2994   */\n      0x40\n        /* \"#utility.yul\":2983:2988   */\n      dup3\n        /* \"#utility.yul\":2979:2995   */\n      add\n        /* \"#utility.yul\":2973:2996   */\n      mload\n        /* \"#utility.yul\":3009:3072   */\n      tag_116\n        /* \"#utility.yul\":3066:3070   */\n      0x40\n        /* \"#utility.yul\":3061:3064   */\n      dup6\n        /* \"#utility.yul\":3057:3071   */\n      add\n        /* \"#utility.yul\":3043:3055   */\n      dup3\n        /* \"#utility.yul\":3009:3072   */\n      tag_72\n      jump\t// in\n    tag_116:\n        /* \"#utility.yul\":2913:3082   */\n      pop\n        /* \"#utility.yul\":2516:3089   */\n      pop\n        /* \"#utility.yul\":2414:3089   */\n      pop\n      pop\n      jump\t// out\n        /* \"#utility.yul\":3095:3366   */\n    tag_74:\n        /* \"#utility.yul\":3210:3220   */\n      0x00\n        /* \"#utility.yul\":3231:3323   */\n      tag_118\n        /* \"#utility.yul\":3319:3322   */\n      dup4\n        /* \"#utility.yul\":3311:3317   */\n      dup4\n        /* \"#utility.yul\":3231:3323   */\n      tag_73\n      jump\t// in\n    tag_118:\n        /* \"#utility.yul\":3355:3359   */\n      0x60\n        /* \"#utility.yul\":3350:3353   */\n      dup4\n        /* \"#utility.yul\":3346:3360   */\n      add\n        /* \"#utility.yul\":3332:3360   */\n      swap1\n      pop\n        /* \"#utility.yul\":3095:3366   */\n      swap3\n      swap2\n      pop\n      pop\n      jump\t// out\n        /* \"#utility.yul\":3372:3508   */\n    tag_75:\n        /* \"#utility.yul\":3465:3469   */\n      0x00\n        /* \"#utility.yul\":3497:3501   */\n      0x20\n        /* \"#utility.yul\":3492:3495   */\n      dup3\n        /* \"#utility.yul\":3488:3502   */\n      add\n        /* \"#utility.yul\":3480:3502   */\n      swap1\n      pop\n        /* \"#utility.yul\":3372:3508   */\n      swap2\n      swap1\n      pop\n      jump\t// out\n        /* \"#utility.yul\":3576:4492   */\n    tag_76:\n        /* \"#utility.yul\":3741:3744   */\n      0x00\n        /* \"#utility.yul\":3770:3847   */\n      tag_121\n        /* \"#utility.yul\":3841:3846   */\n      dup3\n        /* \"#utility.yul\":3770:3847   */\n      tag_68\n      jump\t// in\n    tag_121:\n        /* \"#utility.yul\":3863:3972   */\n      tag_122\n        /* \"#utility.yul\":3965:3971   */\n      dup2\n        /* \"#utility.yul\":3960:3963   */\n      dup6\n        /* \"#utility.yul\":3863:3972   */\n      tag_69\n      jump\t// in\n    tag_122:\n        /* \"#utility.yul\":3856:3972   */\n      swap4\n      pop\n        /* \"#utility.yul\":3996:4075   */\n      tag_123\n        /* \"#utility.yul\":4069:4074   */\n      dup4\n        /* \"#utility.yul\":3996:4075   */\n      tag_70\n      jump\t// in\n    tag_123:\n        /* \"#utility.yul\":4098:4105   */\n      dup1\n        /* \"#utility.yul\":4129:4130   */\n      0x00\n        /* \"#utility.yul\":4114:4467   */\n    tag_124:\n        /* \"#utility.yul\":4139:4145   */\n      dup4\n        /* \"#utility.yul\":4136:4137   */\n      dup2\n        /* \"#utility.yul\":4133:4146   */\n      lt\n        /* \"#utility.yul\":4114:4467   */\n      iszero\n      tag_126\n      jumpi\n        /* \"#utility.yul\":4215:4221   */\n      dup2\n        /* \"#utility.yul\":4209:4222   */\n      mload\n        /* \"#utility.yul\":4242:4351   */\n      tag_127\n        /* \"#utility.yul\":4347:4350   */\n      dup9\n        /* \"#utility.yul\":4332:4345   */\n      dup3\n        /* \"#utility.yul\":4242:4351   */\n      tag_74\n      jump\t// in\n    tag_127:\n        /* \"#utility.yul\":4235:4351   */\n      swap8\n      pop\n        /* \"#utility.yul\":4374:4457   */\n      tag_128\n        /* \"#utility.yul\":4450:4456   */\n      dup4\n        /* \"#utility.yul\":4374:4457   */\n      tag_75\n      jump\t// in\n    tag_128:\n        /* \"#utility.yul\":4364:4457   */\n      swap3\n      pop\n        /* \"#utility.yul\":4174:4467   */\n      pop\n        /* \"#utility.yul\":4161:4162   */\n      0x01\n        /* \"#utility.yul\":4158:4159   */\n      dup2\n        /* \"#utility.yul\":4154:4163   */\n      add\n        /* \"#utility.yul\":4149:4163   */\n      swap1\n      pop\n        /* \"#utility.yul\":4114:4467   */\n      jump(tag_124)\n    tag_126:\n        /* \"#utility.yul\":4118:4132   */\n      pop\n        /* \"#utility.yul\":4483:4486   */\n      dup6\n        /* \"#utility.yul\":4476:4486   */\n      swap4\n      pop\n        /* \"#utility.yul\":3746:4492   */\n      pop\n      pop\n      pop\n        /* \"#utility.yul\":3576:4492   */\n      swap3\n      swap2\n      pop\n      pop\n      jump\t// out\n        /* \"#utility.yul\":4498:4963   */\n    tag_22:\n        /* \"#utility.yul\":4687:4691   */\n      0x00\n        /* \"#utility.yul\":4725:4727   */\n      0x20\n        /* \"#utility.yul\":4714:4723   */\n      dup3\n        /* \"#utility.yul\":4710:4728   */\n      add\n        /* \"#utility.yul\":4702:4728   */\n      swap1\n      pop\n        /* \"#utility.yul\":4774:4783   */\n      dup2\n        /* \"#utility.yul\":4768:4772   */\n      dup2\n        /* \"#utility.yul\":4764:4784   */\n      sub\n        /* \"#utility.yul\":4760:4761   */\n      0x00\n        /* \"#utility.yul\":4749:4758   */\n      dup4\n        /* \"#utility.yul\":4745:4762   */\n      add\n        /* \"#utility.yul\":4738:4785   */\n      mstore\n        /* \"#utility.yul\":4802:4956   */\n      tag_130\n        /* \"#utility.yul\":4951:4955   */\n      dup2\n        /* \"#utility.yul\":4942:4948   */\n      dup5\n        /* \"#utility.yul\":4802:4956   */\n      tag_76\n      jump\t// in\n    tag_130:\n        /* \"#utility.yul\":4794:4956   */\n      swap1\n      pop\n        /* \"#utility.yul\":4498:4963   */\n      swap3\n      swap2\n      pop\n      pop\n      jump\t// out\n        /* \"#utility.yul\":4969:5087   */\n    tag_77:\n        /* \"#utility.yul\":5056:5080   */\n      tag_132\n        /* \"#utility.yul\":5074:5079   */\n      dup2\n        /* \"#utility.yul\":5056:5080   */\n      tag_62\n      jump\t// in\n    tag_132:\n        /* \"#utility.yul\":5051:5054   */\n      dup3\n        /* \"#utility.yul\":5044:5081   */\n      mstore\n        /* \"#utility.yul\":4969:5087   */\n      pop\n      pop\n      jump\t// out\n        /* \"#utility.yul\":5093:5315   */\n    tag_27:\n        /* \"#utility.yul\":5186:5190   */\n      0x00\n        /* \"#utility.yul\":5224:5226   */\n      0x20\n        /* \"#utility.yul\":5213:5222   */\n      dup3\n        /* \"#utility.yul\":5209:5227   */\n      add\n        /* \"#utility.yul\":5201:5227   */\n      swap1\n      pop\n        /* \"#utility.yul\":5237:5308   */\n      tag_134\n        /* \"#utility.yul\":5305:5306   */\n      0x00\n        /* \"#utility.yul\":5294:5303   */\n      dup4\n        /* \"#utility.yul\":5290:5307   */\n      add\n        /* \"#utility.yul\":5281:5287   */\n      dup5\n        /* \"#utility.yul\":5237:5308   */\n      tag_77\n      jump\t// in\n    tag_134:\n        /* \"#utility.yul\":5093:5315   */\n      swap3\n      swap2\n      pop\n      pop\n      jump\t// out\n        /* \"#utility.yul\":5321:5763   */\n    tag_35:\n        /* \"#utility.yul\":5470:5474   */\n      0x00\n        /* \"#utility.yul\":5508:5510   */\n      0x60\n        /* \"#utility.yul\":5497:5506   */\n      dup3\n        /* \"#utility.yul\":5493:5511   */\n      add\n        /* \"#utility.yul\":5485:5511   */\n      swap1\n      pop\n        /* \"#utility.yul\":5521:5592   */\n      tag_136\n        /* \"#utility.yul\":5589:5590   */\n      0x00\n        /* \"#utility.yul\":5578:5587   */\n      dup4\n        /* \"#utility.yul\":5574:5591   */\n      add\n        /* \"#utility.yul\":5565:5571   */\n      dup7\n        /* \"#utility.yul\":5521:5592   */\n      tag_67\n      jump\t// in\n    tag_136:\n        /* \"#utility.yul\":5602:5674   */\n      tag_137\n        /* \"#utility.yul\":5670:5672   */\n      0x20\n        /* \"#utility.yul\":5659:5668   */\n      dup4\n        /* \"#utility.yul\":5655:5673   */\n      add\n        /* \"#utility.yul\":5646:5652   */\n      dup6\n        /* \"#utility.yul\":5602:5674   */\n      tag_77\n      jump\t// in\n    tag_137:\n        /* \"#utility.yul\":5684:5756   */\n      tag_138\n        /* \"#utility.yul\":5752:5754   */\n      0x40\n        /* \"#utility.yul\":5741:5750   */\n      dup4\n        /* \"#utility.yul\":5737:5755   */\n      add\n        /* \"#utility.yul\":5728:5734   */\n      dup5\n        /* \"#utility.yul\":5684:5756   */\n      tag_77\n      jump\t// in\n    tag_138:\n        /* \"#utility.yul\":5321:5763   */\n      swap5\n      swap4\n      pop\n      pop\n      pop\n      pop\n      jump\t// out\n        /* \"#utility.yul\":5769:5938   */\n    tag_78:\n        /* \"#utility.yul\":5853:5864   */\n      0x00\n        /* \"#utility.yul\":5887:5893   */\n      dup3\n        /* \"#utility.yul\":5882:5885   */\n      dup3\n        /* \"#utility.yul\":5875:5894   */\n      mstore\n        /* \"#utility.yul\":5927:5931   */\n      0x20\n        /* \"#utility.yul\":5922:5925   */\n      dup3\n        /* \"#utility.yul\":5918:5932   */\n      add\n        /* \"#utility.yul\":5903:5932   */\n      swap1\n      pop\n        /* \"#utility.yul\":5769:5938   */\n      swap3\n      swap2\n      pop\n      pop\n      jump\t// out\n        /* \"#utility.yul\":5944:6119   */\n    tag_79:\n        /* \"#utility.yul\":6084:6111   */\n      0x4f6e6c7920636861726974792063616e20776974686472617700000000000000\n        /* \"#utility.yul\":6080:6081   */\n      0x00\n        /* \"#utility.yul\":6072:6078   */\n      dup3\n        /* \"#utility.yul\":6068:6082   */\n      add\n        /* \"#utility.yul\":6061:6112   */\n      mstore\n        /* \"#utility.yul\":5944:6119   */\n      pop\n      jump\t// out\n        /* \"#utility.yul\":6125:6491   */\n    tag_80:\n        /* \"#utility.yul\":6267:6270   */\n      0x00\n        /* \"#utility.yul\":6288:6355   */\n      tag_142\n        /* \"#utility.yul\":6352:6354   */\n      0x19\n        /* \"#utility.yul\":6347:6350   */\n      dup4\n        /* \"#utility.yul\":6288:6355   */\n      tag_78\n      jump\t// in\n    tag_142:\n        /* \"#utility.yul\":6281:6355   */\n      swap2\n      pop\n        /* \"#utility.yul\":6364:6457   */\n      tag_143\n        /* \"#utility.yul\":6453:6456   */\n      dup3\n        /* \"#utility.yul\":6364:6457   */\n      tag_79\n      jump\t// in\n    tag_143:\n        /* \"#utility.yul\":6482:6484   */\n      0x20\n        /* \"#utility.yul\":6477:6480   */\n      dup3\n        /* \"#utility.yul\":6473:6485   */\n      add\n        /* \"#utility.yul\":6466:6485   */\n      swap1\n      pop\n        /* \"#utility.yul\":6125:6491   */\n      swap2\n      swap1\n      pop\n      jump\t// out\n        /* \"#utility.yul\":6497:6916   */\n    tag_39:\n        /* \"#utility.yul\":6663:6667   */\n      0x00\n        /* \"#utility.yul\":6701:6703   */\n      0x20\n        /* \"#utility.yul\":6690:6699   */\n      dup3\n        /* \"#utility.yul\":6686:6704   */\n      add\n        /* \"#utility.yul\":6678:6704   */\n      swap1\n      pop\n        /* \"#utility.yul\":6750:6759   */\n      dup2\n        /* \"#utility.yul\":6744:6748   */\n      dup2\n        /* \"#utility.yul\":6740:6760   */\n      sub\n        /* \"#utility.yul\":6736:6737   */\n      0x00\n        /* \"#utility.yul\":6725:6734   */\n      dup4\n        /* \"#utility.yul\":6721:6738   */\n      add\n        /* \"#utility.yul\":6714:6761   */\n      mstore\n        /* \"#utility.yul\":6778:6909   */\n      tag_145\n        /* \"#utility.yul\":6904:6908   */\n      dup2\n        /* \"#utility.yul\":6778:6909   */\n      tag_80\n      jump\t// in\n    tag_145:\n        /* \"#utility.yul\":6770:6909   */\n      swap1\n      pop\n        /* \"#utility.yul\":6497:6916   */\n      swap2\n      swap1\n      pop\n      jump\t// out\n        /* \"#utility.yul\":6922:7092   */\n    tag_81:\n        /* \"#utility.yul\":7062:7084   */\n      0x496e73756666696369656e742062616c616e6365000000000000000000000000\n        /* \"#utility.yul\":7058:7059   */\n      0x00\n        /* \"#utility.yul\":7050:7056   */\n      dup3\n        /* \"#utility.yul\":7046:7060   */\n      add\n        /* \"#utility.yul\":7039:7085   */\n      mstore\n        /* \"#utility.yul\":6922:7092   */\n      pop\n      jump\t// out\n        /* \"#utility.yul\":7098:7464   */\n    tag_82:\n        /* \"#utility.yul\":7240:7243   */\n      0x00\n        /* \"#utility.yul\":7261:7328   */\n      tag_148\n        /* \"#utility.yul\":7325:7327   */\n      0x14\n        /* \"#utility.yul\":7320:7323   */\n      dup4\n        /* \"#utility.yul\":7261:7328   */\n      tag_78\n      jump\t// in\n    tag_148:\n        /* \"#utility.yul\":7254:7328   */\n      swap2\n      pop\n        /* \"#utility.yul\":7337:7430   */\n      tag_149\n        /* \"#utility.yul\":7426:7429   */\n      dup3\n        /* \"#utility.yul\":7337:7430   */\n      tag_81\n      jump\t// in\n    tag_149:\n        /* \"#utility.yul\":7455:7457   */\n      0x20\n        /* \"#utility.yul\":7450:7453   */\n      dup3\n        /* \"#utility.yul\":7446:7458   */\n      add\n        /* \"#utility.yul\":7439:7458   */\n      swap1\n      pop\n        /* \"#utility.yul\":7098:7464   */\n      swap2\n      swap1\n      pop\n      jump\t// out\n        /* \"#utility.yul\":7470:7889   */\n    tag_42:\n        /* \"#utility.yul\":7636:7640   */\n      0x00\n        /* \"#utility.yul\":7674:7676   */\n      0x20\n        /* \"#utility.yul\":7663:7672   */\n      dup3\n        /* \"#utility.yul\":7659:7677   */\n      add\n        /* \"#utility.yul\":7651:7677   */\n      swap1\n      pop\n        /* \"#utility.yul\":7723:7732   */\n      dup2\n        /* \"#utility.yul\":7717:7721   */\n      dup2\n        /* \"#utility.yul\":7713:7733   */\n      sub\n        /* \"#utility.yul\":7709:7710   */\n      0x00\n        /* \"#utility.yul\":7698:7707   */\n      dup4\n        /* \"#utility.yul\":7694:7711   */\n      add\n        /* \"#utility.yul\":7687:7734   */\n      mstore\n        /* \"#utility.yul\":7751:7882   */\n      tag_151\n        /* \"#utility.yul\":7877:7881   */\n      dup2\n        /* \"#utility.yul\":7751:7882   */\n      tag_82\n      jump\t// in\n    tag_151:\n        /* \"#utility.yul\":7743:7882   */\n      swap1\n      pop\n        /* \"#utility.yul\":7470:7889   */\n      swap2\n      swap1\n      pop\n      jump\t// out\n        /* \"#utility.yul\":7895:8076   */\n    tag_83:\n        /* \"#utility.yul\":8035:8068   */\n      0x446f6e6174696f6e206d7573742062652067726561746572207468616e203000\n        /* \"#utility.yul\":8031:8032   */\n      0x00\n        /* \"#utility.yul\":8023:8029   */\n      dup3\n        /* \"#utility.yul\":8019:8033   */\n      add\n        /* \"#utility.yul\":8012:8069   */\n      mstore\n        /* \"#utility.yul\":7895:8076   */\n      pop\n      jump\t// out\n        /* \"#utility.yul\":8082:8448   */\n    tag_84:\n        /* \"#utility.yul\":8224:8227   */\n      0x00\n        /* \"#utility.yul\":8245:8312   */\n      tag_154\n        /* \"#utility.yul\":8309:8311   */\n      0x1f\n        /* \"#utility.yul\":8304:8307   */\n      dup4\n        /* \"#utility.yul\":8245:8312   */\n      tag_78\n      jump\t// in\n    tag_154:\n        /* \"#utility.yul\":8238:8312   */\n      swap2\n      pop\n        /* \"#utility.yul\":8321:8414   */\n      tag_155\n        /* \"#utility.yul\":8410:8413   */\n      dup3\n        /* \"#utility.yul\":8321:8414   */\n      tag_83\n      jump\t// in\n    tag_155:\n        /* \"#utility.yul\":8439:8441   */\n      0x20\n        /* \"#utility.yul\":8434:8437   */\n      dup3\n        /* \"#utility.yul\":8430:8442   */\n      add\n        /* \"#utility.yul\":8423:8442   */\n      swap1\n      pop\n        /* \"#utility.yul\":8082:8448   */\n      swap2\n      swap1\n      pop\n      jump\t// out\n        /* \"#utility.yul\":8454:8873   */\n    tag_53:\n        /* \"#utility.yul\":8620:8624   */\n      0x00\n        /* \"#utility.yul\":8658:8660   */\n      0x20\n        /* \"#utility.yul\":8647:8656   */\n      dup3\n        /* \"#utility.yul\":8643:8661   */\n      add\n        /* \"#utility.yul\":8635:8661   */\n      swap1\n      pop\n        /* \"#utility.yul\":8707:8716   */\n      dup2\n        /* \"#utility.yul\":8701:8705   */\n      dup2\n        /* \"#utility.yul\":8697:8717   */\n      sub\n        /* \"#utility.yul\":8693:8694   */\n      0x00\n        /* \"#utility.yul\":8682:8691   */\n      dup4\n        /* \"#utility.yul\":8678:8695   */\n      add\n        /* \"#utility.yul\":8671:8718   */\n      mstore\n        /* \"#utility.yul\":8735:8866   */\n      tag_157\n        /* \"#utility.yul\":8861:8865   */\n      dup2\n        /* \"#utility.yul\":8735:8866   */\n      tag_84\n      jump\t// in\n    tag_157:\n        /* \"#utility.yul\":8727:8866   */\n      swap1\n      pop\n        /* \"#utility.yul\":8454:8873   */\n      swap2\n      swap1\n      pop\n      jump\t// out\n        /* \"#utility.yul\":8879:9211   */\n    tag_56:\n        /* \"#utility.yul\":9000:9004   */\n      0x00\n        /* \"#utility.yul\":9038:9040   */\n      0x40\n        /* \"#utility.yul\":9027:9036   */\n      dup3\n        /* \"#utility.yul\":9023:9041   */\n      add\n        /* \"#utility.yul\":9015:9041   */\n      swap1\n      pop\n        /* \"#utility.yul\":9051:9122   */\n      tag_159\n        /* \"#utility.yul\":9119:9120   */\n      0x00\n        /* \"#utility.yul\":9108:9117   */\n      dup4\n        /* \"#utility.yul\":9104:9121   */\n      add\n        /* \"#utility.yul\":9095:9101   */\n      dup6\n        /* \"#utility.yul\":9051:9122   */\n      tag_77\n      jump\t// in\n    tag_159:\n        /* \"#utility.yul\":9132:9204   */\n      tag_160\n        /* \"#utility.yul\":9200:9202   */\n      0x20\n        /* \"#utility.yul\":9189:9198   */\n      dup4\n        /* \"#utility.yul\":9185:9203   */\n      add\n        /* \"#utility.yul\":9176:9182   */\n      dup5\n        /* \"#utility.yul\":9132:9204   */\n      tag_77\n      jump\t// in\n    tag_160:\n        /* \"#utility.yul\":8879:9211   */\n      swap4\n      swap3\n      pop\n      pop\n      pop\n      jump\t// out\n\n    auxdata: 0xa26469706673582212201f2f8862279475ddaeedddef70fb3086cf7e8d2ed8337f90c38a404aff1402d064736f6c634300081a0033\n}\n",
				"bytecode": {
					"linkReferences": {},
					"object": "608060405234801561000f575f80fd5b506040516109fb3803806109fb833981810160405281019061003191906100d5565b8060015f6101000a81548173ffffffffffffffffffffffffffffffffffffffff021916908373ffffffffffffffffffffffffffffffffffffffff16021790555050610100565b5f80fd5b5f73ffffffffffffffffffffffffffffffffffffffff82169050919050565b5f6100a48261007b565b9050919050565b6100b48161009a565b81146100be575f80fd5b50565b5f815190506100cf816100ab565b92915050565b5f602082840312156100ea576100e9610077565b5b5f6100f7848285016100c1565b91505092915050565b6108ee8061010d5f395ff3fe608060405260043610610054575f3560e01c80632e1a7d4d14610058578063afcf2fc414610080578063e25f8416146100aa578063e55a62a8146100d4578063ed88c68e146100fe578063f8626af814610108575b5f80fd5b348015610063575f80fd5b5061007e60048036038101906100799190610543565b610146565b005b34801561008b575f80fd5b50610094610280565b6040516100a191906105ad565b60405180910390f35b3480156100b5575f80fd5b506100be6102a5565b6040516100cb91906106cc565b60405180910390f35b3480156100df575f80fd5b506100e8610368565b6040516100f591906106fb565b60405180910390f35b610106610373565b005b348015610113575f80fd5b5061012e60048036038101906101299190610543565b6104b9565b60405161013d93929190610714565b60405180910390f35b60015f9054906101000a900473ffffffffffffffffffffffffffffffffffffffff1673ffffffffffffffffffffffffffffffffffffffff163373ffffffffffffffffffffffffffffffffffffffff16146101d5576040517f08c379a00000000000000000000000000000000000000000000000000000000081526004016101cc906107a3565b60405180910390fd5b80471015610218576040517f08c379a000000000000000000000000000000000000000000000000000000000815260040161020f9061080b565b60405180910390fd5b60015f9054906101000a900473ffffffffffffffffffffffffffffffffffffffff1673ffffffffffffffffffffffffffffffffffffffff166108fc8290811502906040515f60405180830381858888f1935050505015801561027c573d5f803e3d5ffd5b5050565b60015f9054906101000a900473ffffffffffffffffffffffffffffffffffffffff1681565b60605f805480602002602001604051908101604052809291908181526020015f905b8282101561035f578382905f5260205f2090600302016040518060600160405290815f82015f9054906101000a900473ffffffffffffffffffffffffffffffffffffffff1673ffffffffffffffffffffffffffffffffffffffff1673ffffffffffffffffffffffffffffffffffffffff16815260200160018201548152602001600282015481525050815260200190600101906102c7565b50505050905090565b5f8080549050905090565b5f34116103b5576040517f08c379a00000000000000000000000000000000000000000000000000000000081526004016103ac90610873565b60405180910390fd5b5f60405180606001604052803373ffffffffffffffffffffffffffffffffffffffff16815260200134815260200142815250908060018154018082558091505060019003905f5260205f2090600302015f909190919091505f820151815f015f6101000a81548173ffffffffffffffffffffffffffffffffffffffff021916908373ffffffffffffffffffffffffffffffffffffffff160217905550602082015181600101556040820151816002015550503373ffffffffffffffffffffffffffffffffffffffff167f4928895ba6723e8e27b15f32e4c3054a1b6c7f8c03f133558d6fa42b3928d14c34426040516104af929190610891565b60405180910390a2565b5f81815481106104c7575f80fd5b905f5260205f2090600302015f91509050805f015f9054906101000a900473ffffffffffffffffffffffffffffffffffffffff16908060010154908060020154905083565b5f80fd5b5f819050919050565b61052281610510565b811461052c575f80fd5b50565b5f8135905061053d81610519565b92915050565b5f602082840312156105585761055761050c565b5b5f6105658482850161052f565b91505092915050565b5f73ffffffffffffffffffffffffffffffffffffffff82169050919050565b5f6105978261056e565b9050919050565b6105a78161058d565b82525050565b5f6020820190506105c05f83018461059e565b92915050565b5f81519050919050565b5f82825260208201905092915050565b5f819050602082019050919050565b6105f88161058d565b82525050565b61060781610510565b82525050565b606082015f8201516106215f8501826105ef565b50602082015161063460208501826105fe565b50604082015161064760408501826105fe565b50505050565b5f610658838361060d565b60608301905092915050565b5f602082019050919050565b5f61067a826105c6565b61068481856105d0565b935061068f836105e0565b805f5b838110156106bf5781516106a6888261064d565b97506106b183610664565b925050600181019050610692565b5085935050505092915050565b5f6020820190508181035f8301526106e48184610670565b905092915050565b6106f581610510565b82525050565b5f60208201905061070e5f8301846106ec565b92915050565b5f6060820190506107275f83018661059e565b61073460208301856106ec565b61074160408301846106ec565b949350505050565b5f82825260208201905092915050565b7f4f6e6c7920636861726974792063616e207769746864726177000000000000005f82015250565b5f61078d601983610749565b915061079882610759565b602082019050919050565b5f6020820190508181035f8301526107ba81610781565b9050919050565b7f496e73756666696369656e742062616c616e63650000000000000000000000005f82015250565b5f6107f5601483610749565b9150610800826107c1565b602082019050919050565b5f6020820190508181035f830152610822816107e9565b9050919050565b7f446f6e6174696f6e206d7573742062652067726561746572207468616e2030005f82015250565b5f61085d601f83610749565b915061086882610829565b602082019050919050565b5f6020820190508181035f83015261088a81610851565b9050919050565b5f6040820190506108a45f8301856106ec565b6108b160208301846106ec565b939250505056fea26469706673582212201f2f8862279475ddaeedddef70fb3086cf7e8d2ed8337f90c38a404aff1402d064736f6c634300081a0033",
					"opcodes": "PUSH1 0x80 PUSH1 0x40 MSTORE CALLVALUE DUP1 ISZERO PUSH2 0xF JUMPI PUSH0 DUP1 REVERT JUMPDEST POP PUSH1 0x40 MLOAD PUSH2 0x9FB CODESIZE SUB DUP1 PUSH2 0x9FB DUP4 CODECOPY DUP2 DUP2 ADD PUSH1 0x40 MSTORE DUP2 ADD SWAP1 PUSH2 0x31 SWAP2 SWAP1 PUSH2 0xD5 JUMP JUMPDEST DUP1 PUSH1 0x1 PUSH0 PUSH2 0x100 EXP DUP2 SLOAD DUP2 PUSH20 0xFFFFFFFFFFFFFFFFFFFFFFFFFFFFFFFFFFFFFFFF MUL NOT AND SWAP1 DUP4 PUSH20 0xFFFFFFFFFFFFFFFFFFFFFFFFFFFFFFFFFFFFFFFF AND MUL OR SWAP1 SSTORE POP POP PUSH2 0x100 JUMP JUMPDEST PUSH0 DUP1 REVERT JUMPDEST PUSH0 PUSH20 0xFFFFFFFFFFFFFFFFFFFFFFFFFFFFFFFFFFFFFFFF DUP3 AND SWAP1 POP SWAP2 SWAP1 POP JUMP JUMPDEST PUSH0 PUSH2 0xA4 DUP3 PUSH2 0x7B JUMP JUMPDEST SWAP1 POP SWAP2 SWAP1 POP JUMP JUMPDEST PUSH2 0xB4 DUP2 PUSH2 0x9A JUMP JUMPDEST DUP2 EQ PUSH2 0xBE JUMPI PUSH0 DUP1 REVERT JUMPDEST POP JUMP JUMPDEST PUSH0 DUP2 MLOAD SWAP1 POP PUSH2 0xCF DUP2 PUSH2 0xAB JUMP JUMPDEST SWAP3 SWAP2 POP POP JUMP JUMPDEST PUSH0 PUSH1 0x20 DUP3 DUP5 SUB SLT ISZERO PUSH2 0xEA JUMPI PUSH2 0xE9 PUSH2 0x77 JUMP JUMPDEST JUMPDEST PUSH0 PUSH2 0xF7 DUP5 DUP3 DUP6 ADD PUSH2 0xC1 JUMP JUMPDEST SWAP2 POP POP SWAP3 SWAP2 POP POP JUMP JUMPDEST PUSH2 0x8EE DUP1 PUSH2 0x10D PUSH0 CODECOPY PUSH0 RETURN INVALID PUSH1 0x80 PUSH1 0x40 MSTORE PUSH1 0x4 CALLDATASIZE LT PUSH2 0x54 JUMPI PUSH0 CALLDATALOAD PUSH1 0xE0 SHR DUP1 PUSH4 0x2E1A7D4D EQ PUSH2 0x58 JUMPI DUP1 PUSH4 0xAFCF2FC4 EQ PUSH2 0x80 JUMPI DUP1 PUSH4 0xE25F8416 EQ PUSH2 0xAA JUMPI DUP1 PUSH4 0xE55A62A8 EQ PUSH2 0xD4 JUMPI DUP1 PUSH4 0xED88C68E EQ PUSH2 0xFE JUMPI DUP1 PUSH4 0xF8626AF8 EQ PUSH2 0x108 JUMPI JUMPDEST PUSH0 DUP1 REVERT JUMPDEST CALLVALUE DUP1 ISZERO PUSH2 0x63 JUMPI PUSH0 DUP1 REVERT JUMPDEST POP PUSH2 0x7E PUSH1 0x4 DUP1 CALLDATASIZE SUB DUP2 ADD SWAP1 PUSH2 0x79 SWAP2 SWAP1 PUSH2 0x543 JUMP JUMPDEST PUSH2 0x146 JUMP JUMPDEST STOP JUMPDEST CALLVALUE DUP1 ISZERO PUSH2 0x8B JUMPI PUSH0 DUP1 REVERT JUMPDEST POP PUSH2 0x94 PUSH2 0x280 JUMP JUMPDEST PUSH1 0x40 MLOAD PUSH2 0xA1 SWAP2 SWAP1 PUSH2 0x5AD JUMP JUMPDEST PUSH1 0x40 MLOAD DUP1 SWAP2 SUB SWAP1 RETURN JUMPDEST CALLVALUE DUP1 ISZERO PUSH2 0xB5 JUMPI PUSH0 DUP1 REVERT JUMPDEST POP PUSH2 0xBE PUSH2 0x2A5 JUMP JUMPDEST PUSH1 0x40 MLOAD PUSH2 0xCB SWAP2 SWAP1 PUSH2 0x6CC JUMP JUMPDEST PUSH1 0x40 MLOAD DUP1 SWAP2 SUB SWAP1 RETURN JUMPDEST CALLVALUE DUP1 ISZERO PUSH2 0xDF JUMPI PUSH0 DUP1 REVERT JUMPDEST POP PUSH2 0xE8 PUSH2 0x368 JUMP JUMPDEST PUSH1 0x40 MLOAD PUSH2 0xF5 SWAP2 SWAP1 PUSH2 0x6FB JUMP JUMPDEST PUSH1 0x40 MLOAD DUP1 SWAP2 SUB SWAP1 RETURN JUMPDEST PUSH2 0x106 PUSH2 0x373 JUMP JUMPDEST STOP JUMPDEST CALLVALUE DUP1 ISZERO PUSH2 0x113 JUMPI PUSH0 DUP1 REVERT JUMPDEST POP PUSH2 0x12E PUSH1 0x4 DUP1 CALLDATASIZE SUB DUP2 ADD SWAP1 PUSH2 0x129 SWAP2 SWAP1 PUSH2 0x543 JUMP JUMPDEST PUSH2 0x4B9 JUMP JUMPDEST PUSH1 0x40 MLOAD PUSH2 0x13D SWAP4 SWAP3 SWAP2 SWAP1 PUSH2 0x714 JUMP JUMPDEST PUSH1 0x40 MLOAD DUP1 SWAP2 SUB SWAP1 RETURN JUMPDEST PUSH1 0x1 PUSH0 SWAP1 SLOAD SWAP1 PUSH2 0x100 EXP SWAP1 DIV PUSH20 0xFFFFFFFFFFFFFFFFFFFFFFFFFFFFFFFFFFFFFFFF AND PUSH20 0xFFFFFFFFFFFFFFFFFFFFFFFFFFFFFFFFFFFFFFFF AND CALLER PUSH20 0xFFFFFFFFFFFFFFFFFFFFFFFFFFFFFFFFFFFFFFFF AND EQ PUSH2 0x1D5 JUMPI PUSH1 0x40 MLOAD PUSH32 0x8C379A000000000000000000000000000000000000000000000000000000000 DUP2 MSTORE PUSH1 0x4 ADD PUSH2 0x1CC SWAP1 PUSH2 0x7A3 JUMP JUMPDEST PUSH1 0x40 MLOAD DUP1 SWAP2 SUB SWAP1 REVERT JUMPDEST DUP1 SELFBALANCE LT ISZERO PUSH2 0x218 JUMPI PUSH1 0x40 MLOAD PUSH32 0x8C379A000000000000000000000000000000000000000000000000000000000 DUP2 MSTORE PUSH1 0x4 ADD PUSH2 0x20F SWAP1 PUSH2 0x80B JUMP JUMPDEST PUSH1 0x40 MLOAD DUP1 SWAP2 SUB SWAP1 REVERT JUMPDEST PUSH1 0x1 PUSH0 SWAP1 SLOAD SWAP1 PUSH2 0x100 EXP SWAP1 DIV PUSH20 0xFFFFFFFFFFFFFFFFFFFFFFFFFFFFFFFFFFFFFFFF AND PUSH20 0xFFFFFFFFFFFFFFFFFFFFFFFFFFFFFFFFFFFFFFFF AND PUSH2 0x8FC DUP3 SWAP1 DUP2 ISZERO MUL SWAP1 PUSH1 0x40 MLOAD PUSH0 PUSH1 0x40 MLOAD DUP1 DUP4 SUB DUP2 DUP6 DUP9 DUP9 CALL SWAP4 POP POP POP POP ISZERO DUP1 ISZERO PUSH2 0x27C JUMPI RETURNDATASIZE PUSH0 DUP1 RETURNDATACOPY RETURNDATASIZE PUSH0 REVERT JUMPDEST POP POP JUMP JUMPDEST PUSH1 0x1 PUSH0 SWAP1 SLOAD SWAP1 PUSH2 0x100 EXP SWAP1 DIV PUSH20 0xFFFFFFFFFFFFFFFFFFFFFFFFFFFFFFFFFFFFFFFF AND DUP2 JUMP JUMPDEST PUSH1 0x60 PUSH0 DUP1 SLOAD DUP1 PUSH1 0x20 MUL PUSH1 0x20 ADD PUSH1 0x40 MLOAD SWAP1 DUP2 ADD PUSH1 0x40 MSTORE DUP1 SWAP3 SWAP2 SWAP1 DUP2 DUP2 MSTORE PUSH1 0x20 ADD PUSH0 SWAP1 JUMPDEST DUP3 DUP3 LT ISZERO PUSH2 0x35F JUMPI DUP4 DUP3 SWAP1 PUSH0 MSTORE PUSH1 0x20 PUSH0 KECCAK256 SWAP1 PUSH1 0x3 MUL ADD PUSH1 0x40 MLOAD DUP1 PUSH1 0x60 ADD PUSH1 0x40 MSTORE SWAP1 DUP2 PUSH0 DUP3 ADD PUSH0 SWAP1 SLOAD SWAP1 PUSH2 0x100 EXP SWAP1 DIV PUSH20 0xFFFFFFFFFFFFFFFFFFFFFFFFFFFFFFFFFFFFFFFF AND PUSH20 0xFFFFFFFFFFFFFFFFFFFFFFFFFFFFFFFFFFFFFFFF AND PUSH20 0xFFFFFFFFFFFFFFFFFFFFFFFFFFFFFFFFFFFFFFFF AND DUP2 MSTORE PUSH1 0x20 ADD PUSH1 0x1 DUP3 ADD SLOAD DUP2 MSTORE PUSH1 0x20 ADD PUSH1 0x2 DUP3 ADD SLOAD DUP2 MSTORE POP POP DUP2 MSTORE PUSH1 0x20 ADD SWAP1 PUSH1 0x1 ADD SWAP1 PUSH2 0x2C7 JUMP JUMPDEST POP POP POP POP SWAP1 POP SWAP1 JUMP JUMPDEST PUSH0 DUP1 DUP1 SLOAD SWAP1 POP SWAP1 POP SWAP1 JUMP JUMPDEST PUSH0 CALLVALUE GT PUSH2 0x3B5 JUMPI PUSH1 0x40 MLOAD PUSH32 0x8C379A000000000000000000000000000000000000000000000000000000000 DUP2 MSTORE PUSH1 0x4 ADD PUSH2 0x3AC SWAP1 PUSH2 0x873 JUMP JUMPDEST PUSH1 0x40 MLOAD DUP1 SWAP2 SUB SWAP1 REVERT JUMPDEST PUSH0 PUSH1 0x40 MLOAD DUP1 PUSH1 0x60 ADD PUSH1 0x40 MSTORE DUP1 CALLER PUSH20 0xFFFFFFFFFFFFFFFFFFFFFFFFFFFFFFFFFFFFFFFF AND DUP2 MSTORE PUSH1 0x20 ADD CALLVALUE DUP2 MSTORE PUSH1 0x20 ADD TIMESTAMP DUP2 MSTORE POP SWAP1 DUP1 PUSH1 0x1 DUP2 SLOAD ADD DUP1 DUP3 SSTORE DUP1 SWAP2 POP POP PUSH1 0x1 SWAP1 SUB SWAP1 PUSH0 MSTORE PUSH1 0x20 PUSH0 KECCAK256 SWAP1 PUSH1 0x3 MUL ADD PUSH0 SWAP1 SWAP2 SWAP1 SWAP2 SWAP1 SWAP2 POP PUSH0 DUP3 ADD MLOAD DUP2 PUSH0 ADD PUSH0 PUSH2 0x100 EXP DUP2 SLOAD DUP2 PUSH20 0xFFFFFFFFFFFFFFFFFFFFFFFFFFFFFFFFFFFFFFFF MUL NOT AND SWAP1 DUP4 PUSH20 0xFFFFFFFFFFFFFFFFFFFFFFFFFFFFFFFFFFFFFFFF AND MUL OR SWAP1 SSTORE POP PUSH1 0x20 DUP3 ADD MLOAD DUP2 PUSH1 0x1 ADD SSTORE PUSH1 0x40 DUP3 ADD MLOAD DUP2 PUSH1 0x2 ADD SSTORE POP POP CALLER PUSH20 0xFFFFFFFFFFFFFFFFFFFFFFFFFFFFFFFFFFFFFFFF AND PUSH32 0x4928895BA6723E8E27B15F32E4C3054A1B6C7F8C03F133558D6FA42B3928D14C CALLVALUE TIMESTAMP PUSH1 0x40 MLOAD PUSH2 0x4AF SWAP3 SWAP2 SWAP1 PUSH2 0x891 JUMP JUMPDEST PUSH1 0x40 MLOAD DUP1 SWAP2 SUB SWAP1 LOG2 JUMP JUMPDEST PUSH0 DUP2 DUP2 SLOAD DUP2 LT PUSH2 0x4C7 JUMPI PUSH0 DUP1 REVERT JUMPDEST SWAP1 PUSH0 MSTORE PUSH1 0x20 PUSH0 KECCAK256 SWAP1 PUSH1 0x3 MUL ADD PUSH0 SWAP2 POP SWAP1 POP DUP1 PUSH0 ADD PUSH0 SWAP1 SLOAD SWAP1 PUSH2 0x100 EXP SWAP1 DIV PUSH20 0xFFFFFFFFFFFFFFFFFFFFFFFFFFFFFFFFFFFFFFFF AND SWAP1 DUP1 PUSH1 0x1 ADD SLOAD SWAP1 DUP1 PUSH1 0x2 ADD SLOAD SWAP1 POP DUP4 JUMP JUMPDEST PUSH0 DUP1 REVERT JUMPDEST PUSH0 DUP2 SWAP1 POP SWAP2 SWAP1 POP JUMP JUMPDEST PUSH2 0x522 DUP2 PUSH2 0x510 JUMP JUMPDEST DUP2 EQ PUSH2 0x52C JUMPI PUSH0 DUP1 REVERT JUMPDEST POP JUMP JUMPDEST PUSH0 DUP2 CALLDATALOAD SWAP1 POP PUSH2 0x53D DUP2 PUSH2 0x519 JUMP JUMPDEST SWAP3 SWAP2 POP POP JUMP JUMPDEST PUSH0 PUSH1 0x20 DUP3 DUP5 SUB SLT ISZERO PUSH2 0x558 JUMPI PUSH2 0x557 PUSH2 0x50C JUMP JUMPDEST JUMPDEST PUSH0 PUSH2 0x565 DUP5 DUP3 DUP6 ADD PUSH2 0x52F JUMP JUMPDEST SWAP2 POP POP SWAP3 SWAP2 POP POP JUMP JUMPDEST PUSH0 PUSH20 0xFFFFFFFFFFFFFFFFFFFFFFFFFFFFFFFFFFFFFFFF DUP3 AND SWAP1 POP SWAP2 SWAP1 POP JUMP JUMPDEST PUSH0 PUSH2 0x597 DUP3 PUSH2 0x56E JUMP JUMPDEST SWAP1 POP SWAP2 SWAP1 POP JUMP JUMPDEST PUSH2 0x5A7 DUP2 PUSH2 0x58D JUMP JUMPDEST DUP3 MSTORE POP POP JUMP JUMPDEST PUSH0 PUSH1 0x20 DUP3 ADD SWAP1 POP PUSH2 0x5C0 PUSH0 DUP4 ADD DUP5 PUSH2 0x59E JUMP JUMPDEST SWAP3 SWAP2 POP POP JUMP JUMPDEST PUSH0 DUP2 MLOAD SWAP1 POP SWAP2 SWAP1 POP JUMP JUMPDEST PUSH0 DUP3 DUP3 MSTORE PUSH1 0x20 DUP3 ADD SWAP1 POP SWAP3 SWAP2 POP POP JUMP JUMPDEST PUSH0 DUP2 SWAP1 POP PUSH1 0x20 DUP3 ADD SWAP1 POP SWAP2 SWAP1 POP JUMP JUMPDEST PUSH2 0x5F8 DUP2 PUSH2 0x58D JUMP JUMPDEST DUP3 MSTORE POP POP JUMP JUMPDEST PUSH2 0x607 DUP2 PUSH2 0x510 JUMP JUMPDEST DUP3 MSTORE POP POP JUMP JUMPDEST PUSH1 0x60 DUP3 ADD PUSH0 DUP3 ADD MLOAD PUSH2 0x621 PUSH0 DUP6 ADD DUP3 PUSH2 0x5EF JUMP JUMPDEST POP PUSH1 0x20 DUP3 ADD MLOAD PUSH2 0x634 PUSH1 0x20 DUP6 ADD DUP3 PUSH2 0x5FE JUMP JUMPDEST POP PUSH1 0x40 DUP3 ADD MLOAD PUSH2 0x647 PUSH1 0x40 DUP6 ADD DUP3 PUSH2 0x5FE JUMP JUMPDEST POP POP POP POP JUMP JUMPDEST PUSH0 PUSH2 0x658 DUP4 DUP4 PUSH2 0x60D JUMP JUMPDEST PUSH1 0x60 DUP4 ADD SWAP1 POP SWAP3 SWAP2 POP POP JUMP JUMPDEST PUSH0 PUSH1 0x20 DUP3 ADD SWAP1 POP SWAP2 SWAP1 POP JUMP JUMPDEST PUSH0 PUSH2 0x67A DUP3 PUSH2 0x5C6 JUMP JUMPDEST PUSH2 0x684 DUP2 DUP6 PUSH2 0x5D0 JUMP JUMPDEST SWAP4 POP PUSH2 0x68F DUP4 PUSH2 0x5E0 JUMP JUMPDEST DUP1 PUSH0 JUMPDEST DUP4 DUP2 LT ISZERO PUSH2 0x6BF JUMPI DUP2 MLOAD PUSH2 0x6A6 DUP9 DUP3 PUSH2 0x64D JUMP JUMPDEST SWAP8 POP PUSH2 0x6B1 DUP4 PUSH2 0x664 JUMP JUMPDEST SWAP3 POP POP PUSH1 0x1 DUP2 ADD SWAP1 POP PUSH2 0x692 JUMP JUMPDEST POP DUP6 SWAP4 POP POP POP POP SWAP3 SWAP2 POP POP JUMP JUMPDEST PUSH0 PUSH1 0x20 DUP3 ADD SWAP1 POP DUP2 DUP2 SUB PUSH0 DUP4 ADD MSTORE PUSH2 0x6E4 DUP2 DUP5 PUSH2 0x670 JUMP JUMPDEST SWAP1 POP SWAP3 SWAP2 POP POP JUMP JUMPDEST PUSH2 0x6F5 DUP2 PUSH2 0x510 JUMP JUMPDEST DUP3 MSTORE POP POP JUMP JUMPDEST PUSH0 PUSH1 0x20 DUP3 ADD SWAP1 POP PUSH2 0x70E PUSH0 DUP4 ADD DUP5 PUSH2 0x6EC JUMP JUMPDEST SWAP3 SWAP2 POP POP JUMP JUMPDEST PUSH0 PUSH1 0x60 DUP3 ADD SWAP1 POP PUSH2 0x727 PUSH0 DUP4 ADD DUP7 PUSH2 0x59E JUMP JUMPDEST PUSH2 0x734 PUSH1 0x20 DUP4 ADD DUP6 PUSH2 0x6EC JUMP JUMPDEST PUSH2 0x741 PUSH1 0x40 DUP4 ADD DUP5 PUSH2 0x6EC JUMP JUMPDEST SWAP5 SWAP4 POP POP POP POP JUMP JUMPDEST PUSH0 DUP3 DUP3 MSTORE PUSH1 0x20 DUP3 ADD SWAP1 POP SWAP3 SWAP2 POP POP JUMP JUMPDEST PUSH32 0x4F6E6C7920636861726974792063616E20776974686472617700000000000000 PUSH0 DUP3 ADD MSTORE POP JUMP JUMPDEST PUSH0 PUSH2 0x78D PUSH1 0x19 DUP4 PUSH2 0x749 JUMP JUMPDEST SWAP2 POP PUSH2 0x798 DUP3 PUSH2 0x759 JUMP JUMPDEST PUSH1 0x20 DUP3 ADD SWAP1 POP SWAP2 SWAP1 POP JUMP JUMPDEST PUSH0 PUSH1 0x20 DUP3 ADD SWAP1 POP DUP2 DUP2 SUB PUSH0 DUP4 ADD MSTORE PUSH2 0x7BA DUP2 PUSH2 0x781 JUMP JUMPDEST SWAP1 POP SWAP2 SWAP1 POP JUMP JUMPDEST PUSH32 0x496E73756666696369656E742062616C616E6365000000000000000000000000 PUSH0 DUP3 ADD MSTORE POP JUMP JUMPDEST PUSH0 PUSH2 0x7F5 PUSH1 0x14 DUP4 PUSH2 0x749 JUMP JUMPDEST SWAP2 POP PUSH2 0x800 DUP3 PUSH2 0x7C1 JUMP JUMPDEST PUSH1 0x20 DUP3 ADD SWAP1 POP SWAP2 SWAP1 POP JUMP JUMPDEST PUSH0 PUSH1 0x20 DUP3 ADD SWAP1 POP DUP2 DUP2 SUB PUSH0 DUP4 ADD MSTORE PUSH2 0x822 DUP2 PUSH2 0x7E9 JUMP JUMPDEST SWAP1 POP SWAP2 SWAP1 POP JUMP JUMPDEST PUSH32 0x446F6E6174696F6E206D7573742062652067726561746572207468616E203000 PUSH0 DUP3 ADD MSTORE POP JUMP JUMPDEST PUSH0 PUSH2 0x85D PUSH1 0x1F DUP4 PUSH2 0x749 JUMP JUMPDEST SWAP2 POP PUSH2 0x868 DUP3 PUSH2 0x829 JUMP JUMPDEST PUSH1 0x20 DUP3 ADD SWAP1 POP SWAP2 SWAP1 POP JUMP JUMPDEST PUSH0 PUSH1 0x20 DUP3 ADD SWAP1 POP DUP2 DUP2 SUB PUSH0 DUP4 ADD MSTORE PUSH2 0x88A DUP2 PUSH2 0x851 JUMP JUMPDEST SWAP1 POP SWAP2 SWAP1 POP JUMP JUMPDEST PUSH0 PUSH1 0x40 DUP3 ADD SWAP1 POP PUSH2 0x8A4 PUSH0 DUP4 ADD DUP6 PUSH2 0x6EC JUMP JUMPDEST PUSH2 0x8B1 PUSH1 0x20 DUP4 ADD DUP5 PUSH2 0x6EC JUMP JUMPDEST SWAP4 SWAP3 POP POP POP JUMP INVALID LOG2 PUSH5 0x6970667358 0x22 SLT KECCAK256 0x1F 0x2F DUP9 PUSH3 0x279475 0xDD 0xAE 0xED 0xDD 0xEF PUSH17 0xFB3086CF7E8D2ED8337F90C38A404AFF14 MUL 0xD0 PUSH5 0x736F6C6343 STOP ADDMOD BYTE STOP CALLER "
				},
				"gasEstimates": {
					"creation": {
						"codeDepositCost": "457200",
						"executionCost": "infinite",
						"totalCost": "infinite"
					},
					"external": {
						"charityAddress()": "2508",
						"donate()": "infinite",
						"donations(uint256)": "infinite",
						"getDonationCount()": "2484",
						"getDonations()": "infinite",
						"withdraw(uint256)": "infinite"
					}
				},
				"methodIdentifiers": {
					"charityAddress()": "afcf2fc4",
					"donate()": "ed88c68e",
					"donations(uint256)": "f8626af8",
					"getDonationCount()": "e55a62a8",
					"getDonations()": "e25f8416",
					"withdraw(uint256)": "2e1a7d4d"
				}
			},
			"storageLayout": {
				"storage": [
					{
						"astId": 12,
						"contract": "contracts/Charity.sol:Charity",
						"label": "donations",
						"offset": 0,
						"slot": "0",
						"type": "t_array(t_struct(Donation)8_storage)dyn_storage"
					},
					{
						"astId": 14,
						"contract": "contracts/Charity.sol:Charity",
						"label": "charityAddress",
						"offset": 0,
						"slot": "1",
						"type": "t_address"
					}
				],
				"types": {
					"t_address": {
						"encoding": "inplace",
						"label": "address",
						"numberOfBytes": "20"
					},
					"t_array(t_struct(Donation)8_storage)dyn_storage": {
						"base": "t_struct(Donation)8_storage",
						"encoding": "dynamic_array",
						"label": "struct Charity.Donation[]",
						"numberOfBytes": "32"
					},
					"t_struct(Donation)8_storage": {
						"encoding": "inplace",
						"label": "struct Charity.Donation",
						"members": [
							{
								"astId": 3,
								"contract": "contracts/Charity.sol:Charity",
								"label": "donor",
								"offset": 0,
								"slot": "0",
								"type": "t_address"
							},
							{
								"astId": 5,
								"contract": "contracts/Charity.sol:Charity",
								"label": "amount",
								"offset": 0,
								"slot": "1",
								"type": "t_uint256"
							},
							{
								"astId": 7,
								"contract": "contracts/Charity.sol:Charity",
								"label": "timestamp",
								"offset": 0,
								"slot": "2",
								"type": "t_uint256"
							}
						],
						"numberOfBytes": "96"
					},
					"t_uint256": {
						"encoding": "inplace",
						"label": "uint256",
						"numberOfBytes": "32"
					}
				}
			},
			"userdoc": {
				"kind": "user",
				"methods": {},
				"version": 1
			}
		}
	}
}