{
	"contracts/Charity.sol": {
		"Charity": {
			"abi": [
				{
					"inputs": [
						{
							"internalType": "address",
							"name": "_charityAddress",
							"type": "address"
						}
					],
					"stateMutability": "nonpayable",
					"type": "constructor"
				},
				{
					"inputs": [
						{
							"internalType": "address",
							"name": "owner",
							"type": "address"
						}
					],
					"name": "OwnableInvalidOwner",
					"type": "error"
				},
				{
					"inputs": [
						{
							"internalType": "address",
							"name": "account",
							"type": "address"
						}
					],
					"name": "OwnableUnauthorizedAccount",
					"type": "error"
				},
				{
					"anonymous": false,
					"inputs": [
						{
							"indexed": true,
							"internalType": "address",
							"name": "donor",
							"type": "address"
						},
						{
							"indexed": false,
							"internalType": "uint256",
							"name": "amount",
							"type": "uint256"
						},
						{
							"indexed": false,
							"internalType": "uint256",
							"name": "timestamp",
							"type": "uint256"
						},
						{
							"indexed": false,
							"internalType": "string",
							"name": "purpose",
							"type": "string"
						}
					],
					"name": "Donated",
					"type": "event"
				},
				{
					"anonymous": false,
					"inputs": [
						{
							"indexed": false,
							"internalType": "uint256",
							"name": "amount",
							"type": "uint256"
						},
						{
							"indexed": false,
							"internalType": "string",
							"name": "description",
							"type": "string"
						},
						{
							"indexed": false,
							"internalType": "uint256",
							"name": "timestamp",
							"type": "uint256"
						}
					],
					"name": "ExpenseLogged",
					"type": "event"
				},
				{
					"anonymous": false,
					"inputs": [
						{
							"indexed": true,
							"internalType": "address",
							"name": "previousOwner",
							"type": "address"
						},
						{
							"indexed": true,
							"internalType": "address",
							"name": "newOwner",
							"type": "address"
						}
					],
					"name": "OwnershipTransferred",
					"type": "event"
				},
				{
					"anonymous": false,
					"inputs": [
						{
							"indexed": false,
							"internalType": "uint256",
							"name": "amount",
							"type": "uint256"
						}
					],
					"name": "Withdrawn",
					"type": "event"
				},
				{
					"inputs": [],
					"name": "charityAddress",
					"outputs": [
						{
							"internalType": "address",
							"name": "",
							"type": "address"
						}
					],
					"stateMutability": "view",
					"type": "function"
				},
				{
					"inputs": [
						{
							"internalType": "string",
							"name": "purpose",
							"type": "string"
						}
					],
					"name": "donate",
					"outputs": [],
					"stateMutability": "payable",
					"type": "function"
				},
				{
					"inputs": [
						{
							"internalType": "uint256",
							"name": "",
							"type": "uint256"
						}
					],
					"name": "donations",
					"outputs": [
						{
							"internalType": "address",
							"name": "donor",
							"type": "address"
						},
						{
							"internalType": "uint256",
							"name": "amount",
							"type": "uint256"
						},
						{
							"internalType": "uint256",
							"name": "timestamp",
							"type": "uint256"
						},
						{
							"internalType": "string",
							"name": "purpose",
							"type": "string"
						},
						{
							"internalType": "string",
							"name": "acknowledgment",
							"type": "string"
						}
					],
					"stateMutability": "view",
					"type": "function"
				},
				{
					"inputs": [
						{
							"internalType": "uint256",
							"name": "",
							"type": "uint256"
						}
					],
					"name": "expenses",
					"outputs": [
						{
							"internalType": "uint256",
							"name": "amount",
							"type": "uint256"
						},
						{
							"internalType": "string",
							"name": "description",
							"type": "string"
						},
						{
							"internalType": "uint256",
							"name": "timestamp",
							"type": "uint256"
						}
					],
					"stateMutability": "view",
					"type": "function"
				},
				{
					"inputs": [],
					"name": "getDonationCount",
					"outputs": [
						{
							"internalType": "uint256",
							"name": "",
							"type": "uint256"
						}
					],
					"stateMutability": "view",
					"type": "function"
				},
				{
					"inputs": [],
					"name": "getDonations",
					"outputs": [
						{
							"components": [
								{
									"internalType": "address",
									"name": "donor",
									"type": "address"
								},
								{
									"internalType": "uint256",
									"name": "amount",
									"type": "uint256"
								},
								{
									"internalType": "uint256",
									"name": "timestamp",
									"type": "uint256"
								},
								{
									"internalType": "string",
									"name": "purpose",
									"type": "string"
								},
								{
									"internalType": "string",
									"name": "acknowledgment",
									"type": "string"
								}
							],
							"internalType": "struct Charity.Donation[]",
							"name": "",
							"type": "tuple[]"
						}
					],
					"stateMutability": "view",
					"type": "function"
				},
				{
					"inputs": [],
					"name": "getExpenses",
					"outputs": [
						{
							"components": [
								{
									"internalType": "uint256",
									"name": "amount",
									"type": "uint256"
								},
								{
									"internalType": "string",
									"name": "description",
									"type": "string"
								},
								{
									"internalType": "uint256",
									"name": "timestamp",
									"type": "uint256"
								}
							],
							"internalType": "struct Charity.Expense[]",
							"name": "",
							"type": "tuple[]"
						}
					],
					"stateMutability": "view",
					"type": "function"
				},
				{
					"inputs": [],
					"name": "isPaused",
					"outputs": [
						{
							"internalType": "bool",
							"name": "",
							"type": "bool"
						}
					],
					"stateMutability": "view",
					"type": "function"
				},
				{
					"inputs": [
						{
							"internalType": "uint256",
							"name": "amount",
							"type": "uint256"
						},
						{
							"internalType": "string",
							"name": "description",
							"type": "string"
						}
					],
					"name": "logExpense",
					"outputs": [],
					"stateMutability": "nonpayable",
					"type": "function"
				},
				{
					"inputs": [],
					"name": "maxDonation",
					"outputs": [
						{
							"internalType": "uint256",
							"name": "",
							"type": "uint256"
						}
					],
					"stateMutability": "view",
					"type": "function"
				},
				{
					"inputs": [],
					"name": "minDonation",
					"outputs": [
						{
							"internalType": "uint256",
							"name": "",
							"type": "uint256"
						}
					],
					"stateMutability": "view",
					"type": "function"
				},
				{
					"inputs": [],
					"name": "owner",
					"outputs": [
						{
							"internalType": "address",
							"name": "",
							"type": "address"
						}
					],
					"stateMutability": "view",
					"type": "function"
				},
				{
					"inputs": [],
					"name": "pause",
					"outputs": [],
					"stateMutability": "nonpayable",
					"type": "function"
				},
				{
					"inputs": [],
					"name": "renounceOwnership",
					"outputs": [],
					"stateMutability": "nonpayable",
					"type": "function"
				},
				{
					"inputs": [
						{
							"internalType": "address",
							"name": "_newAddress",
							"type": "address"
						}
					],
					"name": "setCharityAddress",
					"outputs": [],
					"stateMutability": "nonpayable",
					"type": "function"
				},
				{
					"inputs": [],
					"name": "totalDonations",
					"outputs": [
						{
							"internalType": "uint256",
							"name": "",
							"type": "uint256"
						}
					],
					"stateMutability": "view",
					"type": "function"
				},
				{
					"inputs": [
						{
							"internalType": "address",
							"name": "newOwner",
							"type": "address"
						}
					],
					"name": "transferOwnership",
					"outputs": [],
					"stateMutability": "nonpayable",
					"type": "function"
				},
				{
					"inputs": [],
					"name": "unPause",
					"outputs": [],
					"stateMutability": "nonpayable",
					"type": "function"
				},
				{
					"inputs": [
						{
							"internalType": "uint256",
							"name": "amount",
							"type": "uint256"
						}
					],
					"name": "withdraw",
					"outputs": [],
					"stateMutability": "nonpayable",
					"type": "function"
				},
				{
					"inputs": [],
					"name": "withdrawAll",
					"outputs": [],
					"stateMutability": "nonpayable",
					"type": "function"
				}
			],
			"devdoc": {
				"errors": {
					"OwnableInvalidOwner(address)": [
						{
							"details": "The owner is not a valid owner account. (eg. `address(0)`)"
						}
					],
					"OwnableUnauthorizedAccount(address)": [
						{
							"details": "The caller account is not authorized to perform an operation."
						}
					]
				},
				"kind": "dev",
				"methods": {
					"owner()": {
						"details": "Returns the address of the current owner."
					},
					"renounceOwnership()": {
						"details": "Leaves the contract without owner. It will not be possible to call `onlyOwner` functions. Can only be called by the current owner. NOTE: Renouncing ownership will leave the contract without an owner, thereby disabling any functionality that is only available to the owner."
					},
					"transferOwnership(address)": {
						"details": "Transfers ownership of the contract to a new account (`newOwner`). Can only be called by the current owner."
					}
				},
				"version": 1
			},
			"evm": {
				"assembly": "    /* \"contracts/Charity.sol\":116:4292  contract Charity is Ownable {... */\n  mstore(0x40, 0x80)\n    /* \"contracts/Charity.sol\":695:705  0.01 ether */\n  0x2386f26fc10000\n    /* \"contracts/Charity.sol\":666:705  uint256 public minDonation = 0.01 ether */\n  0x05\n  sstore\n    /* \"contracts/Charity.sol\":767:775  10 ether */\n  0x8ac7230489e80000\n    /* \"contracts/Charity.sol\":738:775  uint256 public maxDonation = 10 ether */\n  0x06\n  sstore\n    /* \"contracts/Charity.sol\":831:836  false */\n  0x00\n    /* \"contracts/Charity.sol\":808:836  bool public isPaused = false */\n  0x07\n  exp(0x0100, 0x00)\n  dup2\n  sload\n  dup2\n  0xff\n  mul\n  not\n  and\n  swap1\n  dup4\n  iszero\n  iszero\n  mul\n  or\n  swap1\n  sstore\n  pop\n    /* \"contracts/Charity.sol\":1164:1273  constructor(address _charityAddress) Ownable(msg.sender) {... */\n  callvalue\n  dup1\n  iszero\n  tag_1\n  jumpi\n  0x00\n  dup1\n  revert\ntag_1:\n  pop\n  mload(0x40)\n  sub(codesize, bytecodeSize)\n  dup1\n  bytecodeSize\n  dup4\n  codecopy\n  dup2\n  dup2\n  add\n  0x40\n  mstore\n  dup2\n  add\n  swap1\n  tag_2\n  swap2\n  swap1\n  tag_3\n  jump\t// in\ntag_2:\n    /* \"contracts/Charity.sol\":1209:1219  msg.sender */\n  caller\n    /* \"@openzeppelin/contracts/access/Ownable.sol\":1297:1298  0 */\n  0x00\n    /* \"@openzeppelin/contracts/access/Ownable.sol\":1273:1299  initialOwner == address(0) */\n  0xffffffffffffffffffffffffffffffffffffffff\n  and\n    /* \"@openzeppelin/contracts/access/Ownable.sol\":1273:1285  initialOwner */\n  dup2\n    /* \"@openzeppelin/contracts/access/Ownable.sol\":1273:1299  initialOwner == address(0) */\n  0xffffffffffffffffffffffffffffffffffffffff\n  and\n  sub\n    /* \"@openzeppelin/contracts/access/Ownable.sol\":1269:1364  if (initialOwner == address(0)) {... */\n  tag_7\n  jumpi\n    /* \"@openzeppelin/contracts/access/Ownable.sol\":1350:1351  0 */\n  0x00\n    /* \"@openzeppelin/contracts/access/Ownable.sol\":1322:1353  OwnableInvalidOwner(address(0)) */\n  mload(0x40)\n  0x1e4fbdf700000000000000000000000000000000000000000000000000000000\n  dup2\n  mstore\n  0x04\n  add\n  tag_8\n  swap2\n  swap1\n  tag_9\n  jump\t// in\ntag_8:\n  mload(0x40)\n  dup1\n  swap2\n  sub\n  swap1\n  revert\n    /* \"@openzeppelin/contracts/access/Ownable.sol\":1269:1364  if (initialOwner == address(0)) {... */\ntag_7:\n    /* \"@openzeppelin/contracts/access/Ownable.sol\":1373:1405  _transferOwnership(initialOwner) */\n  tag_10\n    /* \"@openzeppelin/contracts/access/Ownable.sol\":1392:1404  initialOwner */\n  dup2\n    /* \"@openzeppelin/contracts/access/Ownable.sol\":1373:1391  _transferOwnership */\n  shl(0x20, tag_11)\n    /* \"@openzeppelin/contracts/access/Ownable.sol\":1373:1405  _transferOwnership(initialOwner) */\n  0x20\n  shr\n  jump\t// in\ntag_10:\n    /* \"@openzeppelin/contracts/access/Ownable.sol\":1225:1412  constructor(address initialOwner) {... */\n  pop\n    /* \"contracts/Charity.sol\":1249:1264  _charityAddress */\n  dup1\n    /* \"contracts/Charity.sol\":1232:1246  charityAddress */\n  0x04\n  0x00\n    /* \"contracts/Charity.sol\":1232:1264  charityAddress = _charityAddress */\n  0x0100\n  exp\n  dup2\n  sload\n  dup2\n  0xffffffffffffffffffffffffffffffffffffffff\n  mul\n  not\n  and\n  swap1\n  dup4\n  0xffffffffffffffffffffffffffffffffffffffff\n  and\n  mul\n  or\n  swap1\n  sstore\n  pop\n    /* \"contracts/Charity.sol\":1164:1273  constructor(address _charityAddress) Ownable(msg.sender) {... */\n  pop\n    /* \"contracts/Charity.sol\":116:4292  contract Charity is Ownable {... */\n  jump(tag_13)\n    /* \"@openzeppelin/contracts/access/Ownable.sol\":2912:3099  function _transferOwnership(address newOwner) internal virtual {... */\ntag_11:\n    /* \"@openzeppelin/contracts/access/Ownable.sol\":2985:3001  address oldOwner */\n  0x00\n    /* \"@openzeppelin/contracts/access/Ownable.sol\":3004:3010  _owner */\n  dup1\n  0x00\n  swap1\n  sload\n  swap1\n  0x0100\n  exp\n  swap1\n  div\n  0xffffffffffffffffffffffffffffffffffffffff\n  and\n    /* \"@openzeppelin/contracts/access/Ownable.sol\":2985:3010  address oldOwner = _owner */\n  swap1\n  pop\n    /* \"@openzeppelin/contracts/access/Ownable.sol\":3029:3037  newOwner */\n  dup2\n    /* \"@openzeppelin/contracts/access/Ownable.sol\":3020:3026  _owner */\n  0x00\n  dup1\n    /* \"@openzeppelin/contracts/access/Ownable.sol\":3020:3037  _owner = newOwner */\n  0x0100\n  exp\n  dup2\n  sload\n  dup2\n  0xffffffffffffffffffffffffffffffffffffffff\n  mul\n  not\n  and\n  swap1\n  dup4\n  0xffffffffffffffffffffffffffffffffffffffff\n  and\n  mul\n  or\n  swap1\n  sstore\n  pop\n    /* \"@openzeppelin/contracts/access/Ownable.sol\":3083:3091  newOwner */\n  dup2\n    /* \"@openzeppelin/contracts/access/Ownable.sol\":3052:3092  OwnershipTransferred(oldOwner, newOwner) */\n  0xffffffffffffffffffffffffffffffffffffffff\n  and\n    /* \"@openzeppelin/contracts/access/Ownable.sol\":3073:3081  oldOwner */\n  dup2\n    /* \"@openzeppelin/contracts/access/Ownable.sol\":3052:3092  OwnershipTransferred(oldOwner, newOwner) */\n  0xffffffffffffffffffffffffffffffffffffffff\n  and\n  0x8be0079c531659141344cd1fd0a4f28419497f9722a3daafe3b4186f6b6457e0\n  mload(0x40)\n  mload(0x40)\n  dup1\n  swap2\n  sub\n  swap1\n  log3\n    /* \"@openzeppelin/contracts/access/Ownable.sol\":2975:3099  {... */\n  pop\n    /* \"@openzeppelin/contracts/access/Ownable.sol\":2912:3099  function _transferOwnership(address newOwner) internal virtual {... */\n  pop\n  jump\t// out\n    /* \"#utility.yul\":88:205   */\ntag_16:\n    /* \"#utility.yul\":197:198   */\n  0x00\n    /* \"#utility.yul\":194:195   */\n  dup1\n    /* \"#utility.yul\":187:199   */\n  revert\n    /* \"#utility.yul\":334:460   */\ntag_18:\n    /* \"#utility.yul\":371:378   */\n  0x00\n    /* \"#utility.yul\":411:453   */\n  0xffffffffffffffffffffffffffffffffffffffff\n    /* \"#utility.yul\":404:409   */\n  dup3\n    /* \"#utility.yul\":400:454   */\n  and\n    /* \"#utility.yul\":389:454   */\n  swap1\n  pop\n    /* \"#utility.yul\":334:460   */\n  swap2\n  swap1\n  pop\n  jump\t// out\n    /* \"#utility.yul\":466:562   */\ntag_19:\n    /* \"#utility.yul\":503:510   */\n  0x00\n    /* \"#utility.yul\":532:556   */\n  tag_29\n    /* \"#utility.yul\":550:555   */\n  dup3\n    /* \"#utility.yul\":532:556   */\n  tag_18\n  jump\t// in\ntag_29:\n    /* \"#utility.yul\":521:556   */\n  swap1\n  pop\n    /* \"#utility.yul\":466:562   */\n  swap2\n  swap1\n  pop\n  jump\t// out\n    /* \"#utility.yul\":568:690   */\ntag_20:\n    /* \"#utility.yul\":641:665   */\n  tag_31\n    /* \"#utility.yul\":659:664   */\n  dup2\n    /* \"#utility.yul\":641:665   */\n  tag_19\n  jump\t// in\ntag_31:\n    /* \"#utility.yul\":634:639   */\n  dup2\n    /* \"#utility.yul\":631:666   */\n  eq\n    /* \"#utility.yul\":621:684   */\n  tag_32\n  jumpi\n    /* \"#utility.yul\":680:681   */\n  0x00\n    /* \"#utility.yul\":677:678   */\n  dup1\n    /* \"#utility.yul\":670:682   */\n  revert\n    /* \"#utility.yul\":621:684   */\ntag_32:\n    /* \"#utility.yul\":568:690   */\n  pop\n  jump\t// out\n    /* \"#utility.yul\":696:839   */\ntag_21:\n    /* \"#utility.yul\":753:758   */\n  0x00\n    /* \"#utility.yul\":784:790   */\n  dup2\n    /* \"#utility.yul\":778:791   */\n  mload\n    /* \"#utility.yul\":769:791   */\n  swap1\n  pop\n    /* \"#utility.yul\":800:833   */\n  tag_34\n    /* \"#utility.yul\":827:832   */\n  dup2\n    /* \"#utility.yul\":800:833   */\n  tag_20\n  jump\t// in\ntag_34:\n    /* \"#utility.yul\":696:839   */\n  swap3\n  swap2\n  pop\n  pop\n  jump\t// out\n    /* \"#utility.yul\":845:1196   */\ntag_3:\n    /* \"#utility.yul\":915:921   */\n  0x00\n    /* \"#utility.yul\":964:966   */\n  0x20\n    /* \"#utility.yul\":952:961   */\n  dup3\n    /* \"#utility.yul\":943:950   */\n  dup5\n    /* \"#utility.yul\":939:962   */\n  sub\n    /* \"#utility.yul\":935:967   */\n  slt\n    /* \"#utility.yul\":932:1051   */\n  iszero\n  tag_36\n  jumpi\n    /* \"#utility.yul\":970:1049   */\n  tag_37\n  tag_16\n  jump\t// in\ntag_37:\n    /* \"#utility.yul\":932:1051   */\ntag_36:\n    /* \"#utility.yul\":1090:1091   */\n  0x00\n    /* \"#utility.yul\":1115:1179   */\n  tag_38\n    /* \"#utility.yul\":1171:1178   */\n  dup5\n    /* \"#utility.yul\":1162:1168   */\n  dup3\n    /* \"#utility.yul\":1151:1160   */\n  dup6\n    /* \"#utility.yul\":1147:1169   */\n  add\n    /* \"#utility.yul\":1115:1179   */\n  tag_21\n  jump\t// in\ntag_38:\n    /* \"#utility.yul\":1105:1179   */\n  swap2\n  pop\n    /* \"#utility.yul\":1061:1189   */\n  pop\n    /* \"#utility.yul\":845:1196   */\n  swap3\n  swap2\n  pop\n  pop\n  jump\t// out\n    /* \"#utility.yul\":1202:1320   */\ntag_22:\n    /* \"#utility.yul\":1289:1313   */\n  tag_40\n    /* \"#utility.yul\":1307:1312   */\n  dup2\n    /* \"#utility.yul\":1289:1313   */\n  tag_19\n  jump\t// in\ntag_40:\n    /* \"#utility.yul\":1284:1287   */\n  dup3\n    /* \"#utility.yul\":1277:1314   */\n  mstore\n    /* \"#utility.yul\":1202:1320   */\n  pop\n  pop\n  jump\t// out\n    /* \"#utility.yul\":1326:1548   */\ntag_9:\n    /* \"#utility.yul\":1419:1423   */\n  0x00\n    /* \"#utility.yul\":1457:1459   */\n  0x20\n    /* \"#utility.yul\":1446:1455   */\n  dup3\n    /* \"#utility.yul\":1442:1460   */\n  add\n    /* \"#utility.yul\":1434:1460   */\n  swap1\n  pop\n    /* \"#utility.yul\":1470:1541   */\n  tag_42\n    /* \"#utility.yul\":1538:1539   */\n  0x00\n    /* \"#utility.yul\":1527:1536   */\n  dup4\n    /* \"#utility.yul\":1523:1540   */\n  add\n    /* \"#utility.yul\":1514:1520   */\n  dup5\n    /* \"#utility.yul\":1470:1541   */\n  tag_22\n  jump\t// in\ntag_42:\n    /* \"#utility.yul\":1326:1548   */\n  swap3\n  swap2\n  pop\n  pop\n  jump\t// out\n    /* \"contracts/Charity.sol\":116:4292  contract Charity is Ownable {... */\ntag_13:\n  dataSize(sub_0)\n  dup1\n  dataOffset(sub_0)\n  0x00\n  codecopy\n  0x00\n  return\nstop\n\nsub_0: assembly {\n        /* \"contracts/Charity.sol\":116:4292  contract Charity is Ownable {... */\n      mstore(0x40, 0x80)\n      jumpi(tag_1, lt(calldatasize, 0x04))\n      shr(0xe0, calldataload(0x00))\n      dup1\n      0xafcf2fc4\n      gt\n      tag_22\n      jumpi\n      dup1\n      0xe25f8416\n      gt\n      tag_23\n      jumpi\n      dup1\n      0xe25f8416\n      eq\n      tag_17\n      jumpi\n      dup1\n      0xe55a62a8\n      eq\n      tag_18\n      jumpi\n      dup1\n      0xf2fde38b\n      eq\n      tag_19\n      jumpi\n      dup1\n      0xf7b188a5\n      eq\n      tag_20\n      jumpi\n      dup1\n      0xf8626af8\n      eq\n      tag_21\n      jumpi\n      jump(tag_1)\n    tag_23:\n      dup1\n      0xafcf2fc4\n      eq\n      tag_12\n      jumpi\n      dup1\n      0xb187bd26\n      eq\n      tag_13\n      jumpi\n      dup1\n      0xb5aebc80\n      eq\n      tag_14\n      jumpi\n      dup1\n      0xd6176359\n      eq\n      tag_15\n      jumpi\n      dup1\n      0xde2ed893\n      eq\n      tag_16\n      jumpi\n      jump(tag_1)\n    tag_22:\n      dup1\n      0x8456cb59\n      gt\n      tag_24\n      jumpi\n      dup1\n      0x8456cb59\n      eq\n      tag_7\n      jumpi\n      dup1\n      0x853828b6\n      eq\n      tag_8\n      jumpi\n      dup1\n      0x8da5cb5b\n      eq\n      tag_9\n      jumpi\n      dup1\n      0xa8681fd9\n      eq\n      tag_10\n      jumpi\n      dup1\n      0xaf4afe0a\n      eq\n      tag_11\n      jumpi\n      jump(tag_1)\n    tag_24:\n      dup1\n      0x0c9be46d\n      eq\n      tag_2\n      jumpi\n      dup1\n      0x1c0e0225\n      eq\n      tag_3\n      jumpi\n      dup1\n      0x2e1a7d4d\n      eq\n      tag_4\n      jumpi\n      dup1\n      0x715018a6\n      eq\n      tag_5\n      jumpi\n      dup1\n      0x83a36a91\n      eq\n      tag_6\n      jumpi\n    tag_1:\n      0x00\n      dup1\n      revert\n        /* \"contracts/Charity.sol\":1281:1395  function setCharityAddress(address _newAddress) external onlyOwner {... */\n    tag_2:\n      callvalue\n      dup1\n      iszero\n      tag_25\n      jumpi\n      0x00\n      dup1\n      revert\n    tag_25:\n      pop\n      tag_26\n      0x04\n      dup1\n      calldatasize\n      sub\n      dup2\n      add\n      swap1\n      tag_27\n      swap2\n      swap1\n      tag_28\n      jump\t// in\n    tag_27:\n      tag_29\n      jump\t// in\n    tag_26:\n      stop\n        /* \"contracts/Charity.sol\":666:705  uint256 public minDonation = 0.01 ether */\n    tag_3:\n      callvalue\n      dup1\n      iszero\n      tag_30\n      jumpi\n      0x00\n      dup1\n      revert\n    tag_30:\n      pop\n      tag_31\n      tag_32\n      jump\t// in\n    tag_31:\n      mload(0x40)\n      tag_33\n      swap2\n      swap1\n      tag_34\n      jump\t// in\n    tag_33:\n      mload(0x40)\n      dup1\n      swap2\n      sub\n      swap1\n      return\n        /* \"contracts/Charity.sol\":2656:2876  function withdraw(uint256 amount) external onlyOwner {... */\n    tag_4:\n      callvalue\n      dup1\n      iszero\n      tag_35\n      jumpi\n      0x00\n      dup1\n      revert\n    tag_35:\n      pop\n      tag_36\n      0x04\n      dup1\n      calldatasize\n      sub\n      dup2\n      add\n      swap1\n      tag_37\n      swap2\n      swap1\n      tag_38\n      jump\t// in\n    tag_37:\n      tag_39\n      jump\t// in\n    tag_36:\n      stop\n        /* \"@openzeppelin/contracts/access/Ownable.sol\":2293:2394  function renounceOwnership() public virtual onlyOwner {... */\n    tag_5:\n      callvalue\n      dup1\n      iszero\n      tag_40\n      jumpi\n      0x00\n      dup1\n      revert\n    tag_40:\n      pop\n      tag_41\n      tag_42\n      jump\t// in\n    tag_41:\n      stop\n        /* \"contracts/Charity.sol\":3665:3763  function getExpenses() external view returns (Expense[] memory) {... */\n    tag_6:\n      callvalue\n      dup1\n      iszero\n      tag_43\n      jumpi\n      0x00\n      dup1\n      revert\n    tag_43:\n      pop\n      tag_44\n      tag_45\n      jump\t// in\n    tag_44:\n      mload(0x40)\n      tag_46\n      swap2\n      swap1\n      tag_47\n      jump\t// in\n    tag_46:\n      mload(0x40)\n      dup1\n      swap2\n      sub\n      swap1\n      return\n        /* \"contracts/Charity.sol\":1453:1523  function pause() external onlyOwner {... */\n    tag_7:\n      callvalue\n      dup1\n      iszero\n      tag_48\n      jumpi\n      0x00\n      dup1\n      revert\n    tag_48:\n      pop\n      tag_49\n      tag_50\n      jump\t// in\n    tag_49:\n      stop\n        /* \"contracts/Charity.sol\":2886:3123  function withdrawAll() external onlyOwner {... */\n    tag_8:\n      callvalue\n      dup1\n      iszero\n      tag_51\n      jumpi\n      0x00\n      dup1\n      revert\n    tag_51:\n      pop\n      tag_52\n      tag_53\n      jump\t// in\n    tag_52:\n      stop\n        /* \"@openzeppelin/contracts/access/Ownable.sol\":1638:1723  function owner() public view virtual returns (address) {... */\n    tag_9:\n      callvalue\n      dup1\n      iszero\n      tag_54\n      jumpi\n      0x00\n      dup1\n      revert\n    tag_54:\n      pop\n      tag_55\n      tag_56\n      jump\t// in\n    tag_55:\n      mload(0x40)\n      tag_57\n      swap2\n      swap1\n      tag_58\n      jump\t// in\n    tag_57:\n      mload(0x40)\n      dup1\n      swap2\n      sub\n      swap1\n      return\n        /* \"contracts/Charity.sol\":738:775  uint256 public maxDonation = 10 ether */\n    tag_10:\n      callvalue\n      dup1\n      iszero\n      tag_59\n      jumpi\n      0x00\n      dup1\n      revert\n    tag_59:\n      pop\n      tag_60\n      tag_61\n      jump\t// in\n    tag_60:\n      mload(0x40)\n      tag_62\n      swap2\n      swap1\n      tag_34\n      jump\t// in\n    tag_62:\n      mload(0x40)\n      dup1\n      swap2\n      sub\n      swap1\n      return\n        /* \"contracts/Charity.sol\":528:553  Expense[] public expenses */\n    tag_11:\n      callvalue\n      dup1\n      iszero\n      tag_63\n      jumpi\n      0x00\n      dup1\n      revert\n    tag_63:\n      pop\n      tag_64\n      0x04\n      dup1\n      calldatasize\n      sub\n      dup2\n      add\n      swap1\n      tag_65\n      swap2\n      swap1\n      tag_38\n      jump\t// in\n    tag_65:\n      tag_66\n      jump\t// in\n    tag_64:\n      mload(0x40)\n      tag_67\n      swap4\n      swap3\n      swap2\n      swap1\n      tag_68\n      jump\t// in\n    tag_67:\n      mload(0x40)\n      dup1\n      swap2\n      sub\n      swap1\n      return\n        /* \"contracts/Charity.sol\":630:659  address public charityAddress */\n    tag_12:\n      callvalue\n      dup1\n      iszero\n      tag_69\n      jumpi\n      0x00\n      dup1\n      revert\n    tag_69:\n      pop\n      tag_70\n      tag_71\n      jump\t// in\n    tag_70:\n      mload(0x40)\n      tag_72\n      swap2\n      swap1\n      tag_58\n      jump\t// in\n    tag_72:\n      mload(0x40)\n      dup1\n      swap2\n      sub\n      swap1\n      return\n        /* \"contracts/Charity.sol\":808:836  bool public isPaused = false */\n    tag_13:\n      callvalue\n      dup1\n      iszero\n      tag_73\n      jumpi\n      0x00\n      dup1\n      revert\n    tag_73:\n      pop\n      tag_74\n      tag_75\n      jump\t// in\n    tag_74:\n      mload(0x40)\n      tag_76\n      swap2\n      swap1\n      tag_77\n      jump\t// in\n    tag_76:\n      mload(0x40)\n      dup1\n      swap2\n      sub\n      swap1\n      return\n        /* \"contracts/Charity.sol\":1641:2429  function donate(string calldata purpose) external payable whenNotPaused{... */\n    tag_14:\n      tag_78\n      0x04\n      dup1\n      calldatasize\n      sub\n      dup2\n      add\n      swap1\n      tag_79\n      swap2\n      swap1\n      tag_80\n      jump\t// in\n    tag_79:\n      tag_81\n      jump\t// in\n    tag_78:\n      stop\n        /* \"contracts/Charity.sol\":3154:3629  function logExpense(uint256 amount, string calldata description) external onlyOwner {... */\n    tag_15:\n      callvalue\n      dup1\n      iszero\n      tag_82\n      jumpi\n      0x00\n      dup1\n      revert\n    tag_82:\n      pop\n      tag_83\n      0x04\n      dup1\n      calldatasize\n      sub\n      dup2\n      add\n      swap1\n      tag_84\n      swap2\n      swap1\n      tag_85\n      jump\t// in\n    tag_84:\n      tag_86\n      jump\t// in\n    tag_83:\n      stop\n        /* \"contracts/Charity.sol\":594:623  uint256 public totalDonations */\n    tag_16:\n      callvalue\n      dup1\n      iszero\n      tag_87\n      jumpi\n      0x00\n      dup1\n      revert\n    tag_87:\n      pop\n      tag_88\n      tag_89\n      jump\t// in\n    tag_88:\n      mload(0x40)\n      tag_90\n      swap2\n      swap1\n      tag_34\n      jump\t// in\n    tag_90:\n      mload(0x40)\n      dup1\n      swap2\n      sub\n      swap1\n      return\n        /* \"contracts/Charity.sol\":2547:2648  function getDonations() external view returns (Donation[] memory) {... */\n    tag_17:\n      callvalue\n      dup1\n      iszero\n      tag_91\n      jumpi\n      0x00\n      dup1\n      revert\n    tag_91:\n      pop\n      tag_92\n      tag_93\n      jump\t// in\n    tag_92:\n      mload(0x40)\n      tag_94\n      swap2\n      swap1\n      tag_95\n      jump\t// in\n    tag_94:\n      mload(0x40)\n      dup1\n      swap2\n      sub\n      swap1\n      return\n        /* \"contracts/Charity.sol\":2437:2539  function getDonationCount() external view returns (uint256) {... */\n    tag_18:\n      callvalue\n      dup1\n      iszero\n      tag_96\n      jumpi\n      0x00\n      dup1\n      revert\n    tag_96:\n      pop\n      tag_97\n      tag_98\n      jump\t// in\n    tag_97:\n      mload(0x40)\n      tag_99\n      swap2\n      swap1\n      tag_34\n      jump\t// in\n    tag_99:\n      mload(0x40)\n      dup1\n      swap2\n      sub\n      swap1\n      return\n        /* \"@openzeppelin/contracts/access/Ownable.sol\":2543:2758  function transferOwnership(address newOwner) public virtual onlyOwner {... */\n    tag_19:\n      callvalue\n      dup1\n      iszero\n      tag_100\n      jumpi\n      0x00\n      dup1\n      revert\n    tag_100:\n      pop\n      tag_101\n      0x04\n      dup1\n      calldatasize\n      sub\n      dup2\n      add\n      swap1\n      tag_102\n      swap2\n      swap1\n      tag_28\n      jump\t// in\n    tag_102:\n      tag_103\n      jump\t// in\n    tag_101:\n      stop\n        /* \"contracts/Charity.sol\":1560:1633  function unPause() external onlyOwner {... */\n    tag_20:\n      callvalue\n      dup1\n      iszero\n      tag_104\n      jumpi\n      0x00\n      dup1\n      revert\n    tag_104:\n      pop\n      tag_105\n      tag_106\n      jump\t// in\n    tag_105:\n      stop\n        /* \"contracts/Charity.sol\":560:587  Donation[] public donations */\n    tag_21:\n      callvalue\n      dup1\n      iszero\n      tag_107\n      jumpi\n      0x00\n      dup1\n      revert\n    tag_107:\n      pop\n      tag_108\n      0x04\n      dup1\n      calldatasize\n      sub\n      dup2\n      add\n      swap1\n      tag_109\n      swap2\n      swap1\n      tag_38\n      jump\t// in\n    tag_109:\n      tag_110\n      jump\t// in\n    tag_108:\n      mload(0x40)\n      tag_111\n      swap6\n      swap5\n      swap4\n      swap3\n      swap2\n      swap1\n      tag_112\n      jump\t// in\n    tag_111:\n      mload(0x40)\n      dup1\n      swap2\n      sub\n      swap1\n      return\n        /* \"contracts/Charity.sol\":1281:1395  function setCharityAddress(address _newAddress) external onlyOwner {... */\n    tag_29:\n        /* \"@openzeppelin/contracts/access/Ownable.sol\":1531:1544  _checkOwner() */\n      tag_114\n        /* \"@openzeppelin/contracts/access/Ownable.sol\":1531:1542  _checkOwner */\n      tag_115\n        /* \"@openzeppelin/contracts/access/Ownable.sol\":1531:1544  _checkOwner() */\n      jump\t// in\n    tag_114:\n        /* \"contracts/Charity.sol\":1376:1387  _newAddress */\n      dup1\n        /* \"contracts/Charity.sol\":1359:1373  charityAddress */\n      0x04\n      0x00\n        /* \"contracts/Charity.sol\":1359:1387  charityAddress = _newAddress */\n      0x0100\n      exp\n      dup2\n      sload\n      dup2\n      0xffffffffffffffffffffffffffffffffffffffff\n      mul\n      not\n      and\n      swap1\n      dup4\n      0xffffffffffffffffffffffffffffffffffffffff\n      and\n      mul\n      or\n      swap1\n      sstore\n      pop\n        /* \"contracts/Charity.sol\":1281:1395  function setCharityAddress(address _newAddress) external onlyOwner {... */\n      pop\n      jump\t// out\n        /* \"contracts/Charity.sol\":666:705  uint256 public minDonation = 0.01 ether */\n    tag_32:\n      sload(0x05)\n      dup2\n      jump\t// out\n        /* \"contracts/Charity.sol\":2656:2876  function withdraw(uint256 amount) external onlyOwner {... */\n    tag_39:\n        /* \"@openzeppelin/contracts/access/Ownable.sol\":1531:1544  _checkOwner() */\n      tag_118\n        /* \"@openzeppelin/contracts/access/Ownable.sol\":1531:1542  _checkOwner */\n      tag_115\n        /* \"@openzeppelin/contracts/access/Ownable.sol\":1531:1544  _checkOwner() */\n      jump\t// in\n    tag_118:\n        /* \"contracts/Charity.sol\":2753:2759  amount */\n      dup1\n        /* \"contracts/Charity.sol\":2728:2749  address(this).balance */\n      selfbalance\n        /* \"contracts/Charity.sol\":2728:2759  address(this).balance >= amount */\n      lt\n      iszero\n        /* \"contracts/Charity.sol\":2720:2784  require(address(this).balance >= amount, \"Insufficient balance\") */\n      tag_120\n      jumpi\n      mload(0x40)\n      0x08c379a000000000000000000000000000000000000000000000000000000000\n      dup2\n      mstore\n      0x04\n      add\n      tag_121\n      swap1\n      tag_122\n      jump\t// in\n    tag_121:\n      mload(0x40)\n      dup1\n      swap2\n      sub\n      swap1\n      revert\n    tag_120:\n        /* \"contracts/Charity.sol\":2803:2817  charityAddress */\n      0x04\n      0x00\n      swap1\n      sload\n      swap1\n      0x0100\n      exp\n      swap1\n      div\n      0xffffffffffffffffffffffffffffffffffffffff\n      and\n        /* \"contracts/Charity.sol\":2795:2827  payable(charityAddress).transfer */\n      0xffffffffffffffffffffffffffffffffffffffff\n      and\n        /* \"contracts/Charity.sol\":2795:2835  payable(charityAddress).transfer(amount) */\n      0x08fc\n        /* \"contracts/Charity.sol\":2828:2834  amount */\n      dup3\n        /* \"contracts/Charity.sol\":2795:2835  payable(charityAddress).transfer(amount) */\n      swap1\n      dup2\n      iszero\n      mul\n      swap1\n      mload(0x40)\n      0x00\n      mload(0x40)\n      dup1\n      dup4\n      sub\n      dup2\n      dup6\n      dup9\n      dup9\n      call\n      swap4\n      pop\n      pop\n      pop\n      pop\n      iszero\n      dup1\n      iszero\n      tag_124\n      jumpi\n      returndatasize\n      0x00\n      dup1\n      returndatacopy\n      revert(0x00, returndatasize)\n    tag_124:\n      pop\n        /* \"contracts/Charity.sol\":2851:2868  Withdrawn(amount) */\n      0x430648de173157e069201c943adb2d4e340e7cf5b27b1b09c9cb852f03d63b56\n        /* \"contracts/Charity.sol\":2861:2867  amount */\n      dup2\n        /* \"contracts/Charity.sol\":2851:2868  Withdrawn(amount) */\n      mload(0x40)\n      tag_125\n      swap2\n      swap1\n      tag_34\n      jump\t// in\n    tag_125:\n      mload(0x40)\n      dup1\n      swap2\n      sub\n      swap1\n      log1\n        /* \"contracts/Charity.sol\":2656:2876  function withdraw(uint256 amount) external onlyOwner {... */\n      pop\n      jump\t// out\n        /* \"@openzeppelin/contracts/access/Ownable.sol\":2293:2394  function renounceOwnership() public virtual onlyOwner {... */\n    tag_42:\n        /* \"@openzeppelin/contracts/access/Ownable.sol\":1531:1544  _checkOwner() */\n      tag_127\n        /* \"@openzeppelin/contracts/access/Ownable.sol\":1531:1542  _checkOwner */\n      tag_115\n        /* \"@openzeppelin/contracts/access/Ownable.sol\":1531:1544  _checkOwner() */\n      jump\t// in\n    tag_127:\n        /* \"@openzeppelin/contracts/access/Ownable.sol\":2357:2387  _transferOwnership(address(0)) */\n      tag_129\n        /* \"@openzeppelin/contracts/access/Ownable.sol\":2384:2385  0 */\n      0x00\n        /* \"@openzeppelin/contracts/access/Ownable.sol\":2357:2375  _transferOwnership */\n      tag_130\n        /* \"@openzeppelin/contracts/access/Ownable.sol\":2357:2387  _transferOwnership(address(0)) */\n      jump\t// in\n    tag_129:\n        /* \"@openzeppelin/contracts/access/Ownable.sol\":2293:2394  function renounceOwnership() public virtual onlyOwner {... */\n      jump\t// out\n        /* \"contracts/Charity.sol\":3665:3763  function getExpenses() external view returns (Expense[] memory) {... */\n    tag_45:\n        /* \"contracts/Charity.sol\":3711:3727  Expense[] memory */\n      0x60\n        /* \"contracts/Charity.sol\":3747:3755  expenses */\n      0x01\n        /* \"contracts/Charity.sol\":3740:3755  return expenses */\n      dup1\n      sload\n      dup1\n      0x20\n      mul\n      0x20\n      add\n      mload(0x40)\n      swap1\n      dup2\n      add\n      0x40\n      mstore\n      dup1\n      swap3\n      swap2\n      swap1\n      dup2\n      dup2\n      mstore\n      0x20\n      add\n      0x00\n      swap1\n    tag_132:\n      dup3\n      dup3\n      lt\n      iszero\n      tag_133\n      jumpi\n      dup4\n      dup3\n      swap1\n      0x00\n      mstore\n      keccak256(0x00, 0x20)\n      swap1\n      0x03\n      mul\n      add\n      mload(0x40)\n      dup1\n      0x60\n      add\n      0x40\n      mstore\n      swap1\n      dup2\n      0x00\n      dup3\n      add\n      sload\n      dup2\n      mstore\n      0x20\n      add\n      0x01\n      dup3\n      add\n      dup1\n      sload\n      tag_135\n      swap1\n      tag_136\n      jump\t// in\n    tag_135:\n      dup1\n      0x1f\n      add\n      0x20\n      dup1\n      swap2\n      div\n      mul\n      0x20\n      add\n      mload(0x40)\n      swap1\n      dup2\n      add\n      0x40\n      mstore\n      dup1\n      swap3\n      swap2\n      swap1\n      dup2\n      dup2\n      mstore\n      0x20\n      add\n      dup3\n      dup1\n      sload\n      tag_137\n      swap1\n      tag_136\n      jump\t// in\n    tag_137:\n      dup1\n      iszero\n      tag_138\n      jumpi\n      dup1\n      0x1f\n      lt\n      tag_139\n      jumpi\n      0x0100\n      dup1\n      dup4\n      sload\n      div\n      mul\n      dup4\n      mstore\n      swap2\n      0x20\n      add\n      swap2\n      jump(tag_138)\n    tag_139:\n      dup3\n      add\n      swap2\n      swap1\n      0x00\n      mstore\n      keccak256(0x00, 0x20)\n      swap1\n    tag_140:\n      dup2\n      sload\n      dup2\n      mstore\n      swap1\n      0x01\n      add\n      swap1\n      0x20\n      add\n      dup1\n      dup4\n      gt\n      tag_140\n      jumpi\n      dup3\n      swap1\n      sub\n      0x1f\n      and\n      dup3\n      add\n      swap2\n    tag_138:\n      pop\n      pop\n      pop\n      pop\n      pop\n      dup2\n      mstore\n      0x20\n      add\n      0x02\n      dup3\n      add\n      sload\n      dup2\n      mstore\n      pop\n      pop\n      dup2\n      mstore\n      0x20\n      add\n      swap1\n      0x01\n      add\n      swap1\n      jump(tag_132)\n    tag_133:\n      pop\n      pop\n      pop\n      pop\n      swap1\n      pop\n        /* \"contracts/Charity.sol\":3665:3763  function getExpenses() external view returns (Expense[] memory) {... */\n      swap1\n      jump\t// out\n        /* \"contracts/Charity.sol\":1453:1523  function pause() external onlyOwner {... */\n    tag_50:\n        /* \"@openzeppelin/contracts/access/Ownable.sol\":1531:1544  _checkOwner() */\n      tag_142\n        /* \"@openzeppelin/contracts/access/Ownable.sol\":1531:1542  _checkOwner */\n      tag_115\n        /* \"@openzeppelin/contracts/access/Ownable.sol\":1531:1544  _checkOwner() */\n      jump\t// in\n    tag_142:\n        /* \"contracts/Charity.sol\":1511:1515  true */\n      0x01\n        /* \"contracts/Charity.sol\":1500:1508  isPaused */\n      0x07\n      0x00\n        /* \"contracts/Charity.sol\":1500:1515  isPaused = true */\n      0x0100\n      exp\n      dup2\n      sload\n      dup2\n      0xff\n      mul\n      not\n      and\n      swap1\n      dup4\n      iszero\n      iszero\n      mul\n      or\n      swap1\n      sstore\n      pop\n        /* \"contracts/Charity.sol\":1453:1523  function pause() external onlyOwner {... */\n      jump\t// out\n        /* \"contracts/Charity.sol\":2886:3123  function withdrawAll() external onlyOwner {... */\n    tag_53:\n        /* \"@openzeppelin/contracts/access/Ownable.sol\":1531:1544  _checkOwner() */\n      tag_145\n        /* \"@openzeppelin/contracts/access/Ownable.sol\":1531:1542  _checkOwner */\n      tag_115\n        /* \"@openzeppelin/contracts/access/Ownable.sol\":1531:1544  _checkOwner() */\n      jump\t// in\n    tag_145:\n        /* \"contracts/Charity.sol\":2939:2953  uint256 amount */\n      0x00\n        /* \"contracts/Charity.sol\":2956:2977  address(this).balance */\n      selfbalance\n        /* \"contracts/Charity.sol\":2939:2977  uint256 amount = address(this).balance */\n      swap1\n      pop\n        /* \"contracts/Charity.sol\":3005:3006  0 */\n      0x00\n        /* \"contracts/Charity.sol\":2996:3002  amount */\n      dup2\n        /* \"contracts/Charity.sol\":2996:3006  amount > 0 */\n      gt\n        /* \"contracts/Charity.sol\":2988:3031  require(amount > 0, \"No funds to withdraw\") */\n      tag_147\n      jumpi\n      mload(0x40)\n      0x08c379a000000000000000000000000000000000000000000000000000000000\n      dup2\n      mstore\n      0x04\n      add\n      tag_148\n      swap1\n      tag_149\n      jump\t// in\n    tag_148:\n      mload(0x40)\n      dup1\n      swap2\n      sub\n      swap1\n      revert\n    tag_147:\n        /* \"contracts/Charity.sol\":3050:3064  charityAddress */\n      0x04\n      0x00\n      swap1\n      sload\n      swap1\n      0x0100\n      exp\n      swap1\n      div\n      0xffffffffffffffffffffffffffffffffffffffff\n      and\n        /* \"contracts/Charity.sol\":3042:3074  payable(charityAddress).transfer */\n      0xffffffffffffffffffffffffffffffffffffffff\n      and\n        /* \"contracts/Charity.sol\":3042:3082  payable(charityAddress).transfer(amount) */\n      0x08fc\n        /* \"contracts/Charity.sol\":3075:3081  amount */\n      dup3\n        /* \"contracts/Charity.sol\":3042:3082  payable(charityAddress).transfer(amount) */\n      swap1\n      dup2\n      iszero\n      mul\n      swap1\n      mload(0x40)\n      0x00\n      mload(0x40)\n      dup1\n      dup4\n      sub\n      dup2\n      dup6\n      dup9\n      dup9\n      call\n      swap4\n      pop\n      pop\n      pop\n      pop\n      iszero\n      dup1\n      iszero\n      tag_151\n      jumpi\n      returndatasize\n      0x00\n      dup1\n      returndatacopy\n      revert(0x00, returndatasize)\n    tag_151:\n      pop\n        /* \"contracts/Charity.sol\":3098:3115  Withdrawn(amount) */\n      0x430648de173157e069201c943adb2d4e340e7cf5b27b1b09c9cb852f03d63b56\n        /* \"contracts/Charity.sol\":3108:3114  amount */\n      dup2\n        /* \"contracts/Charity.sol\":3098:3115  Withdrawn(amount) */\n      mload(0x40)\n      tag_152\n      swap2\n      swap1\n      tag_34\n      jump\t// in\n    tag_152:\n      mload(0x40)\n      dup1\n      swap2\n      sub\n      swap1\n      log1\n        /* \"contracts/Charity.sol\":2928:3123  {... */\n      pop\n        /* \"contracts/Charity.sol\":2886:3123  function withdrawAll() external onlyOwner {... */\n      jump\t// out\n        /* \"@openzeppelin/contracts/access/Ownable.sol\":1638:1723  function owner() public view virtual returns (address) {... */\n    tag_56:\n        /* \"@openzeppelin/contracts/access/Ownable.sol\":1684:1691  address */\n      0x00\n        /* \"@openzeppelin/contracts/access/Ownable.sol\":1710:1716  _owner */\n      dup1\n      0x00\n      swap1\n      sload\n      swap1\n      0x0100\n      exp\n      swap1\n      div\n      0xffffffffffffffffffffffffffffffffffffffff\n      and\n        /* \"@openzeppelin/contracts/access/Ownable.sol\":1703:1716  return _owner */\n      swap1\n      pop\n        /* \"@openzeppelin/contracts/access/Ownable.sol\":1638:1723  function owner() public view virtual returns (address) {... */\n      swap1\n      jump\t// out\n        /* \"contracts/Charity.sol\":738:775  uint256 public maxDonation = 10 ether */\n    tag_61:\n      sload(0x06)\n      dup2\n      jump\t// out\n        /* \"contracts/Charity.sol\":528:553  Expense[] public expenses */\n    tag_66:\n      0x01\n      dup2\n      dup2\n      sload\n      dup2\n      lt\n      tag_154\n      jumpi\n      0x00\n      dup1\n      revert\n    tag_154:\n      swap1\n      0x00\n      mstore\n      keccak256(0x00, 0x20)\n      swap1\n      0x03\n      mul\n      add\n      0x00\n      swap2\n      pop\n      swap1\n      pop\n      dup1\n      0x00\n      add\n      sload\n      swap1\n      dup1\n      0x01\n      add\n      dup1\n      sload\n      tag_156\n      swap1\n      tag_136\n      jump\t// in\n    tag_156:\n      dup1\n      0x1f\n      add\n      0x20\n      dup1\n      swap2\n      div\n      mul\n      0x20\n      add\n      mload(0x40)\n      swap1\n      dup2\n      add\n      0x40\n      mstore\n      dup1\n      swap3\n      swap2\n      swap1\n      dup2\n      dup2\n      mstore\n      0x20\n      add\n      dup3\n      dup1\n      sload\n      tag_157\n      swap1\n      tag_136\n      jump\t// in\n    tag_157:\n      dup1\n      iszero\n      tag_158\n      jumpi\n      dup1\n      0x1f\n      lt\n      tag_159\n      jumpi\n      0x0100\n      dup1\n      dup4\n      sload\n      div\n      mul\n      dup4\n      mstore\n      swap2\n      0x20\n      add\n      swap2\n      jump(tag_158)\n    tag_159:\n      dup3\n      add\n      swap2\n      swap1\n      0x00\n      mstore\n      keccak256(0x00, 0x20)\n      swap1\n    tag_160:\n      dup2\n      sload\n      dup2\n      mstore\n      swap1\n      0x01\n      add\n      swap1\n      0x20\n      add\n      dup1\n      dup4\n      gt\n      tag_160\n      jumpi\n      dup3\n      swap1\n      sub\n      0x1f\n      and\n      dup3\n      add\n      swap2\n    tag_158:\n      pop\n      pop\n      pop\n      pop\n      pop\n      swap1\n      dup1\n      0x02\n      add\n      sload\n      swap1\n      pop\n      dup4\n      jump\t// out\n        /* \"contracts/Charity.sol\":630:659  address public charityAddress */\n    tag_71:\n      0x04\n      0x00\n      swap1\n      sload\n      swap1\n      0x0100\n      exp\n      swap1\n      div\n      0xffffffffffffffffffffffffffffffffffffffff\n      and\n      dup2\n      jump\t// out\n        /* \"contracts/Charity.sol\":808:836  bool public isPaused = false */\n    tag_75:\n      0x07\n      0x00\n      swap1\n      sload\n      swap1\n      0x0100\n      exp\n      swap1\n      div\n      0xff\n      and\n      dup2\n      jump\t// out\n        /* \"contracts/Charity.sol\":1641:2429  function donate(string calldata purpose) external payable whenNotPaused{... */\n    tag_81:\n        /* \"contracts/Charity.sol\":1105:1113  isPaused */\n      0x07\n      0x00\n      swap1\n      sload\n      swap1\n      0x0100\n      exp\n      swap1\n      div\n      0xff\n      and\n        /* \"contracts/Charity.sol\":1104:1113  !isPaused */\n      iszero\n        /* \"contracts/Charity.sol\":1096:1136  require(!isPaused, \"Contract is paused\") */\n      tag_162\n      jumpi\n      mload(0x40)\n      0x08c379a000000000000000000000000000000000000000000000000000000000\n      dup2\n      mstore\n      0x04\n      add\n      tag_163\n      swap1\n      tag_164\n      jump\t// in\n    tag_163:\n      mload(0x40)\n      dup1\n      swap2\n      sub\n      swap1\n      revert\n    tag_162:\n        /* \"contracts/Charity.sol\":1744:1755  minDonation */\n      sload(0x05)\n        /* \"contracts/Charity.sol\":1731:1740  msg.value */\n      callvalue\n        /* \"contracts/Charity.sol\":1731:1755  msg.value >= minDonation */\n      lt\n      iszero\n        /* \"contracts/Charity.sol\":1723:1795  require(msg.value >= minDonation, \"Donation is below the minimum limit\") */\n      tag_166\n      jumpi\n      mload(0x40)\n      0x08c379a000000000000000000000000000000000000000000000000000000000\n      dup2\n      mstore\n      0x04\n      add\n      tag_167\n      swap1\n      tag_168\n      jump\t// in\n    tag_167:\n      mload(0x40)\n      dup1\n      swap2\n      sub\n      swap1\n      revert\n    tag_166:\n        /* \"contracts/Charity.sol\":1827:1838  maxDonation */\n      sload(0x06)\n        /* \"contracts/Charity.sol\":1814:1823  msg.value */\n      callvalue\n        /* \"contracts/Charity.sol\":1814:1838  msg.value <= maxDonation */\n      gt\n      iszero\n        /* \"contracts/Charity.sol\":1806:1878  require(msg.value <= maxDonation, \"Donation is above the maximum limit\") */\n      tag_169\n      jumpi\n      mload(0x40)\n      0x08c379a000000000000000000000000000000000000000000000000000000000\n      dup2\n      mstore\n      0x04\n      add\n      tag_170\n      swap1\n      tag_171\n      jump\t// in\n    tag_170:\n      mload(0x40)\n      dup1\n      swap2\n      sub\n      swap1\n      revert\n    tag_169:\n        /* \"contracts/Charity.sol\":1933:1961  string memory acknowledgment */\n      0x00\n        /* \"contracts/Charity.sol\":2022:2041  uint2str(msg.value) */\n      tag_172\n        /* \"contracts/Charity.sol\":2031:2040  msg.value */\n      callvalue\n        /* \"contracts/Charity.sol\":2022:2030  uint2str */\n      tag_173\n        /* \"contracts/Charity.sol\":2022:2041  uint2str(msg.value) */\n      jump\t// in\n    tag_172:\n        /* \"contracts/Charity.sol\":2067:2074  purpose */\n      dup4\n      dup4\n        /* \"contracts/Charity.sol\":1971:2075  abi.encodePacked(\"Thank you for your donation of\", uint2str(msg.value), \"wei for the purpose:\", purpose) */\n      add(0x20, mload(0x40))\n      tag_174\n      swap4\n      swap3\n      swap2\n      swap1\n      tag_175\n      jump\t// in\n    tag_174:\n      mload(0x40)\n      0x20\n      dup2\n      dup4\n      sub\n      sub\n      dup2\n      mstore\n      swap1\n      0x40\n      mstore\n        /* \"contracts/Charity.sol\":1933:2076  string memory acknowledgment = string(abi.encodePacked(\"Thank you for your donation of\", uint2str(msg.value), \"wei for the purpose:\", purpose)) */\n      swap1\n      pop\n        /* \"contracts/Charity.sol\":2089:2098  donations */\n      0x02\n        /* \"contracts/Charity.sol\":2104:2306  Donation({... */\n      mload(0x40)\n      dup1\n      0xa0\n      add\n      0x40\n      mstore\n      dup1\n        /* \"contracts/Charity.sol\":2135:2145  msg.sender */\n      caller\n        /* \"contracts/Charity.sol\":2104:2306  Donation({... */\n      0xffffffffffffffffffffffffffffffffffffffff\n      and\n      dup2\n      mstore\n      0x20\n      add\n        /* \"contracts/Charity.sol\":2168:2177  msg.value */\n      callvalue\n        /* \"contracts/Charity.sol\":2104:2306  Donation({... */\n      dup2\n      mstore\n      0x20\n      add\n        /* \"contracts/Charity.sol\":2203:2218  block.timestamp */\n      timestamp\n        /* \"contracts/Charity.sol\":2104:2306  Donation({... */\n      dup2\n      mstore\n      0x20\n      add\n        /* \"contracts/Charity.sol\":2242:2249  purpose */\n      dup6\n      dup6\n        /* \"contracts/Charity.sol\":2104:2306  Donation({... */\n      dup1\n      dup1\n      0x1f\n      add\n      0x20\n      dup1\n      swap2\n      div\n      mul\n      0x20\n      add\n      mload(0x40)\n      swap1\n      dup2\n      add\n      0x40\n      mstore\n      dup1\n      swap4\n      swap3\n      swap2\n      swap1\n      dup2\n      dup2\n      mstore\n      0x20\n      add\n      dup4\n      dup4\n      dup1\n      dup3\n      dup5\n      calldatacopy\n      0x00\n      dup2\n      dup5\n      add\n      mstore\n      not(0x1f)\n      0x1f\n      dup3\n      add\n      and\n      swap1\n      pop\n      dup1\n      dup4\n      add\n      swap3\n      pop\n      pop\n      pop\n      pop\n      pop\n      pop\n      pop\n      dup2\n      mstore\n      0x20\n      add\n        /* \"contracts/Charity.sol\":2280:2294  acknowledgment */\n      dup4\n        /* \"contracts/Charity.sol\":2104:2306  Donation({... */\n      dup2\n      mstore\n      pop\n        /* \"contracts/Charity.sol\":2089:2307  donations.push(Donation({... */\n      swap1\n      dup1\n      0x01\n      dup2\n      sload\n      add\n      dup1\n      dup3\n      sstore\n      dup1\n      swap2\n      pop\n      pop\n      0x01\n      swap1\n      sub\n      swap1\n      0x00\n      mstore\n      keccak256(0x00, 0x20)\n      swap1\n      0x05\n      mul\n      add\n      0x00\n      swap1\n      swap2\n      swap1\n      swap2\n      swap1\n      swap2\n      pop\n      0x00\n      dup3\n      add\n      mload\n      dup2\n      0x00\n      add\n      exp(0x0100, 0x00)\n      dup2\n      sload\n      dup2\n      0xffffffffffffffffffffffffffffffffffffffff\n      mul\n      not\n      and\n      swap1\n      dup4\n      0xffffffffffffffffffffffffffffffffffffffff\n      and\n      mul\n      or\n      swap1\n      sstore\n      pop\n      0x20\n      dup3\n      add\n      mload\n      dup2\n      0x01\n      add\n      sstore\n      0x40\n      dup3\n      add\n      mload\n      dup2\n      0x02\n      add\n      sstore\n      0x60\n      dup3\n      add\n      mload\n      dup2\n      0x03\n      add\n      swap1\n      dup2\n      tag_177\n      swap2\n      swap1\n      tag_178\n      jump\t// in\n    tag_177:\n      pop\n      0x80\n      dup3\n      add\n      mload\n      dup2\n      0x04\n      add\n      swap1\n      dup2\n      tag_179\n      swap2\n      swap1\n      tag_178\n      jump\t// in\n    tag_179:\n      pop\n      pop\n      pop\n        /* \"contracts/Charity.sol\":2338:2347  msg.value */\n      callvalue\n        /* \"contracts/Charity.sol\":2320:2334  totalDonations */\n      0x03\n      0x00\n        /* \"contracts/Charity.sol\":2320:2347  totalDonations += msg.value */\n      dup3\n      dup3\n      sload\n      tag_180\n      swap2\n      swap1\n      tag_181\n      jump\t// in\n    tag_180:\n      swap3\n      pop\n      pop\n      dup2\n      swap1\n      sstore\n      pop\n        /* \"contracts/Charity.sol\":2373:2383  msg.sender */\n      caller\n        /* \"contracts/Charity.sol\":2365:2421  Donated(msg.sender, msg.value, block.timestamp, purpose) */\n      0xffffffffffffffffffffffffffffffffffffffff\n      and\n      0x4cf3c36975788b7d51ee27a6f2f3cec5636166fb7387af9ae2102da15448271f\n        /* \"contracts/Charity.sol\":2385:2394  msg.value */\n      callvalue\n        /* \"contracts/Charity.sol\":2396:2411  block.timestamp */\n      timestamp\n        /* \"contracts/Charity.sol\":2413:2420  purpose */\n      dup7\n      dup7\n        /* \"contracts/Charity.sol\":2365:2421  Donated(msg.sender, msg.value, block.timestamp, purpose) */\n      mload(0x40)\n      tag_182\n      swap5\n      swap4\n      swap3\n      swap2\n      swap1\n      tag_183\n      jump\t// in\n    tag_182:\n      mload(0x40)\n      dup1\n      swap2\n      sub\n      swap1\n      log2\n        /* \"contracts/Charity.sol\":1712:2429  {... */\n      pop\n        /* \"contracts/Charity.sol\":1641:2429  function donate(string calldata purpose) external payable whenNotPaused{... */\n      pop\n      pop\n      jump\t// out\n        /* \"contracts/Charity.sol\":3154:3629  function logExpense(uint256 amount, string calldata description) external onlyOwner {... */\n    tag_86:\n        /* \"@openzeppelin/contracts/access/Ownable.sol\":1531:1544  _checkOwner() */\n      tag_185\n        /* \"@openzeppelin/contracts/access/Ownable.sol\":1531:1542  _checkOwner */\n      tag_115\n        /* \"@openzeppelin/contracts/access/Ownable.sol\":1531:1544  _checkOwner() */\n      jump\t// in\n    tag_185:\n        /* \"contracts/Charity.sol\":3266:3267  0 */\n      0x00\n        /* \"contracts/Charity.sol\":3257:3263  amount */\n      dup4\n        /* \"contracts/Charity.sol\":3257:3267  amount > 0 */\n      gt\n        /* \"contracts/Charity.sol\":3249:3309  require(amount > 0, \"Expense amount must be greater than 0\") */\n      tag_187\n      jumpi\n      mload(0x40)\n      0x08c379a000000000000000000000000000000000000000000000000000000000\n      dup2\n      mstore\n      0x04\n      add\n      tag_188\n      swap1\n      tag_189\n      jump\t// in\n    tag_188:\n      mload(0x40)\n      dup1\n      swap2\n      sub\n      swap1\n      revert\n    tag_187:\n        /* \"contracts/Charity.sol\":3352:3358  amount */\n      dup3\n        /* \"contracts/Charity.sol\":3328:3349  address(this).balance */\n      selfbalance\n        /* \"contracts/Charity.sol\":3328:3358  address(this).balance > amount */\n      gt\n        /* \"contracts/Charity.sol\":3320:3395  require(address(this).balance > amount, \"Insufficient balance for expense\") */\n      tag_190\n      jumpi\n      mload(0x40)\n      0x08c379a000000000000000000000000000000000000000000000000000000000\n      dup2\n      mstore\n      0x04\n      add\n      tag_191\n      swap1\n      tag_192\n      jump\t// in\n    tag_191:\n      mload(0x40)\n      dup1\n      swap2\n      sub\n      swap1\n      revert\n    tag_190:\n        /* \"contracts/Charity.sol\":3408:3416  expenses */\n      0x01\n        /* \"contracts/Charity.sol\":3422:3551  Expense({... */\n      mload(0x40)\n      dup1\n      0x60\n      add\n      0x40\n      mstore\n      dup1\n        /* \"contracts/Charity.sol\":3453:3459  amount */\n      dup6\n        /* \"contracts/Charity.sol\":3422:3551  Expense({... */\n      dup2\n      mstore\n      0x20\n      add\n        /* \"contracts/Charity.sol\":3487:3498  description */\n      dup5\n      dup5\n        /* \"contracts/Charity.sol\":3422:3551  Expense({... */\n      dup1\n      dup1\n      0x1f\n      add\n      0x20\n      dup1\n      swap2\n      div\n      mul\n      0x20\n      add\n      mload(0x40)\n      swap1\n      dup2\n      add\n      0x40\n      mstore\n      dup1\n      swap4\n      swap3\n      swap2\n      swap1\n      dup2\n      dup2\n      mstore\n      0x20\n      add\n      dup4\n      dup4\n      dup1\n      dup3\n      dup5\n      calldatacopy\n      0x00\n      dup2\n      dup5\n      add\n      mstore\n      not(0x1f)\n      0x1f\n      dup3\n      add\n      and\n      swap1\n      pop\n      dup1\n      dup4\n      add\n      swap3\n      pop\n      pop\n      pop\n      pop\n      pop\n      pop\n      pop\n      dup2\n      mstore\n      0x20\n      add\n        /* \"contracts/Charity.sol\":3524:3539  block.timestamp */\n      timestamp\n        /* \"contracts/Charity.sol\":3422:3551  Expense({... */\n      dup2\n      mstore\n      pop\n        /* \"contracts/Charity.sol\":3408:3552  expenses.push(Expense({... */\n      swap1\n      dup1\n      0x01\n      dup2\n      sload\n      add\n      dup1\n      dup3\n      sstore\n      dup1\n      swap2\n      pop\n      pop\n      0x01\n      swap1\n      sub\n      swap1\n      0x00\n      mstore\n      keccak256(0x00, 0x20)\n      swap1\n      0x03\n      mul\n      add\n      0x00\n      swap1\n      swap2\n      swap1\n      swap2\n      swap1\n      swap2\n      pop\n      0x00\n      dup3\n      add\n      mload\n      dup2\n      0x00\n      add\n      sstore\n      0x20\n      dup3\n      add\n      mload\n      dup2\n      0x01\n      add\n      swap1\n      dup2\n      tag_194\n      swap2\n      swap1\n      tag_178\n      jump\t// in\n    tag_194:\n      pop\n      0x40\n      dup3\n      add\n      mload\n      dup2\n      0x02\n      add\n      sstore\n      pop\n      pop\n        /* \"contracts/Charity.sol\":3570:3621  ExpenseLogged(amount, description, block.timestamp) */\n      0xee9ce74e1c4c69a088b563acec4eb6585b77220c8bdef0c41b4c734102b73ebc\n        /* \"contracts/Charity.sol\":3584:3590  amount */\n      dup4\n        /* \"contracts/Charity.sol\":3592:3603  description */\n      dup4\n      dup4\n        /* \"contracts/Charity.sol\":3605:3620  block.timestamp */\n      timestamp\n        /* \"contracts/Charity.sol\":3570:3621  ExpenseLogged(amount, description, block.timestamp) */\n      mload(0x40)\n      tag_195\n      swap5\n      swap4\n      swap3\n      swap2\n      swap1\n      tag_196\n      jump\t// in\n    tag_195:\n      mload(0x40)\n      dup1\n      swap2\n      sub\n      swap1\n      log1\n        /* \"contracts/Charity.sol\":3154:3629  function logExpense(uint256 amount, string calldata description) external onlyOwner {... */\n      pop\n      pop\n      pop\n      jump\t// out\n        /* \"contracts/Charity.sol\":594:623  uint256 public totalDonations */\n    tag_89:\n      sload(0x03)\n      dup2\n      jump\t// out\n        /* \"contracts/Charity.sol\":2547:2648  function getDonations() external view returns (Donation[] memory) {... */\n    tag_93:\n        /* \"contracts/Charity.sol\":2594:2611  Donation[] memory */\n      0x60\n        /* \"contracts/Charity.sol\":2631:2640  donations */\n      0x02\n        /* \"contracts/Charity.sol\":2624:2640  return donations */\n      dup1\n      sload\n      dup1\n      0x20\n      mul\n      0x20\n      add\n      mload(0x40)\n      swap1\n      dup2\n      add\n      0x40\n      mstore\n      dup1\n      swap3\n      swap2\n      swap1\n      dup2\n      dup2\n      mstore\n      0x20\n      add\n      0x00\n      swap1\n    tag_198:\n      dup3\n      dup3\n      lt\n      iszero\n      tag_199\n      jumpi\n      dup4\n      dup3\n      swap1\n      0x00\n      mstore\n      keccak256(0x00, 0x20)\n      swap1\n      0x05\n      mul\n      add\n      mload(0x40)\n      dup1\n      0xa0\n      add\n      0x40\n      mstore\n      swap1\n      dup2\n      0x00\n      dup3\n      add\n      0x00\n      swap1\n      sload\n      swap1\n      0x0100\n      exp\n      swap1\n      div\n      0xffffffffffffffffffffffffffffffffffffffff\n      and\n      0xffffffffffffffffffffffffffffffffffffffff\n      and\n      0xffffffffffffffffffffffffffffffffffffffff\n      and\n      dup2\n      mstore\n      0x20\n      add\n      0x01\n      dup3\n      add\n      sload\n      dup2\n      mstore\n      0x20\n      add\n      0x02\n      dup3\n      add\n      sload\n      dup2\n      mstore\n      0x20\n      add\n      0x03\n      dup3\n      add\n      dup1\n      sload\n      tag_201\n      swap1\n      tag_136\n      jump\t// in\n    tag_201:\n      dup1\n      0x1f\n      add\n      0x20\n      dup1\n      swap2\n      div\n      mul\n      0x20\n      add\n      mload(0x40)\n      swap1\n      dup2\n      add\n      0x40\n      mstore\n      dup1\n      swap3\n      swap2\n      swap1\n      dup2\n      dup2\n      mstore\n      0x20\n      add\n      dup3\n      dup1\n      sload\n      tag_202\n      swap1\n      tag_136\n      jump\t// in\n    tag_202:\n      dup1\n      iszero\n      tag_203\n      jumpi\n      dup1\n      0x1f\n      lt\n      tag_204\n      jumpi\n      0x0100\n      dup1\n      dup4\n      sload\n      div\n      mul\n      dup4\n      mstore\n      swap2\n      0x20\n      add\n      swap2\n      jump(tag_203)\n    tag_204:\n      dup3\n      add\n      swap2\n      swap1\n      0x00\n      mstore\n      keccak256(0x00, 0x20)\n      swap1\n    tag_205:\n      dup2\n      sload\n      dup2\n      mstore\n      swap1\n      0x01\n      add\n      swap1\n      0x20\n      add\n      dup1\n      dup4\n      gt\n      tag_205\n      jumpi\n      dup3\n      swap1\n      sub\n      0x1f\n      and\n      dup3\n      add\n      swap2\n    tag_203:\n      pop\n      pop\n      pop\n      pop\n      pop\n      dup2\n      mstore\n      0x20\n      add\n      0x04\n      dup3\n      add\n      dup1\n      sload\n      tag_206\n      swap1\n      tag_136\n      jump\t// in\n    tag_206:\n      dup1\n      0x1f\n      add\n      0x20\n      dup1\n      swap2\n      div\n      mul\n      0x20\n      add\n      mload(0x40)\n      swap1\n      dup2\n      add\n      0x40\n      mstore\n      dup1\n      swap3\n      swap2\n      swap1\n      dup2\n      dup2\n      mstore\n      0x20\n      add\n      dup3\n      dup1\n      sload\n      tag_207\n      swap1\n      tag_136\n      jump\t// in\n    tag_207:\n      dup1\n      iszero\n      tag_208\n      jumpi\n      dup1\n      0x1f\n      lt\n      tag_209\n      jumpi\n      0x0100\n      dup1\n      dup4\n      sload\n      div\n      mul\n      dup4\n      mstore\n      swap2\n      0x20\n      add\n      swap2\n      jump(tag_208)\n    tag_209:\n      dup3\n      add\n      swap2\n      swap1\n      0x00\n      mstore\n      keccak256(0x00, 0x20)\n      swap1\n    tag_210:\n      dup2\n      sload\n      dup2\n      mstore\n      swap1\n      0x01\n      add\n      swap1\n      0x20\n      add\n      dup1\n      dup4\n      gt\n      tag_210\n      jumpi\n      dup3\n      swap1\n      sub\n      0x1f\n      and\n      dup3\n      add\n      swap2\n    tag_208:\n      pop\n      pop\n      pop\n      pop\n      pop\n      dup2\n      mstore\n      pop\n      pop\n      dup2\n      mstore\n      0x20\n      add\n      swap1\n      0x01\n      add\n      swap1\n      jump(tag_198)\n    tag_199:\n      pop\n      pop\n      pop\n      pop\n      swap1\n      pop\n        /* \"contracts/Charity.sol\":2547:2648  function getDonations() external view returns (Donation[] memory) {... */\n      swap1\n      jump\t// out\n        /* \"contracts/Charity.sol\":2437:2539  function getDonationCount() external view returns (uint256) {... */\n    tag_98:\n        /* \"contracts/Charity.sol\":2488:2495  uint256 */\n      0x00\n        /* \"contracts/Charity.sol\":2515:2524  donations */\n      0x02\n        /* \"contracts/Charity.sol\":2515:2531  donations.length */\n      dup1\n      sload\n      swap1\n      pop\n        /* \"contracts/Charity.sol\":2508:2531  return donations.length */\n      swap1\n      pop\n        /* \"contracts/Charity.sol\":2437:2539  function getDonationCount() external view returns (uint256) {... */\n      swap1\n      jump\t// out\n        /* \"@openzeppelin/contracts/access/Ownable.sol\":2543:2758  function transferOwnership(address newOwner) public virtual onlyOwner {... */\n    tag_103:\n        /* \"@openzeppelin/contracts/access/Ownable.sol\":1531:1544  _checkOwner() */\n      tag_213\n        /* \"@openzeppelin/contracts/access/Ownable.sol\":1531:1542  _checkOwner */\n      tag_115\n        /* \"@openzeppelin/contracts/access/Ownable.sol\":1531:1544  _checkOwner() */\n      jump\t// in\n    tag_213:\n        /* \"@openzeppelin/contracts/access/Ownable.sol\":2647:2648  0 */\n      0x00\n        /* \"@openzeppelin/contracts/access/Ownable.sol\":2627:2649  newOwner == address(0) */\n      0xffffffffffffffffffffffffffffffffffffffff\n      and\n        /* \"@openzeppelin/contracts/access/Ownable.sol\":2627:2635  newOwner */\n      dup2\n        /* \"@openzeppelin/contracts/access/Ownable.sol\":2627:2649  newOwner == address(0) */\n      0xffffffffffffffffffffffffffffffffffffffff\n      and\n      sub\n        /* \"@openzeppelin/contracts/access/Ownable.sol\":2623:2714  if (newOwner == address(0)) {... */\n      tag_215\n      jumpi\n        /* \"@openzeppelin/contracts/access/Ownable.sol\":2700:2701  0 */\n      0x00\n        /* \"@openzeppelin/contracts/access/Ownable.sol\":2672:2703  OwnableInvalidOwner(address(0)) */\n      mload(0x40)\n      0x1e4fbdf700000000000000000000000000000000000000000000000000000000\n      dup2\n      mstore\n      0x04\n      add\n      tag_216\n      swap2\n      swap1\n      tag_58\n      jump\t// in\n    tag_216:\n      mload(0x40)\n      dup1\n      swap2\n      sub\n      swap1\n      revert\n        /* \"@openzeppelin/contracts/access/Ownable.sol\":2623:2714  if (newOwner == address(0)) {... */\n    tag_215:\n        /* \"@openzeppelin/contracts/access/Ownable.sol\":2723:2751  _transferOwnership(newOwner) */\n      tag_217\n        /* \"@openzeppelin/contracts/access/Ownable.sol\":2742:2750  newOwner */\n      dup2\n        /* \"@openzeppelin/contracts/access/Ownable.sol\":2723:2741  _transferOwnership */\n      tag_130\n        /* \"@openzeppelin/contracts/access/Ownable.sol\":2723:2751  _transferOwnership(newOwner) */\n      jump\t// in\n    tag_217:\n        /* \"@openzeppelin/contracts/access/Ownable.sol\":2543:2758  function transferOwnership(address newOwner) public virtual onlyOwner {... */\n      pop\n      jump\t// out\n        /* \"contracts/Charity.sol\":1560:1633  function unPause() external onlyOwner {... */\n    tag_106:\n        /* \"@openzeppelin/contracts/access/Ownable.sol\":1531:1544  _checkOwner() */\n      tag_219\n        /* \"@openzeppelin/contracts/access/Ownable.sol\":1531:1542  _checkOwner */\n      tag_115\n        /* \"@openzeppelin/contracts/access/Ownable.sol\":1531:1544  _checkOwner() */\n      jump\t// in\n    tag_219:\n        /* \"contracts/Charity.sol\":1620:1625  false */\n      0x00\n        /* \"contracts/Charity.sol\":1609:1617  isPaused */\n      0x07\n      0x00\n        /* \"contracts/Charity.sol\":1609:1625  isPaused = false */\n      0x0100\n      exp\n      dup2\n      sload\n      dup2\n      0xff\n      mul\n      not\n      and\n      swap1\n      dup4\n      iszero\n      iszero\n      mul\n      or\n      swap1\n      sstore\n      pop\n        /* \"contracts/Charity.sol\":1560:1633  function unPause() external onlyOwner {... */\n      jump\t// out\n        /* \"contracts/Charity.sol\":560:587  Donation[] public donations */\n    tag_110:\n      0x02\n      dup2\n      dup2\n      sload\n      dup2\n      lt\n      tag_221\n      jumpi\n      0x00\n      dup1\n      revert\n    tag_221:\n      swap1\n      0x00\n      mstore\n      keccak256(0x00, 0x20)\n      swap1\n      0x05\n      mul\n      add\n      0x00\n      swap2\n      pop\n      swap1\n      pop\n      dup1\n      0x00\n      add\n      0x00\n      swap1\n      sload\n      swap1\n      0x0100\n      exp\n      swap1\n      div\n      0xffffffffffffffffffffffffffffffffffffffff\n      and\n      swap1\n      dup1\n      0x01\n      add\n      sload\n      swap1\n      dup1\n      0x02\n      add\n      sload\n      swap1\n      dup1\n      0x03\n      add\n      dup1\n      sload\n      tag_223\n      swap1\n      tag_136\n      jump\t// in\n    tag_223:\n      dup1\n      0x1f\n      add\n      0x20\n      dup1\n      swap2\n      div\n      mul\n      0x20\n      add\n      mload(0x40)\n      swap1\n      dup2\n      add\n      0x40\n      mstore\n      dup1\n      swap3\n      swap2\n      swap1\n      dup2\n      dup2\n      mstore\n      0x20\n      add\n      dup3\n      dup1\n      sload\n      tag_224\n      swap1\n      tag_136\n      jump\t// in\n    tag_224:\n      dup1\n      iszero\n      tag_225\n      jumpi\n      dup1\n      0x1f\n      lt\n      tag_226\n      jumpi\n      0x0100\n      dup1\n      dup4\n      sload\n      div\n      mul\n      dup4\n      mstore\n      swap2\n      0x20\n      add\n      swap2\n      jump(tag_225)\n    tag_226:\n      dup3\n      add\n      swap2\n      swap1\n      0x00\n      mstore\n      keccak256(0x00, 0x20)\n      swap1\n    tag_227:\n      dup2\n      sload\n      dup2\n      mstore\n      swap1\n      0x01\n      add\n      swap1\n      0x20\n      add\n      dup1\n      dup4\n      gt\n      tag_227\n      jumpi\n      dup3\n      swap1\n      sub\n      0x1f\n      and\n      dup3\n      add\n      swap2\n    tag_225:\n      pop\n      pop\n      pop\n      pop\n      pop\n      swap1\n      dup1\n      0x04\n      add\n      dup1\n      sload\n      tag_228\n      swap1\n      tag_136\n      jump\t// in\n    tag_228:\n      dup1\n      0x1f\n      add\n      0x20\n      dup1\n      swap2\n      div\n      mul\n      0x20\n      add\n      mload(0x40)\n      swap1\n      dup2\n      add\n      0x40\n      mstore\n      dup1\n      swap3\n      swap2\n      swap1\n      dup2\n      dup2\n      mstore\n      0x20\n      add\n      dup3\n      dup1\n      sload\n      tag_229\n      swap1\n      tag_136\n      jump\t// in\n    tag_229:\n      dup1\n      iszero\n      tag_230\n      jumpi\n      dup1\n      0x1f\n      lt\n      tag_231\n      jumpi\n      0x0100\n      dup1\n      dup4\n      sload\n      div\n      mul\n      dup4\n      mstore\n      swap2\n      0x20\n      add\n      swap2\n      jump(tag_230)\n    tag_231:\n      dup3\n      add\n      swap2\n      swap1\n      0x00\n      mstore\n      keccak256(0x00, 0x20)\n      swap1\n    tag_232:\n      dup2\n      sload\n      dup2\n      mstore\n      swap1\n      0x01\n      add\n      swap1\n      0x20\n      add\n      dup1\n      dup4\n      gt\n      tag_232\n      jumpi\n      dup3\n      swap1\n      sub\n      0x1f\n      and\n      dup3\n      add\n      swap2\n    tag_230:\n      pop\n      pop\n      pop\n      pop\n      pop\n      swap1\n      pop\n      dup6\n      jump\t// out\n        /* \"@openzeppelin/contracts/access/Ownable.sol\":1796:1958  function _checkOwner() internal view virtual {... */\n    tag_115:\n        /* \"@openzeppelin/contracts/access/Ownable.sol\":1866:1878  _msgSender() */\n      tag_234\n        /* \"@openzeppelin/contracts/access/Ownable.sol\":1866:1876  _msgSender */\n      tag_235\n        /* \"@openzeppelin/contracts/access/Ownable.sol\":1866:1878  _msgSender() */\n      jump\t// in\n    tag_234:\n        /* \"@openzeppelin/contracts/access/Ownable.sol\":1855:1878  owner() != _msgSender() */\n      0xffffffffffffffffffffffffffffffffffffffff\n      and\n        /* \"@openzeppelin/contracts/access/Ownable.sol\":1855:1862  owner() */\n      tag_236\n        /* \"@openzeppelin/contracts/access/Ownable.sol\":1855:1860  owner */\n      tag_56\n        /* \"@openzeppelin/contracts/access/Ownable.sol\":1855:1862  owner() */\n      jump\t// in\n    tag_236:\n        /* \"@openzeppelin/contracts/access/Ownable.sol\":1855:1878  owner() != _msgSender() */\n      0xffffffffffffffffffffffffffffffffffffffff\n      and\n      eq\n        /* \"@openzeppelin/contracts/access/Ownable.sol\":1851:1952  if (owner() != _msgSender()) {... */\n      tag_237\n      jumpi\n        /* \"@openzeppelin/contracts/access/Ownable.sol\":1928:1940  _msgSender() */\n      tag_238\n        /* \"@openzeppelin/contracts/access/Ownable.sol\":1928:1938  _msgSender */\n      tag_235\n        /* \"@openzeppelin/contracts/access/Ownable.sol\":1928:1940  _msgSender() */\n      jump\t// in\n    tag_238:\n        /* \"@openzeppelin/contracts/access/Ownable.sol\":1901:1941  OwnableUnauthorizedAccount(_msgSender()) */\n      mload(0x40)\n      0x118cdaa700000000000000000000000000000000000000000000000000000000\n      dup2\n      mstore\n      0x04\n      add\n      tag_239\n      swap2\n      swap1\n      tag_58\n      jump\t// in\n    tag_239:\n      mload(0x40)\n      dup1\n      swap2\n      sub\n      swap1\n      revert\n        /* \"@openzeppelin/contracts/access/Ownable.sol\":1851:1952  if (owner() != _msgSender()) {... */\n    tag_237:\n        /* \"@openzeppelin/contracts/access/Ownable.sol\":1796:1958  function _checkOwner() internal view virtual {... */\n      jump\t// out\n        /* \"@openzeppelin/contracts/access/Ownable.sol\":2912:3099  function _transferOwnership(address newOwner) internal virtual {... */\n    tag_130:\n        /* \"@openzeppelin/contracts/access/Ownable.sol\":2985:3001  address oldOwner */\n      0x00\n        /* \"@openzeppelin/contracts/access/Ownable.sol\":3004:3010  _owner */\n      dup1\n      0x00\n      swap1\n      sload\n      swap1\n      0x0100\n      exp\n      swap1\n      div\n      0xffffffffffffffffffffffffffffffffffffffff\n      and\n        /* \"@openzeppelin/contracts/access/Ownable.sol\":2985:3010  address oldOwner = _owner */\n      swap1\n      pop\n        /* \"@openzeppelin/contracts/access/Ownable.sol\":3029:3037  newOwner */\n      dup2\n        /* \"@openzeppelin/contracts/access/Ownable.sol\":3020:3026  _owner */\n      0x00\n      dup1\n        /* \"@openzeppelin/contracts/access/Ownable.sol\":3020:3037  _owner = newOwner */\n      0x0100\n      exp\n      dup2\n      sload\n      dup2\n      0xffffffffffffffffffffffffffffffffffffffff\n      mul\n      not\n      and\n      swap1\n      dup4\n      0xffffffffffffffffffffffffffffffffffffffff\n      and\n      mul\n      or\n      swap1\n      sstore\n      pop\n        /* \"@openzeppelin/contracts/access/Ownable.sol\":3083:3091  newOwner */\n      dup2\n        /* \"@openzeppelin/contracts/access/Ownable.sol\":3052:3092  OwnershipTransferred(oldOwner, newOwner) */\n      0xffffffffffffffffffffffffffffffffffffffff\n      and\n        /* \"@openzeppelin/contracts/access/Ownable.sol\":3073:3081  oldOwner */\n      dup2\n        /* \"@openzeppelin/contracts/access/Ownable.sol\":3052:3092  OwnershipTransferred(oldOwner, newOwner) */\n      0xffffffffffffffffffffffffffffffffffffffff\n      and\n      0x8be0079c531659141344cd1fd0a4f28419497f9722a3daafe3b4186f6b6457e0\n      mload(0x40)\n      mload(0x40)\n      dup1\n      swap2\n      sub\n      swap1\n      log3\n        /* \"@openzeppelin/contracts/access/Ownable.sol\":2975:3099  {... */\n      pop\n        /* \"@openzeppelin/contracts/access/Ownable.sol\":2912:3099  function _transferOwnership(address newOwner) internal virtual {... */\n      pop\n      jump\t// out\n        /* \"contracts/Charity.sol\":3825:4289  function uint2str(uint256 _i) internal pure returns (string memory str) {... */\n    tag_173:\n        /* \"contracts/Charity.sol\":3878:3895  string memory str */\n      0x60\n        /* \"contracts/Charity.sol\":3917:3918  0 */\n      0x00\n        /* \"contracts/Charity.sol\":3911:3913  _i */\n      dup3\n        /* \"contracts/Charity.sol\":3911:3918  _i == 0 */\n      sub\n        /* \"contracts/Charity.sol\":3908:3930  if(_i == 0) return \"0\" */\n      tag_242\n      jumpi\n        /* \"contracts/Charity.sol\":3920:3930  return \"0\" */\n      mload(0x40)\n      dup1\n      0x40\n      add\n      0x40\n      mstore\n      dup1\n      0x01\n      dup2\n      mstore\n      0x20\n      add\n      0x3000000000000000000000000000000000000000000000000000000000000000\n      dup2\n      mstore\n      pop\n      swap1\n      pop\n      jump(tag_241)\n        /* \"contracts/Charity.sol\":3908:3930  if(_i == 0) return \"0\" */\n    tag_242:\n        /* \"contracts/Charity.sol\":3941:3950  uint256 j */\n      0x00\n        /* \"contracts/Charity.sol\":3953:3955  _i */\n      dup3\n        /* \"contracts/Charity.sol\":3941:3955  uint256 j = _i */\n      swap1\n      pop\n        /* \"contracts/Charity.sol\":3966:3977  uint length */\n      0x00\n        /* \"contracts/Charity.sol\":3988:4060  while (j != 0) {... */\n    tag_243:\n        /* \"contracts/Charity.sol\":4000:4001  0 */\n      0x00\n        /* \"contracts/Charity.sol\":3995:3996  j */\n      dup3\n        /* \"contracts/Charity.sol\":3995:4001  j != 0 */\n      eq\n        /* \"contracts/Charity.sol\":3988:4060  while (j != 0) {... */\n      tag_244\n      jumpi\n        /* \"contracts/Charity.sol\":4018:4026  length++ */\n      dup1\n      dup1\n      tag_245\n      swap1\n      tag_246\n      jump\t// in\n    tag_245:\n      swap2\n      pop\n      pop\n        /* \"contracts/Charity.sol\":4046:4048  10 */\n      0x0a\n        /* \"contracts/Charity.sol\":4041:4048  j /= 10 */\n      dup3\n      tag_247\n      swap2\n      swap1\n      tag_248\n      jump\t// in\n    tag_247:\n      swap2\n      pop\n        /* \"contracts/Charity.sol\":3988:4060  while (j != 0) {... */\n      jump(tag_243)\n    tag_244:\n        /* \"contracts/Charity.sol\":4070:4087  bytes memory bstr */\n      0x00\n        /* \"contracts/Charity.sol\":4100:4106  length */\n      dup2\n        /* \"contracts/Charity.sol\":4090:4107  new bytes(length) */\n      0xffffffffffffffff\n      dup2\n      gt\n      iszero\n      tag_249\n      jumpi\n      tag_250\n      tag_251\n      jump\t// in\n    tag_250:\n    tag_249:\n      mload(0x40)\n      swap1\n      dup1\n      dup3\n      mstore\n      dup1\n      0x1f\n      add\n      not(0x1f)\n      and\n      0x20\n      add\n      dup3\n      add\n      0x40\n      mstore\n      dup1\n      iszero\n      tag_252\n      jumpi\n      dup2\n      0x20\n      add\n      0x01\n      dup3\n      mul\n      dup1\n      calldatasize\n      dup4\n      calldatacopy\n      dup1\n      dup3\n      add\n      swap2\n      pop\n      pop\n      swap1\n      pop\n    tag_252:\n      pop\n        /* \"contracts/Charity.sol\":4070:4107  bytes memory bstr = new bytes(length) */\n      swap1\n      pop\n        /* \"contracts/Charity.sol\":4118:4127  uint256 k */\n      0x00\n        /* \"contracts/Charity.sol\":4130:4136  length */\n      dup3\n        /* \"contracts/Charity.sol\":4118:4136  uint256 k = length */\n      swap1\n      pop\n        /* \"contracts/Charity.sol\":4147:4252  while (_i != 0) {... */\n    tag_253:\n        /* \"contracts/Charity.sol\":4160:4161  0 */\n      0x00\n        /* \"contracts/Charity.sol\":4154:4156  _i */\n      dup7\n        /* \"contracts/Charity.sol\":4154:4161  _i != 0 */\n      eq\n        /* \"contracts/Charity.sol\":4147:4252  while (_i != 0) {... */\n      tag_254\n      jumpi\n        /* \"contracts/Charity.sol\":4213:4215  10 */\n      0x0a\n        /* \"contracts/Charity.sol\":4208:4210  _i */\n      dup7\n        /* \"contracts/Charity.sol\":4208:4215  _i % 10 */\n      tag_255\n      swap2\n      swap1\n      tag_256\n      jump\t// in\n    tag_255:\n        /* \"contracts/Charity.sol\":4203:4205  48 */\n      0x30\n        /* \"contracts/Charity.sol\":4203:4215  48 + _i % 10 */\n      tag_257\n      swap2\n      swap1\n      tag_181\n      jump\t// in\n    tag_257:\n        /* \"contracts/Charity.sol\":4190:4217  bytes1(uint8(48 + _i % 10)) */\n      0xf8\n      shl\n        /* \"contracts/Charity.sol\":4178:4182  bstr */\n      dup3\n        /* \"contracts/Charity.sol\":4183:4186  --k */\n      dup3\n      tag_258\n      swap1\n      tag_259\n      jump\t// in\n    tag_258:\n      swap3\n      pop\n      dup3\n        /* \"contracts/Charity.sol\":4178:4187  bstr[--k] */\n      dup2\n      mload\n      dup2\n      lt\n      tag_260\n      jumpi\n      tag_261\n      tag_262\n      jump\t// in\n    tag_261:\n    tag_260:\n      0x20\n      add\n      add\n        /* \"contracts/Charity.sol\":4178:4217  bstr[--k] = bytes1(uint8(48 + _i % 10)) */\n      swap1\n      not(0xffffffffffffffffffffffffffffffffffffffffffffffffffffffffffffff)\n      and\n      swap1\n      dup2\n      0x00\n      byte\n      swap1\n      mstore8\n      pop\n        /* \"contracts/Charity.sol\":4238:4240  10 */\n      0x0a\n        /* \"contracts/Charity.sol\":4232:4240  _i /= 10 */\n      dup7\n      tag_263\n      swap2\n      swap1\n      tag_248\n      jump\t// in\n    tag_263:\n      swap6\n      pop\n        /* \"contracts/Charity.sol\":4147:4252  while (_i != 0) {... */\n      jump(tag_253)\n    tag_254:\n        /* \"contracts/Charity.sol\":4276:4280  bstr */\n      dup2\n        /* \"contracts/Charity.sol\":4262:4281  return string(bstr) */\n      swap5\n      pop\n      pop\n      pop\n      pop\n      pop\n        /* \"contracts/Charity.sol\":3825:4289  function uint2str(uint256 _i) internal pure returns (string memory str) {... */\n    tag_241:\n      swap2\n      swap1\n      pop\n      jump\t// out\n        /* \"@openzeppelin/contracts/utils/Context.sol\":656:752  function _msgSender() internal view virtual returns (address) {... */\n    tag_235:\n        /* \"@openzeppelin/contracts/utils/Context.sol\":709:716  address */\n      0x00\n        /* \"@openzeppelin/contracts/utils/Context.sol\":735:745  msg.sender */\n      caller\n        /* \"@openzeppelin/contracts/utils/Context.sol\":728:745  return msg.sender */\n      swap1\n      pop\n        /* \"@openzeppelin/contracts/utils/Context.sol\":656:752  function _msgSender() internal view virtual returns (address) {... */\n      swap1\n      jump\t// out\n        /* \"#utility.yul\":88:205   */\n    tag_266:\n        /* \"#utility.yul\":197:198   */\n      0x00\n        /* \"#utility.yul\":194:195   */\n      dup1\n        /* \"#utility.yul\":187:199   */\n      revert\n        /* \"#utility.yul\":211:328   */\n    tag_267:\n        /* \"#utility.yul\":320:321   */\n      0x00\n        /* \"#utility.yul\":317:318   */\n      dup1\n        /* \"#utility.yul\":310:322   */\n      revert\n        /* \"#utility.yul\":334:460   */\n    tag_268:\n        /* \"#utility.yul\":371:378   */\n      0x00\n        /* \"#utility.yul\":411:453   */\n      0xffffffffffffffffffffffffffffffffffffffff\n        /* \"#utility.yul\":404:409   */\n      dup3\n        /* \"#utility.yul\":400:454   */\n      and\n        /* \"#utility.yul\":389:454   */\n      swap1\n      pop\n        /* \"#utility.yul\":334:460   */\n      swap2\n      swap1\n      pop\n      jump\t// out\n        /* \"#utility.yul\":466:562   */\n    tag_269:\n        /* \"#utility.yul\":503:510   */\n      0x00\n        /* \"#utility.yul\":532:556   */\n      tag_353\n        /* \"#utility.yul\":550:555   */\n      dup3\n        /* \"#utility.yul\":532:556   */\n      tag_268\n      jump\t// in\n    tag_353:\n        /* \"#utility.yul\":521:556   */\n      swap1\n      pop\n        /* \"#utility.yul\":466:562   */\n      swap2\n      swap1\n      pop\n      jump\t// out\n        /* \"#utility.yul\":568:690   */\n    tag_270:\n        /* \"#utility.yul\":641:665   */\n      tag_355\n        /* \"#utility.yul\":659:664   */\n      dup2\n        /* \"#utility.yul\":641:665   */\n      tag_269\n      jump\t// in\n    tag_355:\n        /* \"#utility.yul\":634:639   */\n      dup2\n        /* \"#utility.yul\":631:666   */\n      eq\n        /* \"#utility.yul\":621:684   */\n      tag_356\n      jumpi\n        /* \"#utility.yul\":680:681   */\n      0x00\n        /* \"#utility.yul\":677:678   */\n      dup1\n        /* \"#utility.yul\":670:682   */\n      revert\n        /* \"#utility.yul\":621:684   */\n    tag_356:\n        /* \"#utility.yul\":568:690   */\n      pop\n      jump\t// out\n        /* \"#utility.yul\":696:835   */\n    tag_271:\n        /* \"#utility.yul\":742:747   */\n      0x00\n        /* \"#utility.yul\":780:786   */\n      dup2\n        /* \"#utility.yul\":767:787   */\n      calldataload\n        /* \"#utility.yul\":758:787   */\n      swap1\n      pop\n        /* \"#utility.yul\":796:829   */\n      tag_358\n        /* \"#utility.yul\":823:828   */\n      dup2\n        /* \"#utility.yul\":796:829   */\n      tag_270\n      jump\t// in\n    tag_358:\n        /* \"#utility.yul\":696:835   */\n      swap3\n      swap2\n      pop\n      pop\n      jump\t// out\n        /* \"#utility.yul\":841:1170   */\n    tag_28:\n        /* \"#utility.yul\":900:906   */\n      0x00\n        /* \"#utility.yul\":949:951   */\n      0x20\n        /* \"#utility.yul\":937:946   */\n      dup3\n        /* \"#utility.yul\":928:935   */\n      dup5\n        /* \"#utility.yul\":924:947   */\n      sub\n        /* \"#utility.yul\":920:952   */\n      slt\n        /* \"#utility.yul\":917:1036   */\n      iszero\n      tag_360\n      jumpi\n        /* \"#utility.yul\":955:1034   */\n      tag_361\n      tag_266\n      jump\t// in\n    tag_361:\n        /* \"#utility.yul\":917:1036   */\n    tag_360:\n        /* \"#utility.yul\":1075:1076   */\n      0x00\n        /* \"#utility.yul\":1100:1153   */\n      tag_362\n        /* \"#utility.yul\":1145:1152   */\n      dup5\n        /* \"#utility.yul\":1136:1142   */\n      dup3\n        /* \"#utility.yul\":1125:1134   */\n      dup6\n        /* \"#utility.yul\":1121:1143   */\n      add\n        /* \"#utility.yul\":1100:1153   */\n      tag_271\n      jump\t// in\n    tag_362:\n        /* \"#utility.yul\":1090:1153   */\n      swap2\n      pop\n        /* \"#utility.yul\":1046:1163   */\n      pop\n        /* \"#utility.yul\":841:1170   */\n      swap3\n      swap2\n      pop\n      pop\n      jump\t// out\n        /* \"#utility.yul\":1176:1253   */\n    tag_272:\n        /* \"#utility.yul\":1213:1220   */\n      0x00\n        /* \"#utility.yul\":1242:1247   */\n      dup2\n        /* \"#utility.yul\":1231:1247   */\n      swap1\n      pop\n        /* \"#utility.yul\":1176:1253   */\n      swap2\n      swap1\n      pop\n      jump\t// out\n        /* \"#utility.yul\":1259:1377   */\n    tag_273:\n        /* \"#utility.yul\":1346:1370   */\n      tag_365\n        /* \"#utility.yul\":1364:1369   */\n      dup2\n        /* \"#utility.yul\":1346:1370   */\n      tag_272\n      jump\t// in\n    tag_365:\n        /* \"#utility.yul\":1341:1344   */\n      dup3\n        /* \"#utility.yul\":1334:1371   */\n      mstore\n        /* \"#utility.yul\":1259:1377   */\n      pop\n      pop\n      jump\t// out\n        /* \"#utility.yul\":1383:1605   */\n    tag_34:\n        /* \"#utility.yul\":1476:1480   */\n      0x00\n        /* \"#utility.yul\":1514:1516   */\n      0x20\n        /* \"#utility.yul\":1503:1512   */\n      dup3\n        /* \"#utility.yul\":1499:1517   */\n      add\n        /* \"#utility.yul\":1491:1517   */\n      swap1\n      pop\n        /* \"#utility.yul\":1527:1598   */\n      tag_367\n        /* \"#utility.yul\":1595:1596   */\n      0x00\n        /* \"#utility.yul\":1584:1593   */\n      dup4\n        /* \"#utility.yul\":1580:1597   */\n      add\n        /* \"#utility.yul\":1571:1577   */\n      dup5\n        /* \"#utility.yul\":1527:1598   */\n      tag_273\n      jump\t// in\n    tag_367:\n        /* \"#utility.yul\":1383:1605   */\n      swap3\n      swap2\n      pop\n      pop\n      jump\t// out\n        /* \"#utility.yul\":1611:1733   */\n    tag_274:\n        /* \"#utility.yul\":1684:1708   */\n      tag_369\n        /* \"#utility.yul\":1702:1707   */\n      dup2\n        /* \"#utility.yul\":1684:1708   */\n      tag_272\n      jump\t// in\n    tag_369:\n        /* \"#utility.yul\":1677:1682   */\n      dup2\n        /* \"#utility.yul\":1674:1709   */\n      eq\n        /* \"#utility.yul\":1664:1727   */\n      tag_370\n      jumpi\n        /* \"#utility.yul\":1723:1724   */\n      0x00\n        /* \"#utility.yul\":1720:1721   */\n      dup1\n        /* \"#utility.yul\":1713:1725   */\n      revert\n        /* \"#utility.yul\":1664:1727   */\n    tag_370:\n        /* \"#utility.yul\":1611:1733   */\n      pop\n      jump\t// out\n        /* \"#utility.yul\":1739:1878   */\n    tag_275:\n        /* \"#utility.yul\":1785:1790   */\n      0x00\n        /* \"#utility.yul\":1823:1829   */\n      dup2\n        /* \"#utility.yul\":1810:1830   */\n      calldataload\n        /* \"#utility.yul\":1801:1830   */\n      swap1\n      pop\n        /* \"#utility.yul\":1839:1872   */\n      tag_372\n        /* \"#utility.yul\":1866:1871   */\n      dup2\n        /* \"#utility.yul\":1839:1872   */\n      tag_274\n      jump\t// in\n    tag_372:\n        /* \"#utility.yul\":1739:1878   */\n      swap3\n      swap2\n      pop\n      pop\n      jump\t// out\n        /* \"#utility.yul\":1884:2213   */\n    tag_38:\n        /* \"#utility.yul\":1943:1949   */\n      0x00\n        /* \"#utility.yul\":1992:1994   */\n      0x20\n        /* \"#utility.yul\":1980:1989   */\n      dup3\n        /* \"#utility.yul\":1971:1978   */\n      dup5\n        /* \"#utility.yul\":1967:1990   */\n      sub\n        /* \"#utility.yul\":1963:1995   */\n      slt\n        /* \"#utility.yul\":1960:2079   */\n      iszero\n      tag_374\n      jumpi\n        /* \"#utility.yul\":1998:2077   */\n      tag_375\n      tag_266\n      jump\t// in\n    tag_375:\n        /* \"#utility.yul\":1960:2079   */\n    tag_374:\n        /* \"#utility.yul\":2118:2119   */\n      0x00\n        /* \"#utility.yul\":2143:2196   */\n      tag_376\n        /* \"#utility.yul\":2188:2195   */\n      dup5\n        /* \"#utility.yul\":2179:2185   */\n      dup3\n        /* \"#utility.yul\":2168:2177   */\n      dup6\n        /* \"#utility.yul\":2164:2186   */\n      add\n        /* \"#utility.yul\":2143:2196   */\n      tag_275\n      jump\t// in\n    tag_376:\n        /* \"#utility.yul\":2133:2196   */\n      swap2\n      pop\n        /* \"#utility.yul\":2089:2206   */\n      pop\n        /* \"#utility.yul\":1884:2213   */\n      swap3\n      swap2\n      pop\n      pop\n      jump\t// out\n        /* \"#utility.yul\":2219:2357   */\n    tag_276:\n        /* \"#utility.yul\":2310:2316   */\n      0x00\n        /* \"#utility.yul\":2344:2349   */\n      dup2\n        /* \"#utility.yul\":2338:2350   */\n      mload\n        /* \"#utility.yul\":2328:2350   */\n      swap1\n      pop\n        /* \"#utility.yul\":2219:2357   */\n      swap2\n      swap1\n      pop\n      jump\t// out\n        /* \"#utility.yul\":2363:2571   */\n    tag_277:\n        /* \"#utility.yul\":2486:2497   */\n      0x00\n        /* \"#utility.yul\":2520:2526   */\n      dup3\n        /* \"#utility.yul\":2515:2518   */\n      dup3\n        /* \"#utility.yul\":2508:2527   */\n      mstore\n        /* \"#utility.yul\":2560:2564   */\n      0x20\n        /* \"#utility.yul\":2555:2558   */\n      dup3\n        /* \"#utility.yul\":2551:2565   */\n      add\n        /* \"#utility.yul\":2536:2565   */\n      swap1\n      pop\n        /* \"#utility.yul\":2363:2571   */\n      swap3\n      swap2\n      pop\n      pop\n      jump\t// out\n        /* \"#utility.yul\":2577:2733   */\n    tag_278:\n        /* \"#utility.yul\":2668:2672   */\n      0x00\n        /* \"#utility.yul\":2691:2694   */\n      dup2\n        /* \"#utility.yul\":2683:2694   */\n      swap1\n      pop\n        /* \"#utility.yul\":2721:2725   */\n      0x20\n        /* \"#utility.yul\":2716:2719   */\n      dup3\n        /* \"#utility.yul\":2712:2726   */\n      add\n        /* \"#utility.yul\":2704:2726   */\n      swap1\n      pop\n        /* \"#utility.yul\":2577:2733   */\n      swap2\n      swap1\n      pop\n      jump\t// out\n        /* \"#utility.yul\":2739:2847   */\n    tag_279:\n        /* \"#utility.yul\":2816:2840   */\n      tag_381\n        /* \"#utility.yul\":2834:2839   */\n      dup2\n        /* \"#utility.yul\":2816:2840   */\n      tag_272\n      jump\t// in\n    tag_381:\n        /* \"#utility.yul\":2811:2814   */\n      dup3\n        /* \"#utility.yul\":2804:2841   */\n      mstore\n        /* \"#utility.yul\":2739:2847   */\n      pop\n      pop\n      jump\t// out\n        /* \"#utility.yul\":2853:2952   */\n    tag_280:\n        /* \"#utility.yul\":2905:2911   */\n      0x00\n        /* \"#utility.yul\":2939:2944   */\n      dup2\n        /* \"#utility.yul\":2933:2945   */\n      mload\n        /* \"#utility.yul\":2923:2945   */\n      swap1\n      pop\n        /* \"#utility.yul\":2853:2952   */\n      swap2\n      swap1\n      pop\n      jump\t// out\n        /* \"#utility.yul\":2958:3117   */\n    tag_281:\n        /* \"#utility.yul\":3032:3043   */\n      0x00\n        /* \"#utility.yul\":3066:3072   */\n      dup3\n        /* \"#utility.yul\":3061:3064   */\n      dup3\n        /* \"#utility.yul\":3054:3073   */\n      mstore\n        /* \"#utility.yul\":3106:3110   */\n      0x20\n        /* \"#utility.yul\":3101:3104   */\n      dup3\n        /* \"#utility.yul\":3097:3111   */\n      add\n        /* \"#utility.yul\":3082:3111   */\n      swap1\n      pop\n        /* \"#utility.yul\":2958:3117   */\n      swap3\n      swap2\n      pop\n      pop\n      jump\t// out\n        /* \"#utility.yul\":3123:3262   */\n    tag_282:\n        /* \"#utility.yul\":3212:3218   */\n      dup3\n        /* \"#utility.yul\":3207:3210   */\n      dup2\n        /* \"#utility.yul\":3202:3205   */\n      dup4\n        /* \"#utility.yul\":3196:3219   */\n      mcopy\n        /* \"#utility.yul\":3253:3254   */\n      0x00\n        /* \"#utility.yul\":3244:3250   */\n      dup4\n        /* \"#utility.yul\":3239:3242   */\n      dup4\n        /* \"#utility.yul\":3235:3251   */\n      add\n        /* \"#utility.yul\":3228:3255   */\n      mstore\n        /* \"#utility.yul\":3123:3262   */\n      pop\n      pop\n      pop\n      jump\t// out\n        /* \"#utility.yul\":3268:3370   */\n    tag_283:\n        /* \"#utility.yul\":3309:3315   */\n      0x00\n        /* \"#utility.yul\":3360:3362   */\n      0x1f\n        /* \"#utility.yul\":3356:3363   */\n      not\n        /* \"#utility.yul\":3351:3353   */\n      0x1f\n        /* \"#utility.yul\":3344:3349   */\n      dup4\n        /* \"#utility.yul\":3340:3354   */\n      add\n        /* \"#utility.yul\":3336:3364   */\n      and\n        /* \"#utility.yul\":3326:3364   */\n      swap1\n      pop\n        /* \"#utility.yul\":3268:3370   */\n      swap2\n      swap1\n      pop\n      jump\t// out\n        /* \"#utility.yul\":3376:3733   */\n    tag_284:\n        /* \"#utility.yul\":3454:3457   */\n      0x00\n        /* \"#utility.yul\":3482:3521   */\n      tag_387\n        /* \"#utility.yul\":3515:3520   */\n      dup3\n        /* \"#utility.yul\":3482:3521   */\n      tag_280\n      jump\t// in\n    tag_387:\n        /* \"#utility.yul\":3537:3598   */\n      tag_388\n        /* \"#utility.yul\":3591:3597   */\n      dup2\n        /* \"#utility.yul\":3586:3589   */\n      dup6\n        /* \"#utility.yul\":3537:3598   */\n      tag_281\n      jump\t// in\n    tag_388:\n        /* \"#utility.yul\":3530:3598   */\n      swap4\n      pop\n        /* \"#utility.yul\":3607:3672   */\n      tag_389\n        /* \"#utility.yul\":3665:3671   */\n      dup2\n        /* \"#utility.yul\":3660:3663   */\n      dup6\n        /* \"#utility.yul\":3653:3657   */\n      0x20\n        /* \"#utility.yul\":3646:3651   */\n      dup7\n        /* \"#utility.yul\":3642:3658   */\n      add\n        /* \"#utility.yul\":3607:3672   */\n      tag_282\n      jump\t// in\n    tag_389:\n        /* \"#utility.yul\":3697:3726   */\n      tag_390\n        /* \"#utility.yul\":3719:3725   */\n      dup2\n        /* \"#utility.yul\":3697:3726   */\n      tag_283\n      jump\t// in\n    tag_390:\n        /* \"#utility.yul\":3692:3695   */\n      dup5\n        /* \"#utility.yul\":3688:3727   */\n      add\n        /* \"#utility.yul\":3681:3727   */\n      swap2\n      pop\n        /* \"#utility.yul\":3458:3733   */\n      pop\n        /* \"#utility.yul\":3376:3733   */\n      swap3\n      swap2\n      pop\n      pop\n      jump\t// out\n        /* \"#utility.yul\":3795:4577   */\n    tag_285:\n        /* \"#utility.yul\":3902:3905   */\n      0x00\n        /* \"#utility.yul\":3938:3942   */\n      0x60\n        /* \"#utility.yul\":3933:3936   */\n      dup4\n        /* \"#utility.yul\":3929:3943   */\n      add\n        /* \"#utility.yul\":4027:4031   */\n      0x00\n        /* \"#utility.yul\":4020:4025   */\n      dup4\n        /* \"#utility.yul\":4016:4032   */\n      add\n        /* \"#utility.yul\":4010:4033   */\n      mload\n        /* \"#utility.yul\":4046:4109   */\n      tag_392\n        /* \"#utility.yul\":4103:4107   */\n      0x00\n        /* \"#utility.yul\":4098:4101   */\n      dup7\n        /* \"#utility.yul\":4094:4108   */\n      add\n        /* \"#utility.yul\":4080:4092   */\n      dup3\n        /* \"#utility.yul\":4046:4109   */\n      tag_279\n      jump\t// in\n    tag_392:\n        /* \"#utility.yul\":3953:4119   */\n      pop\n        /* \"#utility.yul\":4208:4212   */\n      0x20\n        /* \"#utility.yul\":4201:4206   */\n      dup4\n        /* \"#utility.yul\":4197:4213   */\n      add\n        /* \"#utility.yul\":4191:4214   */\n      mload\n        /* \"#utility.yul\":4261:4264   */\n      dup5\n        /* \"#utility.yul\":4255:4259   */\n      dup3\n        /* \"#utility.yul\":4251:4265   */\n      sub\n        /* \"#utility.yul\":4244:4248   */\n      0x20\n        /* \"#utility.yul\":4239:4242   */\n      dup7\n        /* \"#utility.yul\":4235:4249   */\n      add\n        /* \"#utility.yul\":4228:4266   */\n      mstore\n        /* \"#utility.yul\":4287:4360   */\n      tag_393\n        /* \"#utility.yul\":4355:4359   */\n      dup3\n        /* \"#utility.yul\":4341:4353   */\n      dup3\n        /* \"#utility.yul\":4287:4360   */\n      tag_284\n      jump\t// in\n    tag_393:\n        /* \"#utility.yul\":4279:4360   */\n      swap2\n      pop\n        /* \"#utility.yul\":4129:4371   */\n      pop\n        /* \"#utility.yul\":4458:4462   */\n      0x40\n        /* \"#utility.yul\":4451:4456   */\n      dup4\n        /* \"#utility.yul\":4447:4463   */\n      add\n        /* \"#utility.yul\":4441:4464   */\n      mload\n        /* \"#utility.yul\":4477:4540   */\n      tag_394\n        /* \"#utility.yul\":4534:4538   */\n      0x40\n        /* \"#utility.yul\":4529:4532   */\n      dup7\n        /* \"#utility.yul\":4525:4539   */\n      add\n        /* \"#utility.yul\":4511:4523   */\n      dup3\n        /* \"#utility.yul\":4477:4540   */\n      tag_279\n      jump\t// in\n    tag_394:\n        /* \"#utility.yul\":4381:4550   */\n      pop\n        /* \"#utility.yul\":4567:4571   */\n      dup1\n        /* \"#utility.yul\":4560:4571   */\n      swap2\n      pop\n        /* \"#utility.yul\":3907:4577   */\n      pop\n        /* \"#utility.yul\":3795:4577   */\n      swap3\n      swap2\n      pop\n      pop\n      jump\t// out\n        /* \"#utility.yul\":4583:4835   */\n    tag_286:\n        /* \"#utility.yul\":4700:4710   */\n      0x00\n        /* \"#utility.yul\":4735:4829   */\n      tag_396\n        /* \"#utility.yul\":4825:4828   */\n      dup4\n        /* \"#utility.yul\":4817:4823   */\n      dup4\n        /* \"#utility.yul\":4735:4829   */\n      tag_285\n      jump\t// in\n    tag_396:\n        /* \"#utility.yul\":4721:4829   */\n      swap1\n      pop\n        /* \"#utility.yul\":4583:4835   */\n      swap3\n      swap2\n      pop\n      pop\n      jump\t// out\n        /* \"#utility.yul\":4841:4978   */\n    tag_287:\n        /* \"#utility.yul\":4935:4939   */\n      0x00\n        /* \"#utility.yul\":4967:4971   */\n      0x20\n        /* \"#utility.yul\":4962:4965   */\n      dup3\n        /* \"#utility.yul\":4958:4972   */\n      add\n        /* \"#utility.yul\":4950:4972   */\n      swap1\n      pop\n        /* \"#utility.yul\":4841:4978   */\n      swap2\n      swap1\n      pop\n      jump\t// out\n        /* \"#utility.yul\":5044:6147   */\n    tag_288:\n        /* \"#utility.yul\":5211:5214   */\n      0x00\n        /* \"#utility.yul\":5240:5318   */\n      tag_399\n        /* \"#utility.yul\":5312:5317   */\n      dup3\n        /* \"#utility.yul\":5240:5318   */\n      tag_276\n      jump\t// in\n    tag_399:\n        /* \"#utility.yul\":5334:5444   */\n      tag_400\n        /* \"#utility.yul\":5437:5443   */\n      dup2\n        /* \"#utility.yul\":5432:5435   */\n      dup6\n        /* \"#utility.yul\":5334:5444   */\n      tag_277\n      jump\t// in\n    tag_400:\n        /* \"#utility.yul\":5327:5444   */\n      swap4\n      pop\n        /* \"#utility.yul\":5470:5473   */\n      dup4\n        /* \"#utility.yul\":5515:5519   */\n      0x20\n        /* \"#utility.yul\":5507:5513   */\n      dup3\n        /* \"#utility.yul\":5503:5520   */\n      mul\n        /* \"#utility.yul\":5498:5501   */\n      dup6\n        /* \"#utility.yul\":5494:5521   */\n      add\n        /* \"#utility.yul\":5545:5625   */\n      tag_401\n        /* \"#utility.yul\":5619:5624   */\n      dup6\n        /* \"#utility.yul\":5545:5625   */\n      tag_278\n      jump\t// in\n    tag_401:\n        /* \"#utility.yul\":5648:5655   */\n      dup1\n        /* \"#utility.yul\":5679:5680   */\n      0x00\n        /* \"#utility.yul\":5664:6102   */\n    tag_402:\n        /* \"#utility.yul\":5689:5695   */\n      dup6\n        /* \"#utility.yul\":5686:5687   */\n      dup2\n        /* \"#utility.yul\":5683:5696   */\n      lt\n        /* \"#utility.yul\":5664:6102   */\n      iszero\n      tag_404\n      jumpi\n        /* \"#utility.yul\":5760:5769   */\n      dup5\n        /* \"#utility.yul\":5754:5758   */\n      dup5\n        /* \"#utility.yul\":5750:5770   */\n      sub\n        /* \"#utility.yul\":5745:5748   */\n      dup10\n        /* \"#utility.yul\":5738:5771   */\n      mstore\n        /* \"#utility.yul\":5811:5817   */\n      dup2\n        /* \"#utility.yul\":5805:5818   */\n      mload\n        /* \"#utility.yul\":5839:5951   */\n      tag_405\n        /* \"#utility.yul\":5946:5950   */\n      dup6\n        /* \"#utility.yul\":5931:5944   */\n      dup3\n        /* \"#utility.yul\":5839:5951   */\n      tag_286\n      jump\t// in\n    tag_405:\n        /* \"#utility.yul\":5831:5951   */\n      swap5\n      pop\n        /* \"#utility.yul\":5974:6058   */\n      tag_406\n        /* \"#utility.yul\":6051:6057   */\n      dup4\n        /* \"#utility.yul\":5974:6058   */\n      tag_287\n      jump\t// in\n    tag_406:\n        /* \"#utility.yul\":5964:6058   */\n      swap3\n      pop\n        /* \"#utility.yul\":6087:6091   */\n      0x20\n        /* \"#utility.yul\":6082:6085   */\n      dup11\n        /* \"#utility.yul\":6078:6092   */\n      add\n        /* \"#utility.yul\":6071:6092   */\n      swap10\n      pop\n        /* \"#utility.yul\":5724:6102   */\n      pop\n        /* \"#utility.yul\":5711:5712   */\n      0x01\n        /* \"#utility.yul\":5708:5709   */\n      dup2\n        /* \"#utility.yul\":5704:5713   */\n      add\n        /* \"#utility.yul\":5699:5713   */\n      swap1\n      pop\n        /* \"#utility.yul\":5664:6102   */\n      jump(tag_402)\n    tag_404:\n        /* \"#utility.yul\":5668:5682   */\n      pop\n        /* \"#utility.yul\":6118:6122   */\n      dup3\n        /* \"#utility.yul\":6111:6122   */\n      swap8\n      pop\n        /* \"#utility.yul\":6138:6141   */\n      dup8\n        /* \"#utility.yul\":6131:6141   */\n      swap6\n      pop\n        /* \"#utility.yul\":5216:6147   */\n      pop\n      pop\n      pop\n      pop\n      pop\n        /* \"#utility.yul\":5044:6147   */\n      swap3\n      swap2\n      pop\n      pop\n      jump\t// out\n        /* \"#utility.yul\":6153:6622   */\n    tag_47:\n        /* \"#utility.yul\":6344:6348   */\n      0x00\n        /* \"#utility.yul\":6382:6384   */\n      0x20\n        /* \"#utility.yul\":6371:6380   */\n      dup3\n        /* \"#utility.yul\":6367:6385   */\n      add\n        /* \"#utility.yul\":6359:6385   */\n      swap1\n      pop\n        /* \"#utility.yul\":6431:6440   */\n      dup2\n        /* \"#utility.yul\":6425:6429   */\n      dup2\n        /* \"#utility.yul\":6421:6441   */\n      sub\n        /* \"#utility.yul\":6417:6418   */\n      0x00\n        /* \"#utility.yul\":6406:6415   */\n      dup4\n        /* \"#utility.yul\":6402:6419   */\n      add\n        /* \"#utility.yul\":6395:6442   */\n      mstore\n        /* \"#utility.yul\":6459:6615   */\n      tag_408\n        /* \"#utility.yul\":6610:6614   */\n      dup2\n        /* \"#utility.yul\":6601:6607   */\n      dup5\n        /* \"#utility.yul\":6459:6615   */\n      tag_288\n      jump\t// in\n    tag_408:\n        /* \"#utility.yul\":6451:6615   */\n      swap1\n      pop\n        /* \"#utility.yul\":6153:6622   */\n      swap3\n      swap2\n      pop\n      pop\n      jump\t// out\n        /* \"#utility.yul\":6628:6746   */\n    tag_289:\n        /* \"#utility.yul\":6715:6739   */\n      tag_410\n        /* \"#utility.yul\":6733:6738   */\n      dup2\n        /* \"#utility.yul\":6715:6739   */\n      tag_269\n      jump\t// in\n    tag_410:\n        /* \"#utility.yul\":6710:6713   */\n      dup3\n        /* \"#utility.yul\":6703:6740   */\n      mstore\n        /* \"#utility.yul\":6628:6746   */\n      pop\n      pop\n      jump\t// out\n        /* \"#utility.yul\":6752:6974   */\n    tag_58:\n        /* \"#utility.yul\":6845:6849   */\n      0x00\n        /* \"#utility.yul\":6883:6885   */\n      0x20\n        /* \"#utility.yul\":6872:6881   */\n      dup3\n        /* \"#utility.yul\":6868:6886   */\n      add\n        /* \"#utility.yul\":6860:6886   */\n      swap1\n      pop\n        /* \"#utility.yul\":6896:6967   */\n      tag_412\n        /* \"#utility.yul\":6964:6965   */\n      0x00\n        /* \"#utility.yul\":6953:6962   */\n      dup4\n        /* \"#utility.yul\":6949:6966   */\n      add\n        /* \"#utility.yul\":6940:6946   */\n      dup5\n        /* \"#utility.yul\":6896:6967   */\n      tag_289\n      jump\t// in\n    tag_412:\n        /* \"#utility.yul\":6752:6974   */\n      swap3\n      swap2\n      pop\n      pop\n      jump\t// out\n        /* \"#utility.yul\":6980:7149   */\n    tag_290:\n        /* \"#utility.yul\":7064:7075   */\n      0x00\n        /* \"#utility.yul\":7098:7104   */\n      dup3\n        /* \"#utility.yul\":7093:7096   */\n      dup3\n        /* \"#utility.yul\":7086:7105   */\n      mstore\n        /* \"#utility.yul\":7138:7142   */\n      0x20\n        /* \"#utility.yul\":7133:7136   */\n      dup3\n        /* \"#utility.yul\":7129:7143   */\n      add\n        /* \"#utility.yul\":7114:7143   */\n      swap1\n      pop\n        /* \"#utility.yul\":6980:7149   */\n      swap3\n      swap2\n      pop\n      pop\n      jump\t// out\n        /* \"#utility.yul\":7155:7532   */\n    tag_291:\n        /* \"#utility.yul\":7243:7246   */\n      0x00\n        /* \"#utility.yul\":7271:7310   */\n      tag_415\n        /* \"#utility.yul\":7304:7309   */\n      dup3\n        /* \"#utility.yul\":7271:7310   */\n      tag_280\n      jump\t// in\n    tag_415:\n        /* \"#utility.yul\":7326:7397   */\n      tag_416\n        /* \"#utility.yul\":7390:7396   */\n      dup2\n        /* \"#utility.yul\":7385:7388   */\n      dup6\n        /* \"#utility.yul\":7326:7397   */\n      tag_290\n      jump\t// in\n    tag_416:\n        /* \"#utility.yul\":7319:7397   */\n      swap4\n      pop\n        /* \"#utility.yul\":7406:7471   */\n      tag_417\n        /* \"#utility.yul\":7464:7470   */\n      dup2\n        /* \"#utility.yul\":7459:7462   */\n      dup6\n        /* \"#utility.yul\":7452:7456   */\n      0x20\n        /* \"#utility.yul\":7445:7450   */\n      dup7\n        /* \"#utility.yul\":7441:7457   */\n      add\n        /* \"#utility.yul\":7406:7471   */\n      tag_282\n      jump\t// in\n    tag_417:\n        /* \"#utility.yul\":7496:7525   */\n      tag_418\n        /* \"#utility.yul\":7518:7524   */\n      dup2\n        /* \"#utility.yul\":7496:7525   */\n      tag_283\n      jump\t// in\n    tag_418:\n        /* \"#utility.yul\":7491:7494   */\n      dup5\n        /* \"#utility.yul\":7487:7526   */\n      add\n        /* \"#utility.yul\":7480:7526   */\n      swap2\n      pop\n        /* \"#utility.yul\":7247:7532   */\n      pop\n        /* \"#utility.yul\":7155:7532   */\n      swap3\n      swap2\n      pop\n      pop\n      jump\t// out\n        /* \"#utility.yul\":7538:8071   */\n    tag_68:\n        /* \"#utility.yul\":7707:7711   */\n      0x00\n        /* \"#utility.yul\":7745:7747   */\n      0x60\n        /* \"#utility.yul\":7734:7743   */\n      dup3\n        /* \"#utility.yul\":7730:7748   */\n      add\n        /* \"#utility.yul\":7722:7748   */\n      swap1\n      pop\n        /* \"#utility.yul\":7758:7829   */\n      tag_420\n        /* \"#utility.yul\":7826:7827   */\n      0x00\n        /* \"#utility.yul\":7815:7824   */\n      dup4\n        /* \"#utility.yul\":7811:7828   */\n      add\n        /* \"#utility.yul\":7802:7808   */\n      dup7\n        /* \"#utility.yul\":7758:7829   */\n      tag_273\n      jump\t// in\n    tag_420:\n        /* \"#utility.yul\":7876:7885   */\n      dup2\n        /* \"#utility.yul\":7870:7874   */\n      dup2\n        /* \"#utility.yul\":7866:7886   */\n      sub\n        /* \"#utility.yul\":7861:7863   */\n      0x20\n        /* \"#utility.yul\":7850:7859   */\n      dup4\n        /* \"#utility.yul\":7846:7864   */\n      add\n        /* \"#utility.yul\":7839:7887   */\n      mstore\n        /* \"#utility.yul\":7904:7982   */\n      tag_421\n        /* \"#utility.yul\":7977:7981   */\n      dup2\n        /* \"#utility.yul\":7968:7974   */\n      dup6\n        /* \"#utility.yul\":7904:7982   */\n      tag_291\n      jump\t// in\n    tag_421:\n        /* \"#utility.yul\":7896:7982   */\n      swap1\n      pop\n        /* \"#utility.yul\":7992:8064   */\n      tag_422\n        /* \"#utility.yul\":8060:8062   */\n      0x40\n        /* \"#utility.yul\":8049:8058   */\n      dup4\n        /* \"#utility.yul\":8045:8063   */\n      add\n        /* \"#utility.yul\":8036:8042   */\n      dup5\n        /* \"#utility.yul\":7992:8064   */\n      tag_273\n      jump\t// in\n    tag_422:\n        /* \"#utility.yul\":7538:8071   */\n      swap5\n      swap4\n      pop\n      pop\n      pop\n      pop\n      jump\t// out\n        /* \"#utility.yul\":8077:8167   */\n    tag_292:\n        /* \"#utility.yul\":8111:8118   */\n      0x00\n        /* \"#utility.yul\":8154:8159   */\n      dup2\n        /* \"#utility.yul\":8147:8160   */\n      iszero\n        /* \"#utility.yul\":8140:8161   */\n      iszero\n        /* \"#utility.yul\":8129:8161   */\n      swap1\n      pop\n        /* \"#utility.yul\":8077:8167   */\n      swap2\n      swap1\n      pop\n      jump\t// out\n        /* \"#utility.yul\":8173:8282   */\n    tag_293:\n        /* \"#utility.yul\":8254:8275   */\n      tag_425\n        /* \"#utility.yul\":8269:8274   */\n      dup2\n        /* \"#utility.yul\":8254:8275   */\n      tag_292\n      jump\t// in\n    tag_425:\n        /* \"#utility.yul\":8249:8252   */\n      dup3\n        /* \"#utility.yul\":8242:8276   */\n      mstore\n        /* \"#utility.yul\":8173:8282   */\n      pop\n      pop\n      jump\t// out\n        /* \"#utility.yul\":8288:8498   */\n    tag_77:\n        /* \"#utility.yul\":8375:8379   */\n      0x00\n        /* \"#utility.yul\":8413:8415   */\n      0x20\n        /* \"#utility.yul\":8402:8411   */\n      dup3\n        /* \"#utility.yul\":8398:8416   */\n      add\n        /* \"#utility.yul\":8390:8416   */\n      swap1\n      pop\n        /* \"#utility.yul\":8426:8491   */\n      tag_427\n        /* \"#utility.yul\":8488:8489   */\n      0x00\n        /* \"#utility.yul\":8477:8486   */\n      dup4\n        /* \"#utility.yul\":8473:8490   */\n      add\n        /* \"#utility.yul\":8464:8470   */\n      dup5\n        /* \"#utility.yul\":8426:8491   */\n      tag_293\n      jump\t// in\n    tag_427:\n        /* \"#utility.yul\":8288:8498   */\n      swap3\n      swap2\n      pop\n      pop\n      jump\t// out\n        /* \"#utility.yul\":8504:8621   */\n    tag_294:\n        /* \"#utility.yul\":8613:8614   */\n      0x00\n        /* \"#utility.yul\":8610:8611   */\n      dup1\n        /* \"#utility.yul\":8603:8615   */\n      revert\n        /* \"#utility.yul\":8627:8744   */\n    tag_295:\n        /* \"#utility.yul\":8736:8737   */\n      0x00\n        /* \"#utility.yul\":8733:8734   */\n      dup1\n        /* \"#utility.yul\":8726:8738   */\n      revert\n        /* \"#utility.yul\":8750:8867   */\n    tag_296:\n        /* \"#utility.yul\":8859:8860   */\n      0x00\n        /* \"#utility.yul\":8856:8857   */\n      dup1\n        /* \"#utility.yul\":8849:8861   */\n      revert\n        /* \"#utility.yul\":8887:9440   */\n    tag_297:\n        /* \"#utility.yul\":8945:8953   */\n      0x00\n        /* \"#utility.yul\":8955:8961   */\n      dup1\n        /* \"#utility.yul\":9005:9008   */\n      dup4\n        /* \"#utility.yul\":8998:9002   */\n      0x1f\n        /* \"#utility.yul\":8990:8996   */\n      dup5\n        /* \"#utility.yul\":8986:9003   */\n      add\n        /* \"#utility.yul\":8982:9009   */\n      slt\n        /* \"#utility.yul\":8972:9094   */\n      tag_432\n      jumpi\n        /* \"#utility.yul\":9013:9092   */\n      tag_433\n      tag_294\n      jump\t// in\n    tag_433:\n        /* \"#utility.yul\":8972:9094   */\n    tag_432:\n        /* \"#utility.yul\":9126:9132   */\n      dup3\n        /* \"#utility.yul\":9113:9133   */\n      calldataload\n        /* \"#utility.yul\":9103:9133   */\n      swap1\n      pop\n        /* \"#utility.yul\":9156:9174   */\n      0xffffffffffffffff\n        /* \"#utility.yul\":9148:9154   */\n      dup2\n        /* \"#utility.yul\":9145:9175   */\n      gt\n        /* \"#utility.yul\":9142:9259   */\n      iszero\n      tag_434\n      jumpi\n        /* \"#utility.yul\":9178:9257   */\n      tag_435\n      tag_295\n      jump\t// in\n    tag_435:\n        /* \"#utility.yul\":9142:9259   */\n    tag_434:\n        /* \"#utility.yul\":9292:9296   */\n      0x20\n        /* \"#utility.yul\":9284:9290   */\n      dup4\n        /* \"#utility.yul\":9280:9297   */\n      add\n        /* \"#utility.yul\":9268:9297   */\n      swap2\n      pop\n        /* \"#utility.yul\":9346:9349   */\n      dup4\n        /* \"#utility.yul\":9338:9342   */\n      0x01\n        /* \"#utility.yul\":9330:9336   */\n      dup3\n        /* \"#utility.yul\":9326:9343   */\n      mul\n        /* \"#utility.yul\":9316:9324   */\n      dup4\n        /* \"#utility.yul\":9312:9344   */\n      add\n        /* \"#utility.yul\":9309:9350   */\n      gt\n        /* \"#utility.yul\":9306:9434   */\n      iszero\n      tag_436\n      jumpi\n        /* \"#utility.yul\":9353:9432   */\n      tag_437\n      tag_296\n      jump\t// in\n    tag_437:\n        /* \"#utility.yul\":9306:9434   */\n    tag_436:\n        /* \"#utility.yul\":8887:9440   */\n      swap3\n      pop\n      swap3\n      swap1\n      pop\n      jump\t// out\n        /* \"#utility.yul\":9446:9975   */\n    tag_80:\n        /* \"#utility.yul\":9517:9523   */\n      0x00\n        /* \"#utility.yul\":9525:9531   */\n      dup1\n        /* \"#utility.yul\":9574:9576   */\n      0x20\n        /* \"#utility.yul\":9562:9571   */\n      dup4\n        /* \"#utility.yul\":9553:9560   */\n      dup6\n        /* \"#utility.yul\":9549:9572   */\n      sub\n        /* \"#utility.yul\":9545:9577   */\n      slt\n        /* \"#utility.yul\":9542:9661   */\n      iszero\n      tag_439\n      jumpi\n        /* \"#utility.yul\":9580:9659   */\n      tag_440\n      tag_266\n      jump\t// in\n    tag_440:\n        /* \"#utility.yul\":9542:9661   */\n    tag_439:\n        /* \"#utility.yul\":9728:9729   */\n      0x00\n        /* \"#utility.yul\":9717:9726   */\n      dup4\n        /* \"#utility.yul\":9713:9730   */\n      add\n        /* \"#utility.yul\":9700:9731   */\n      calldataload\n        /* \"#utility.yul\":9758:9776   */\n      0xffffffffffffffff\n        /* \"#utility.yul\":9750:9756   */\n      dup2\n        /* \"#utility.yul\":9747:9777   */\n      gt\n        /* \"#utility.yul\":9744:9861   */\n      iszero\n      tag_441\n      jumpi\n        /* \"#utility.yul\":9780:9859   */\n      tag_442\n      tag_267\n      jump\t// in\n    tag_442:\n        /* \"#utility.yul\":9744:9861   */\n    tag_441:\n        /* \"#utility.yul\":9893:9958   */\n      tag_443\n        /* \"#utility.yul\":9950:9957   */\n      dup6\n        /* \"#utility.yul\":9941:9947   */\n      dup3\n        /* \"#utility.yul\":9930:9939   */\n      dup7\n        /* \"#utility.yul\":9926:9948   */\n      add\n        /* \"#utility.yul\":9893:9958   */\n      tag_297\n      jump\t// in\n    tag_443:\n        /* \"#utility.yul\":9875:9958   */\n      swap3\n      pop\n      swap3\n      pop\n        /* \"#utility.yul\":9671:9968   */\n      pop\n        /* \"#utility.yul\":9446:9975   */\n      swap3\n      pop\n      swap3\n      swap1\n      pop\n      jump\t// out\n        /* \"#utility.yul\":9981:10655   */\n    tag_85:\n        /* \"#utility.yul\":10061:10067   */\n      0x00\n        /* \"#utility.yul\":10069:10075   */\n      dup1\n        /* \"#utility.yul\":10077:10083   */\n      0x00\n        /* \"#utility.yul\":10126:10128   */\n      0x40\n        /* \"#utility.yul\":10114:10123   */\n      dup5\n        /* \"#utility.yul\":10105:10112   */\n      dup7\n        /* \"#utility.yul\":10101:10124   */\n      sub\n        /* \"#utility.yul\":10097:10129   */\n      slt\n        /* \"#utility.yul\":10094:10213   */\n      iszero\n      tag_445\n      jumpi\n        /* \"#utility.yul\":10132:10211   */\n      tag_446\n      tag_266\n      jump\t// in\n    tag_446:\n        /* \"#utility.yul\":10094:10213   */\n    tag_445:\n        /* \"#utility.yul\":10252:10253   */\n      0x00\n        /* \"#utility.yul\":10277:10330   */\n      tag_447\n        /* \"#utility.yul\":10322:10329   */\n      dup7\n        /* \"#utility.yul\":10313:10319   */\n      dup3\n        /* \"#utility.yul\":10302:10311   */\n      dup8\n        /* \"#utility.yul\":10298:10320   */\n      add\n        /* \"#utility.yul\":10277:10330   */\n      tag_275\n      jump\t// in\n    tag_447:\n        /* \"#utility.yul\":10267:10330   */\n      swap4\n      pop\n        /* \"#utility.yul\":10223:10340   */\n      pop\n        /* \"#utility.yul\":10407:10409   */\n      0x20\n        /* \"#utility.yul\":10396:10405   */\n      dup5\n        /* \"#utility.yul\":10392:10410   */\n      add\n        /* \"#utility.yul\":10379:10411   */\n      calldataload\n        /* \"#utility.yul\":10438:10456   */\n      0xffffffffffffffff\n        /* \"#utility.yul\":10430:10436   */\n      dup2\n        /* \"#utility.yul\":10427:10457   */\n      gt\n        /* \"#utility.yul\":10424:10541   */\n      iszero\n      tag_448\n      jumpi\n        /* \"#utility.yul\":10460:10539   */\n      tag_449\n      tag_267\n      jump\t// in\n    tag_449:\n        /* \"#utility.yul\":10424:10541   */\n    tag_448:\n        /* \"#utility.yul\":10573:10638   */\n      tag_450\n        /* \"#utility.yul\":10630:10637   */\n      dup7\n        /* \"#utility.yul\":10621:10627   */\n      dup3\n        /* \"#utility.yul\":10610:10619   */\n      dup8\n        /* \"#utility.yul\":10606:10628   */\n      add\n        /* \"#utility.yul\":10573:10638   */\n      tag_297\n      jump\t// in\n    tag_450:\n        /* \"#utility.yul\":10555:10638   */\n      swap3\n      pop\n      swap3\n      pop\n        /* \"#utility.yul\":10350:10648   */\n      pop\n        /* \"#utility.yul\":9981:10655   */\n      swap3\n      pop\n      swap3\n      pop\n      swap3\n      jump\t// out\n        /* \"#utility.yul\":10661:10800   */\n    tag_298:\n        /* \"#utility.yul\":10753:10759   */\n      0x00\n        /* \"#utility.yul\":10787:10792   */\n      dup2\n        /* \"#utility.yul\":10781:10793   */\n      mload\n        /* \"#utility.yul\":10771:10793   */\n      swap1\n      pop\n        /* \"#utility.yul\":10661:10800   */\n      swap2\n      swap1\n      pop\n      jump\t// out\n        /* \"#utility.yul\":10806:11015   */\n    tag_299:\n        /* \"#utility.yul\":10930:10941   */\n      0x00\n        /* \"#utility.yul\":10964:10970   */\n      dup3\n        /* \"#utility.yul\":10959:10962   */\n      dup3\n        /* \"#utility.yul\":10952:10971   */\n      mstore\n        /* \"#utility.yul\":11004:11008   */\n      0x20\n        /* \"#utility.yul\":10999:11002   */\n      dup3\n        /* \"#utility.yul\":10995:11009   */\n      add\n        /* \"#utility.yul\":10980:11009   */\n      swap1\n      pop\n        /* \"#utility.yul\":10806:11015   */\n      swap3\n      swap2\n      pop\n      pop\n      jump\t// out\n        /* \"#utility.yul\":11021:11178   */\n    tag_300:\n        /* \"#utility.yul\":11113:11117   */\n      0x00\n        /* \"#utility.yul\":11136:11139   */\n      dup2\n        /* \"#utility.yul\":11128:11139   */\n      swap1\n      pop\n        /* \"#utility.yul\":11166:11170   */\n      0x20\n        /* \"#utility.yul\":11161:11164   */\n      dup3\n        /* \"#utility.yul\":11157:11171   */\n      add\n        /* \"#utility.yul\":11149:11171   */\n      swap1\n      pop\n        /* \"#utility.yul\":11021:11178   */\n      swap2\n      swap1\n      pop\n      jump\t// out\n        /* \"#utility.yul\":11184:11292   */\n    tag_301:\n        /* \"#utility.yul\":11261:11285   */\n      tag_455\n        /* \"#utility.yul\":11279:11284   */\n      dup2\n        /* \"#utility.yul\":11261:11285   */\n      tag_269\n      jump\t// in\n    tag_455:\n        /* \"#utility.yul\":11256:11259   */\n      dup3\n        /* \"#utility.yul\":11249:11286   */\n      mstore\n        /* \"#utility.yul\":11184:11292   */\n      pop\n      pop\n      jump\t// out\n        /* \"#utility.yul\":11356:12566   */\n    tag_302:\n        /* \"#utility.yul\":11465:11468   */\n      0x00\n        /* \"#utility.yul\":11501:11505   */\n      0xa0\n        /* \"#utility.yul\":11496:11499   */\n      dup4\n        /* \"#utility.yul\":11492:11506   */\n      add\n        /* \"#utility.yul\":11589:11593   */\n      0x00\n        /* \"#utility.yul\":11582:11587   */\n      dup4\n        /* \"#utility.yul\":11578:11594   */\n      add\n        /* \"#utility.yul\":11572:11595   */\n      mload\n        /* \"#utility.yul\":11608:11671   */\n      tag_457\n        /* \"#utility.yul\":11665:11669   */\n      0x00\n        /* \"#utility.yul\":11660:11663   */\n      dup7\n        /* \"#utility.yul\":11656:11670   */\n      add\n        /* \"#utility.yul\":11642:11654   */\n      dup3\n        /* \"#utility.yul\":11608:11671   */\n      tag_301\n      jump\t// in\n    tag_457:\n        /* \"#utility.yul\":11516:11681   */\n      pop\n        /* \"#utility.yul\":11765:11769   */\n      0x20\n        /* \"#utility.yul\":11758:11763   */\n      dup4\n        /* \"#utility.yul\":11754:11770   */\n      add\n        /* \"#utility.yul\":11748:11771   */\n      mload\n        /* \"#utility.yul\":11784:11847   */\n      tag_458\n        /* \"#utility.yul\":11841:11845   */\n      0x20\n        /* \"#utility.yul\":11836:11839   */\n      dup7\n        /* \"#utility.yul\":11832:11846   */\n      add\n        /* \"#utility.yul\":11818:11830   */\n      dup3\n        /* \"#utility.yul\":11784:11847   */\n      tag_279\n      jump\t// in\n    tag_458:\n        /* \"#utility.yul\":11691:11857   */\n      pop\n        /* \"#utility.yul\":11944:11948   */\n      0x40\n        /* \"#utility.yul\":11937:11942   */\n      dup4\n        /* \"#utility.yul\":11933:11949   */\n      add\n        /* \"#utility.yul\":11927:11950   */\n      mload\n        /* \"#utility.yul\":11963:12026   */\n      tag_459\n        /* \"#utility.yul\":12020:12024   */\n      0x40\n        /* \"#utility.yul\":12015:12018   */\n      dup7\n        /* \"#utility.yul\":12011:12025   */\n      add\n        /* \"#utility.yul\":11997:12009   */\n      dup3\n        /* \"#utility.yul\":11963:12026   */\n      tag_279\n      jump\t// in\n    tag_459:\n        /* \"#utility.yul\":11867:12036   */\n      pop\n        /* \"#utility.yul\":12121:12125   */\n      0x60\n        /* \"#utility.yul\":12114:12119   */\n      dup4\n        /* \"#utility.yul\":12110:12126   */\n      add\n        /* \"#utility.yul\":12104:12127   */\n      mload\n        /* \"#utility.yul\":12174:12177   */\n      dup5\n        /* \"#utility.yul\":12168:12172   */\n      dup3\n        /* \"#utility.yul\":12164:12178   */\n      sub\n        /* \"#utility.yul\":12157:12161   */\n      0x60\n        /* \"#utility.yul\":12152:12155   */\n      dup7\n        /* \"#utility.yul\":12148:12162   */\n      add\n        /* \"#utility.yul\":12141:12179   */\n      mstore\n        /* \"#utility.yul\":12200:12273   */\n      tag_460\n        /* \"#utility.yul\":12268:12272   */\n      dup3\n        /* \"#utility.yul\":12254:12266   */\n      dup3\n        /* \"#utility.yul\":12200:12273   */\n      tag_284\n      jump\t// in\n    tag_460:\n        /* \"#utility.yul\":12192:12273   */\n      swap2\n      pop\n        /* \"#utility.yul\":12046:12284   */\n      pop\n        /* \"#utility.yul\":12376:12380   */\n      0x80\n        /* \"#utility.yul\":12369:12374   */\n      dup4\n        /* \"#utility.yul\":12365:12381   */\n      add\n        /* \"#utility.yul\":12359:12382   */\n      mload\n        /* \"#utility.yul\":12429:12432   */\n      dup5\n        /* \"#utility.yul\":12423:12427   */\n      dup3\n        /* \"#utility.yul\":12419:12433   */\n      sub\n        /* \"#utility.yul\":12412:12416   */\n      0x80\n        /* \"#utility.yul\":12407:12410   */\n      dup7\n        /* \"#utility.yul\":12403:12417   */\n      add\n        /* \"#utility.yul\":12396:12434   */\n      mstore\n        /* \"#utility.yul\":12455:12528   */\n      tag_461\n        /* \"#utility.yul\":12523:12527   */\n      dup3\n        /* \"#utility.yul\":12509:12521   */\n      dup3\n        /* \"#utility.yul\":12455:12528   */\n      tag_284\n      jump\t// in\n    tag_461:\n        /* \"#utility.yul\":12447:12528   */\n      swap2\n      pop\n        /* \"#utility.yul\":12294:12539   */\n      pop\n        /* \"#utility.yul\":12556:12560   */\n      dup1\n        /* \"#utility.yul\":12549:12560   */\n      swap2\n      pop\n        /* \"#utility.yul\":11470:12566   */\n      pop\n        /* \"#utility.yul\":11356:12566   */\n      swap3\n      swap2\n      pop\n      pop\n      jump\t// out\n        /* \"#utility.yul\":12572:12828   */\n    tag_303:\n        /* \"#utility.yul\":12691:12701   */\n      0x00\n        /* \"#utility.yul\":12726:12822   */\n      tag_463\n        /* \"#utility.yul\":12818:12821   */\n      dup4\n        /* \"#utility.yul\":12810:12816   */\n      dup4\n        /* \"#utility.yul\":12726:12822   */\n      tag_302\n      jump\t// in\n    tag_463:\n        /* \"#utility.yul\":12712:12822   */\n      swap1\n      pop\n        /* \"#utility.yul\":12572:12828   */\n      swap3\n      swap2\n      pop\n      pop\n      jump\t// out\n        /* \"#utility.yul\":12834:12972   */\n    tag_304:\n        /* \"#utility.yul\":12929:12933   */\n      0x00\n        /* \"#utility.yul\":12961:12965   */\n      0x20\n        /* \"#utility.yul\":12956:12959   */\n      dup3\n        /* \"#utility.yul\":12952:12966   */\n      add\n        /* \"#utility.yul\":12944:12966   */\n      swap1\n      pop\n        /* \"#utility.yul\":12834:12972   */\n      swap2\n      swap1\n      pop\n      jump\t// out\n        /* \"#utility.yul\":13040:14151   */\n    tag_305:\n        /* \"#utility.yul\":13209:13212   */\n      0x00\n        /* \"#utility.yul\":13238:13317   */\n      tag_466\n        /* \"#utility.yul\":13311:13316   */\n      dup3\n        /* \"#utility.yul\":13238:13317   */\n      tag_298\n      jump\t// in\n    tag_466:\n        /* \"#utility.yul\":13333:13444   */\n      tag_467\n        /* \"#utility.yul\":13437:13443   */\n      dup2\n        /* \"#utility.yul\":13432:13435   */\n      dup6\n        /* \"#utility.yul\":13333:13444   */\n      tag_299\n      jump\t// in\n    tag_467:\n        /* \"#utility.yul\":13326:13444   */\n      swap4\n      pop\n        /* \"#utility.yul\":13470:13473   */\n      dup4\n        /* \"#utility.yul\":13515:13519   */\n      0x20\n        /* \"#utility.yul\":13507:13513   */\n      dup3\n        /* \"#utility.yul\":13503:13520   */\n      mul\n        /* \"#utility.yul\":13498:13501   */\n      dup6\n        /* \"#utility.yul\":13494:13521   */\n      add\n        /* \"#utility.yul\":13545:13626   */\n      tag_468\n        /* \"#utility.yul\":13620:13625   */\n      dup6\n        /* \"#utility.yul\":13545:13626   */\n      tag_300\n      jump\t// in\n    tag_468:\n        /* \"#utility.yul\":13649:13656   */\n      dup1\n        /* \"#utility.yul\":13680:13681   */\n      0x00\n        /* \"#utility.yul\":13665:14106   */\n    tag_469:\n        /* \"#utility.yul\":13690:13696   */\n      dup6\n        /* \"#utility.yul\":13687:13688   */\n      dup2\n        /* \"#utility.yul\":13684:13697   */\n      lt\n        /* \"#utility.yul\":13665:14106   */\n      iszero\n      tag_471\n      jumpi\n        /* \"#utility.yul\":13761:13770   */\n      dup5\n        /* \"#utility.yul\":13755:13759   */\n      dup5\n        /* \"#utility.yul\":13751:13771   */\n      sub\n        /* \"#utility.yul\":13746:13749   */\n      dup10\n        /* \"#utility.yul\":13739:13772   */\n      mstore\n        /* \"#utility.yul\":13812:13818   */\n      dup2\n        /* \"#utility.yul\":13806:13819   */\n      mload\n        /* \"#utility.yul\":13840:13954   */\n      tag_472\n        /* \"#utility.yul\":13949:13953   */\n      dup6\n        /* \"#utility.yul\":13934:13947   */\n      dup3\n        /* \"#utility.yul\":13840:13954   */\n      tag_303\n      jump\t// in\n    tag_472:\n        /* \"#utility.yul\":13832:13954   */\n      swap5\n      pop\n        /* \"#utility.yul\":13977:14062   */\n      tag_473\n        /* \"#utility.yul\":14055:14061   */\n      dup4\n        /* \"#utility.yul\":13977:14062   */\n      tag_304\n      jump\t// in\n    tag_473:\n        /* \"#utility.yul\":13967:14062   */\n      swap3\n      pop\n        /* \"#utility.yul\":14091:14095   */\n      0x20\n        /* \"#utility.yul\":14086:14089   */\n      dup11\n        /* \"#utility.yul\":14082:14096   */\n      add\n        /* \"#utility.yul\":14075:14096   */\n      swap10\n      pop\n        /* \"#utility.yul\":13725:14106   */\n      pop\n        /* \"#utility.yul\":13712:13713   */\n      0x01\n        /* \"#utility.yul\":13709:13710   */\n      dup2\n        /* \"#utility.yul\":13705:13714   */\n      add\n        /* \"#utility.yul\":13700:13714   */\n      swap1\n      pop\n        /* \"#utility.yul\":13665:14106   */\n      jump(tag_469)\n    tag_471:\n        /* \"#utility.yul\":13669:13683   */\n      pop\n        /* \"#utility.yul\":14122:14126   */\n      dup3\n        /* \"#utility.yul\":14115:14126   */\n      swap8\n      pop\n        /* \"#utility.yul\":14142:14145   */\n      dup8\n        /* \"#utility.yul\":14135:14145   */\n      swap6\n      pop\n        /* \"#utility.yul\":13214:14151   */\n      pop\n      pop\n      pop\n      pop\n      pop\n        /* \"#utility.yul\":13040:14151   */\n      swap3\n      swap2\n      pop\n      pop\n      jump\t// out\n        /* \"#utility.yul\":14157:14630   */\n    tag_95:\n        /* \"#utility.yul\":14350:14354   */\n      0x00\n        /* \"#utility.yul\":14388:14390   */\n      0x20\n        /* \"#utility.yul\":14377:14386   */\n      dup3\n        /* \"#utility.yul\":14373:14391   */\n      add\n        /* \"#utility.yul\":14365:14391   */\n      swap1\n      pop\n        /* \"#utility.yul\":14437:14446   */\n      dup2\n        /* \"#utility.yul\":14431:14435   */\n      dup2\n        /* \"#utility.yul\":14427:14447   */\n      sub\n        /* \"#utility.yul\":14423:14424   */\n      0x00\n        /* \"#utility.yul\":14412:14421   */\n      dup4\n        /* \"#utility.yul\":14408:14425   */\n      add\n        /* \"#utility.yul\":14401:14448   */\n      mstore\n        /* \"#utility.yul\":14465:14623   */\n      tag_475\n        /* \"#utility.yul\":14618:14622   */\n      dup2\n        /* \"#utility.yul\":14609:14615   */\n      dup5\n        /* \"#utility.yul\":14465:14623   */\n      tag_305\n      jump\t// in\n    tag_475:\n        /* \"#utility.yul\":14457:14623   */\n      swap1\n      pop\n        /* \"#utility.yul\":14157:14630   */\n      swap3\n      swap2\n      pop\n      pop\n      jump\t// out\n        /* \"#utility.yul\":14636:15482   */\n    tag_112:\n        /* \"#utility.yul\":14881:14885   */\n      0x00\n        /* \"#utility.yul\":14919:14922   */\n      0xa0\n        /* \"#utility.yul\":14908:14917   */\n      dup3\n        /* \"#utility.yul\":14904:14923   */\n      add\n        /* \"#utility.yul\":14896:14923   */\n      swap1\n      pop\n        /* \"#utility.yul\":14933:15004   */\n      tag_477\n        /* \"#utility.yul\":15001:15002   */\n      0x00\n        /* \"#utility.yul\":14990:14999   */\n      dup4\n        /* \"#utility.yul\":14986:15003   */\n      add\n        /* \"#utility.yul\":14977:14983   */\n      dup9\n        /* \"#utility.yul\":14933:15004   */\n      tag_289\n      jump\t// in\n    tag_477:\n        /* \"#utility.yul\":15014:15086   */\n      tag_478\n        /* \"#utility.yul\":15082:15084   */\n      0x20\n        /* \"#utility.yul\":15071:15080   */\n      dup4\n        /* \"#utility.yul\":15067:15085   */\n      add\n        /* \"#utility.yul\":15058:15064   */\n      dup8\n        /* \"#utility.yul\":15014:15086   */\n      tag_273\n      jump\t// in\n    tag_478:\n        /* \"#utility.yul\":15096:15168   */\n      tag_479\n        /* \"#utility.yul\":15164:15166   */\n      0x40\n        /* \"#utility.yul\":15153:15162   */\n      dup4\n        /* \"#utility.yul\":15149:15167   */\n      add\n        /* \"#utility.yul\":15140:15146   */\n      dup7\n        /* \"#utility.yul\":15096:15168   */\n      tag_273\n      jump\t// in\n    tag_479:\n        /* \"#utility.yul\":15215:15224   */\n      dup2\n        /* \"#utility.yul\":15209:15213   */\n      dup2\n        /* \"#utility.yul\":15205:15225   */\n      sub\n        /* \"#utility.yul\":15200:15202   */\n      0x60\n        /* \"#utility.yul\":15189:15198   */\n      dup4\n        /* \"#utility.yul\":15185:15203   */\n      add\n        /* \"#utility.yul\":15178:15226   */\n      mstore\n        /* \"#utility.yul\":15243:15321   */\n      tag_480\n        /* \"#utility.yul\":15316:15320   */\n      dup2\n        /* \"#utility.yul\":15307:15313   */\n      dup6\n        /* \"#utility.yul\":15243:15321   */\n      tag_291\n      jump\t// in\n    tag_480:\n        /* \"#utility.yul\":15235:15321   */\n      swap1\n      pop\n        /* \"#utility.yul\":15369:15378   */\n      dup2\n        /* \"#utility.yul\":15363:15367   */\n      dup2\n        /* \"#utility.yul\":15359:15379   */\n      sub\n        /* \"#utility.yul\":15353:15356   */\n      0x80\n        /* \"#utility.yul\":15342:15351   */\n      dup4\n        /* \"#utility.yul\":15338:15357   */\n      add\n        /* \"#utility.yul\":15331:15380   */\n      mstore\n        /* \"#utility.yul\":15397:15475   */\n      tag_481\n        /* \"#utility.yul\":15470:15474   */\n      dup2\n        /* \"#utility.yul\":15461:15467   */\n      dup5\n        /* \"#utility.yul\":15397:15475   */\n      tag_291\n      jump\t// in\n    tag_481:\n        /* \"#utility.yul\":15389:15475   */\n      swap1\n      pop\n        /* \"#utility.yul\":14636:15482   */\n      swap7\n      swap6\n      pop\n      pop\n      pop\n      pop\n      pop\n      pop\n      jump\t// out\n        /* \"#utility.yul\":15488:15658   */\n    tag_306:\n        /* \"#utility.yul\":15628:15650   */\n      0x496e73756666696369656e742062616c616e6365000000000000000000000000\n        /* \"#utility.yul\":15624:15625   */\n      0x00\n        /* \"#utility.yul\":15616:15622   */\n      dup3\n        /* \"#utility.yul\":15612:15626   */\n      add\n        /* \"#utility.yul\":15605:15651   */\n      mstore\n        /* \"#utility.yul\":15488:15658   */\n      pop\n      jump\t// out\n        /* \"#utility.yul\":15664:16030   */\n    tag_307:\n        /* \"#utility.yul\":15806:15809   */\n      0x00\n        /* \"#utility.yul\":15827:15894   */\n      tag_484\n        /* \"#utility.yul\":15891:15893   */\n      0x14\n        /* \"#utility.yul\":15886:15889   */\n      dup4\n        /* \"#utility.yul\":15827:15894   */\n      tag_290\n      jump\t// in\n    tag_484:\n        /* \"#utility.yul\":15820:15894   */\n      swap2\n      pop\n        /* \"#utility.yul\":15903:15996   */\n      tag_485\n        /* \"#utility.yul\":15992:15995   */\n      dup3\n        /* \"#utility.yul\":15903:15996   */\n      tag_306\n      jump\t// in\n    tag_485:\n        /* \"#utility.yul\":16021:16023   */\n      0x20\n        /* \"#utility.yul\":16016:16019   */\n      dup3\n        /* \"#utility.yul\":16012:16024   */\n      add\n        /* \"#utility.yul\":16005:16024   */\n      swap1\n      pop\n        /* \"#utility.yul\":15664:16030   */\n      swap2\n      swap1\n      pop\n      jump\t// out\n        /* \"#utility.yul\":16036:16455   */\n    tag_122:\n        /* \"#utility.yul\":16202:16206   */\n      0x00\n        /* \"#utility.yul\":16240:16242   */\n      0x20\n        /* \"#utility.yul\":16229:16238   */\n      dup3\n        /* \"#utility.yul\":16225:16243   */\n      add\n        /* \"#utility.yul\":16217:16243   */\n      swap1\n      pop\n        /* \"#utility.yul\":16289:16298   */\n      dup2\n        /* \"#utility.yul\":16283:16287   */\n      dup2\n        /* \"#utility.yul\":16279:16299   */\n      sub\n        /* \"#utility.yul\":16275:16276   */\n      0x00\n        /* \"#utility.yul\":16264:16273   */\n      dup4\n        /* \"#utility.yul\":16260:16277   */\n      add\n        /* \"#utility.yul\":16253:16300   */\n      mstore\n        /* \"#utility.yul\":16317:16448   */\n      tag_487\n        /* \"#utility.yul\":16443:16447   */\n      dup2\n        /* \"#utility.yul\":16317:16448   */\n      tag_307\n      jump\t// in\n    tag_487:\n        /* \"#utility.yul\":16309:16448   */\n      swap1\n      pop\n        /* \"#utility.yul\":16036:16455   */\n      swap2\n      swap1\n      pop\n      jump\t// out\n        /* \"#utility.yul\":16461:16641   */\n    tag_308:\n        /* \"#utility.yul\":16509:16586   */\n      0x4e487b7100000000000000000000000000000000000000000000000000000000\n        /* \"#utility.yul\":16506:16507   */\n      0x00\n        /* \"#utility.yul\":16499:16587   */\n      mstore\n        /* \"#utility.yul\":16606:16610   */\n      0x22\n        /* \"#utility.yul\":16603:16604   */\n      0x04\n        /* \"#utility.yul\":16596:16611   */\n      mstore\n        /* \"#utility.yul\":16630:16634   */\n      0x24\n        /* \"#utility.yul\":16627:16628   */\n      0x00\n        /* \"#utility.yul\":16620:16635   */\n      revert\n        /* \"#utility.yul\":16647:16967   */\n    tag_136:\n        /* \"#utility.yul\":16691:16697   */\n      0x00\n        /* \"#utility.yul\":16728:16729   */\n      0x02\n        /* \"#utility.yul\":16722:16726   */\n      dup3\n        /* \"#utility.yul\":16718:16730   */\n      div\n        /* \"#utility.yul\":16708:16730   */\n      swap1\n      pop\n        /* \"#utility.yul\":16775:16776   */\n      0x01\n        /* \"#utility.yul\":16769:16773   */\n      dup3\n        /* \"#utility.yul\":16765:16777   */\n      and\n        /* \"#utility.yul\":16796:16814   */\n      dup1\n        /* \"#utility.yul\":16786:16867   */\n      tag_490\n      jumpi\n        /* \"#utility.yul\":16852:16856   */\n      0x7f\n        /* \"#utility.yul\":16844:16850   */\n      dup3\n        /* \"#utility.yul\":16840:16857   */\n      and\n        /* \"#utility.yul\":16830:16857   */\n      swap2\n      pop\n        /* \"#utility.yul\":16786:16867   */\n    tag_490:\n        /* \"#utility.yul\":16914:16916   */\n      0x20\n        /* \"#utility.yul\":16906:16912   */\n      dup3\n        /* \"#utility.yul\":16903:16917   */\n      lt\n        /* \"#utility.yul\":16883:16901   */\n      dup2\n        /* \"#utility.yul\":16880:16918   */\n      sub\n        /* \"#utility.yul\":16877:16961   */\n      tag_491\n      jumpi\n        /* \"#utility.yul\":16933:16951   */\n      tag_492\n      tag_308\n      jump\t// in\n    tag_492:\n        /* \"#utility.yul\":16877:16961   */\n    tag_491:\n        /* \"#utility.yul\":16698:16967   */\n      pop\n        /* \"#utility.yul\":16647:16967   */\n      swap2\n      swap1\n      pop\n      jump\t// out\n        /* \"#utility.yul\":16973:17143   */\n    tag_309:\n        /* \"#utility.yul\":17113:17135   */\n      0x4e6f2066756e647320746f207769746864726177000000000000000000000000\n        /* \"#utility.yul\":17109:17110   */\n      0x00\n        /* \"#utility.yul\":17101:17107   */\n      dup3\n        /* \"#utility.yul\":17097:17111   */\n      add\n        /* \"#utility.yul\":17090:17136   */\n      mstore\n        /* \"#utility.yul\":16973:17143   */\n      pop\n      jump\t// out\n        /* \"#utility.yul\":17149:17515   */\n    tag_310:\n        /* \"#utility.yul\":17291:17294   */\n      0x00\n        /* \"#utility.yul\":17312:17379   */\n      tag_495\n        /* \"#utility.yul\":17376:17378   */\n      0x14\n        /* \"#utility.yul\":17371:17374   */\n      dup4\n        /* \"#utility.yul\":17312:17379   */\n      tag_290\n      jump\t// in\n    tag_495:\n        /* \"#utility.yul\":17305:17379   */\n      swap2\n      pop\n        /* \"#utility.yul\":17388:17481   */\n      tag_496\n        /* \"#utility.yul\":17477:17480   */\n      dup3\n        /* \"#utility.yul\":17388:17481   */\n      tag_309\n      jump\t// in\n    tag_496:\n        /* \"#utility.yul\":17506:17508   */\n      0x20\n        /* \"#utility.yul\":17501:17504   */\n      dup3\n        /* \"#utility.yul\":17497:17509   */\n      add\n        /* \"#utility.yul\":17490:17509   */\n      swap1\n      pop\n        /* \"#utility.yul\":17149:17515   */\n      swap2\n      swap1\n      pop\n      jump\t// out\n        /* \"#utility.yul\":17521:17940   */\n    tag_149:\n        /* \"#utility.yul\":17687:17691   */\n      0x00\n        /* \"#utility.yul\":17725:17727   */\n      0x20\n        /* \"#utility.yul\":17714:17723   */\n      dup3\n        /* \"#utility.yul\":17710:17728   */\n      add\n        /* \"#utility.yul\":17702:17728   */\n      swap1\n      pop\n        /* \"#utility.yul\":17774:17783   */\n      dup2\n        /* \"#utility.yul\":17768:17772   */\n      dup2\n        /* \"#utility.yul\":17764:17784   */\n      sub\n        /* \"#utility.yul\":17760:17761   */\n      0x00\n        /* \"#utility.yul\":17749:17758   */\n      dup4\n        /* \"#utility.yul\":17745:17762   */\n      add\n        /* \"#utility.yul\":17738:17785   */\n      mstore\n        /* \"#utility.yul\":17802:17933   */\n      tag_498\n        /* \"#utility.yul\":17928:17932   */\n      dup2\n        /* \"#utility.yul\":17802:17933   */\n      tag_310\n      jump\t// in\n    tag_498:\n        /* \"#utility.yul\":17794:17933   */\n      swap1\n      pop\n        /* \"#utility.yul\":17521:17940   */\n      swap2\n      swap1\n      pop\n      jump\t// out\n        /* \"#utility.yul\":17946:18114   */\n    tag_311:\n        /* \"#utility.yul\":18086:18106   */\n      0x436f6e7472616374206973207061757365640000000000000000000000000000\n        /* \"#utility.yul\":18082:18083   */\n      0x00\n        /* \"#utility.yul\":18074:18080   */\n      dup3\n        /* \"#utility.yul\":18070:18084   */\n      add\n        /* \"#utility.yul\":18063:18107   */\n      mstore\n        /* \"#utility.yul\":17946:18114   */\n      pop\n      jump\t// out\n        /* \"#utility.yul\":18120:18486   */\n    tag_312:\n        /* \"#utility.yul\":18262:18265   */\n      0x00\n        /* \"#utility.yul\":18283:18350   */\n      tag_501\n        /* \"#utility.yul\":18347:18349   */\n      0x12\n        /* \"#utility.yul\":18342:18345   */\n      dup4\n        /* \"#utility.yul\":18283:18350   */\n      tag_290\n      jump\t// in\n    tag_501:\n        /* \"#utility.yul\":18276:18350   */\n      swap2\n      pop\n        /* \"#utility.yul\":18359:18452   */\n      tag_502\n        /* \"#utility.yul\":18448:18451   */\n      dup3\n        /* \"#utility.yul\":18359:18452   */\n      tag_311\n      jump\t// in\n    tag_502:\n        /* \"#utility.yul\":18477:18479   */\n      0x20\n        /* \"#utility.yul\":18472:18475   */\n      dup3\n        /* \"#utility.yul\":18468:18480   */\n      add\n        /* \"#utility.yul\":18461:18480   */\n      swap1\n      pop\n        /* \"#utility.yul\":18120:18486   */\n      swap2\n      swap1\n      pop\n      jump\t// out\n        /* \"#utility.yul\":18492:18911   */\n    tag_164:\n        /* \"#utility.yul\":18658:18662   */\n      0x00\n        /* \"#utility.yul\":18696:18698   */\n      0x20\n        /* \"#utility.yul\":18685:18694   */\n      dup3\n        /* \"#utility.yul\":18681:18699   */\n      add\n        /* \"#utility.yul\":18673:18699   */\n      swap1\n      pop\n        /* \"#utility.yul\":18745:18754   */\n      dup2\n        /* \"#utility.yul\":18739:18743   */\n      dup2\n        /* \"#utility.yul\":18735:18755   */\n      sub\n        /* \"#utility.yul\":18731:18732   */\n      0x00\n        /* \"#utility.yul\":18720:18729   */\n      dup4\n        /* \"#utility.yul\":18716:18733   */\n      add\n        /* \"#utility.yul\":18709:18756   */\n      mstore\n        /* \"#utility.yul\":18773:18904   */\n      tag_504\n        /* \"#utility.yul\":18899:18903   */\n      dup2\n        /* \"#utility.yul\":18773:18904   */\n      tag_312\n      jump\t// in\n    tag_504:\n        /* \"#utility.yul\":18765:18904   */\n      swap1\n      pop\n        /* \"#utility.yul\":18492:18911   */\n      swap2\n      swap1\n      pop\n      jump\t// out\n        /* \"#utility.yul\":18917:19139   */\n    tag_313:\n        /* \"#utility.yul\":19057:19091   */\n      0x446f6e6174696f6e2069732062656c6f7720746865206d696e696d756d206c69\n        /* \"#utility.yul\":19053:19054   */\n      0x00\n        /* \"#utility.yul\":19045:19051   */\n      dup3\n        /* \"#utility.yul\":19041:19055   */\n      add\n        /* \"#utility.yul\":19034:19092   */\n      mstore\n        /* \"#utility.yul\":19126:19131   */\n      0x6d69740000000000000000000000000000000000000000000000000000000000\n        /* \"#utility.yul\":19121:19123   */\n      0x20\n        /* \"#utility.yul\":19113:19119   */\n      dup3\n        /* \"#utility.yul\":19109:19124   */\n      add\n        /* \"#utility.yul\":19102:19132   */\n      mstore\n        /* \"#utility.yul\":18917:19139   */\n      pop\n      jump\t// out\n        /* \"#utility.yul\":19145:19511   */\n    tag_314:\n        /* \"#utility.yul\":19287:19290   */\n      0x00\n        /* \"#utility.yul\":19308:19375   */\n      tag_507\n        /* \"#utility.yul\":19372:19374   */\n      0x23\n        /* \"#utility.yul\":19367:19370   */\n      dup4\n        /* \"#utility.yul\":19308:19375   */\n      tag_290\n      jump\t// in\n    tag_507:\n        /* \"#utility.yul\":19301:19375   */\n      swap2\n      pop\n        /* \"#utility.yul\":19384:19477   */\n      tag_508\n        /* \"#utility.yul\":19473:19476   */\n      dup3\n        /* \"#utility.yul\":19384:19477   */\n      tag_313\n      jump\t// in\n    tag_508:\n        /* \"#utility.yul\":19502:19504   */\n      0x40\n        /* \"#utility.yul\":19497:19500   */\n      dup3\n        /* \"#utility.yul\":19493:19505   */\n      add\n        /* \"#utility.yul\":19486:19505   */\n      swap1\n      pop\n        /* \"#utility.yul\":19145:19511   */\n      swap2\n      swap1\n      pop\n      jump\t// out\n        /* \"#utility.yul\":19517:19936   */\n    tag_168:\n        /* \"#utility.yul\":19683:19687   */\n      0x00\n        /* \"#utility.yul\":19721:19723   */\n      0x20\n        /* \"#utility.yul\":19710:19719   */\n      dup3\n        /* \"#utility.yul\":19706:19724   */\n      add\n        /* \"#utility.yul\":19698:19724   */\n      swap1\n      pop\n        /* \"#utility.yul\":19770:19779   */\n      dup2\n        /* \"#utility.yul\":19764:19768   */\n      dup2\n        /* \"#utility.yul\":19760:19780   */\n      sub\n        /* \"#utility.yul\":19756:19757   */\n      0x00\n        /* \"#utility.yul\":19745:19754   */\n      dup4\n        /* \"#utility.yul\":19741:19758   */\n      add\n        /* \"#utility.yul\":19734:19781   */\n      mstore\n        /* \"#utility.yul\":19798:19929   */\n      tag_510\n        /* \"#utility.yul\":19924:19928   */\n      dup2\n        /* \"#utility.yul\":19798:19929   */\n      tag_314\n      jump\t// in\n    tag_510:\n        /* \"#utility.yul\":19790:19929   */\n      swap1\n      pop\n        /* \"#utility.yul\":19517:19936   */\n      swap2\n      swap1\n      pop\n      jump\t// out\n        /* \"#utility.yul\":19942:20164   */\n    tag_315:\n        /* \"#utility.yul\":20082:20116   */\n      0x446f6e6174696f6e2069732061626f766520746865206d6178696d756d206c69\n        /* \"#utility.yul\":20078:20079   */\n      0x00\n        /* \"#utility.yul\":20070:20076   */\n      dup3\n        /* \"#utility.yul\":20066:20080   */\n      add\n        /* \"#utility.yul\":20059:20117   */\n      mstore\n        /* \"#utility.yul\":20151:20156   */\n      0x6d69740000000000000000000000000000000000000000000000000000000000\n        /* \"#utility.yul\":20146:20148   */\n      0x20\n        /* \"#utility.yul\":20138:20144   */\n      dup3\n        /* \"#utility.yul\":20134:20149   */\n      add\n        /* \"#utility.yul\":20127:20157   */\n      mstore\n        /* \"#utility.yul\":19942:20164   */\n      pop\n      jump\t// out\n        /* \"#utility.yul\":20170:20536   */\n    tag_316:\n        /* \"#utility.yul\":20312:20315   */\n      0x00\n        /* \"#utility.yul\":20333:20400   */\n      tag_513\n        /* \"#utility.yul\":20397:20399   */\n      0x23\n        /* \"#utility.yul\":20392:20395   */\n      dup4\n        /* \"#utility.yul\":20333:20400   */\n      tag_290\n      jump\t// in\n    tag_513:\n        /* \"#utility.yul\":20326:20400   */\n      swap2\n      pop\n        /* \"#utility.yul\":20409:20502   */\n      tag_514\n        /* \"#utility.yul\":20498:20501   */\n      dup3\n        /* \"#utility.yul\":20409:20502   */\n      tag_315\n      jump\t// in\n    tag_514:\n        /* \"#utility.yul\":20527:20529   */\n      0x40\n        /* \"#utility.yul\":20522:20525   */\n      dup3\n        /* \"#utility.yul\":20518:20530   */\n      add\n        /* \"#utility.yul\":20511:20530   */\n      swap1\n      pop\n        /* \"#utility.yul\":20170:20536   */\n      swap2\n      swap1\n      pop\n      jump\t// out\n        /* \"#utility.yul\":20542:20961   */\n    tag_171:\n        /* \"#utility.yul\":20708:20712   */\n      0x00\n        /* \"#utility.yul\":20746:20748   */\n      0x20\n        /* \"#utility.yul\":20735:20744   */\n      dup3\n        /* \"#utility.yul\":20731:20749   */\n      add\n        /* \"#utility.yul\":20723:20749   */\n      swap1\n      pop\n        /* \"#utility.yul\":20795:20804   */\n      dup2\n        /* \"#utility.yul\":20789:20793   */\n      dup2\n        /* \"#utility.yul\":20785:20805   */\n      sub\n        /* \"#utility.yul\":20781:20782   */\n      0x00\n        /* \"#utility.yul\":20770:20779   */\n      dup4\n        /* \"#utility.yul\":20766:20783   */\n      add\n        /* \"#utility.yul\":20759:20806   */\n      mstore\n        /* \"#utility.yul\":20823:20954   */\n      tag_516\n        /* \"#utility.yul\":20949:20953   */\n      dup2\n        /* \"#utility.yul\":20823:20954   */\n      tag_316\n      jump\t// in\n    tag_516:\n        /* \"#utility.yul\":20815:20954   */\n      swap1\n      pop\n        /* \"#utility.yul\":20542:20961   */\n      swap2\n      swap1\n      pop\n      jump\t// out\n        /* \"#utility.yul\":20967:21115   */\n    tag_317:\n        /* \"#utility.yul\":21069:21080   */\n      0x00\n        /* \"#utility.yul\":21106:21109   */\n      dup2\n        /* \"#utility.yul\":21091:21109   */\n      swap1\n      pop\n        /* \"#utility.yul\":20967:21115   */\n      swap3\n      swap2\n      pop\n      pop\n      jump\t// out\n        /* \"#utility.yul\":21121:21301   */\n    tag_318:\n        /* \"#utility.yul\":21261:21293   */\n      0x5468616e6b20796f7520666f7220796f757220646f6e6174696f6e206f660000\n        /* \"#utility.yul\":21257:21258   */\n      0x00\n        /* \"#utility.yul\":21249:21255   */\n      dup3\n        /* \"#utility.yul\":21245:21259   */\n      add\n        /* \"#utility.yul\":21238:21294   */\n      mstore\n        /* \"#utility.yul\":21121:21301   */\n      pop\n      jump\t// out\n        /* \"#utility.yul\":21307:21709   */\n    tag_319:\n        /* \"#utility.yul\":21467:21470   */\n      0x00\n        /* \"#utility.yul\":21488:21573   */\n      tag_520\n        /* \"#utility.yul\":21570:21572   */\n      0x1e\n        /* \"#utility.yul\":21565:21568   */\n      dup4\n        /* \"#utility.yul\":21488:21573   */\n      tag_317\n      jump\t// in\n    tag_520:\n        /* \"#utility.yul\":21481:21573   */\n      swap2\n      pop\n        /* \"#utility.yul\":21582:21675   */\n      tag_521\n        /* \"#utility.yul\":21671:21674   */\n      dup3\n        /* \"#utility.yul\":21582:21675   */\n      tag_318\n      jump\t// in\n    tag_521:\n        /* \"#utility.yul\":21700:21702   */\n      0x1e\n        /* \"#utility.yul\":21695:21698   */\n      dup3\n        /* \"#utility.yul\":21691:21703   */\n      add\n        /* \"#utility.yul\":21684:21703   */\n      swap1\n      pop\n        /* \"#utility.yul\":21307:21709   */\n      swap2\n      swap1\n      pop\n      jump\t// out\n        /* \"#utility.yul\":21715:22105   */\n    tag_320:\n        /* \"#utility.yul\":21821:21824   */\n      0x00\n        /* \"#utility.yul\":21849:21888   */\n      tag_523\n        /* \"#utility.yul\":21882:21887   */\n      dup3\n        /* \"#utility.yul\":21849:21888   */\n      tag_280\n      jump\t// in\n    tag_523:\n        /* \"#utility.yul\":21904:21993   */\n      tag_524\n        /* \"#utility.yul\":21986:21992   */\n      dup2\n        /* \"#utility.yul\":21981:21984   */\n      dup6\n        /* \"#utility.yul\":21904:21993   */\n      tag_317\n      jump\t// in\n    tag_524:\n        /* \"#utility.yul\":21897:21993   */\n      swap4\n      pop\n        /* \"#utility.yul\":22002:22067   */\n      tag_525\n        /* \"#utility.yul\":22060:22066   */\n      dup2\n        /* \"#utility.yul\":22055:22058   */\n      dup6\n        /* \"#utility.yul\":22048:22052   */\n      0x20\n        /* \"#utility.yul\":22041:22046   */\n      dup7\n        /* \"#utility.yul\":22037:22053   */\n      add\n        /* \"#utility.yul\":22002:22067   */\n      tag_282\n      jump\t// in\n    tag_525:\n        /* \"#utility.yul\":22092:22098   */\n      dup1\n        /* \"#utility.yul\":22087:22090   */\n      dup5\n        /* \"#utility.yul\":22083:22099   */\n      add\n        /* \"#utility.yul\":22076:22099   */\n      swap2\n      pop\n        /* \"#utility.yul\":21825:22105   */\n      pop\n        /* \"#utility.yul\":21715:22105   */\n      swap3\n      swap2\n      pop\n      pop\n      jump\t// out\n        /* \"#utility.yul\":22111:22281   */\n    tag_321:\n        /* \"#utility.yul\":22251:22273   */\n      0x77656920666f722074686520707572706f73653a000000000000000000000000\n        /* \"#utility.yul\":22247:22248   */\n      0x00\n        /* \"#utility.yul\":22239:22245   */\n      dup3\n        /* \"#utility.yul\":22235:22249   */\n      add\n        /* \"#utility.yul\":22228:22274   */\n      mstore\n        /* \"#utility.yul\":22111:22281   */\n      pop\n      jump\t// out\n        /* \"#utility.yul\":22287:22689   */\n    tag_322:\n        /* \"#utility.yul\":22447:22450   */\n      0x00\n        /* \"#utility.yul\":22468:22553   */\n      tag_528\n        /* \"#utility.yul\":22550:22552   */\n      0x14\n        /* \"#utility.yul\":22545:22548   */\n      dup4\n        /* \"#utility.yul\":22468:22553   */\n      tag_317\n      jump\t// in\n    tag_528:\n        /* \"#utility.yul\":22461:22553   */\n      swap2\n      pop\n        /* \"#utility.yul\":22562:22655   */\n      tag_529\n        /* \"#utility.yul\":22651:22654   */\n      dup3\n        /* \"#utility.yul\":22562:22655   */\n      tag_321\n      jump\t// in\n    tag_529:\n        /* \"#utility.yul\":22680:22682   */\n      0x14\n        /* \"#utility.yul\":22675:22678   */\n      dup3\n        /* \"#utility.yul\":22671:22683   */\n      add\n        /* \"#utility.yul\":22664:22683   */\n      swap1\n      pop\n        /* \"#utility.yul\":22287:22689   */\n      swap2\n      swap1\n      pop\n      jump\t// out\n        /* \"#utility.yul\":22695:22843   */\n    tag_323:\n        /* \"#utility.yul\":22793:22799   */\n      dup3\n        /* \"#utility.yul\":22788:22791   */\n      dup2\n        /* \"#utility.yul\":22783:22786   */\n      dup4\n        /* \"#utility.yul\":22770:22800   */\n      calldatacopy\n        /* \"#utility.yul\":22834:22835   */\n      0x00\n        /* \"#utility.yul\":22825:22831   */\n      dup4\n        /* \"#utility.yul\":22820:22823   */\n      dup4\n        /* \"#utility.yul\":22816:22832   */\n      add\n        /* \"#utility.yul\":22809:22836   */\n      mstore\n        /* \"#utility.yul\":22695:22843   */\n      pop\n      pop\n      pop\n      jump\t// out\n        /* \"#utility.yul\":22873:23203   */\n    tag_324:\n        /* \"#utility.yul\":22989:22992   */\n      0x00\n        /* \"#utility.yul\":23010:23099   */\n      tag_532\n        /* \"#utility.yul\":23092:23098   */\n      dup4\n        /* \"#utility.yul\":23087:23090   */\n      dup6\n        /* \"#utility.yul\":23010:23099   */\n      tag_317\n      jump\t// in\n    tag_532:\n        /* \"#utility.yul\":23003:23099   */\n      swap4\n      pop\n        /* \"#utility.yul\":23109:23165   */\n      tag_533\n        /* \"#utility.yul\":23158:23164   */\n      dup4\n        /* \"#utility.yul\":23153:23156   */\n      dup6\n        /* \"#utility.yul\":23146:23151   */\n      dup5\n        /* \"#utility.yul\":23109:23165   */\n      tag_323\n      jump\t// in\n    tag_533:\n        /* \"#utility.yul\":23190:23196   */\n      dup3\n        /* \"#utility.yul\":23185:23188   */\n      dup5\n        /* \"#utility.yul\":23181:23197   */\n      add\n        /* \"#utility.yul\":23174:23197   */\n      swap1\n      pop\n        /* \"#utility.yul\":22873:23203   */\n      swap4\n      swap3\n      pop\n      pop\n      pop\n      jump\t// out\n        /* \"#utility.yul\":23209:24196   */\n    tag_175:\n        /* \"#utility.yul\":23601:23604   */\n      0x00\n        /* \"#utility.yul\":23623:23771   */\n      tag_535\n        /* \"#utility.yul\":23767:23770   */\n      dup3\n        /* \"#utility.yul\":23623:23771   */\n      tag_319\n      jump\t// in\n    tag_535:\n        /* \"#utility.yul\":23616:23771   */\n      swap2\n      pop\n        /* \"#utility.yul\":23788:23883   */\n      tag_536\n        /* \"#utility.yul\":23879:23882   */\n      dup3\n        /* \"#utility.yul\":23870:23876   */\n      dup7\n        /* \"#utility.yul\":23788:23883   */\n      tag_320\n      jump\t// in\n    tag_536:\n        /* \"#utility.yul\":23781:23883   */\n      swap2\n      pop\n        /* \"#utility.yul\":23900:24048   */\n      tag_537\n        /* \"#utility.yul\":24044:24047   */\n      dup3\n        /* \"#utility.yul\":23900:24048   */\n      tag_322\n      jump\t// in\n    tag_537:\n        /* \"#utility.yul\":23893:24048   */\n      swap2\n      pop\n        /* \"#utility.yul\":24065:24170   */\n      tag_538\n        /* \"#utility.yul\":24166:24169   */\n      dup3\n        /* \"#utility.yul\":24157:24163   */\n      dup5\n        /* \"#utility.yul\":24149:24155   */\n      dup7\n        /* \"#utility.yul\":24065:24170   */\n      tag_324\n      jump\t// in\n    tag_538:\n        /* \"#utility.yul\":24058:24170   */\n      swap2\n      pop\n        /* \"#utility.yul\":24187:24190   */\n      dup2\n        /* \"#utility.yul\":24180:24190   */\n      swap1\n      pop\n        /* \"#utility.yul\":23209:24196   */\n      swap5\n      swap4\n      pop\n      pop\n      pop\n      pop\n      jump\t// out\n        /* \"#utility.yul\":24202:24382   */\n    tag_251:\n        /* \"#utility.yul\":24250:24327   */\n      0x4e487b7100000000000000000000000000000000000000000000000000000000\n        /* \"#utility.yul\":24247:24248   */\n      0x00\n        /* \"#utility.yul\":24240:24328   */\n      mstore\n        /* \"#utility.yul\":24347:24351   */\n      0x41\n        /* \"#utility.yul\":24344:24345   */\n      0x04\n        /* \"#utility.yul\":24337:24352   */\n      mstore\n        /* \"#utility.yul\":24371:24375   */\n      0x24\n        /* \"#utility.yul\":24368:24369   */\n      0x00\n        /* \"#utility.yul\":24361:24376   */\n      revert\n        /* \"#utility.yul\":24388:24529   */\n    tag_325:\n        /* \"#utility.yul\":24437:24441   */\n      0x00\n        /* \"#utility.yul\":24460:24463   */\n      dup2\n        /* \"#utility.yul\":24452:24463   */\n      swap1\n      pop\n        /* \"#utility.yul\":24483:24486   */\n      dup2\n        /* \"#utility.yul\":24480:24481   */\n      0x00\n        /* \"#utility.yul\":24473:24487   */\n      mstore\n        /* \"#utility.yul\":24517:24521   */\n      0x20\n        /* \"#utility.yul\":24514:24515   */\n      0x00\n        /* \"#utility.yul\":24504:24522   */\n      keccak256\n        /* \"#utility.yul\":24496:24522   */\n      swap1\n      pop\n        /* \"#utility.yul\":24388:24529   */\n      swap2\n      swap1\n      pop\n      jump\t// out\n        /* \"#utility.yul\":24535:24628   */\n    tag_326:\n        /* \"#utility.yul\":24572:24578   */\n      0x00\n        /* \"#utility.yul\":24619:24621   */\n      0x20\n        /* \"#utility.yul\":24614:24616   */\n      0x1f\n        /* \"#utility.yul\":24607:24612   */\n      dup4\n        /* \"#utility.yul\":24603:24617   */\n      add\n        /* \"#utility.yul\":24599:24622   */\n      div\n        /* \"#utility.yul\":24589:24622   */\n      swap1\n      pop\n        /* \"#utility.yul\":24535:24628   */\n      swap2\n      swap1\n      pop\n      jump\t// out\n        /* \"#utility.yul\":24634:24741   */\n    tag_327:\n        /* \"#utility.yul\":24678:24686   */\n      0x00\n        /* \"#utility.yul\":24728:24733   */\n      dup3\n        /* \"#utility.yul\":24722:24726   */\n      dup3\n        /* \"#utility.yul\":24718:24734   */\n      shl\n        /* \"#utility.yul\":24697:24734   */\n      swap1\n      pop\n        /* \"#utility.yul\":24634:24741   */\n      swap3\n      swap2\n      pop\n      pop\n      jump\t// out\n        /* \"#utility.yul\":24747:25140   */\n    tag_328:\n        /* \"#utility.yul\":24816:24822   */\n      0x00\n        /* \"#utility.yul\":24866:24867   */\n      0x08\n        /* \"#utility.yul\":24854:24864   */\n      dup4\n        /* \"#utility.yul\":24850:24868   */\n      mul\n        /* \"#utility.yul\":24889:24986   */\n      tag_544\n        /* \"#utility.yul\":24919:24985   */\n      0xffffffffffffffffffffffffffffffffffffffffffffffffffffffffffffffff\n        /* \"#utility.yul\":24908:24917   */\n      dup3\n        /* \"#utility.yul\":24889:24986   */\n      tag_327\n      jump\t// in\n    tag_544:\n        /* \"#utility.yul\":25007:25046   */\n      tag_545\n        /* \"#utility.yul\":25037:25045   */\n      dup7\n        /* \"#utility.yul\":25026:25035   */\n      dup4\n        /* \"#utility.yul\":25007:25046   */\n      tag_327\n      jump\t// in\n    tag_545:\n        /* \"#utility.yul\":24995:25046   */\n      swap6\n      pop\n        /* \"#utility.yul\":25079:25083   */\n      dup1\n        /* \"#utility.yul\":25075:25084   */\n      not\n        /* \"#utility.yul\":25068:25073   */\n      dup5\n        /* \"#utility.yul\":25064:25085   */\n      and\n        /* \"#utility.yul\":25055:25085   */\n      swap4\n      pop\n        /* \"#utility.yul\":25128:25132   */\n      dup1\n        /* \"#utility.yul\":25118:25126   */\n      dup7\n        /* \"#utility.yul\":25114:25133   */\n      and\n        /* \"#utility.yul\":25107:25112   */\n      dup5\n        /* \"#utility.yul\":25104:25134   */\n      or\n        /* \"#utility.yul\":25094:25134   */\n      swap3\n      pop\n        /* \"#utility.yul\":24823:25140   */\n      pop\n      pop\n        /* \"#utility.yul\":24747:25140   */\n      swap4\n      swap3\n      pop\n      pop\n      pop\n      jump\t// out\n        /* \"#utility.yul\":25146:25206   */\n    tag_329:\n        /* \"#utility.yul\":25174:25177   */\n      0x00\n        /* \"#utility.yul\":25195:25200   */\n      dup2\n        /* \"#utility.yul\":25188:25200   */\n      swap1\n      pop\n        /* \"#utility.yul\":25146:25206   */\n      swap2\n      swap1\n      pop\n      jump\t// out\n        /* \"#utility.yul\":25212:25354   */\n    tag_330:\n        /* \"#utility.yul\":25262:25271   */\n      0x00\n        /* \"#utility.yul\":25295:25348   */\n      tag_548\n        /* \"#utility.yul\":25313:25347   */\n      tag_549\n        /* \"#utility.yul\":25322:25346   */\n      tag_550\n        /* \"#utility.yul\":25340:25345   */\n      dup5\n        /* \"#utility.yul\":25322:25346   */\n      tag_272\n      jump\t// in\n    tag_550:\n        /* \"#utility.yul\":25313:25347   */\n      tag_329\n      jump\t// in\n    tag_549:\n        /* \"#utility.yul\":25295:25348   */\n      tag_272\n      jump\t// in\n    tag_548:\n        /* \"#utility.yul\":25282:25348   */\n      swap1\n      pop\n        /* \"#utility.yul\":25212:25354   */\n      swap2\n      swap1\n      pop\n      jump\t// out\n        /* \"#utility.yul\":25360:25435   */\n    tag_331:\n        /* \"#utility.yul\":25403:25406   */\n      0x00\n        /* \"#utility.yul\":25424:25429   */\n      dup2\n        /* \"#utility.yul\":25417:25429   */\n      swap1\n      pop\n        /* \"#utility.yul\":25360:25435   */\n      swap2\n      swap1\n      pop\n      jump\t// out\n        /* \"#utility.yul\":25441:25710   */\n    tag_332:\n        /* \"#utility.yul\":25551:25590   */\n      tag_553\n        /* \"#utility.yul\":25582:25589   */\n      dup4\n        /* \"#utility.yul\":25551:25590   */\n      tag_330\n      jump\t// in\n    tag_553:\n        /* \"#utility.yul\":25612:25703   */\n      tag_554\n        /* \"#utility.yul\":25661:25702   */\n      tag_555\n        /* \"#utility.yul\":25685:25701   */\n      dup3\n        /* \"#utility.yul\":25661:25702   */\n      tag_331\n      jump\t// in\n    tag_555:\n        /* \"#utility.yul\":25653:25659   */\n      dup5\n        /* \"#utility.yul\":25646:25650   */\n      dup5\n        /* \"#utility.yul\":25640:25651   */\n      sload\n        /* \"#utility.yul\":25612:25703   */\n      tag_328\n      jump\t// in\n    tag_554:\n        /* \"#utility.yul\":25606:25610   */\n      dup3\n        /* \"#utility.yul\":25599:25704   */\n      sstore\n        /* \"#utility.yul\":25517:25710   */\n      pop\n        /* \"#utility.yul\":25441:25710   */\n      pop\n      pop\n      pop\n      jump\t// out\n        /* \"#utility.yul\":25716:25789   */\n    tag_333:\n        /* \"#utility.yul\":25761:25764   */\n      0x00\n        /* \"#utility.yul\":25716:25789   */\n      swap1\n      jump\t// out\n        /* \"#utility.yul\":25795:25984   */\n    tag_334:\n        /* \"#utility.yul\":25872:25904   */\n      tag_558\n      tag_333\n      jump\t// in\n    tag_558:\n        /* \"#utility.yul\":25913:25978   */\n      tag_559\n        /* \"#utility.yul\":25971:25977   */\n      dup2\n        /* \"#utility.yul\":25963:25969   */\n      dup5\n        /* \"#utility.yul\":25957:25961   */\n      dup5\n        /* \"#utility.yul\":25913:25978   */\n      tag_332\n      jump\t// in\n    tag_559:\n        /* \"#utility.yul\":25848:25984   */\n      pop\n        /* \"#utility.yul\":25795:25984   */\n      pop\n      pop\n      jump\t// out\n        /* \"#utility.yul\":25990:26176   */\n    tag_335:\n        /* \"#utility.yul\":26050:26170   */\n    tag_561:\n        /* \"#utility.yul\":26067:26070   */\n      dup2\n        /* \"#utility.yul\":26060:26065   */\n      dup2\n        /* \"#utility.yul\":26057:26071   */\n      lt\n        /* \"#utility.yul\":26050:26170   */\n      iszero\n      tag_563\n      jumpi\n        /* \"#utility.yul\":26121:26160   */\n      tag_564\n        /* \"#utility.yul\":26158:26159   */\n      0x00\n        /* \"#utility.yul\":26151:26156   */\n      dup3\n        /* \"#utility.yul\":26121:26160   */\n      tag_334\n      jump\t// in\n    tag_564:\n        /* \"#utility.yul\":26094:26095   */\n      0x01\n        /* \"#utility.yul\":26087:26092   */\n      dup2\n        /* \"#utility.yul\":26083:26096   */\n      add\n        /* \"#utility.yul\":26074:26096   */\n      swap1\n      pop\n        /* \"#utility.yul\":26050:26170   */\n      jump(tag_561)\n    tag_563:\n        /* \"#utility.yul\":25990:26176   */\n      pop\n      pop\n      jump\t// out\n        /* \"#utility.yul\":26182:26725   */\n    tag_336:\n        /* \"#utility.yul\":26283:26285   */\n      0x1f\n        /* \"#utility.yul\":26278:26281   */\n      dup3\n        /* \"#utility.yul\":26275:26286   */\n      gt\n        /* \"#utility.yul\":26272:26718   */\n      iszero\n      tag_566\n      jumpi\n        /* \"#utility.yul\":26317:26355   */\n      tag_567\n        /* \"#utility.yul\":26349:26354   */\n      dup2\n        /* \"#utility.yul\":26317:26355   */\n      tag_325\n      jump\t// in\n    tag_567:\n        /* \"#utility.yul\":26401:26430   */\n      tag_568\n        /* \"#utility.yul\":26419:26429   */\n      dup5\n        /* \"#utility.yul\":26401:26430   */\n      tag_326\n      jump\t// in\n    tag_568:\n        /* \"#utility.yul\":26391:26399   */\n      dup2\n        /* \"#utility.yul\":26387:26431   */\n      add\n        /* \"#utility.yul\":26584:26586   */\n      0x20\n        /* \"#utility.yul\":26572:26582   */\n      dup6\n        /* \"#utility.yul\":26569:26587   */\n      lt\n        /* \"#utility.yul\":26566:26615   */\n      iszero\n      tag_569\n      jumpi\n        /* \"#utility.yul\":26605:26613   */\n      dup2\n        /* \"#utility.yul\":26590:26613   */\n      swap1\n      pop\n        /* \"#utility.yul\":26566:26615   */\n    tag_569:\n        /* \"#utility.yul\":26628:26708   */\n      tag_570\n        /* \"#utility.yul\":26684:26706   */\n      tag_571\n        /* \"#utility.yul\":26702:26705   */\n      dup6\n        /* \"#utility.yul\":26684:26706   */\n      tag_326\n      jump\t// in\n    tag_571:\n        /* \"#utility.yul\":26674:26682   */\n      dup4\n        /* \"#utility.yul\":26670:26707   */\n      add\n        /* \"#utility.yul\":26657:26668   */\n      dup3\n        /* \"#utility.yul\":26628:26708   */\n      tag_335\n      jump\t// in\n    tag_570:\n        /* \"#utility.yul\":26287:26718   */\n      pop\n      pop\n        /* \"#utility.yul\":26272:26718   */\n    tag_566:\n        /* \"#utility.yul\":26182:26725   */\n      pop\n      pop\n      pop\n      jump\t// out\n        /* \"#utility.yul\":26731:26848   */\n    tag_337:\n        /* \"#utility.yul\":26785:26793   */\n      0x00\n        /* \"#utility.yul\":26835:26840   */\n      dup3\n        /* \"#utility.yul\":26829:26833   */\n      dup3\n        /* \"#utility.yul\":26825:26841   */\n      shr\n        /* \"#utility.yul\":26804:26841   */\n      swap1\n      pop\n        /* \"#utility.yul\":26731:26848   */\n      swap3\n      swap2\n      pop\n      pop\n      jump\t// out\n        /* \"#utility.yul\":26854:27023   */\n    tag_338:\n        /* \"#utility.yul\":26898:26904   */\n      0x00\n        /* \"#utility.yul\":26931:26982   */\n      tag_574\n        /* \"#utility.yul\":26979:26980   */\n      0x00\n        /* \"#utility.yul\":26975:26981   */\n      not\n        /* \"#utility.yul\":26967:26972   */\n      dup5\n        /* \"#utility.yul\":26964:26965   */\n      0x08\n        /* \"#utility.yul\":26960:26973   */\n      mul\n        /* \"#utility.yul\":26931:26982   */\n      tag_337\n      jump\t// in\n    tag_574:\n        /* \"#utility.yul\":26927:26983   */\n      not\n        /* \"#utility.yul\":27012:27016   */\n      dup1\n        /* \"#utility.yul\":27006:27010   */\n      dup4\n        /* \"#utility.yul\":27002:27017   */\n      and\n        /* \"#utility.yul\":26992:27017   */\n      swap2\n      pop\n        /* \"#utility.yul\":26905:27023   */\n      pop\n        /* \"#utility.yul\":26854:27023   */\n      swap3\n      swap2\n      pop\n      pop\n      jump\t// out\n        /* \"#utility.yul\":27028:27323   */\n    tag_339:\n        /* \"#utility.yul\":27104:27108   */\n      0x00\n        /* \"#utility.yul\":27250:27279   */\n      tag_576\n        /* \"#utility.yul\":27275:27278   */\n      dup4\n        /* \"#utility.yul\":27269:27273   */\n      dup4\n        /* \"#utility.yul\":27250:27279   */\n      tag_338\n      jump\t// in\n    tag_576:\n        /* \"#utility.yul\":27242:27279   */\n      swap2\n      pop\n        /* \"#utility.yul\":27312:27315   */\n      dup3\n        /* \"#utility.yul\":27309:27310   */\n      0x02\n        /* \"#utility.yul\":27305:27316   */\n      mul\n        /* \"#utility.yul\":27299:27303   */\n      dup3\n        /* \"#utility.yul\":27296:27317   */\n      or\n        /* \"#utility.yul\":27288:27317   */\n      swap1\n      pop\n        /* \"#utility.yul\":27028:27323   */\n      swap3\n      swap2\n      pop\n      pop\n      jump\t// out\n        /* \"#utility.yul\":27328:28723   */\n    tag_178:\n        /* \"#utility.yul\":27445:27482   */\n      tag_578\n        /* \"#utility.yul\":27478:27481   */\n      dup3\n        /* \"#utility.yul\":27445:27482   */\n      tag_280\n      jump\t// in\n    tag_578:\n        /* \"#utility.yul\":27547:27565   */\n      0xffffffffffffffff\n        /* \"#utility.yul\":27539:27545   */\n      dup2\n        /* \"#utility.yul\":27536:27566   */\n      gt\n        /* \"#utility.yul\":27533:27589   */\n      iszero\n      tag_579\n      jumpi\n        /* \"#utility.yul\":27569:27587   */\n      tag_580\n      tag_251\n      jump\t// in\n    tag_580:\n        /* \"#utility.yul\":27533:27589   */\n    tag_579:\n        /* \"#utility.yul\":27613:27651   */\n      tag_581\n        /* \"#utility.yul\":27645:27649   */\n      dup3\n        /* \"#utility.yul\":27639:27650   */\n      sload\n        /* \"#utility.yul\":27613:27651   */\n      tag_136\n      jump\t// in\n    tag_581:\n        /* \"#utility.yul\":27698:27765   */\n      tag_582\n        /* \"#utility.yul\":27758:27764   */\n      dup3\n        /* \"#utility.yul\":27750:27756   */\n      dup3\n        /* \"#utility.yul\":27744:27748   */\n      dup6\n        /* \"#utility.yul\":27698:27765   */\n      tag_336\n      jump\t// in\n    tag_582:\n        /* \"#utility.yul\":27792:27793   */\n      0x00\n        /* \"#utility.yul\":27816:27820   */\n      0x20\n        /* \"#utility.yul\":27803:27820   */\n      swap1\n      pop\n        /* \"#utility.yul\":27848:27850   */\n      0x1f\n        /* \"#utility.yul\":27840:27846   */\n      dup4\n        /* \"#utility.yul\":27837:27851   */\n      gt\n        /* \"#utility.yul\":27865:27866   */\n      0x01\n        /* \"#utility.yul\":27860:28478   */\n      dup2\n      eq\n      tag_584\n      jumpi\n        /* \"#utility.yul\":28522:28523   */\n      0x00\n        /* \"#utility.yul\":28539:28545   */\n      dup5\n        /* \"#utility.yul\":28536:28613   */\n      iszero\n      tag_585\n      jumpi\n        /* \"#utility.yul\":28588:28597   */\n      dup3\n        /* \"#utility.yul\":28583:28586   */\n      dup8\n        /* \"#utility.yul\":28579:28598   */\n      add\n        /* \"#utility.yul\":28573:28599   */\n      mload\n        /* \"#utility.yul\":28564:28599   */\n      swap1\n      pop\n        /* \"#utility.yul\":28536:28613   */\n    tag_585:\n        /* \"#utility.yul\":28639:28706   */\n      tag_586\n        /* \"#utility.yul\":28699:28705   */\n      dup6\n        /* \"#utility.yul\":28692:28697   */\n      dup3\n        /* \"#utility.yul\":28639:28706   */\n      tag_339\n      jump\t// in\n    tag_586:\n        /* \"#utility.yul\":28633:28637   */\n      dup7\n        /* \"#utility.yul\":28626:28707   */\n      sstore\n        /* \"#utility.yul\":28495:28717   */\n      pop\n        /* \"#utility.yul\":27830:28717   */\n      jump(tag_583)\n        /* \"#utility.yul\":27860:28478   */\n    tag_584:\n        /* \"#utility.yul\":27912:27916   */\n      0x1f\n        /* \"#utility.yul\":27908:27917   */\n      not\n        /* \"#utility.yul\":27900:27906   */\n      dup5\n        /* \"#utility.yul\":27896:27918   */\n      and\n        /* \"#utility.yul\":27946:27983   */\n      tag_587\n        /* \"#utility.yul\":27978:27982   */\n      dup7\n        /* \"#utility.yul\":27946:27983   */\n      tag_325\n      jump\t// in\n    tag_587:\n        /* \"#utility.yul\":28005:28006   */\n      0x00\n        /* \"#utility.yul\":28019:28227   */\n    tag_588:\n        /* \"#utility.yul\":28033:28040   */\n      dup3\n        /* \"#utility.yul\":28030:28031   */\n      dup2\n        /* \"#utility.yul\":28027:28041   */\n      lt\n        /* \"#utility.yul\":28019:28227   */\n      iszero\n      tag_590\n      jumpi\n        /* \"#utility.yul\":28112:28121   */\n      dup5\n        /* \"#utility.yul\":28107:28110   */\n      dup10\n        /* \"#utility.yul\":28103:28122   */\n      add\n        /* \"#utility.yul\":28097:28123   */\n      mload\n        /* \"#utility.yul\":28089:28095   */\n      dup3\n        /* \"#utility.yul\":28082:28124   */\n      sstore\n        /* \"#utility.yul\":28163:28164   */\n      0x01\n        /* \"#utility.yul\":28155:28161   */\n      dup3\n        /* \"#utility.yul\":28151:28165   */\n      add\n        /* \"#utility.yul\":28141:28165   */\n      swap2\n      pop\n        /* \"#utility.yul\":28210:28212   */\n      0x20\n        /* \"#utility.yul\":28199:28208   */\n      dup6\n        /* \"#utility.yul\":28195:28213   */\n      add\n        /* \"#utility.yul\":28182:28213   */\n      swap5\n      pop\n        /* \"#utility.yul\":28056:28060   */\n      0x20\n        /* \"#utility.yul\":28053:28054   */\n      dup2\n        /* \"#utility.yul\":28049:28061   */\n      add\n        /* \"#utility.yul\":28044:28061   */\n      swap1\n      pop\n        /* \"#utility.yul\":28019:28227   */\n      jump(tag_588)\n    tag_590:\n        /* \"#utility.yul\":28255:28261   */\n      dup7\n        /* \"#utility.yul\":28246:28253   */\n      dup4\n        /* \"#utility.yul\":28243:28262   */\n      lt\n        /* \"#utility.yul\":28240:28419   */\n      iszero\n      tag_591\n      jumpi\n        /* \"#utility.yul\":28313:28322   */\n      dup5\n        /* \"#utility.yul\":28308:28311   */\n      dup10\n        /* \"#utility.yul\":28304:28323   */\n      add\n        /* \"#utility.yul\":28298:28324   */\n      mload\n        /* \"#utility.yul\":28356:28404   */\n      tag_592\n        /* \"#utility.yul\":28398:28402   */\n      0x1f\n        /* \"#utility.yul\":28390:28396   */\n      dup10\n        /* \"#utility.yul\":28386:28403   */\n      and\n        /* \"#utility.yul\":28375:28384   */\n      dup3\n        /* \"#utility.yul\":28356:28404   */\n      tag_338\n      jump\t// in\n    tag_592:\n        /* \"#utility.yul\":28348:28354   */\n      dup4\n        /* \"#utility.yul\":28341:28405   */\n      sstore\n        /* \"#utility.yul\":28263:28419   */\n      pop\n        /* \"#utility.yul\":28240:28419   */\n    tag_591:\n        /* \"#utility.yul\":28465:28466   */\n      0x01\n        /* \"#utility.yul\":28461:28462   */\n      0x02\n        /* \"#utility.yul\":28453:28459   */\n      dup9\n        /* \"#utility.yul\":28449:28463   */\n      mul\n        /* \"#utility.yul\":28445:28467   */\n      add\n        /* \"#utility.yul\":28439:28443   */\n      dup9\n        /* \"#utility.yul\":28432:28468   */\n      sstore\n        /* \"#utility.yul\":27867:28478   */\n      pop\n      pop\n      pop\n        /* \"#utility.yul\":27830:28717   */\n    tag_583:\n      pop\n        /* \"#utility.yul\":27420:28723   */\n      pop\n      pop\n      pop\n        /* \"#utility.yul\":27328:28723   */\n      pop\n      pop\n      jump\t// out\n        /* \"#utility.yul\":28729:28909   */\n    tag_340:\n        /* \"#utility.yul\":28777:28854   */\n      0x4e487b7100000000000000000000000000000000000000000000000000000000\n        /* \"#utility.yul\":28774:28775   */\n      0x00\n        /* \"#utility.yul\":28767:28855   */\n      mstore\n        /* \"#utility.yul\":28874:28878   */\n      0x11\n        /* \"#utility.yul\":28871:28872   */\n      0x04\n        /* \"#utility.yul\":28864:28879   */\n      mstore\n        /* \"#utility.yul\":28898:28902   */\n      0x24\n        /* \"#utility.yul\":28895:28896   */\n      0x00\n        /* \"#utility.yul\":28888:28903   */\n      revert\n        /* \"#utility.yul\":28915:29106   */\n    tag_181:\n        /* \"#utility.yul\":28955:28958   */\n      0x00\n        /* \"#utility.yul\":28974:28994   */\n      tag_595\n        /* \"#utility.yul\":28992:28993   */\n      dup3\n        /* \"#utility.yul\":28974:28994   */\n      tag_272\n      jump\t// in\n    tag_595:\n        /* \"#utility.yul\":28969:28994   */\n      swap2\n      pop\n        /* \"#utility.yul\":29008:29028   */\n      tag_596\n        /* \"#utility.yul\":29026:29027   */\n      dup4\n        /* \"#utility.yul\":29008:29028   */\n      tag_272\n      jump\t// in\n    tag_596:\n        /* \"#utility.yul\":29003:29028   */\n      swap3\n      pop\n        /* \"#utility.yul\":29051:29052   */\n      dup3\n        /* \"#utility.yul\":29048:29049   */\n      dup3\n        /* \"#utility.yul\":29044:29053   */\n      add\n        /* \"#utility.yul\":29037:29053   */\n      swap1\n      pop\n        /* \"#utility.yul\":29072:29075   */\n      dup1\n        /* \"#utility.yul\":29069:29070   */\n      dup3\n        /* \"#utility.yul\":29066:29076   */\n      gt\n        /* \"#utility.yul\":29063:29099   */\n      iszero\n      tag_597\n      jumpi\n        /* \"#utility.yul\":29079:29097   */\n      tag_598\n      tag_340\n      jump\t// in\n    tag_598:\n        /* \"#utility.yul\":29063:29099   */\n    tag_597:\n        /* \"#utility.yul\":28915:29106   */\n      swap3\n      swap2\n      pop\n      pop\n      jump\t// out\n        /* \"#utility.yul\":29136:29453   */\n    tag_341:\n        /* \"#utility.yul\":29234:29237   */\n      0x00\n        /* \"#utility.yul\":29255:29326   */\n      tag_600\n        /* \"#utility.yul\":29319:29325   */\n      dup4\n        /* \"#utility.yul\":29314:29317   */\n      dup6\n        /* \"#utility.yul\":29255:29326   */\n      tag_290\n      jump\t// in\n    tag_600:\n        /* \"#utility.yul\":29248:29326   */\n      swap4\n      pop\n        /* \"#utility.yul\":29336:29392   */\n      tag_601\n        /* \"#utility.yul\":29385:29391   */\n      dup4\n        /* \"#utility.yul\":29380:29383   */\n      dup6\n        /* \"#utility.yul\":29373:29378   */\n      dup5\n        /* \"#utility.yul\":29336:29392   */\n      tag_323\n      jump\t// in\n    tag_601:\n        /* \"#utility.yul\":29417:29446   */\n      tag_602\n        /* \"#utility.yul\":29439:29445   */\n      dup4\n        /* \"#utility.yul\":29417:29446   */\n      tag_283\n      jump\t// in\n    tag_602:\n        /* \"#utility.yul\":29412:29415   */\n      dup5\n        /* \"#utility.yul\":29408:29447   */\n      add\n        /* \"#utility.yul\":29401:29447   */\n      swap1\n      pop\n        /* \"#utility.yul\":29136:29453   */\n      swap4\n      swap3\n      pop\n      pop\n      pop\n      jump\t// out\n        /* \"#utility.yul\":29459:30012   */\n    tag_183:\n        /* \"#utility.yul\":29638:29642   */\n      0x00\n        /* \"#utility.yul\":29676:29678   */\n      0x60\n        /* \"#utility.yul\":29665:29674   */\n      dup3\n        /* \"#utility.yul\":29661:29679   */\n      add\n        /* \"#utility.yul\":29653:29679   */\n      swap1\n      pop\n        /* \"#utility.yul\":29689:29760   */\n      tag_604\n        /* \"#utility.yul\":29757:29758   */\n      0x00\n        /* \"#utility.yul\":29746:29755   */\n      dup4\n        /* \"#utility.yul\":29742:29759   */\n      add\n        /* \"#utility.yul\":29733:29739   */\n      dup8\n        /* \"#utility.yul\":29689:29760   */\n      tag_273\n      jump\t// in\n    tag_604:\n        /* \"#utility.yul\":29770:29842   */\n      tag_605\n        /* \"#utility.yul\":29838:29840   */\n      0x20\n        /* \"#utility.yul\":29827:29836   */\n      dup4\n        /* \"#utility.yul\":29823:29841   */\n      add\n        /* \"#utility.yul\":29814:29820   */\n      dup7\n        /* \"#utility.yul\":29770:29842   */\n      tag_273\n      jump\t// in\n    tag_605:\n        /* \"#utility.yul\":29889:29898   */\n      dup2\n        /* \"#utility.yul\":29883:29887   */\n      dup2\n        /* \"#utility.yul\":29879:29899   */\n      sub\n        /* \"#utility.yul\":29874:29876   */\n      0x40\n        /* \"#utility.yul\":29863:29872   */\n      dup4\n        /* \"#utility.yul\":29859:29877   */\n      add\n        /* \"#utility.yul\":29852:29900   */\n      mstore\n        /* \"#utility.yul\":29917:30005   */\n      tag_606\n        /* \"#utility.yul\":30000:30004   */\n      dup2\n        /* \"#utility.yul\":29991:29997   */\n      dup5\n        /* \"#utility.yul\":29983:29989   */\n      dup7\n        /* \"#utility.yul\":29917:30005   */\n      tag_341\n      jump\t// in\n    tag_606:\n        /* \"#utility.yul\":29909:30005   */\n      swap1\n      pop\n        /* \"#utility.yul\":29459:30012   */\n      swap6\n      swap5\n      pop\n      pop\n      pop\n      pop\n      pop\n      jump\t// out\n        /* \"#utility.yul\":30018:30242   */\n    tag_342:\n        /* \"#utility.yul\":30158:30192   */\n      0x457870656e736520616d6f756e74206d75737420626520677265617465722074\n        /* \"#utility.yul\":30154:30155   */\n      0x00\n        /* \"#utility.yul\":30146:30152   */\n      dup3\n        /* \"#utility.yul\":30142:30156   */\n      add\n        /* \"#utility.yul\":30135:30193   */\n      mstore\n        /* \"#utility.yul\":30227:30234   */\n      0x68616e2030000000000000000000000000000000000000000000000000000000\n        /* \"#utility.yul\":30222:30224   */\n      0x20\n        /* \"#utility.yul\":30214:30220   */\n      dup3\n        /* \"#utility.yul\":30210:30225   */\n      add\n        /* \"#utility.yul\":30203:30235   */\n      mstore\n        /* \"#utility.yul\":30018:30242   */\n      pop\n      jump\t// out\n        /* \"#utility.yul\":30248:30614   */\n    tag_343:\n        /* \"#utility.yul\":30390:30393   */\n      0x00\n        /* \"#utility.yul\":30411:30478   */\n      tag_609\n        /* \"#utility.yul\":30475:30477   */\n      0x25\n        /* \"#utility.yul\":30470:30473   */\n      dup4\n        /* \"#utility.yul\":30411:30478   */\n      tag_290\n      jump\t// in\n    tag_609:\n        /* \"#utility.yul\":30404:30478   */\n      swap2\n      pop\n        /* \"#utility.yul\":30487:30580   */\n      tag_610\n        /* \"#utility.yul\":30576:30579   */\n      dup3\n        /* \"#utility.yul\":30487:30580   */\n      tag_342\n      jump\t// in\n    tag_610:\n        /* \"#utility.yul\":30605:30607   */\n      0x40\n        /* \"#utility.yul\":30600:30603   */\n      dup3\n        /* \"#utility.yul\":30596:30608   */\n      add\n        /* \"#utility.yul\":30589:30608   */\n      swap1\n      pop\n        /* \"#utility.yul\":30248:30614   */\n      swap2\n      swap1\n      pop\n      jump\t// out\n        /* \"#utility.yul\":30620:31039   */\n    tag_189:\n        /* \"#utility.yul\":30786:30790   */\n      0x00\n        /* \"#utility.yul\":30824:30826   */\n      0x20\n        /* \"#utility.yul\":30813:30822   */\n      dup3\n        /* \"#utility.yul\":30809:30827   */\n      add\n        /* \"#utility.yul\":30801:30827   */\n      swap1\n      pop\n        /* \"#utility.yul\":30873:30882   */\n      dup2\n        /* \"#utility.yul\":30867:30871   */\n      dup2\n        /* \"#utility.yul\":30863:30883   */\n      sub\n        /* \"#utility.yul\":30859:30860   */\n      0x00\n        /* \"#utility.yul\":30848:30857   */\n      dup4\n        /* \"#utility.yul\":30844:30861   */\n      add\n        /* \"#utility.yul\":30837:30884   */\n      mstore\n        /* \"#utility.yul\":30901:31032   */\n      tag_612\n        /* \"#utility.yul\":31027:31031   */\n      dup2\n        /* \"#utility.yul\":30901:31032   */\n      tag_343\n      jump\t// in\n    tag_612:\n        /* \"#utility.yul\":30893:31032   */\n      swap1\n      pop\n        /* \"#utility.yul\":30620:31039   */\n      swap2\n      swap1\n      pop\n      jump\t// out\n        /* \"#utility.yul\":31045:31227   */\n    tag_344:\n        /* \"#utility.yul\":31185:31219   */\n      0x496e73756666696369656e742062616c616e636520666f7220657870656e7365\n        /* \"#utility.yul\":31181:31182   */\n      0x00\n        /* \"#utility.yul\":31173:31179   */\n      dup3\n        /* \"#utility.yul\":31169:31183   */\n      add\n        /* \"#utility.yul\":31162:31220   */\n      mstore\n        /* \"#utility.yul\":31045:31227   */\n      pop\n      jump\t// out\n        /* \"#utility.yul\":31233:31599   */\n    tag_345:\n        /* \"#utility.yul\":31375:31378   */\n      0x00\n        /* \"#utility.yul\":31396:31463   */\n      tag_615\n        /* \"#utility.yul\":31460:31462   */\n      0x20\n        /* \"#utility.yul\":31455:31458   */\n      dup4\n        /* \"#utility.yul\":31396:31463   */\n      tag_290\n      jump\t// in\n    tag_615:\n        /* \"#utility.yul\":31389:31463   */\n      swap2\n      pop\n        /* \"#utility.yul\":31472:31565   */\n      tag_616\n        /* \"#utility.yul\":31561:31564   */\n      dup3\n        /* \"#utility.yul\":31472:31565   */\n      tag_344\n      jump\t// in\n    tag_616:\n        /* \"#utility.yul\":31590:31592   */\n      0x20\n        /* \"#utility.yul\":31585:31588   */\n      dup3\n        /* \"#utility.yul\":31581:31593   */\n      add\n        /* \"#utility.yul\":31574:31593   */\n      swap1\n      pop\n        /* \"#utility.yul\":31233:31599   */\n      swap2\n      swap1\n      pop\n      jump\t// out\n        /* \"#utility.yul\":31605:32024   */\n    tag_192:\n        /* \"#utility.yul\":31771:31775   */\n      0x00\n        /* \"#utility.yul\":31809:31811   */\n      0x20\n        /* \"#utility.yul\":31798:31807   */\n      dup3\n        /* \"#utility.yul\":31794:31812   */\n      add\n        /* \"#utility.yul\":31786:31812   */\n      swap1\n      pop\n        /* \"#utility.yul\":31858:31867   */\n      dup2\n        /* \"#utility.yul\":31852:31856   */\n      dup2\n        /* \"#utility.yul\":31848:31868   */\n      sub\n        /* \"#utility.yul\":31844:31845   */\n      0x00\n        /* \"#utility.yul\":31833:31842   */\n      dup4\n        /* \"#utility.yul\":31829:31846   */\n      add\n        /* \"#utility.yul\":31822:31869   */\n      mstore\n        /* \"#utility.yul\":31886:32017   */\n      tag_618\n        /* \"#utility.yul\":32012:32016   */\n      dup2\n        /* \"#utility.yul\":31886:32017   */\n      tag_345\n      jump\t// in\n    tag_618:\n        /* \"#utility.yul\":31878:32017   */\n      swap1\n      pop\n        /* \"#utility.yul\":31605:32024   */\n      swap2\n      swap1\n      pop\n      jump\t// out\n        /* \"#utility.yul\":32030:32583   */\n    tag_196:\n        /* \"#utility.yul\":32209:32213   */\n      0x00\n        /* \"#utility.yul\":32247:32249   */\n      0x60\n        /* \"#utility.yul\":32236:32245   */\n      dup3\n        /* \"#utility.yul\":32232:32250   */\n      add\n        /* \"#utility.yul\":32224:32250   */\n      swap1\n      pop\n        /* \"#utility.yul\":32260:32331   */\n      tag_620\n        /* \"#utility.yul\":32328:32329   */\n      0x00\n        /* \"#utility.yul\":32317:32326   */\n      dup4\n        /* \"#utility.yul\":32313:32330   */\n      add\n        /* \"#utility.yul\":32304:32310   */\n      dup8\n        /* \"#utility.yul\":32260:32331   */\n      tag_273\n      jump\t// in\n    tag_620:\n        /* \"#utility.yul\":32378:32387   */\n      dup2\n        /* \"#utility.yul\":32372:32376   */\n      dup2\n        /* \"#utility.yul\":32368:32388   */\n      sub\n        /* \"#utility.yul\":32363:32365   */\n      0x20\n        /* \"#utility.yul\":32352:32361   */\n      dup4\n        /* \"#utility.yul\":32348:32366   */\n      add\n        /* \"#utility.yul\":32341:32389   */\n      mstore\n        /* \"#utility.yul\":32406:32494   */\n      tag_621\n        /* \"#utility.yul\":32489:32493   */\n      dup2\n        /* \"#utility.yul\":32480:32486   */\n      dup6\n        /* \"#utility.yul\":32472:32478   */\n      dup8\n        /* \"#utility.yul\":32406:32494   */\n      tag_341\n      jump\t// in\n    tag_621:\n        /* \"#utility.yul\":32398:32494   */\n      swap1\n      pop\n        /* \"#utility.yul\":32504:32576   */\n      tag_622\n        /* \"#utility.yul\":32572:32574   */\n      0x40\n        /* \"#utility.yul\":32561:32570   */\n      dup4\n        /* \"#utility.yul\":32557:32575   */\n      add\n        /* \"#utility.yul\":32548:32554   */\n      dup5\n        /* \"#utility.yul\":32504:32576   */\n      tag_273\n      jump\t// in\n    tag_622:\n        /* \"#utility.yul\":32030:32583   */\n      swap6\n      swap5\n      pop\n      pop\n      pop\n      pop\n      pop\n      jump\t// out\n        /* \"#utility.yul\":32589:32822   */\n    tag_246:\n        /* \"#utility.yul\":32628:32631   */\n      0x00\n        /* \"#utility.yul\":32651:32675   */\n      tag_624\n        /* \"#utility.yul\":32669:32674   */\n      dup3\n        /* \"#utility.yul\":32651:32675   */\n      tag_272\n      jump\t// in\n    tag_624:\n        /* \"#utility.yul\":32642:32675   */\n      swap2\n      pop\n        /* \"#utility.yul\":32697:32763   */\n      0xffffffffffffffffffffffffffffffffffffffffffffffffffffffffffffffff\n        /* \"#utility.yul\":32690:32695   */\n      dup3\n        /* \"#utility.yul\":32687:32764   */\n      sub\n        /* \"#utility.yul\":32684:32787   */\n      tag_625\n      jumpi\n        /* \"#utility.yul\":32767:32785   */\n      tag_626\n      tag_340\n      jump\t// in\n    tag_626:\n        /* \"#utility.yul\":32684:32787   */\n    tag_625:\n        /* \"#utility.yul\":32814:32815   */\n      0x01\n        /* \"#utility.yul\":32807:32812   */\n      dup3\n        /* \"#utility.yul\":32803:32816   */\n      add\n        /* \"#utility.yul\":32796:32816   */\n      swap1\n      pop\n        /* \"#utility.yul\":32589:32822   */\n      swap2\n      swap1\n      pop\n      jump\t// out\n        /* \"#utility.yul\":32828:33008   */\n    tag_346:\n        /* \"#utility.yul\":32876:32953   */\n      0x4e487b7100000000000000000000000000000000000000000000000000000000\n        /* \"#utility.yul\":32873:32874   */\n      0x00\n        /* \"#utility.yul\":32866:32954   */\n      mstore\n        /* \"#utility.yul\":32973:32977   */\n      0x12\n        /* \"#utility.yul\":32970:32971   */\n      0x04\n        /* \"#utility.yul\":32963:32978   */\n      mstore\n        /* \"#utility.yul\":32997:33001   */\n      0x24\n        /* \"#utility.yul\":32994:32995   */\n      0x00\n        /* \"#utility.yul\":32987:33002   */\n      revert\n        /* \"#utility.yul\":33014:33199   */\n    tag_248:\n        /* \"#utility.yul\":33054:33055   */\n      0x00\n        /* \"#utility.yul\":33071:33091   */\n      tag_629\n        /* \"#utility.yul\":33089:33090   */\n      dup3\n        /* \"#utility.yul\":33071:33091   */\n      tag_272\n      jump\t// in\n    tag_629:\n        /* \"#utility.yul\":33066:33091   */\n      swap2\n      pop\n        /* \"#utility.yul\":33105:33125   */\n      tag_630\n        /* \"#utility.yul\":33123:33124   */\n      dup4\n        /* \"#utility.yul\":33105:33125   */\n      tag_272\n      jump\t// in\n    tag_630:\n        /* \"#utility.yul\":33100:33125   */\n      swap3\n      pop\n        /* \"#utility.yul\":33144:33145   */\n      dup3\n        /* \"#utility.yul\":33134:33169   */\n      tag_631\n      jumpi\n        /* \"#utility.yul\":33149:33167   */\n      tag_632\n      tag_346\n      jump\t// in\n    tag_632:\n        /* \"#utility.yul\":33134:33169   */\n    tag_631:\n        /* \"#utility.yul\":33191:33192   */\n      dup3\n        /* \"#utility.yul\":33188:33189   */\n      dup3\n        /* \"#utility.yul\":33184:33193   */\n      div\n        /* \"#utility.yul\":33179:33193   */\n      swap1\n      pop\n        /* \"#utility.yul\":33014:33199   */\n      swap3\n      swap2\n      pop\n      pop\n      jump\t// out\n        /* \"#utility.yul\":33205:33381   */\n    tag_256:\n        /* \"#utility.yul\":33237:33238   */\n      0x00\n        /* \"#utility.yul\":33254:33274   */\n      tag_634\n        /* \"#utility.yul\":33272:33273   */\n      dup3\n        /* \"#utility.yul\":33254:33274   */\n      tag_272\n      jump\t// in\n    tag_634:\n        /* \"#utility.yul\":33249:33274   */\n      swap2\n      pop\n        /* \"#utility.yul\":33288:33308   */\n      tag_635\n        /* \"#utility.yul\":33306:33307   */\n      dup4\n        /* \"#utility.yul\":33288:33308   */\n      tag_272\n      jump\t// in\n    tag_635:\n        /* \"#utility.yul\":33283:33308   */\n      swap3\n      pop\n        /* \"#utility.yul\":33327:33328   */\n      dup3\n        /* \"#utility.yul\":33317:33352   */\n      tag_636\n      jumpi\n        /* \"#utility.yul\":33332:33350   */\n      tag_637\n      tag_346\n      jump\t// in\n    tag_637:\n        /* \"#utility.yul\":33317:33352   */\n    tag_636:\n        /* \"#utility.yul\":33373:33374   */\n      dup3\n        /* \"#utility.yul\":33370:33371   */\n      dup3\n        /* \"#utility.yul\":33366:33375   */\n      mod\n        /* \"#utility.yul\":33361:33375   */\n      swap1\n      pop\n        /* \"#utility.yul\":33205:33381   */\n      swap3\n      swap2\n      pop\n      pop\n      jump\t// out\n        /* \"#utility.yul\":33387:33558   */\n    tag_259:\n        /* \"#utility.yul\":33426:33429   */\n      0x00\n        /* \"#utility.yul\":33449:33473   */\n      tag_639\n        /* \"#utility.yul\":33467:33472   */\n      dup3\n        /* \"#utility.yul\":33449:33473   */\n      tag_272\n      jump\t// in\n    tag_639:\n        /* \"#utility.yul\":33440:33473   */\n      swap2\n      pop\n        /* \"#utility.yul\":33495:33499   */\n      0x00\n        /* \"#utility.yul\":33488:33493   */\n      dup3\n        /* \"#utility.yul\":33485:33500   */\n      sub\n        /* \"#utility.yul\":33482:33523   */\n      tag_640\n      jumpi\n        /* \"#utility.yul\":33503:33521   */\n      tag_641\n      tag_340\n      jump\t// in\n    tag_641:\n        /* \"#utility.yul\":33482:33523   */\n    tag_640:\n        /* \"#utility.yul\":33550:33551   */\n      0x01\n        /* \"#utility.yul\":33543:33548   */\n      dup3\n        /* \"#utility.yul\":33539:33552   */\n      sub\n        /* \"#utility.yul\":33532:33552   */\n      swap1\n      pop\n        /* \"#utility.yul\":33387:33558   */\n      swap2\n      swap1\n      pop\n      jump\t// out\n        /* \"#utility.yul\":33564:33744   */\n    tag_262:\n        /* \"#utility.yul\":33612:33689   */\n      0x4e487b7100000000000000000000000000000000000000000000000000000000\n        /* \"#utility.yul\":33609:33610   */\n      0x00\n        /* \"#utility.yul\":33602:33690   */\n      mstore\n        /* \"#utility.yul\":33709:33713   */\n      0x32\n        /* \"#utility.yul\":33706:33707   */\n      0x04\n        /* \"#utility.yul\":33699:33714   */\n      mstore\n        /* \"#utility.yul\":33733:33737   */\n      0x24\n        /* \"#utility.yul\":33730:33731   */\n      0x00\n        /* \"#utility.yul\":33723:33738   */\n      revert\n\n    auxdata: 0xa26469706673582212208ea3dae8d41154c1b73af063665eb90160d507971a6ca94d1ca2ecf39e3ee2dc64736f6c634300081a0033\n}\n",
				"bytecode": {
					"linkReferences": {},
					"object": "6080604052662386f26fc10000600555678ac7230489e800006006555f60075f6101000a81548160ff02191690831515021790555034801561003f575f80fd5b5060405161267038038061267083398181016040528101906100619190610247565b335f73ffffffffffffffffffffffffffffffffffffffff168173ffffffffffffffffffffffffffffffffffffffff16036100d2575f6040517f1e4fbdf70000000000000000000000000000000000000000000000000000000081526004016100c99190610281565b60405180910390fd5b6100e18161012860201b60201c565b508060045f6101000a81548173ffffffffffffffffffffffffffffffffffffffff021916908373ffffffffffffffffffffffffffffffffffffffff1602179055505061029a565b5f805f9054906101000a900473ffffffffffffffffffffffffffffffffffffffff169050815f806101000a81548173ffffffffffffffffffffffffffffffffffffffff021916908373ffffffffffffffffffffffffffffffffffffffff1602179055508173ffffffffffffffffffffffffffffffffffffffff168173ffffffffffffffffffffffffffffffffffffffff167f8be0079c531659141344cd1fd0a4f28419497f9722a3daafe3b4186f6b6457e060405160405180910390a35050565b5f80fd5b5f73ffffffffffffffffffffffffffffffffffffffff82169050919050565b5f610216826101ed565b9050919050565b6102268161020c565b8114610230575f80fd5b50565b5f815190506102418161021d565b92915050565b5f6020828403121561025c5761025b6101e9565b5b5f61026984828501610233565b91505092915050565b61027b8161020c565b82525050565b5f6020820190506102945f830184610272565b92915050565b6123c9806102a75f395ff3fe60806040526004361061011e575f3560e01c8063afcf2fc41161009f578063e25f841611610063578063e25f84161461035c578063e55a62a814610386578063f2fde38b146103b0578063f7b188a5146103d8578063f8626af8146103ee5761011e565b8063afcf2fc41461029a578063b187bd26146102c4578063b5aebc80146102ee578063d61763591461030a578063de2ed893146103325761011e565b80638456cb59116100e65780638456cb59146101dc578063853828b6146101f25780638da5cb5b14610208578063a8681fd914610232578063af4afe0a1461025c5761011e565b80630c9be46d146101225780631c0e02251461014a5780632e1a7d4d14610174578063715018a61461019c57806383a36a91146101b2575b5f80fd5b34801561012d575f80fd5b50610148600480360381019061014391906113e5565b61042e565b005b348015610155575f80fd5b5061015e610479565b60405161016b9190611428565b60405180910390f35b34801561017f575f80fd5b5061019a6004803603810190610195919061146b565b61047f565b005b3480156101a7575f80fd5b506101b0610569565b005b3480156101bd575f80fd5b506101c661057c565b6040516101d3919061161d565b60405180910390f35b3480156101e7575f80fd5b506101f061067b565b005b3480156101fd575f80fd5b5061020661069f565b005b348015610213575f80fd5b5061021c61078c565b604051610229919061164c565b60405180910390f35b34801561023d575f80fd5b506102466107b3565b6040516102539190611428565b60405180910390f35b348015610267575f80fd5b50610282600480360381019061027d919061146b565b6107b9565b604051610291939291906116ad565b60405180910390f35b3480156102a5575f80fd5b506102ae610874565b6040516102bb919061164c565b60405180910390f35b3480156102cf575f80fd5b506102d8610899565b6040516102e59190611703565b60405180910390f35b6103086004803603810190610303919061177d565b6108ab565b005b348015610315575f80fd5b50610330600480360381019061032b91906117c8565b610b52565b005b34801561033d575f80fd5b50610346610cd0565b6040516103539190611428565b60405180910390f35b348015610367575f80fd5b50610370610cd6565b60405161037d9190611969565b60405180910390f35b348015610391575f80fd5b5061039a610eba565b6040516103a79190611428565b60405180910390f35b3480156103bb575f80fd5b506103d660048036038101906103d191906113e5565b610ec6565b005b3480156103e3575f80fd5b506103ec610f4a565b005b3480156103f9575f80fd5b50610414600480360381019061040f919061146b565b610f6d565b604051610425959493929190611989565b60405180910390f35b6104366110d9565b8060045f6101000a81548173ffffffffffffffffffffffffffffffffffffffff021916908373ffffffffffffffffffffffffffffffffffffffff16021790555050565b60055481565b6104876110d9565b804710156104ca576040517f08c379a00000000000000000000000000000000000000000000000000000000081526004016104c190611a32565b60405180910390fd5b60045f9054906101000a900473ffffffffffffffffffffffffffffffffffffffff1673ffffffffffffffffffffffffffffffffffffffff166108fc8290811502906040515f60405180830381858888f1935050505015801561052e573d5f803e3d5ffd5b507f430648de173157e069201c943adb2d4e340e7cf5b27b1b09c9cb852f03d63b568160405161055e9190611428565b60405180910390a150565b6105716110d9565b61057a5f611160565b565b60606001805480602002602001604051908101604052809291908181526020015f905b82821015610672578382905f5260205f2090600302016040518060600160405290815f82015481526020016001820180546105d990611a7d565b80601f016020809104026020016040519081016040528092919081815260200182805461060590611a7d565b80156106505780601f1061062757610100808354040283529160200191610650565b820191905f5260205f20905b81548152906001019060200180831161063357829003601f168201915b505050505081526020016002820154815250508152602001906001019061059f565b50505050905090565b6106836110d9565b600160075f6101000a81548160ff021916908315150217905550565b6106a76110d9565b5f4790505f81116106ed576040517f08c379a00000000000000000000000000000000000000000000000000000000081526004016106e490611af7565b60405180910390fd5b60045f9054906101000a900473ffffffffffffffffffffffffffffffffffffffff1673ffffffffffffffffffffffffffffffffffffffff166108fc8290811502906040515f60405180830381858888f19350505050158015610751573d5f803e3d5ffd5b507f430648de173157e069201c943adb2d4e340e7cf5b27b1b09c9cb852f03d63b56816040516107819190611428565b60405180910390a150565b5f805f9054906101000a900473ffffffffffffffffffffffffffffffffffffffff16905090565b60065481565b600181815481106107c8575f80fd5b905f5260205f2090600302015f91509050805f0154908060010180546107ed90611a7d565b80601f016020809104026020016040519081016040528092919081815260200182805461081990611a7d565b80156108645780601f1061083b57610100808354040283529160200191610864565b820191905f5260205f20905b81548152906001019060200180831161084757829003601f168201915b5050505050908060020154905083565b60045f9054906101000a900473ffffffffffffffffffffffffffffffffffffffff1681565b60075f9054906101000a900460ff1681565b60075f9054906101000a900460ff16156108fa576040517f08c379a00000000000000000000000000000000000000000000000000000000081526004016108f190611b5f565b60405180910390fd5b60055434101561093f576040517f08c379a000000000000000000000000000000000000000000000000000000000815260040161093690611bed565b60405180910390fd5b600654341115610984576040517f08c379a000000000000000000000000000000000000000000000000000000000815260040161097b90611c7b565b60405180910390fd5b5f61098e34611221565b83836040516020016109a293929190611d99565b604051602081830303815290604052905060026040518060a001604052803373ffffffffffffffffffffffffffffffffffffffff16815260200134815260200142815260200185858080601f0160208091040260200160405190810160405280939291908181526020018383808284375f81840152601f19601f82011690508083019250505050505050815260200183815250908060018154018082558091505060019003905f5260205f2090600502015f909190919091505f820151815f015f6101000a81548173ffffffffffffffffffffffffffffffffffffffff021916908373ffffffffffffffffffffffffffffffffffffffff16021790555060208201518160010155604082015181600201556060820151816003019081610ac89190611f9e565b506080820151816004019081610ade9190611f9e565b5050503460035f828254610af2919061209a565b925050819055503373ffffffffffffffffffffffffffffffffffffffff167f4cf3c36975788b7d51ee27a6f2f3cec5636166fb7387af9ae2102da15448271f34428686604051610b4594939291906120f9565b60405180910390a2505050565b610b5a6110d9565b5f8311610b9c576040517f08c379a0000000000000000000000000000000000000000000000000000000008152600401610b93906121a7565b60405180910390fd5b824711610bde576040517f08c379a0000000000000000000000000000000000000000000000000000000008152600401610bd59061220f565b60405180910390fd5b6001604051806060016040528085815260200184848080601f0160208091040260200160405190810160405280939291908181526020018383808284375f81840152601f19601f82011690508083019250505050505050815260200142815250908060018154018082558091505060019003905f5260205f2090600302015f909190919091505f820151815f01556020820151816001019081610c819190611f9e565b506040820151816002015550507fee9ce74e1c4c69a088b563acec4eb6585b77220c8bdef0c41b4c734102b73ebc83838342604051610cc3949392919061222d565b60405180910390a1505050565b60035481565b60606002805480602002602001604051908101604052809291908181526020015f905b82821015610eb1578382905f5260205f2090600502016040518060a00160405290815f82015f9054906101000a900473ffffffffffffffffffffffffffffffffffffffff1673ffffffffffffffffffffffffffffffffffffffff1673ffffffffffffffffffffffffffffffffffffffff1681526020016001820154815260200160028201548152602001600382018054610d9290611a7d565b80601f0160208091040260200160405190810160405280929190818152602001828054610dbe90611a7d565b8015610e095780601f10610de057610100808354040283529160200191610e09565b820191905f5260205f20905b815481529060010190602001808311610dec57829003601f168201915b50505050508152602001600482018054610e2290611a7d565b80601f0160208091040260200160405190810160405280929190818152602001828054610e4e90611a7d565b8015610e995780601f10610e7057610100808354040283529160200191610e99565b820191905f5260205f20905b815481529060010190602001808311610e7c57829003601f168201915b50505050508152505081526020019060010190610cf9565b50505050905090565b5f600280549050905090565b610ece6110d9565b5f73ffffffffffffffffffffffffffffffffffffffff168173ffffffffffffffffffffffffffffffffffffffff1603610f3e575f6040517f1e4fbdf7000000000000000000000000000000000000000000000000000000008152600401610f35919061164c565b60405180910390fd5b610f4781611160565b50565b610f526110d9565b5f60075f6101000a81548160ff021916908315150217905550565b60028181548110610f7c575f80fd5b905f5260205f2090600502015f91509050805f015f9054906101000a900473ffffffffffffffffffffffffffffffffffffffff1690806001015490806002015490806003018054610fcc90611a7d565b80601f0160208091040260200160405190810160405280929190818152602001828054610ff890611a7d565b80156110435780601f1061101a57610100808354040283529160200191611043565b820191905f5260205f20905b81548152906001019060200180831161102657829003601f168201915b50505050509080600401805461105890611a7d565b80601f016020809104026020016040519081016040528092919081815260200182805461108490611a7d565b80156110cf5780601f106110a6576101008083540402835291602001916110cf565b820191905f5260205f20905b8154815290600101906020018083116110b257829003601f168201915b5050505050905085565b6110e161137c565b73ffffffffffffffffffffffffffffffffffffffff166110ff61078c565b73ffffffffffffffffffffffffffffffffffffffff161461115e5761112261137c565b6040517f118cdaa7000000000000000000000000000000000000000000000000000000008152600401611155919061164c565b60405180910390fd5b565b5f805f9054906101000a900473ffffffffffffffffffffffffffffffffffffffff169050815f806101000a81548173ffffffffffffffffffffffffffffffffffffffff021916908373ffffffffffffffffffffffffffffffffffffffff1602179055508173ffffffffffffffffffffffffffffffffffffffff168173ffffffffffffffffffffffffffffffffffffffff167f8be0079c531659141344cd1fd0a4f28419497f9722a3daafe3b4186f6b6457e060405160405180910390a35050565b60605f8203611267576040518060400160405280600181526020017f30000000000000000000000000000000000000000000000000000000000000008152509050611377565b5f8290505f5b5f821461129657808061127f9061226b565b915050600a8261128f91906122df565b915061126d565b5f8167ffffffffffffffff8111156112b1576112b0611dd4565b5b6040519080825280601f01601f1916602001820160405280156112e35781602001600182028036833780820191505090505b5090505f8290505b5f861461136f57600a866112ff919061230f565b603061130b919061209a565b60f81b82826113199061233f565b9250828151811061132d5761132c612366565b5b60200101907effffffffffffffffffffffffffffffffffffffffffffffffffffffffffffff191690815f1a905350600a8661136891906122df565b95506112eb565b819450505050505b919050565b5f33905090565b5f80fd5b5f80fd5b5f73ffffffffffffffffffffffffffffffffffffffff82169050919050565b5f6113b48261138b565b9050919050565b6113c4816113aa565b81146113ce575f80fd5b50565b5f813590506113df816113bb565b92915050565b5f602082840312156113fa576113f9611383565b5b5f611407848285016113d1565b91505092915050565b5f819050919050565b61142281611410565b82525050565b5f60208201905061143b5f830184611419565b92915050565b61144a81611410565b8114611454575f80fd5b50565b5f8135905061146581611441565b92915050565b5f602082840312156114805761147f611383565b5b5f61148d84828501611457565b91505092915050565b5f81519050919050565b5f82825260208201905092915050565b5f819050602082019050919050565b6114c881611410565b82525050565b5f81519050919050565b5f82825260208201905092915050565b8281835e5f83830152505050565b5f601f19601f8301169050919050565b5f611510826114ce565b61151a81856114d8565b935061152a8185602086016114e8565b611533816114f6565b840191505092915050565b5f606083015f8301516115535f8601826114bf565b506020830151848203602086015261156b8282611506565b915050604083015161158060408601826114bf565b508091505092915050565b5f611596838361153e565b905092915050565b5f602082019050919050565b5f6115b482611496565b6115be81856114a0565b9350836020820285016115d0856114b0565b805f5b8581101561160b57848403895281516115ec858261158b565b94506115f78361159e565b925060208a019950506001810190506115d3565b50829750879550505050505092915050565b5f6020820190508181035f83015261163581846115aa565b905092915050565b611646816113aa565b82525050565b5f60208201905061165f5f83018461163d565b92915050565b5f82825260208201905092915050565b5f61167f826114ce565b6116898185611665565b93506116998185602086016114e8565b6116a2816114f6565b840191505092915050565b5f6060820190506116c05f830186611419565b81810360208301526116d28185611675565b90506116e16040830184611419565b949350505050565b5f8115159050919050565b6116fd816116e9565b82525050565b5f6020820190506117165f8301846116f4565b92915050565b5f80fd5b5f80fd5b5f80fd5b5f8083601f84011261173d5761173c61171c565b5b8235905067ffffffffffffffff81111561175a57611759611720565b5b60208301915083600182028301111561177657611775611724565b5b9250929050565b5f806020838503121561179357611792611383565b5b5f83013567ffffffffffffffff8111156117b0576117af611387565b5b6117bc85828601611728565b92509250509250929050565b5f805f604084860312156117df576117de611383565b5b5f6117ec86828701611457565b935050602084013567ffffffffffffffff81111561180d5761180c611387565b5b61181986828701611728565b92509250509250925092565b5f81519050919050565b5f82825260208201905092915050565b5f819050602082019050919050565b611857816113aa565b82525050565b5f60a083015f8301516118725f86018261184e565b50602083015161188560208601826114bf565b50604083015161189860408601826114bf565b50606083015184820360608601526118b08282611506565b915050608083015184820360808601526118ca8282611506565b9150508091505092915050565b5f6118e2838361185d565b905092915050565b5f602082019050919050565b5f61190082611825565b61190a818561182f565b93508360208202850161191c8561183f565b805f5b85811015611957578484038952815161193885826118d7565b9450611943836118ea565b925060208a0199505060018101905061191f565b50829750879550505050505092915050565b5f6020820190508181035f83015261198181846118f6565b905092915050565b5f60a08201905061199c5f83018861163d565b6119a96020830187611419565b6119b66040830186611419565b81810360608301526119c88185611675565b905081810360808301526119dc8184611675565b90509695505050505050565b7f496e73756666696369656e742062616c616e63650000000000000000000000005f82015250565b5f611a1c601483611665565b9150611a27826119e8565b602082019050919050565b5f6020820190508181035f830152611a4981611a10565b9050919050565b7f4e487b71000000000000000000000000000000000000000000000000000000005f52602260045260245ffd5b5f6002820490506001821680611a9457607f821691505b602082108103611aa757611aa6611a50565b5b50919050565b7f4e6f2066756e647320746f2077697468647261770000000000000000000000005f82015250565b5f611ae1601483611665565b9150611aec82611aad565b602082019050919050565b5f6020820190508181035f830152611b0e81611ad5565b9050919050565b7f436f6e74726163742069732070617573656400000000000000000000000000005f82015250565b5f611b49601283611665565b9150611b5482611b15565b602082019050919050565b5f6020820190508181035f830152611b7681611b3d565b9050919050565b7f446f6e6174696f6e2069732062656c6f7720746865206d696e696d756d206c695f8201527f6d69740000000000000000000000000000000000000000000000000000000000602082015250565b5f611bd7602383611665565b9150611be282611b7d565b604082019050919050565b5f6020820190508181035f830152611c0481611bcb565b9050919050565b7f446f6e6174696f6e2069732061626f766520746865206d6178696d756d206c695f8201527f6d69740000000000000000000000000000000000000000000000000000000000602082015250565b5f611c65602383611665565b9150611c7082611c0b565b604082019050919050565b5f6020820190508181035f830152611c9281611c59565b9050919050565b5f81905092915050565b7f5468616e6b20796f7520666f7220796f757220646f6e6174696f6e206f6600005f82015250565b5f611cd7601e83611c99565b9150611ce282611ca3565b601e82019050919050565b5f611cf7826114ce565b611d018185611c99565b9350611d118185602086016114e8565b80840191505092915050565b7f77656920666f722074686520707572706f73653a0000000000000000000000005f82015250565b5f611d51601483611c99565b9150611d5c82611d1d565b601482019050919050565b828183375f83830152505050565b5f611d808385611c99565b9350611d8d838584611d67565b82840190509392505050565b5f611da382611ccb565b9150611daf8286611ced565b9150611dba82611d45565b9150611dc7828486611d75565b9150819050949350505050565b7f4e487b71000000000000000000000000000000000000000000000000000000005f52604160045260245ffd5b5f819050815f5260205f209050919050565b5f6020601f8301049050919050565b5f82821b905092915050565b5f60088302611e5d7fffffffffffffffffffffffffffffffffffffffffffffffffffffffffffffffff82611e22565b611e678683611e22565b95508019841693508086168417925050509392505050565b5f819050919050565b5f611ea2611e9d611e9884611410565b611e7f565b611410565b9050919050565b5f819050919050565b611ebb83611e88565b611ecf611ec782611ea9565b848454611e2e565b825550505050565b5f90565b611ee3611ed7565b611eee818484611eb2565b505050565b5b81811015611f1157611f065f82611edb565b600181019050611ef4565b5050565b601f821115611f5657611f2781611e01565b611f3084611e13565b81016020851015611f3f578190505b611f53611f4b85611e13565b830182611ef3565b50505b505050565b5f82821c905092915050565b5f611f765f1984600802611f5b565b1980831691505092915050565b5f611f8e8383611f67565b9150826002028217905092915050565b611fa7826114ce565b67ffffffffffffffff811115611fc057611fbf611dd4565b5b611fca8254611a7d565b611fd5828285611f15565b5f60209050601f831160018114612006575f8415611ff4578287015190505b611ffe8582611f83565b865550612065565b601f19841661201486611e01565b5f5b8281101561203b57848901518255600182019150602085019450602081019050612016565b868310156120585784890151612054601f891682611f67565b8355505b6001600288020188555050505b505050505050565b7f4e487b71000000000000000000000000000000000000000000000000000000005f52601160045260245ffd5b5f6120a482611410565b91506120af83611410565b92508282019050808211156120c7576120c661206d565b5b92915050565b5f6120d88385611665565b93506120e5838584611d67565b6120ee836114f6565b840190509392505050565b5f60608201905061210c5f830187611419565b6121196020830186611419565b818103604083015261212c8184866120cd565b905095945050505050565b7f457870656e736520616d6f756e74206d757374206265206772656174657220745f8201527f68616e2030000000000000000000000000000000000000000000000000000000602082015250565b5f612191602583611665565b915061219c82612137565b604082019050919050565b5f6020820190508181035f8301526121be81612185565b9050919050565b7f496e73756666696369656e742062616c616e636520666f7220657870656e73655f82015250565b5f6121f9602083611665565b9150612204826121c5565b602082019050919050565b5f6020820190508181035f830152612226816121ed565b9050919050565b5f6060820190506122405f830187611419565b81810360208301526122538185876120cd565b90506122626040830184611419565b95945050505050565b5f61227582611410565b91507fffffffffffffffffffffffffffffffffffffffffffffffffffffffffffffffff82036122a7576122a661206d565b5b600182019050919050565b7f4e487b71000000000000000000000000000000000000000000000000000000005f52601260045260245ffd5b5f6122e982611410565b91506122f483611410565b925082612304576123036122b2565b5b828204905092915050565b5f61231982611410565b915061232483611410565b925082612334576123336122b2565b5b828206905092915050565b5f61234982611410565b91505f820361235b5761235a61206d565b5b600182039050919050565b7f4e487b71000000000000000000000000000000000000000000000000000000005f52603260045260245ffdfea26469706673582212208ea3dae8d41154c1b73af063665eb90160d507971a6ca94d1ca2ecf39e3ee2dc64736f6c634300081a0033",
					"opcodes": "PUSH1 0x80 PUSH1 0x40 MSTORE PUSH7 0x2386F26FC10000 PUSH1 0x5 SSTORE PUSH8 0x8AC7230489E80000 PUSH1 0x6 SSTORE PUSH0 PUSH1 0x7 PUSH0 PUSH2 0x100 EXP DUP2 SLOAD DUP2 PUSH1 0xFF MUL NOT AND SWAP1 DUP4 ISZERO ISZERO MUL OR SWAP1 SSTORE POP CALLVALUE DUP1 ISZERO PUSH2 0x3F JUMPI PUSH0 DUP1 REVERT JUMPDEST POP PUSH1 0x40 MLOAD PUSH2 0x2670 CODESIZE SUB DUP1 PUSH2 0x2670 DUP4 CODECOPY DUP2 DUP2 ADD PUSH1 0x40 MSTORE DUP2 ADD SWAP1 PUSH2 0x61 SWAP2 SWAP1 PUSH2 0x247 JUMP JUMPDEST CALLER PUSH0 PUSH20 0xFFFFFFFFFFFFFFFFFFFFFFFFFFFFFFFFFFFFFFFF AND DUP2 PUSH20 0xFFFFFFFFFFFFFFFFFFFFFFFFFFFFFFFFFFFFFFFF AND SUB PUSH2 0xD2 JUMPI PUSH0 PUSH1 0x40 MLOAD PUSH32 0x1E4FBDF700000000000000000000000000000000000000000000000000000000 DUP2 MSTORE PUSH1 0x4 ADD PUSH2 0xC9 SWAP2 SWAP1 PUSH2 0x281 JUMP JUMPDEST PUSH1 0x40 MLOAD DUP1 SWAP2 SUB SWAP1 REVERT JUMPDEST PUSH2 0xE1 DUP2 PUSH2 0x128 PUSH1 0x20 SHL PUSH1 0x20 SHR JUMP JUMPDEST POP DUP1 PUSH1 0x4 PUSH0 PUSH2 0x100 EXP DUP2 SLOAD DUP2 PUSH20 0xFFFFFFFFFFFFFFFFFFFFFFFFFFFFFFFFFFFFFFFF MUL NOT AND SWAP1 DUP4 PUSH20 0xFFFFFFFFFFFFFFFFFFFFFFFFFFFFFFFFFFFFFFFF AND MUL OR SWAP1 SSTORE POP POP PUSH2 0x29A JUMP JUMPDEST PUSH0 DUP1 PUSH0 SWAP1 SLOAD SWAP1 PUSH2 0x100 EXP SWAP1 DIV PUSH20 0xFFFFFFFFFFFFFFFFFFFFFFFFFFFFFFFFFFFFFFFF AND SWAP1 POP DUP2 PUSH0 DUP1 PUSH2 0x100 EXP DUP2 SLOAD DUP2 PUSH20 0xFFFFFFFFFFFFFFFFFFFFFFFFFFFFFFFFFFFFFFFF MUL NOT AND SWAP1 DUP4 PUSH20 0xFFFFFFFFFFFFFFFFFFFFFFFFFFFFFFFFFFFFFFFF AND MUL OR SWAP1 SSTORE POP DUP2 PUSH20 0xFFFFFFFFFFFFFFFFFFFFFFFFFFFFFFFFFFFFFFFF AND DUP2 PUSH20 0xFFFFFFFFFFFFFFFFFFFFFFFFFFFFFFFFFFFFFFFF AND PUSH32 0x8BE0079C531659141344CD1FD0A4F28419497F9722A3DAAFE3B4186F6B6457E0 PUSH1 0x40 MLOAD PUSH1 0x40 MLOAD DUP1 SWAP2 SUB SWAP1 LOG3 POP POP JUMP JUMPDEST PUSH0 DUP1 REVERT JUMPDEST PUSH0 PUSH20 0xFFFFFFFFFFFFFFFFFFFFFFFFFFFFFFFFFFFFFFFF DUP3 AND SWAP1 POP SWAP2 SWAP1 POP JUMP JUMPDEST PUSH0 PUSH2 0x216 DUP3 PUSH2 0x1ED JUMP JUMPDEST SWAP1 POP SWAP2 SWAP1 POP JUMP JUMPDEST PUSH2 0x226 DUP2 PUSH2 0x20C JUMP JUMPDEST DUP2 EQ PUSH2 0x230 JUMPI PUSH0 DUP1 REVERT JUMPDEST POP JUMP JUMPDEST PUSH0 DUP2 MLOAD SWAP1 POP PUSH2 0x241 DUP2 PUSH2 0x21D JUMP JUMPDEST SWAP3 SWAP2 POP POP JUMP JUMPDEST PUSH0 PUSH1 0x20 DUP3 DUP5 SUB SLT ISZERO PUSH2 0x25C JUMPI PUSH2 0x25B PUSH2 0x1E9 JUMP JUMPDEST JUMPDEST PUSH0 PUSH2 0x269 DUP5 DUP3 DUP6 ADD PUSH2 0x233 JUMP JUMPDEST SWAP2 POP POP SWAP3 SWAP2 POP POP JUMP JUMPDEST PUSH2 0x27B DUP2 PUSH2 0x20C JUMP JUMPDEST DUP3 MSTORE POP POP JUMP JUMPDEST PUSH0 PUSH1 0x20 DUP3 ADD SWAP1 POP PUSH2 0x294 PUSH0 DUP4 ADD DUP5 PUSH2 0x272 JUMP JUMPDEST SWAP3 SWAP2 POP POP JUMP JUMPDEST PUSH2 0x23C9 DUP1 PUSH2 0x2A7 PUSH0 CODECOPY PUSH0 RETURN INVALID PUSH1 0x80 PUSH1 0x40 MSTORE PUSH1 0x4 CALLDATASIZE LT PUSH2 0x11E JUMPI PUSH0 CALLDATALOAD PUSH1 0xE0 SHR DUP1 PUSH4 0xAFCF2FC4 GT PUSH2 0x9F JUMPI DUP1 PUSH4 0xE25F8416 GT PUSH2 0x63 JUMPI DUP1 PUSH4 0xE25F8416 EQ PUSH2 0x35C JUMPI DUP1 PUSH4 0xE55A62A8 EQ PUSH2 0x386 JUMPI DUP1 PUSH4 0xF2FDE38B EQ PUSH2 0x3B0 JUMPI DUP1 PUSH4 0xF7B188A5 EQ PUSH2 0x3D8 JUMPI DUP1 PUSH4 0xF8626AF8 EQ PUSH2 0x3EE JUMPI PUSH2 0x11E JUMP JUMPDEST DUP1 PUSH4 0xAFCF2FC4 EQ PUSH2 0x29A JUMPI DUP1 PUSH4 0xB187BD26 EQ PUSH2 0x2C4 JUMPI DUP1 PUSH4 0xB5AEBC80 EQ PUSH2 0x2EE JUMPI DUP1 PUSH4 0xD6176359 EQ PUSH2 0x30A JUMPI DUP1 PUSH4 0xDE2ED893 EQ PUSH2 0x332 JUMPI PUSH2 0x11E JUMP JUMPDEST DUP1 PUSH4 0x8456CB59 GT PUSH2 0xE6 JUMPI DUP1 PUSH4 0x8456CB59 EQ PUSH2 0x1DC JUMPI DUP1 PUSH4 0x853828B6 EQ PUSH2 0x1F2 JUMPI DUP1 PUSH4 0x8DA5CB5B EQ PUSH2 0x208 JUMPI DUP1 PUSH4 0xA8681FD9 EQ PUSH2 0x232 JUMPI DUP1 PUSH4 0xAF4AFE0A EQ PUSH2 0x25C JUMPI PUSH2 0x11E JUMP JUMPDEST DUP1 PUSH4 0xC9BE46D EQ PUSH2 0x122 JUMPI DUP1 PUSH4 0x1C0E0225 EQ PUSH2 0x14A JUMPI DUP1 PUSH4 0x2E1A7D4D EQ PUSH2 0x174 JUMPI DUP1 PUSH4 0x715018A6 EQ PUSH2 0x19C JUMPI DUP1 PUSH4 0x83A36A91 EQ PUSH2 0x1B2 JUMPI JUMPDEST PUSH0 DUP1 REVERT JUMPDEST CALLVALUE DUP1 ISZERO PUSH2 0x12D JUMPI PUSH0 DUP1 REVERT JUMPDEST POP PUSH2 0x148 PUSH1 0x4 DUP1 CALLDATASIZE SUB DUP2 ADD SWAP1 PUSH2 0x143 SWAP2 SWAP1 PUSH2 0x13E5 JUMP JUMPDEST PUSH2 0x42E JUMP JUMPDEST STOP JUMPDEST CALLVALUE DUP1 ISZERO PUSH2 0x155 JUMPI PUSH0 DUP1 REVERT JUMPDEST POP PUSH2 0x15E PUSH2 0x479 JUMP JUMPDEST PUSH1 0x40 MLOAD PUSH2 0x16B SWAP2 SWAP1 PUSH2 0x1428 JUMP JUMPDEST PUSH1 0x40 MLOAD DUP1 SWAP2 SUB SWAP1 RETURN JUMPDEST CALLVALUE DUP1 ISZERO PUSH2 0x17F JUMPI PUSH0 DUP1 REVERT JUMPDEST POP PUSH2 0x19A PUSH1 0x4 DUP1 CALLDATASIZE SUB DUP2 ADD SWAP1 PUSH2 0x195 SWAP2 SWAP1 PUSH2 0x146B JUMP JUMPDEST PUSH2 0x47F JUMP JUMPDEST STOP JUMPDEST CALLVALUE DUP1 ISZERO PUSH2 0x1A7 JUMPI PUSH0 DUP1 REVERT JUMPDEST POP PUSH2 0x1B0 PUSH2 0x569 JUMP JUMPDEST STOP JUMPDEST CALLVALUE DUP1 ISZERO PUSH2 0x1BD JUMPI PUSH0 DUP1 REVERT JUMPDEST POP PUSH2 0x1C6 PUSH2 0x57C JUMP JUMPDEST PUSH1 0x40 MLOAD PUSH2 0x1D3 SWAP2 SWAP1 PUSH2 0x161D JUMP JUMPDEST PUSH1 0x40 MLOAD DUP1 SWAP2 SUB SWAP1 RETURN JUMPDEST CALLVALUE DUP1 ISZERO PUSH2 0x1E7 JUMPI PUSH0 DUP1 REVERT JUMPDEST POP PUSH2 0x1F0 PUSH2 0x67B JUMP JUMPDEST STOP JUMPDEST CALLVALUE DUP1 ISZERO PUSH2 0x1FD JUMPI PUSH0 DUP1 REVERT JUMPDEST POP PUSH2 0x206 PUSH2 0x69F JUMP JUMPDEST STOP JUMPDEST CALLVALUE DUP1 ISZERO PUSH2 0x213 JUMPI PUSH0 DUP1 REVERT JUMPDEST POP PUSH2 0x21C PUSH2 0x78C JUMP JUMPDEST PUSH1 0x40 MLOAD PUSH2 0x229 SWAP2 SWAP1 PUSH2 0x164C JUMP JUMPDEST PUSH1 0x40 MLOAD DUP1 SWAP2 SUB SWAP1 RETURN JUMPDEST CALLVALUE DUP1 ISZERO PUSH2 0x23D JUMPI PUSH0 DUP1 REVERT JUMPDEST POP PUSH2 0x246 PUSH2 0x7B3 JUMP JUMPDEST PUSH1 0x40 MLOAD PUSH2 0x253 SWAP2 SWAP1 PUSH2 0x1428 JUMP JUMPDEST PUSH1 0x40 MLOAD DUP1 SWAP2 SUB SWAP1 RETURN JUMPDEST CALLVALUE DUP1 ISZERO PUSH2 0x267 JUMPI PUSH0 DUP1 REVERT JUMPDEST POP PUSH2 0x282 PUSH1 0x4 DUP1 CALLDATASIZE SUB DUP2 ADD SWAP1 PUSH2 0x27D SWAP2 SWAP1 PUSH2 0x146B JUMP JUMPDEST PUSH2 0x7B9 JUMP JUMPDEST PUSH1 0x40 MLOAD PUSH2 0x291 SWAP4 SWAP3 SWAP2 SWAP1 PUSH2 0x16AD JUMP JUMPDEST PUSH1 0x40 MLOAD DUP1 SWAP2 SUB SWAP1 RETURN JUMPDEST CALLVALUE DUP1 ISZERO PUSH2 0x2A5 JUMPI PUSH0 DUP1 REVERT JUMPDEST POP PUSH2 0x2AE PUSH2 0x874 JUMP JUMPDEST PUSH1 0x40 MLOAD PUSH2 0x2BB SWAP2 SWAP1 PUSH2 0x164C JUMP JUMPDEST PUSH1 0x40 MLOAD DUP1 SWAP2 SUB SWAP1 RETURN JUMPDEST CALLVALUE DUP1 ISZERO PUSH2 0x2CF JUMPI PUSH0 DUP1 REVERT JUMPDEST POP PUSH2 0x2D8 PUSH2 0x899 JUMP JUMPDEST PUSH1 0x40 MLOAD PUSH2 0x2E5 SWAP2 SWAP1 PUSH2 0x1703 JUMP JUMPDEST PUSH1 0x40 MLOAD DUP1 SWAP2 SUB SWAP1 RETURN JUMPDEST PUSH2 0x308 PUSH1 0x4 DUP1 CALLDATASIZE SUB DUP2 ADD SWAP1 PUSH2 0x303 SWAP2 SWAP1 PUSH2 0x177D JUMP JUMPDEST PUSH2 0x8AB JUMP JUMPDEST STOP JUMPDEST CALLVALUE DUP1 ISZERO PUSH2 0x315 JUMPI PUSH0 DUP1 REVERT JUMPDEST POP PUSH2 0x330 PUSH1 0x4 DUP1 CALLDATASIZE SUB DUP2 ADD SWAP1 PUSH2 0x32B SWAP2 SWAP1 PUSH2 0x17C8 JUMP JUMPDEST PUSH2 0xB52 JUMP JUMPDEST STOP JUMPDEST CALLVALUE DUP1 ISZERO PUSH2 0x33D JUMPI PUSH0 DUP1 REVERT JUMPDEST POP PUSH2 0x346 PUSH2 0xCD0 JUMP JUMPDEST PUSH1 0x40 MLOAD PUSH2 0x353 SWAP2 SWAP1 PUSH2 0x1428 JUMP JUMPDEST PUSH1 0x40 MLOAD DUP1 SWAP2 SUB SWAP1 RETURN JUMPDEST CALLVALUE DUP1 ISZERO PUSH2 0x367 JUMPI PUSH0 DUP1 REVERT JUMPDEST POP PUSH2 0x370 PUSH2 0xCD6 JUMP JUMPDEST PUSH1 0x40 MLOAD PUSH2 0x37D SWAP2 SWAP1 PUSH2 0x1969 JUMP JUMPDEST PUSH1 0x40 MLOAD DUP1 SWAP2 SUB SWAP1 RETURN JUMPDEST CALLVALUE DUP1 ISZERO PUSH2 0x391 JUMPI PUSH0 DUP1 REVERT JUMPDEST POP PUSH2 0x39A PUSH2 0xEBA JUMP JUMPDEST PUSH1 0x40 MLOAD PUSH2 0x3A7 SWAP2 SWAP1 PUSH2 0x1428 JUMP JUMPDEST PUSH1 0x40 MLOAD DUP1 SWAP2 SUB SWAP1 RETURN JUMPDEST CALLVALUE DUP1 ISZERO PUSH2 0x3BB JUMPI PUSH0 DUP1 REVERT JUMPDEST POP PUSH2 0x3D6 PUSH1 0x4 DUP1 CALLDATASIZE SUB DUP2 ADD SWAP1 PUSH2 0x3D1 SWAP2 SWAP1 PUSH2 0x13E5 JUMP JUMPDEST PUSH2 0xEC6 JUMP JUMPDEST STOP JUMPDEST CALLVALUE DUP1 ISZERO PUSH2 0x3E3 JUMPI PUSH0 DUP1 REVERT JUMPDEST POP PUSH2 0x3EC PUSH2 0xF4A JUMP JUMPDEST STOP JUMPDEST CALLVALUE DUP1 ISZERO PUSH2 0x3F9 JUMPI PUSH0 DUP1 REVERT JUMPDEST POP PUSH2 0x414 PUSH1 0x4 DUP1 CALLDATASIZE SUB DUP2 ADD SWAP1 PUSH2 0x40F SWAP2 SWAP1 PUSH2 0x146B JUMP JUMPDEST PUSH2 0xF6D JUMP JUMPDEST PUSH1 0x40 MLOAD PUSH2 0x425 SWAP6 SWAP5 SWAP4 SWAP3 SWAP2 SWAP1 PUSH2 0x1989 JUMP JUMPDEST PUSH1 0x40 MLOAD DUP1 SWAP2 SUB SWAP1 RETURN JUMPDEST PUSH2 0x436 PUSH2 0x10D9 JUMP JUMPDEST DUP1 PUSH1 0x4 PUSH0 PUSH2 0x100 EXP DUP2 SLOAD DUP2 PUSH20 0xFFFFFFFFFFFFFFFFFFFFFFFFFFFFFFFFFFFFFFFF MUL NOT AND SWAP1 DUP4 PUSH20 0xFFFFFFFFFFFFFFFFFFFFFFFFFFFFFFFFFFFFFFFF AND MUL OR SWAP1 SSTORE POP POP JUMP JUMPDEST PUSH1 0x5 SLOAD DUP2 JUMP JUMPDEST PUSH2 0x487 PUSH2 0x10D9 JUMP JUMPDEST DUP1 SELFBALANCE LT ISZERO PUSH2 0x4CA JUMPI PUSH1 0x40 MLOAD PUSH32 0x8C379A000000000000000000000000000000000000000000000000000000000 DUP2 MSTORE PUSH1 0x4 ADD PUSH2 0x4C1 SWAP1 PUSH2 0x1A32 JUMP JUMPDEST PUSH1 0x40 MLOAD DUP1 SWAP2 SUB SWAP1 REVERT JUMPDEST PUSH1 0x4 PUSH0 SWAP1 SLOAD SWAP1 PUSH2 0x100 EXP SWAP1 DIV PUSH20 0xFFFFFFFFFFFFFFFFFFFFFFFFFFFFFFFFFFFFFFFF AND PUSH20 0xFFFFFFFFFFFFFFFFFFFFFFFFFFFFFFFFFFFFFFFF AND PUSH2 0x8FC DUP3 SWAP1 DUP2 ISZERO MUL SWAP1 PUSH1 0x40 MLOAD PUSH0 PUSH1 0x40 MLOAD DUP1 DUP4 SUB DUP2 DUP6 DUP9 DUP9 CALL SWAP4 POP POP POP POP ISZERO DUP1 ISZERO PUSH2 0x52E JUMPI RETURNDATASIZE PUSH0 DUP1 RETURNDATACOPY RETURNDATASIZE PUSH0 REVERT JUMPDEST POP PUSH32 0x430648DE173157E069201C943ADB2D4E340E7CF5B27B1B09C9CB852F03D63B56 DUP2 PUSH1 0x40 MLOAD PUSH2 0x55E SWAP2 SWAP1 PUSH2 0x1428 JUMP JUMPDEST PUSH1 0x40 MLOAD DUP1 SWAP2 SUB SWAP1 LOG1 POP JUMP JUMPDEST PUSH2 0x571 PUSH2 0x10D9 JUMP JUMPDEST PUSH2 0x57A PUSH0 PUSH2 0x1160 JUMP JUMPDEST JUMP JUMPDEST PUSH1 0x60 PUSH1 0x1 DUP1 SLOAD DUP1 PUSH1 0x20 MUL PUSH1 0x20 ADD PUSH1 0x40 MLOAD SWAP1 DUP2 ADD PUSH1 0x40 MSTORE DUP1 SWAP3 SWAP2 SWAP1 DUP2 DUP2 MSTORE PUSH1 0x20 ADD PUSH0 SWAP1 JUMPDEST DUP3 DUP3 LT ISZERO PUSH2 0x672 JUMPI DUP4 DUP3 SWAP1 PUSH0 MSTORE PUSH1 0x20 PUSH0 KECCAK256 SWAP1 PUSH1 0x3 MUL ADD PUSH1 0x40 MLOAD DUP1 PUSH1 0x60 ADD PUSH1 0x40 MSTORE SWAP1 DUP2 PUSH0 DUP3 ADD SLOAD DUP2 MSTORE PUSH1 0x20 ADD PUSH1 0x1 DUP3 ADD DUP1 SLOAD PUSH2 0x5D9 SWAP1 PUSH2 0x1A7D JUMP JUMPDEST DUP1 PUSH1 0x1F ADD PUSH1 0x20 DUP1 SWAP2 DIV MUL PUSH1 0x20 ADD PUSH1 0x40 MLOAD SWAP1 DUP2 ADD PUSH1 0x40 MSTORE DUP1 SWAP3 SWAP2 SWAP1 DUP2 DUP2 MSTORE PUSH1 0x20 ADD DUP3 DUP1 SLOAD PUSH2 0x605 SWAP1 PUSH2 0x1A7D JUMP JUMPDEST DUP1 ISZERO PUSH2 0x650 JUMPI DUP1 PUSH1 0x1F LT PUSH2 0x627 JUMPI PUSH2 0x100 DUP1 DUP4 SLOAD DIV MUL DUP4 MSTORE SWAP2 PUSH1 0x20 ADD SWAP2 PUSH2 0x650 JUMP JUMPDEST DUP3 ADD SWAP2 SWAP1 PUSH0 MSTORE PUSH1 0x20 PUSH0 KECCAK256 SWAP1 JUMPDEST DUP2 SLOAD DUP2 MSTORE SWAP1 PUSH1 0x1 ADD SWAP1 PUSH1 0x20 ADD DUP1 DUP4 GT PUSH2 0x633 JUMPI DUP3 SWAP1 SUB PUSH1 0x1F AND DUP3 ADD SWAP2 JUMPDEST POP POP POP POP POP DUP2 MSTORE PUSH1 0x20 ADD PUSH1 0x2 DUP3 ADD SLOAD DUP2 MSTORE POP POP DUP2 MSTORE PUSH1 0x20 ADD SWAP1 PUSH1 0x1 ADD SWAP1 PUSH2 0x59F JUMP JUMPDEST POP POP POP POP SWAP1 POP SWAP1 JUMP JUMPDEST PUSH2 0x683 PUSH2 0x10D9 JUMP JUMPDEST PUSH1 0x1 PUSH1 0x7 PUSH0 PUSH2 0x100 EXP DUP2 SLOAD DUP2 PUSH1 0xFF MUL NOT AND SWAP1 DUP4 ISZERO ISZERO MUL OR SWAP1 SSTORE POP JUMP JUMPDEST PUSH2 0x6A7 PUSH2 0x10D9 JUMP JUMPDEST PUSH0 SELFBALANCE SWAP1 POP PUSH0 DUP2 GT PUSH2 0x6ED JUMPI PUSH1 0x40 MLOAD PUSH32 0x8C379A000000000000000000000000000000000000000000000000000000000 DUP2 MSTORE PUSH1 0x4 ADD PUSH2 0x6E4 SWAP1 PUSH2 0x1AF7 JUMP JUMPDEST PUSH1 0x40 MLOAD DUP1 SWAP2 SUB SWAP1 REVERT JUMPDEST PUSH1 0x4 PUSH0 SWAP1 SLOAD SWAP1 PUSH2 0x100 EXP SWAP1 DIV PUSH20 0xFFFFFFFFFFFFFFFFFFFFFFFFFFFFFFFFFFFFFFFF AND PUSH20 0xFFFFFFFFFFFFFFFFFFFFFFFFFFFFFFFFFFFFFFFF AND PUSH2 0x8FC DUP3 SWAP1 DUP2 ISZERO MUL SWAP1 PUSH1 0x40 MLOAD PUSH0 PUSH1 0x40 MLOAD DUP1 DUP4 SUB DUP2 DUP6 DUP9 DUP9 CALL SWAP4 POP POP POP POP ISZERO DUP1 ISZERO PUSH2 0x751 JUMPI RETURNDATASIZE PUSH0 DUP1 RETURNDATACOPY RETURNDATASIZE PUSH0 REVERT JUMPDEST POP PUSH32 0x430648DE173157E069201C943ADB2D4E340E7CF5B27B1B09C9CB852F03D63B56 DUP2 PUSH1 0x40 MLOAD PUSH2 0x781 SWAP2 SWAP1 PUSH2 0x1428 JUMP JUMPDEST PUSH1 0x40 MLOAD DUP1 SWAP2 SUB SWAP1 LOG1 POP JUMP JUMPDEST PUSH0 DUP1 PUSH0 SWAP1 SLOAD SWAP1 PUSH2 0x100 EXP SWAP1 DIV PUSH20 0xFFFFFFFFFFFFFFFFFFFFFFFFFFFFFFFFFFFFFFFF AND SWAP1 POP SWAP1 JUMP JUMPDEST PUSH1 0x6 SLOAD DUP2 JUMP JUMPDEST PUSH1 0x1 DUP2 DUP2 SLOAD DUP2 LT PUSH2 0x7C8 JUMPI PUSH0 DUP1 REVERT JUMPDEST SWAP1 PUSH0 MSTORE PUSH1 0x20 PUSH0 KECCAK256 SWAP1 PUSH1 0x3 MUL ADD PUSH0 SWAP2 POP SWAP1 POP DUP1 PUSH0 ADD SLOAD SWAP1 DUP1 PUSH1 0x1 ADD DUP1 SLOAD PUSH2 0x7ED SWAP1 PUSH2 0x1A7D JUMP JUMPDEST DUP1 PUSH1 0x1F ADD PUSH1 0x20 DUP1 SWAP2 DIV MUL PUSH1 0x20 ADD PUSH1 0x40 MLOAD SWAP1 DUP2 ADD PUSH1 0x40 MSTORE DUP1 SWAP3 SWAP2 SWAP1 DUP2 DUP2 MSTORE PUSH1 0x20 ADD DUP3 DUP1 SLOAD PUSH2 0x819 SWAP1 PUSH2 0x1A7D JUMP JUMPDEST DUP1 ISZERO PUSH2 0x864 JUMPI DUP1 PUSH1 0x1F LT PUSH2 0x83B JUMPI PUSH2 0x100 DUP1 DUP4 SLOAD DIV MUL DUP4 MSTORE SWAP2 PUSH1 0x20 ADD SWAP2 PUSH2 0x864 JUMP JUMPDEST DUP3 ADD SWAP2 SWAP1 PUSH0 MSTORE PUSH1 0x20 PUSH0 KECCAK256 SWAP1 JUMPDEST DUP2 SLOAD DUP2 MSTORE SWAP1 PUSH1 0x1 ADD SWAP1 PUSH1 0x20 ADD DUP1 DUP4 GT PUSH2 0x847 JUMPI DUP3 SWAP1 SUB PUSH1 0x1F AND DUP3 ADD SWAP2 JUMPDEST POP POP POP POP POP SWAP1 DUP1 PUSH1 0x2 ADD SLOAD SWAP1 POP DUP4 JUMP JUMPDEST PUSH1 0x4 PUSH0 SWAP1 SLOAD SWAP1 PUSH2 0x100 EXP SWAP1 DIV PUSH20 0xFFFFFFFFFFFFFFFFFFFFFFFFFFFFFFFFFFFFFFFF AND DUP2 JUMP JUMPDEST PUSH1 0x7 PUSH0 SWAP1 SLOAD SWAP1 PUSH2 0x100 EXP SWAP1 DIV PUSH1 0xFF AND DUP2 JUMP JUMPDEST PUSH1 0x7 PUSH0 SWAP1 SLOAD SWAP1 PUSH2 0x100 EXP SWAP1 DIV PUSH1 0xFF AND ISZERO PUSH2 0x8FA JUMPI PUSH1 0x40 MLOAD PUSH32 0x8C379A000000000000000000000000000000000000000000000000000000000 DUP2 MSTORE PUSH1 0x4 ADD PUSH2 0x8F1 SWAP1 PUSH2 0x1B5F JUMP JUMPDEST PUSH1 0x40 MLOAD DUP1 SWAP2 SUB SWAP1 REVERT JUMPDEST PUSH1 0x5 SLOAD CALLVALUE LT ISZERO PUSH2 0x93F JUMPI PUSH1 0x40 MLOAD PUSH32 0x8C379A000000000000000000000000000000000000000000000000000000000 DUP2 MSTORE PUSH1 0x4 ADD PUSH2 0x936 SWAP1 PUSH2 0x1BED JUMP JUMPDEST PUSH1 0x40 MLOAD DUP1 SWAP2 SUB SWAP1 REVERT JUMPDEST PUSH1 0x6 SLOAD CALLVALUE GT ISZERO PUSH2 0x984 JUMPI PUSH1 0x40 MLOAD PUSH32 0x8C379A000000000000000000000000000000000000000000000000000000000 DUP2 MSTORE PUSH1 0x4 ADD PUSH2 0x97B SWAP1 PUSH2 0x1C7B JUMP JUMPDEST PUSH1 0x40 MLOAD DUP1 SWAP2 SUB SWAP1 REVERT JUMPDEST PUSH0 PUSH2 0x98E CALLVALUE PUSH2 0x1221 JUMP JUMPDEST DUP4 DUP4 PUSH1 0x40 MLOAD PUSH1 0x20 ADD PUSH2 0x9A2 SWAP4 SWAP3 SWAP2 SWAP1 PUSH2 0x1D99 JUMP JUMPDEST PUSH1 0x40 MLOAD PUSH1 0x20 DUP2 DUP4 SUB SUB DUP2 MSTORE SWAP1 PUSH1 0x40 MSTORE SWAP1 POP PUSH1 0x2 PUSH1 0x40 MLOAD DUP1 PUSH1 0xA0 ADD PUSH1 0x40 MSTORE DUP1 CALLER PUSH20 0xFFFFFFFFFFFFFFFFFFFFFFFFFFFFFFFFFFFFFFFF AND DUP2 MSTORE PUSH1 0x20 ADD CALLVALUE DUP2 MSTORE PUSH1 0x20 ADD TIMESTAMP DUP2 MSTORE PUSH1 0x20 ADD DUP6 DUP6 DUP1 DUP1 PUSH1 0x1F ADD PUSH1 0x20 DUP1 SWAP2 DIV MUL PUSH1 0x20 ADD PUSH1 0x40 MLOAD SWAP1 DUP2 ADD PUSH1 0x40 MSTORE DUP1 SWAP4 SWAP3 SWAP2 SWAP1 DUP2 DUP2 MSTORE PUSH1 0x20 ADD DUP4 DUP4 DUP1 DUP3 DUP5 CALLDATACOPY PUSH0 DUP2 DUP5 ADD MSTORE PUSH1 0x1F NOT PUSH1 0x1F DUP3 ADD AND SWAP1 POP DUP1 DUP4 ADD SWAP3 POP POP POP POP POP POP POP DUP2 MSTORE PUSH1 0x20 ADD DUP4 DUP2 MSTORE POP SWAP1 DUP1 PUSH1 0x1 DUP2 SLOAD ADD DUP1 DUP3 SSTORE DUP1 SWAP2 POP POP PUSH1 0x1 SWAP1 SUB SWAP1 PUSH0 MSTORE PUSH1 0x20 PUSH0 KECCAK256 SWAP1 PUSH1 0x5 MUL ADD PUSH0 SWAP1 SWAP2 SWAP1 SWAP2 SWAP1 SWAP2 POP PUSH0 DUP3 ADD MLOAD DUP2 PUSH0 ADD PUSH0 PUSH2 0x100 EXP DUP2 SLOAD DUP2 PUSH20 0xFFFFFFFFFFFFFFFFFFFFFFFFFFFFFFFFFFFFFFFF MUL NOT AND SWAP1 DUP4 PUSH20 0xFFFFFFFFFFFFFFFFFFFFFFFFFFFFFFFFFFFFFFFF AND MUL OR SWAP1 SSTORE POP PUSH1 0x20 DUP3 ADD MLOAD DUP2 PUSH1 0x1 ADD SSTORE PUSH1 0x40 DUP3 ADD MLOAD DUP2 PUSH1 0x2 ADD SSTORE PUSH1 0x60 DUP3 ADD MLOAD DUP2 PUSH1 0x3 ADD SWAP1 DUP2 PUSH2 0xAC8 SWAP2 SWAP1 PUSH2 0x1F9E JUMP JUMPDEST POP PUSH1 0x80 DUP3 ADD MLOAD DUP2 PUSH1 0x4 ADD SWAP1 DUP2 PUSH2 0xADE SWAP2 SWAP1 PUSH2 0x1F9E JUMP JUMPDEST POP POP POP CALLVALUE PUSH1 0x3 PUSH0 DUP3 DUP3 SLOAD PUSH2 0xAF2 SWAP2 SWAP1 PUSH2 0x209A JUMP JUMPDEST SWAP3 POP POP DUP2 SWAP1 SSTORE POP CALLER PUSH20 0xFFFFFFFFFFFFFFFFFFFFFFFFFFFFFFFFFFFFFFFF AND PUSH32 0x4CF3C36975788B7D51EE27A6F2F3CEC5636166FB7387AF9AE2102DA15448271F CALLVALUE TIMESTAMP DUP7 DUP7 PUSH1 0x40 MLOAD PUSH2 0xB45 SWAP5 SWAP4 SWAP3 SWAP2 SWAP1 PUSH2 0x20F9 JUMP JUMPDEST PUSH1 0x40 MLOAD DUP1 SWAP2 SUB SWAP1 LOG2 POP POP POP JUMP JUMPDEST PUSH2 0xB5A PUSH2 0x10D9 JUMP JUMPDEST PUSH0 DUP4 GT PUSH2 0xB9C JUMPI PUSH1 0x40 MLOAD PUSH32 0x8C379A000000000000000000000000000000000000000000000000000000000 DUP2 MSTORE PUSH1 0x4 ADD PUSH2 0xB93 SWAP1 PUSH2 0x21A7 JUMP JUMPDEST PUSH1 0x40 MLOAD DUP1 SWAP2 SUB SWAP1 REVERT JUMPDEST DUP3 SELFBALANCE GT PUSH2 0xBDE JUMPI PUSH1 0x40 MLOAD PUSH32 0x8C379A000000000000000000000000000000000000000000000000000000000 DUP2 MSTORE PUSH1 0x4 ADD PUSH2 0xBD5 SWAP1 PUSH2 0x220F JUMP JUMPDEST PUSH1 0x40 MLOAD DUP1 SWAP2 SUB SWAP1 REVERT JUMPDEST PUSH1 0x1 PUSH1 0x40 MLOAD DUP1 PUSH1 0x60 ADD PUSH1 0x40 MSTORE DUP1 DUP6 DUP2 MSTORE PUSH1 0x20 ADD DUP5 DUP5 DUP1 DUP1 PUSH1 0x1F ADD PUSH1 0x20 DUP1 SWAP2 DIV MUL PUSH1 0x20 ADD PUSH1 0x40 MLOAD SWAP1 DUP2 ADD PUSH1 0x40 MSTORE DUP1 SWAP4 SWAP3 SWAP2 SWAP1 DUP2 DUP2 MSTORE PUSH1 0x20 ADD DUP4 DUP4 DUP1 DUP3 DUP5 CALLDATACOPY PUSH0 DUP2 DUP5 ADD MSTORE PUSH1 0x1F NOT PUSH1 0x1F DUP3 ADD AND SWAP1 POP DUP1 DUP4 ADD SWAP3 POP POP POP POP POP POP POP DUP2 MSTORE PUSH1 0x20 ADD TIMESTAMP DUP2 MSTORE POP SWAP1 DUP1 PUSH1 0x1 DUP2 SLOAD ADD DUP1 DUP3 SSTORE DUP1 SWAP2 POP POP PUSH1 0x1 SWAP1 SUB SWAP1 PUSH0 MSTORE PUSH1 0x20 PUSH0 KECCAK256 SWAP1 PUSH1 0x3 MUL ADD PUSH0 SWAP1 SWAP2 SWAP1 SWAP2 SWAP1 SWAP2 POP PUSH0 DUP3 ADD MLOAD DUP2 PUSH0 ADD SSTORE PUSH1 0x20 DUP3 ADD MLOAD DUP2 PUSH1 0x1 ADD SWAP1 DUP2 PUSH2 0xC81 SWAP2 SWAP1 PUSH2 0x1F9E JUMP JUMPDEST POP PUSH1 0x40 DUP3 ADD MLOAD DUP2 PUSH1 0x2 ADD SSTORE POP POP PUSH32 0xEE9CE74E1C4C69A088B563ACEC4EB6585B77220C8BDEF0C41B4C734102B73EBC DUP4 DUP4 DUP4 TIMESTAMP PUSH1 0x40 MLOAD PUSH2 0xCC3 SWAP5 SWAP4 SWAP3 SWAP2 SWAP1 PUSH2 0x222D JUMP JUMPDEST PUSH1 0x40 MLOAD DUP1 SWAP2 SUB SWAP1 LOG1 POP POP POP JUMP JUMPDEST PUSH1 0x3 SLOAD DUP2 JUMP JUMPDEST PUSH1 0x60 PUSH1 0x2 DUP1 SLOAD DUP1 PUSH1 0x20 MUL PUSH1 0x20 ADD PUSH1 0x40 MLOAD SWAP1 DUP2 ADD PUSH1 0x40 MSTORE DUP1 SWAP3 SWAP2 SWAP1 DUP2 DUP2 MSTORE PUSH1 0x20 ADD PUSH0 SWAP1 JUMPDEST DUP3 DUP3 LT ISZERO PUSH2 0xEB1 JUMPI DUP4 DUP3 SWAP1 PUSH0 MSTORE PUSH1 0x20 PUSH0 KECCAK256 SWAP1 PUSH1 0x5 MUL ADD PUSH1 0x40 MLOAD DUP1 PUSH1 0xA0 ADD PUSH1 0x40 MSTORE SWAP1 DUP2 PUSH0 DUP3 ADD PUSH0 SWAP1 SLOAD SWAP1 PUSH2 0x100 EXP SWAP1 DIV PUSH20 0xFFFFFFFFFFFFFFFFFFFFFFFFFFFFFFFFFFFFFFFF AND PUSH20 0xFFFFFFFFFFFFFFFFFFFFFFFFFFFFFFFFFFFFFFFF AND PUSH20 0xFFFFFFFFFFFFFFFFFFFFFFFFFFFFFFFFFFFFFFFF AND DUP2 MSTORE PUSH1 0x20 ADD PUSH1 0x1 DUP3 ADD SLOAD DUP2 MSTORE PUSH1 0x20 ADD PUSH1 0x2 DUP3 ADD SLOAD DUP2 MSTORE PUSH1 0x20 ADD PUSH1 0x3 DUP3 ADD DUP1 SLOAD PUSH2 0xD92 SWAP1 PUSH2 0x1A7D JUMP JUMPDEST DUP1 PUSH1 0x1F ADD PUSH1 0x20 DUP1 SWAP2 DIV MUL PUSH1 0x20 ADD PUSH1 0x40 MLOAD SWAP1 DUP2 ADD PUSH1 0x40 MSTORE DUP1 SWAP3 SWAP2 SWAP1 DUP2 DUP2 MSTORE PUSH1 0x20 ADD DUP3 DUP1 SLOAD PUSH2 0xDBE SWAP1 PUSH2 0x1A7D JUMP JUMPDEST DUP1 ISZERO PUSH2 0xE09 JUMPI DUP1 PUSH1 0x1F LT PUSH2 0xDE0 JUMPI PUSH2 0x100 DUP1 DUP4 SLOAD DIV MUL DUP4 MSTORE SWAP2 PUSH1 0x20 ADD SWAP2 PUSH2 0xE09 JUMP JUMPDEST DUP3 ADD SWAP2 SWAP1 PUSH0 MSTORE PUSH1 0x20 PUSH0 KECCAK256 SWAP1 JUMPDEST DUP2 SLOAD DUP2 MSTORE SWAP1 PUSH1 0x1 ADD SWAP1 PUSH1 0x20 ADD DUP1 DUP4 GT PUSH2 0xDEC JUMPI DUP3 SWAP1 SUB PUSH1 0x1F AND DUP3 ADD SWAP2 JUMPDEST POP POP POP POP POP DUP2 MSTORE PUSH1 0x20 ADD PUSH1 0x4 DUP3 ADD DUP1 SLOAD PUSH2 0xE22 SWAP1 PUSH2 0x1A7D JUMP JUMPDEST DUP1 PUSH1 0x1F ADD PUSH1 0x20 DUP1 SWAP2 DIV MUL PUSH1 0x20 ADD PUSH1 0x40 MLOAD SWAP1 DUP2 ADD PUSH1 0x40 MSTORE DUP1 SWAP3 SWAP2 SWAP1 DUP2 DUP2 MSTORE PUSH1 0x20 ADD DUP3 DUP1 SLOAD PUSH2 0xE4E SWAP1 PUSH2 0x1A7D JUMP JUMPDEST DUP1 ISZERO PUSH2 0xE99 JUMPI DUP1 PUSH1 0x1F LT PUSH2 0xE70 JUMPI PUSH2 0x100 DUP1 DUP4 SLOAD DIV MUL DUP4 MSTORE SWAP2 PUSH1 0x20 ADD SWAP2 PUSH2 0xE99 JUMP JUMPDEST DUP3 ADD SWAP2 SWAP1 PUSH0 MSTORE PUSH1 0x20 PUSH0 KECCAK256 SWAP1 JUMPDEST DUP2 SLOAD DUP2 MSTORE SWAP1 PUSH1 0x1 ADD SWAP1 PUSH1 0x20 ADD DUP1 DUP4 GT PUSH2 0xE7C JUMPI DUP3 SWAP1 SUB PUSH1 0x1F AND DUP3 ADD SWAP2 JUMPDEST POP POP POP POP POP DUP2 MSTORE POP POP DUP2 MSTORE PUSH1 0x20 ADD SWAP1 PUSH1 0x1 ADD SWAP1 PUSH2 0xCF9 JUMP JUMPDEST POP POP POP POP SWAP1 POP SWAP1 JUMP JUMPDEST PUSH0 PUSH1 0x2 DUP1 SLOAD SWAP1 POP SWAP1 POP SWAP1 JUMP JUMPDEST PUSH2 0xECE PUSH2 0x10D9 JUMP JUMPDEST PUSH0 PUSH20 0xFFFFFFFFFFFFFFFFFFFFFFFFFFFFFFFFFFFFFFFF AND DUP2 PUSH20 0xFFFFFFFFFFFFFFFFFFFFFFFFFFFFFFFFFFFFFFFF AND SUB PUSH2 0xF3E JUMPI PUSH0 PUSH1 0x40 MLOAD PUSH32 0x1E4FBDF700000000000000000000000000000000000000000000000000000000 DUP2 MSTORE PUSH1 0x4 ADD PUSH2 0xF35 SWAP2 SWAP1 PUSH2 0x164C JUMP JUMPDEST PUSH1 0x40 MLOAD DUP1 SWAP2 SUB SWAP1 REVERT JUMPDEST PUSH2 0xF47 DUP2 PUSH2 0x1160 JUMP JUMPDEST POP JUMP JUMPDEST PUSH2 0xF52 PUSH2 0x10D9 JUMP JUMPDEST PUSH0 PUSH1 0x7 PUSH0 PUSH2 0x100 EXP DUP2 SLOAD DUP2 PUSH1 0xFF MUL NOT AND SWAP1 DUP4 ISZERO ISZERO MUL OR SWAP1 SSTORE POP JUMP JUMPDEST PUSH1 0x2 DUP2 DUP2 SLOAD DUP2 LT PUSH2 0xF7C JUMPI PUSH0 DUP1 REVERT JUMPDEST SWAP1 PUSH0 MSTORE PUSH1 0x20 PUSH0 KECCAK256 SWAP1 PUSH1 0x5 MUL ADD PUSH0 SWAP2 POP SWAP1 POP DUP1 PUSH0 ADD PUSH0 SWAP1 SLOAD SWAP1 PUSH2 0x100 EXP SWAP1 DIV PUSH20 0xFFFFFFFFFFFFFFFFFFFFFFFFFFFFFFFFFFFFFFFF AND SWAP1 DUP1 PUSH1 0x1 ADD SLOAD SWAP1 DUP1 PUSH1 0x2 ADD SLOAD SWAP1 DUP1 PUSH1 0x3 ADD DUP1 SLOAD PUSH2 0xFCC SWAP1 PUSH2 0x1A7D JUMP JUMPDEST DUP1 PUSH1 0x1F ADD PUSH1 0x20 DUP1 SWAP2 DIV MUL PUSH1 0x20 ADD PUSH1 0x40 MLOAD SWAP1 DUP2 ADD PUSH1 0x40 MSTORE DUP1 SWAP3 SWAP2 SWAP1 DUP2 DUP2 MSTORE PUSH1 0x20 ADD DUP3 DUP1 SLOAD PUSH2 0xFF8 SWAP1 PUSH2 0x1A7D JUMP JUMPDEST DUP1 ISZERO PUSH2 0x1043 JUMPI DUP1 PUSH1 0x1F LT PUSH2 0x101A JUMPI PUSH2 0x100 DUP1 DUP4 SLOAD DIV MUL DUP4 MSTORE SWAP2 PUSH1 0x20 ADD SWAP2 PUSH2 0x1043 JUMP JUMPDEST DUP3 ADD SWAP2 SWAP1 PUSH0 MSTORE PUSH1 0x20 PUSH0 KECCAK256 SWAP1 JUMPDEST DUP2 SLOAD DUP2 MSTORE SWAP1 PUSH1 0x1 ADD SWAP1 PUSH1 0x20 ADD DUP1 DUP4 GT PUSH2 0x1026 JUMPI DUP3 SWAP1 SUB PUSH1 0x1F AND DUP3 ADD SWAP2 JUMPDEST POP POP POP POP POP SWAP1 DUP1 PUSH1 0x4 ADD DUP1 SLOAD PUSH2 0x1058 SWAP1 PUSH2 0x1A7D JUMP JUMPDEST DUP1 PUSH1 0x1F ADD PUSH1 0x20 DUP1 SWAP2 DIV MUL PUSH1 0x20 ADD PUSH1 0x40 MLOAD SWAP1 DUP2 ADD PUSH1 0x40 MSTORE DUP1 SWAP3 SWAP2 SWAP1 DUP2 DUP2 MSTORE PUSH1 0x20 ADD DUP3 DUP1 SLOAD PUSH2 0x1084 SWAP1 PUSH2 0x1A7D JUMP JUMPDEST DUP1 ISZERO PUSH2 0x10CF JUMPI DUP1 PUSH1 0x1F LT PUSH2 0x10A6 JUMPI PUSH2 0x100 DUP1 DUP4 SLOAD DIV MUL DUP4 MSTORE SWAP2 PUSH1 0x20 ADD SWAP2 PUSH2 0x10CF JUMP JUMPDEST DUP3 ADD SWAP2 SWAP1 PUSH0 MSTORE PUSH1 0x20 PUSH0 KECCAK256 SWAP1 JUMPDEST DUP2 SLOAD DUP2 MSTORE SWAP1 PUSH1 0x1 ADD SWAP1 PUSH1 0x20 ADD DUP1 DUP4 GT PUSH2 0x10B2 JUMPI DUP3 SWAP1 SUB PUSH1 0x1F AND DUP3 ADD SWAP2 JUMPDEST POP POP POP POP POP SWAP1 POP DUP6 JUMP JUMPDEST PUSH2 0x10E1 PUSH2 0x137C JUMP JUMPDEST PUSH20 0xFFFFFFFFFFFFFFFFFFFFFFFFFFFFFFFFFFFFFFFF AND PUSH2 0x10FF PUSH2 0x78C JUMP JUMPDEST PUSH20 0xFFFFFFFFFFFFFFFFFFFFFFFFFFFFFFFFFFFFFFFF AND EQ PUSH2 0x115E JUMPI PUSH2 0x1122 PUSH2 0x137C JUMP JUMPDEST PUSH1 0x40 MLOAD PUSH32 0x118CDAA700000000000000000000000000000000000000000000000000000000 DUP2 MSTORE PUSH1 0x4 ADD PUSH2 0x1155 SWAP2 SWAP1 PUSH2 0x164C JUMP JUMPDEST PUSH1 0x40 MLOAD DUP1 SWAP2 SUB SWAP1 REVERT JUMPDEST JUMP JUMPDEST PUSH0 DUP1 PUSH0 SWAP1 SLOAD SWAP1 PUSH2 0x100 EXP SWAP1 DIV PUSH20 0xFFFFFFFFFFFFFFFFFFFFFFFFFFFFFFFFFFFFFFFF AND SWAP1 POP DUP2 PUSH0 DUP1 PUSH2 0x100 EXP DUP2 SLOAD DUP2 PUSH20 0xFFFFFFFFFFFFFFFFFFFFFFFFFFFFFFFFFFFFFFFF MUL NOT AND SWAP1 DUP4 PUSH20 0xFFFFFFFFFFFFFFFFFFFFFFFFFFFFFFFFFFFFFFFF AND MUL OR SWAP1 SSTORE POP DUP2 PUSH20 0xFFFFFFFFFFFFFFFFFFFFFFFFFFFFFFFFFFFFFFFF AND DUP2 PUSH20 0xFFFFFFFFFFFFFFFFFFFFFFFFFFFFFFFFFFFFFFFF AND PUSH32 0x8BE0079C531659141344CD1FD0A4F28419497F9722A3DAAFE3B4186F6B6457E0 PUSH1 0x40 MLOAD PUSH1 0x40 MLOAD DUP1 SWAP2 SUB SWAP1 LOG3 POP POP JUMP JUMPDEST PUSH1 0x60 PUSH0 DUP3 SUB PUSH2 0x1267 JUMPI PUSH1 0x40 MLOAD DUP1 PUSH1 0x40 ADD PUSH1 0x40 MSTORE DUP1 PUSH1 0x1 DUP2 MSTORE PUSH1 0x20 ADD PUSH32 0x3000000000000000000000000000000000000000000000000000000000000000 DUP2 MSTORE POP SWAP1 POP PUSH2 0x1377 JUMP JUMPDEST PUSH0 DUP3 SWAP1 POP PUSH0 JUMPDEST PUSH0 DUP3 EQ PUSH2 0x1296 JUMPI DUP1 DUP1 PUSH2 0x127F SWAP1 PUSH2 0x226B JUMP JUMPDEST SWAP2 POP POP PUSH1 0xA DUP3 PUSH2 0x128F SWAP2 SWAP1 PUSH2 0x22DF JUMP JUMPDEST SWAP2 POP PUSH2 0x126D JUMP JUMPDEST PUSH0 DUP2 PUSH8 0xFFFFFFFFFFFFFFFF DUP2 GT ISZERO PUSH2 0x12B1 JUMPI PUSH2 0x12B0 PUSH2 0x1DD4 JUMP JUMPDEST JUMPDEST PUSH1 0x40 MLOAD SWAP1 DUP1 DUP3 MSTORE DUP1 PUSH1 0x1F ADD PUSH1 0x1F NOT AND PUSH1 0x20 ADD DUP3 ADD PUSH1 0x40 MSTORE DUP1 ISZERO PUSH2 0x12E3 JUMPI DUP2 PUSH1 0x20 ADD PUSH1 0x1 DUP3 MUL DUP1 CALLDATASIZE DUP4 CALLDATACOPY DUP1 DUP3 ADD SWAP2 POP POP SWAP1 POP JUMPDEST POP SWAP1 POP PUSH0 DUP3 SWAP1 POP JUMPDEST PUSH0 DUP7 EQ PUSH2 0x136F JUMPI PUSH1 0xA DUP7 PUSH2 0x12FF SWAP2 SWAP1 PUSH2 0x230F JUMP JUMPDEST PUSH1 0x30 PUSH2 0x130B SWAP2 SWAP1 PUSH2 0x209A JUMP JUMPDEST PUSH1 0xF8 SHL DUP3 DUP3 PUSH2 0x1319 SWAP1 PUSH2 0x233F JUMP JUMPDEST SWAP3 POP DUP3 DUP2 MLOAD DUP2 LT PUSH2 0x132D JUMPI PUSH2 0x132C PUSH2 0x2366 JUMP JUMPDEST JUMPDEST PUSH1 0x20 ADD ADD SWAP1 PUSH31 0xFFFFFFFFFFFFFFFFFFFFFFFFFFFFFFFFFFFFFFFFFFFFFFFFFFFFFFFFFFFFFF NOT AND SWAP1 DUP2 PUSH0 BYTE SWAP1 MSTORE8 POP PUSH1 0xA DUP7 PUSH2 0x1368 SWAP2 SWAP1 PUSH2 0x22DF JUMP JUMPDEST SWAP6 POP PUSH2 0x12EB JUMP JUMPDEST DUP2 SWAP5 POP POP POP POP POP JUMPDEST SWAP2 SWAP1 POP JUMP JUMPDEST PUSH0 CALLER SWAP1 POP SWAP1 JUMP JUMPDEST PUSH0 DUP1 REVERT JUMPDEST PUSH0 DUP1 REVERT JUMPDEST PUSH0 PUSH20 0xFFFFFFFFFFFFFFFFFFFFFFFFFFFFFFFFFFFFFFFF DUP3 AND SWAP1 POP SWAP2 SWAP1 POP JUMP JUMPDEST PUSH0 PUSH2 0x13B4 DUP3 PUSH2 0x138B JUMP JUMPDEST SWAP1 POP SWAP2 SWAP1 POP JUMP JUMPDEST PUSH2 0x13C4 DUP2 PUSH2 0x13AA JUMP JUMPDEST DUP2 EQ PUSH2 0x13CE JUMPI PUSH0 DUP1 REVERT JUMPDEST POP JUMP JUMPDEST PUSH0 DUP2 CALLDATALOAD SWAP1 POP PUSH2 0x13DF DUP2 PUSH2 0x13BB JUMP JUMPDEST SWAP3 SWAP2 POP POP JUMP JUMPDEST PUSH0 PUSH1 0x20 DUP3 DUP5 SUB SLT ISZERO PUSH2 0x13FA JUMPI PUSH2 0x13F9 PUSH2 0x1383 JUMP JUMPDEST JUMPDEST PUSH0 PUSH2 0x1407 DUP5 DUP3 DUP6 ADD PUSH2 0x13D1 JUMP JUMPDEST SWAP2 POP POP SWAP3 SWAP2 POP POP JUMP JUMPDEST PUSH0 DUP2 SWAP1 POP SWAP2 SWAP1 POP JUMP JUMPDEST PUSH2 0x1422 DUP2 PUSH2 0x1410 JUMP JUMPDEST DUP3 MSTORE POP POP JUMP JUMPDEST PUSH0 PUSH1 0x20 DUP3 ADD SWAP1 POP PUSH2 0x143B PUSH0 DUP4 ADD DUP5 PUSH2 0x1419 JUMP JUMPDEST SWAP3 SWAP2 POP POP JUMP JUMPDEST PUSH2 0x144A DUP2 PUSH2 0x1410 JUMP JUMPDEST DUP2 EQ PUSH2 0x1454 JUMPI PUSH0 DUP1 REVERT JUMPDEST POP JUMP JUMPDEST PUSH0 DUP2 CALLDATALOAD SWAP1 POP PUSH2 0x1465 DUP2 PUSH2 0x1441 JUMP JUMPDEST SWAP3 SWAP2 POP POP JUMP JUMPDEST PUSH0 PUSH1 0x20 DUP3 DUP5 SUB SLT ISZERO PUSH2 0x1480 JUMPI PUSH2 0x147F PUSH2 0x1383 JUMP JUMPDEST JUMPDEST PUSH0 PUSH2 0x148D DUP5 DUP3 DUP6 ADD PUSH2 0x1457 JUMP JUMPDEST SWAP2 POP POP SWAP3 SWAP2 POP POP JUMP JUMPDEST PUSH0 DUP2 MLOAD SWAP1 POP SWAP2 SWAP1 POP JUMP JUMPDEST PUSH0 DUP3 DUP3 MSTORE PUSH1 0x20 DUP3 ADD SWAP1 POP SWAP3 SWAP2 POP POP JUMP JUMPDEST PUSH0 DUP2 SWAP1 POP PUSH1 0x20 DUP3 ADD SWAP1 POP SWAP2 SWAP1 POP JUMP JUMPDEST PUSH2 0x14C8 DUP2 PUSH2 0x1410 JUMP JUMPDEST DUP3 MSTORE POP POP JUMP JUMPDEST PUSH0 DUP2 MLOAD SWAP1 POP SWAP2 SWAP1 POP JUMP JUMPDEST PUSH0 DUP3 DUP3 MSTORE PUSH1 0x20 DUP3 ADD SWAP1 POP SWAP3 SWAP2 POP POP JUMP JUMPDEST DUP3 DUP2 DUP4 MCOPY PUSH0 DUP4 DUP4 ADD MSTORE POP POP POP JUMP JUMPDEST PUSH0 PUSH1 0x1F NOT PUSH1 0x1F DUP4 ADD AND SWAP1 POP SWAP2 SWAP1 POP JUMP JUMPDEST PUSH0 PUSH2 0x1510 DUP3 PUSH2 0x14CE JUMP JUMPDEST PUSH2 0x151A DUP2 DUP6 PUSH2 0x14D8 JUMP JUMPDEST SWAP4 POP PUSH2 0x152A DUP2 DUP6 PUSH1 0x20 DUP7 ADD PUSH2 0x14E8 JUMP JUMPDEST PUSH2 0x1533 DUP2 PUSH2 0x14F6 JUMP JUMPDEST DUP5 ADD SWAP2 POP POP SWAP3 SWAP2 POP POP JUMP JUMPDEST PUSH0 PUSH1 0x60 DUP4 ADD PUSH0 DUP4 ADD MLOAD PUSH2 0x1553 PUSH0 DUP7 ADD DUP3 PUSH2 0x14BF JUMP JUMPDEST POP PUSH1 0x20 DUP4 ADD MLOAD DUP5 DUP3 SUB PUSH1 0x20 DUP7 ADD MSTORE PUSH2 0x156B DUP3 DUP3 PUSH2 0x1506 JUMP JUMPDEST SWAP2 POP POP PUSH1 0x40 DUP4 ADD MLOAD PUSH2 0x1580 PUSH1 0x40 DUP7 ADD DUP3 PUSH2 0x14BF JUMP JUMPDEST POP DUP1 SWAP2 POP POP SWAP3 SWAP2 POP POP JUMP JUMPDEST PUSH0 PUSH2 0x1596 DUP4 DUP4 PUSH2 0x153E JUMP JUMPDEST SWAP1 POP SWAP3 SWAP2 POP POP JUMP JUMPDEST PUSH0 PUSH1 0x20 DUP3 ADD SWAP1 POP SWAP2 SWAP1 POP JUMP JUMPDEST PUSH0 PUSH2 0x15B4 DUP3 PUSH2 0x1496 JUMP JUMPDEST PUSH2 0x15BE DUP2 DUP6 PUSH2 0x14A0 JUMP JUMPDEST SWAP4 POP DUP4 PUSH1 0x20 DUP3 MUL DUP6 ADD PUSH2 0x15D0 DUP6 PUSH2 0x14B0 JUMP JUMPDEST DUP1 PUSH0 JUMPDEST DUP6 DUP2 LT ISZERO PUSH2 0x160B JUMPI DUP5 DUP5 SUB DUP10 MSTORE DUP2 MLOAD PUSH2 0x15EC DUP6 DUP3 PUSH2 0x158B JUMP JUMPDEST SWAP5 POP PUSH2 0x15F7 DUP4 PUSH2 0x159E JUMP JUMPDEST SWAP3 POP PUSH1 0x20 DUP11 ADD SWAP10 POP POP PUSH1 0x1 DUP2 ADD SWAP1 POP PUSH2 0x15D3 JUMP JUMPDEST POP DUP3 SWAP8 POP DUP8 SWAP6 POP POP POP POP POP POP SWAP3 SWAP2 POP POP JUMP JUMPDEST PUSH0 PUSH1 0x20 DUP3 ADD SWAP1 POP DUP2 DUP2 SUB PUSH0 DUP4 ADD MSTORE PUSH2 0x1635 DUP2 DUP5 PUSH2 0x15AA JUMP JUMPDEST SWAP1 POP SWAP3 SWAP2 POP POP JUMP JUMPDEST PUSH2 0x1646 DUP2 PUSH2 0x13AA JUMP JUMPDEST DUP3 MSTORE POP POP JUMP JUMPDEST PUSH0 PUSH1 0x20 DUP3 ADD SWAP1 POP PUSH2 0x165F PUSH0 DUP4 ADD DUP5 PUSH2 0x163D JUMP JUMPDEST SWAP3 SWAP2 POP POP JUMP JUMPDEST PUSH0 DUP3 DUP3 MSTORE PUSH1 0x20 DUP3 ADD SWAP1 POP SWAP3 SWAP2 POP POP JUMP JUMPDEST PUSH0 PUSH2 0x167F DUP3 PUSH2 0x14CE JUMP JUMPDEST PUSH2 0x1689 DUP2 DUP6 PUSH2 0x1665 JUMP JUMPDEST SWAP4 POP PUSH2 0x1699 DUP2 DUP6 PUSH1 0x20 DUP7 ADD PUSH2 0x14E8 JUMP JUMPDEST PUSH2 0x16A2 DUP2 PUSH2 0x14F6 JUMP JUMPDEST DUP5 ADD SWAP2 POP POP SWAP3 SWAP2 POP POP JUMP JUMPDEST PUSH0 PUSH1 0x60 DUP3 ADD SWAP1 POP PUSH2 0x16C0 PUSH0 DUP4 ADD DUP7 PUSH2 0x1419 JUMP JUMPDEST DUP2 DUP2 SUB PUSH1 0x20 DUP4 ADD MSTORE PUSH2 0x16D2 DUP2 DUP6 PUSH2 0x1675 JUMP JUMPDEST SWAP1 POP PUSH2 0x16E1 PUSH1 0x40 DUP4 ADD DUP5 PUSH2 0x1419 JUMP JUMPDEST SWAP5 SWAP4 POP POP POP POP JUMP JUMPDEST PUSH0 DUP2 ISZERO ISZERO SWAP1 POP SWAP2 SWAP1 POP JUMP JUMPDEST PUSH2 0x16FD DUP2 PUSH2 0x16E9 JUMP JUMPDEST DUP3 MSTORE POP POP JUMP JUMPDEST PUSH0 PUSH1 0x20 DUP3 ADD SWAP1 POP PUSH2 0x1716 PUSH0 DUP4 ADD DUP5 PUSH2 0x16F4 JUMP JUMPDEST SWAP3 SWAP2 POP POP JUMP JUMPDEST PUSH0 DUP1 REVERT JUMPDEST PUSH0 DUP1 REVERT JUMPDEST PUSH0 DUP1 REVERT JUMPDEST PUSH0 DUP1 DUP4 PUSH1 0x1F DUP5 ADD SLT PUSH2 0x173D JUMPI PUSH2 0x173C PUSH2 0x171C JUMP JUMPDEST JUMPDEST DUP3 CALLDATALOAD SWAP1 POP PUSH8 0xFFFFFFFFFFFFFFFF DUP2 GT ISZERO PUSH2 0x175A JUMPI PUSH2 0x1759 PUSH2 0x1720 JUMP JUMPDEST JUMPDEST PUSH1 0x20 DUP4 ADD SWAP2 POP DUP4 PUSH1 0x1 DUP3 MUL DUP4 ADD GT ISZERO PUSH2 0x1776 JUMPI PUSH2 0x1775 PUSH2 0x1724 JUMP JUMPDEST JUMPDEST SWAP3 POP SWAP3 SWAP1 POP JUMP JUMPDEST PUSH0 DUP1 PUSH1 0x20 DUP4 DUP6 SUB SLT ISZERO PUSH2 0x1793 JUMPI PUSH2 0x1792 PUSH2 0x1383 JUMP JUMPDEST JUMPDEST PUSH0 DUP4 ADD CALLDATALOAD PUSH8 0xFFFFFFFFFFFFFFFF DUP2 GT ISZERO PUSH2 0x17B0 JUMPI PUSH2 0x17AF PUSH2 0x1387 JUMP JUMPDEST JUMPDEST PUSH2 0x17BC DUP6 DUP3 DUP7 ADD PUSH2 0x1728 JUMP JUMPDEST SWAP3 POP SWAP3 POP POP SWAP3 POP SWAP3 SWAP1 POP JUMP JUMPDEST PUSH0 DUP1 PUSH0 PUSH1 0x40 DUP5 DUP7 SUB SLT ISZERO PUSH2 0x17DF JUMPI PUSH2 0x17DE PUSH2 0x1383 JUMP JUMPDEST JUMPDEST PUSH0 PUSH2 0x17EC DUP7 DUP3 DUP8 ADD PUSH2 0x1457 JUMP JUMPDEST SWAP4 POP POP PUSH1 0x20 DUP5 ADD CALLDATALOAD PUSH8 0xFFFFFFFFFFFFFFFF DUP2 GT ISZERO PUSH2 0x180D JUMPI PUSH2 0x180C PUSH2 0x1387 JUMP JUMPDEST JUMPDEST PUSH2 0x1819 DUP7 DUP3 DUP8 ADD PUSH2 0x1728 JUMP JUMPDEST SWAP3 POP SWAP3 POP POP SWAP3 POP SWAP3 POP SWAP3 JUMP JUMPDEST PUSH0 DUP2 MLOAD SWAP1 POP SWAP2 SWAP1 POP JUMP JUMPDEST PUSH0 DUP3 DUP3 MSTORE PUSH1 0x20 DUP3 ADD SWAP1 POP SWAP3 SWAP2 POP POP JUMP JUMPDEST PUSH0 DUP2 SWAP1 POP PUSH1 0x20 DUP3 ADD SWAP1 POP SWAP2 SWAP1 POP JUMP JUMPDEST PUSH2 0x1857 DUP2 PUSH2 0x13AA JUMP JUMPDEST DUP3 MSTORE POP POP JUMP JUMPDEST PUSH0 PUSH1 0xA0 DUP4 ADD PUSH0 DUP4 ADD MLOAD PUSH2 0x1872 PUSH0 DUP7 ADD DUP3 PUSH2 0x184E JUMP JUMPDEST POP PUSH1 0x20 DUP4 ADD MLOAD PUSH2 0x1885 PUSH1 0x20 DUP7 ADD DUP3 PUSH2 0x14BF JUMP JUMPDEST POP PUSH1 0x40 DUP4 ADD MLOAD PUSH2 0x1898 PUSH1 0x40 DUP7 ADD DUP3 PUSH2 0x14BF JUMP JUMPDEST POP PUSH1 0x60 DUP4 ADD MLOAD DUP5 DUP3 SUB PUSH1 0x60 DUP7 ADD MSTORE PUSH2 0x18B0 DUP3 DUP3 PUSH2 0x1506 JUMP JUMPDEST SWAP2 POP POP PUSH1 0x80 DUP4 ADD MLOAD DUP5 DUP3 SUB PUSH1 0x80 DUP7 ADD MSTORE PUSH2 0x18CA DUP3 DUP3 PUSH2 0x1506 JUMP JUMPDEST SWAP2 POP POP DUP1 SWAP2 POP POP SWAP3 SWAP2 POP POP JUMP JUMPDEST PUSH0 PUSH2 0x18E2 DUP4 DUP4 PUSH2 0x185D JUMP JUMPDEST SWAP1 POP SWAP3 SWAP2 POP POP JUMP JUMPDEST PUSH0 PUSH1 0x20 DUP3 ADD SWAP1 POP SWAP2 SWAP1 POP JUMP JUMPDEST PUSH0 PUSH2 0x1900 DUP3 PUSH2 0x1825 JUMP JUMPDEST PUSH2 0x190A DUP2 DUP6 PUSH2 0x182F JUMP JUMPDEST SWAP4 POP DUP4 PUSH1 0x20 DUP3 MUL DUP6 ADD PUSH2 0x191C DUP6 PUSH2 0x183F JUMP JUMPDEST DUP1 PUSH0 JUMPDEST DUP6 DUP2 LT ISZERO PUSH2 0x1957 JUMPI DUP5 DUP5 SUB DUP10 MSTORE DUP2 MLOAD PUSH2 0x1938 DUP6 DUP3 PUSH2 0x18D7 JUMP JUMPDEST SWAP5 POP PUSH2 0x1943 DUP4 PUSH2 0x18EA JUMP JUMPDEST SWAP3 POP PUSH1 0x20 DUP11 ADD SWAP10 POP POP PUSH1 0x1 DUP2 ADD SWAP1 POP PUSH2 0x191F JUMP JUMPDEST POP DUP3 SWAP8 POP DUP8 SWAP6 POP POP POP POP POP POP SWAP3 SWAP2 POP POP JUMP JUMPDEST PUSH0 PUSH1 0x20 DUP3 ADD SWAP1 POP DUP2 DUP2 SUB PUSH0 DUP4 ADD MSTORE PUSH2 0x1981 DUP2 DUP5 PUSH2 0x18F6 JUMP JUMPDEST SWAP1 POP SWAP3 SWAP2 POP POP JUMP JUMPDEST PUSH0 PUSH1 0xA0 DUP3 ADD SWAP1 POP PUSH2 0x199C PUSH0 DUP4 ADD DUP9 PUSH2 0x163D JUMP JUMPDEST PUSH2 0x19A9 PUSH1 0x20 DUP4 ADD DUP8 PUSH2 0x1419 JUMP JUMPDEST PUSH2 0x19B6 PUSH1 0x40 DUP4 ADD DUP7 PUSH2 0x1419 JUMP JUMPDEST DUP2 DUP2 SUB PUSH1 0x60 DUP4 ADD MSTORE PUSH2 0x19C8 DUP2 DUP6 PUSH2 0x1675 JUMP JUMPDEST SWAP1 POP DUP2 DUP2 SUB PUSH1 0x80 DUP4 ADD MSTORE PUSH2 0x19DC DUP2 DUP5 PUSH2 0x1675 JUMP JUMPDEST SWAP1 POP SWAP7 SWAP6 POP POP POP POP POP POP JUMP JUMPDEST PUSH32 0x496E73756666696369656E742062616C616E6365000000000000000000000000 PUSH0 DUP3 ADD MSTORE POP JUMP JUMPDEST PUSH0 PUSH2 0x1A1C PUSH1 0x14 DUP4 PUSH2 0x1665 JUMP JUMPDEST SWAP2 POP PUSH2 0x1A27 DUP3 PUSH2 0x19E8 JUMP JUMPDEST PUSH1 0x20 DUP3 ADD SWAP1 POP SWAP2 SWAP1 POP JUMP JUMPDEST PUSH0 PUSH1 0x20 DUP3 ADD SWAP1 POP DUP2 DUP2 SUB PUSH0 DUP4 ADD MSTORE PUSH2 0x1A49 DUP2 PUSH2 0x1A10 JUMP JUMPDEST SWAP1 POP SWAP2 SWAP1 POP JUMP JUMPDEST PUSH32 0x4E487B7100000000000000000000000000000000000000000000000000000000 PUSH0 MSTORE PUSH1 0x22 PUSH1 0x4 MSTORE PUSH1 0x24 PUSH0 REVERT JUMPDEST PUSH0 PUSH1 0x2 DUP3 DIV SWAP1 POP PUSH1 0x1 DUP3 AND DUP1 PUSH2 0x1A94 JUMPI PUSH1 0x7F DUP3 AND SWAP2 POP JUMPDEST PUSH1 0x20 DUP3 LT DUP2 SUB PUSH2 0x1AA7 JUMPI PUSH2 0x1AA6 PUSH2 0x1A50 JUMP JUMPDEST JUMPDEST POP SWAP2 SWAP1 POP JUMP JUMPDEST PUSH32 0x4E6F2066756E647320746F207769746864726177000000000000000000000000 PUSH0 DUP3 ADD MSTORE POP JUMP JUMPDEST PUSH0 PUSH2 0x1AE1 PUSH1 0x14 DUP4 PUSH2 0x1665 JUMP JUMPDEST SWAP2 POP PUSH2 0x1AEC DUP3 PUSH2 0x1AAD JUMP JUMPDEST PUSH1 0x20 DUP3 ADD SWAP1 POP SWAP2 SWAP1 POP JUMP JUMPDEST PUSH0 PUSH1 0x20 DUP3 ADD SWAP1 POP DUP2 DUP2 SUB PUSH0 DUP4 ADD MSTORE PUSH2 0x1B0E DUP2 PUSH2 0x1AD5 JUMP JUMPDEST SWAP1 POP SWAP2 SWAP1 POP JUMP JUMPDEST PUSH32 0x436F6E7472616374206973207061757365640000000000000000000000000000 PUSH0 DUP3 ADD MSTORE POP JUMP JUMPDEST PUSH0 PUSH2 0x1B49 PUSH1 0x12 DUP4 PUSH2 0x1665 JUMP JUMPDEST SWAP2 POP PUSH2 0x1B54 DUP3 PUSH2 0x1B15 JUMP JUMPDEST PUSH1 0x20 DUP3 ADD SWAP1 POP SWAP2 SWAP1 POP JUMP JUMPDEST PUSH0 PUSH1 0x20 DUP3 ADD SWAP1 POP DUP2 DUP2 SUB PUSH0 DUP4 ADD MSTORE PUSH2 0x1B76 DUP2 PUSH2 0x1B3D JUMP JUMPDEST SWAP1 POP SWAP2 SWAP1 POP JUMP JUMPDEST PUSH32 0x446F6E6174696F6E2069732062656C6F7720746865206D696E696D756D206C69 PUSH0 DUP3 ADD MSTORE PUSH32 0x6D69740000000000000000000000000000000000000000000000000000000000 PUSH1 0x20 DUP3 ADD MSTORE POP JUMP JUMPDEST PUSH0 PUSH2 0x1BD7 PUSH1 0x23 DUP4 PUSH2 0x1665 JUMP JUMPDEST SWAP2 POP PUSH2 0x1BE2 DUP3 PUSH2 0x1B7D JUMP JUMPDEST PUSH1 0x40 DUP3 ADD SWAP1 POP SWAP2 SWAP1 POP JUMP JUMPDEST PUSH0 PUSH1 0x20 DUP3 ADD SWAP1 POP DUP2 DUP2 SUB PUSH0 DUP4 ADD MSTORE PUSH2 0x1C04 DUP2 PUSH2 0x1BCB JUMP JUMPDEST SWAP1 POP SWAP2 SWAP1 POP JUMP JUMPDEST PUSH32 0x446F6E6174696F6E2069732061626F766520746865206D6178696D756D206C69 PUSH0 DUP3 ADD MSTORE PUSH32 0x6D69740000000000000000000000000000000000000000000000000000000000 PUSH1 0x20 DUP3 ADD MSTORE POP JUMP JUMPDEST PUSH0 PUSH2 0x1C65 PUSH1 0x23 DUP4 PUSH2 0x1665 JUMP JUMPDEST SWAP2 POP PUSH2 0x1C70 DUP3 PUSH2 0x1C0B JUMP JUMPDEST PUSH1 0x40 DUP3 ADD SWAP1 POP SWAP2 SWAP1 POP JUMP JUMPDEST PUSH0 PUSH1 0x20 DUP3 ADD SWAP1 POP DUP2 DUP2 SUB PUSH0 DUP4 ADD MSTORE PUSH2 0x1C92 DUP2 PUSH2 0x1C59 JUMP JUMPDEST SWAP1 POP SWAP2 SWAP1 POP JUMP JUMPDEST PUSH0 DUP2 SWAP1 POP SWAP3 SWAP2 POP POP JUMP JUMPDEST PUSH32 0x5468616E6B20796F7520666F7220796F757220646F6E6174696F6E206F660000 PUSH0 DUP3 ADD MSTORE POP JUMP JUMPDEST PUSH0 PUSH2 0x1CD7 PUSH1 0x1E DUP4 PUSH2 0x1C99 JUMP JUMPDEST SWAP2 POP PUSH2 0x1CE2 DUP3 PUSH2 0x1CA3 JUMP JUMPDEST PUSH1 0x1E DUP3 ADD SWAP1 POP SWAP2 SWAP1 POP JUMP JUMPDEST PUSH0 PUSH2 0x1CF7 DUP3 PUSH2 0x14CE JUMP JUMPDEST PUSH2 0x1D01 DUP2 DUP6 PUSH2 0x1C99 JUMP JUMPDEST SWAP4 POP PUSH2 0x1D11 DUP2 DUP6 PUSH1 0x20 DUP7 ADD PUSH2 0x14E8 JUMP JUMPDEST DUP1 DUP5 ADD SWAP2 POP POP SWAP3 SWAP2 POP POP JUMP JUMPDEST PUSH32 0x77656920666F722074686520707572706F73653A000000000000000000000000 PUSH0 DUP3 ADD MSTORE POP JUMP JUMPDEST PUSH0 PUSH2 0x1D51 PUSH1 0x14 DUP4 PUSH2 0x1C99 JUMP JUMPDEST SWAP2 POP PUSH2 0x1D5C DUP3 PUSH2 0x1D1D JUMP JUMPDEST PUSH1 0x14 DUP3 ADD SWAP1 POP SWAP2 SWAP1 POP JUMP JUMPDEST DUP3 DUP2 DUP4 CALLDATACOPY PUSH0 DUP4 DUP4 ADD MSTORE POP POP POP JUMP JUMPDEST PUSH0 PUSH2 0x1D80 DUP4 DUP6 PUSH2 0x1C99 JUMP JUMPDEST SWAP4 POP PUSH2 0x1D8D DUP4 DUP6 DUP5 PUSH2 0x1D67 JUMP JUMPDEST DUP3 DUP5 ADD SWAP1 POP SWAP4 SWAP3 POP POP POP JUMP JUMPDEST PUSH0 PUSH2 0x1DA3 DUP3 PUSH2 0x1CCB JUMP JUMPDEST SWAP2 POP PUSH2 0x1DAF DUP3 DUP7 PUSH2 0x1CED JUMP JUMPDEST SWAP2 POP PUSH2 0x1DBA DUP3 PUSH2 0x1D45 JUMP JUMPDEST SWAP2 POP PUSH2 0x1DC7 DUP3 DUP5 DUP7 PUSH2 0x1D75 JUMP JUMPDEST SWAP2 POP DUP2 SWAP1 POP SWAP5 SWAP4 POP POP POP POP JUMP JUMPDEST PUSH32 0x4E487B7100000000000000000000000000000000000000000000000000000000 PUSH0 MSTORE PUSH1 0x41 PUSH1 0x4 MSTORE PUSH1 0x24 PUSH0 REVERT JUMPDEST PUSH0 DUP2 SWAP1 POP DUP2 PUSH0 MSTORE PUSH1 0x20 PUSH0 KECCAK256 SWAP1 POP SWAP2 SWAP1 POP JUMP JUMPDEST PUSH0 PUSH1 0x20 PUSH1 0x1F DUP4 ADD DIV SWAP1 POP SWAP2 SWAP1 POP JUMP JUMPDEST PUSH0 DUP3 DUP3 SHL SWAP1 POP SWAP3 SWAP2 POP POP JUMP JUMPDEST PUSH0 PUSH1 0x8 DUP4 MUL PUSH2 0x1E5D PUSH32 0xFFFFFFFFFFFFFFFFFFFFFFFFFFFFFFFFFFFFFFFFFFFFFFFFFFFFFFFFFFFFFFFF DUP3 PUSH2 0x1E22 JUMP JUMPDEST PUSH2 0x1E67 DUP7 DUP4 PUSH2 0x1E22 JUMP JUMPDEST SWAP6 POP DUP1 NOT DUP5 AND SWAP4 POP DUP1 DUP7 AND DUP5 OR SWAP3 POP POP POP SWAP4 SWAP3 POP POP POP JUMP JUMPDEST PUSH0 DUP2 SWAP1 POP SWAP2 SWAP1 POP JUMP JUMPDEST PUSH0 PUSH2 0x1EA2 PUSH2 0x1E9D PUSH2 0x1E98 DUP5 PUSH2 0x1410 JUMP JUMPDEST PUSH2 0x1E7F JUMP JUMPDEST PUSH2 0x1410 JUMP JUMPDEST SWAP1 POP SWAP2 SWAP1 POP JUMP JUMPDEST PUSH0 DUP2 SWAP1 POP SWAP2 SWAP1 POP JUMP JUMPDEST PUSH2 0x1EBB DUP4 PUSH2 0x1E88 JUMP JUMPDEST PUSH2 0x1ECF PUSH2 0x1EC7 DUP3 PUSH2 0x1EA9 JUMP JUMPDEST DUP5 DUP5 SLOAD PUSH2 0x1E2E JUMP JUMPDEST DUP3 SSTORE POP POP POP POP JUMP JUMPDEST PUSH0 SWAP1 JUMP JUMPDEST PUSH2 0x1EE3 PUSH2 0x1ED7 JUMP JUMPDEST PUSH2 0x1EEE DUP2 DUP5 DUP5 PUSH2 0x1EB2 JUMP JUMPDEST POP POP POP JUMP JUMPDEST JUMPDEST DUP2 DUP2 LT ISZERO PUSH2 0x1F11 JUMPI PUSH2 0x1F06 PUSH0 DUP3 PUSH2 0x1EDB JUMP JUMPDEST PUSH1 0x1 DUP2 ADD SWAP1 POP PUSH2 0x1EF4 JUMP JUMPDEST POP POP JUMP JUMPDEST PUSH1 0x1F DUP3 GT ISZERO PUSH2 0x1F56 JUMPI PUSH2 0x1F27 DUP2 PUSH2 0x1E01 JUMP JUMPDEST PUSH2 0x1F30 DUP5 PUSH2 0x1E13 JUMP JUMPDEST DUP2 ADD PUSH1 0x20 DUP6 LT ISZERO PUSH2 0x1F3F JUMPI DUP2 SWAP1 POP JUMPDEST PUSH2 0x1F53 PUSH2 0x1F4B DUP6 PUSH2 0x1E13 JUMP JUMPDEST DUP4 ADD DUP3 PUSH2 0x1EF3 JUMP JUMPDEST POP POP JUMPDEST POP POP POP JUMP JUMPDEST PUSH0 DUP3 DUP3 SHR SWAP1 POP SWAP3 SWAP2 POP POP JUMP JUMPDEST PUSH0 PUSH2 0x1F76 PUSH0 NOT DUP5 PUSH1 0x8 MUL PUSH2 0x1F5B JUMP JUMPDEST NOT DUP1 DUP4 AND SWAP2 POP POP SWAP3 SWAP2 POP POP JUMP JUMPDEST PUSH0 PUSH2 0x1F8E DUP4 DUP4 PUSH2 0x1F67 JUMP JUMPDEST SWAP2 POP DUP3 PUSH1 0x2 MUL DUP3 OR SWAP1 POP SWAP3 SWAP2 POP POP JUMP JUMPDEST PUSH2 0x1FA7 DUP3 PUSH2 0x14CE JUMP JUMPDEST PUSH8 0xFFFFFFFFFFFFFFFF DUP2 GT ISZERO PUSH2 0x1FC0 JUMPI PUSH2 0x1FBF PUSH2 0x1DD4 JUMP JUMPDEST JUMPDEST PUSH2 0x1FCA DUP3 SLOAD PUSH2 0x1A7D JUMP JUMPDEST PUSH2 0x1FD5 DUP3 DUP3 DUP6 PUSH2 0x1F15 JUMP JUMPDEST PUSH0 PUSH1 0x20 SWAP1 POP PUSH1 0x1F DUP4 GT PUSH1 0x1 DUP2 EQ PUSH2 0x2006 JUMPI PUSH0 DUP5 ISZERO PUSH2 0x1FF4 JUMPI DUP3 DUP8 ADD MLOAD SWAP1 POP JUMPDEST PUSH2 0x1FFE DUP6 DUP3 PUSH2 0x1F83 JUMP JUMPDEST DUP7 SSTORE POP PUSH2 0x2065 JUMP JUMPDEST PUSH1 0x1F NOT DUP5 AND PUSH2 0x2014 DUP7 PUSH2 0x1E01 JUMP JUMPDEST PUSH0 JUMPDEST DUP3 DUP2 LT ISZERO PUSH2 0x203B JUMPI DUP5 DUP10 ADD MLOAD DUP3 SSTORE PUSH1 0x1 DUP3 ADD SWAP2 POP PUSH1 0x20 DUP6 ADD SWAP5 POP PUSH1 0x20 DUP2 ADD SWAP1 POP PUSH2 0x2016 JUMP JUMPDEST DUP7 DUP4 LT ISZERO PUSH2 0x2058 JUMPI DUP5 DUP10 ADD MLOAD PUSH2 0x2054 PUSH1 0x1F DUP10 AND DUP3 PUSH2 0x1F67 JUMP JUMPDEST DUP4 SSTORE POP JUMPDEST PUSH1 0x1 PUSH1 0x2 DUP9 MUL ADD DUP9 SSTORE POP POP POP JUMPDEST POP POP POP POP POP POP JUMP JUMPDEST PUSH32 0x4E487B7100000000000000000000000000000000000000000000000000000000 PUSH0 MSTORE PUSH1 0x11 PUSH1 0x4 MSTORE PUSH1 0x24 PUSH0 REVERT JUMPDEST PUSH0 PUSH2 0x20A4 DUP3 PUSH2 0x1410 JUMP JUMPDEST SWAP2 POP PUSH2 0x20AF DUP4 PUSH2 0x1410 JUMP JUMPDEST SWAP3 POP DUP3 DUP3 ADD SWAP1 POP DUP1 DUP3 GT ISZERO PUSH2 0x20C7 JUMPI PUSH2 0x20C6 PUSH2 0x206D JUMP JUMPDEST JUMPDEST SWAP3 SWAP2 POP POP JUMP JUMPDEST PUSH0 PUSH2 0x20D8 DUP4 DUP6 PUSH2 0x1665 JUMP JUMPDEST SWAP4 POP PUSH2 0x20E5 DUP4 DUP6 DUP5 PUSH2 0x1D67 JUMP JUMPDEST PUSH2 0x20EE DUP4 PUSH2 0x14F6 JUMP JUMPDEST DUP5 ADD SWAP1 POP SWAP4 SWAP3 POP POP POP JUMP JUMPDEST PUSH0 PUSH1 0x60 DUP3 ADD SWAP1 POP PUSH2 0x210C PUSH0 DUP4 ADD DUP8 PUSH2 0x1419 JUMP JUMPDEST PUSH2 0x2119 PUSH1 0x20 DUP4 ADD DUP7 PUSH2 0x1419 JUMP JUMPDEST DUP2 DUP2 SUB PUSH1 0x40 DUP4 ADD MSTORE PUSH2 0x212C DUP2 DUP5 DUP7 PUSH2 0x20CD JUMP JUMPDEST SWAP1 POP SWAP6 SWAP5 POP POP POP POP POP JUMP JUMPDEST PUSH32 0x457870656E736520616D6F756E74206D75737420626520677265617465722074 PUSH0 DUP3 ADD MSTORE PUSH32 0x68616E2030000000000000000000000000000000000000000000000000000000 PUSH1 0x20 DUP3 ADD MSTORE POP JUMP JUMPDEST PUSH0 PUSH2 0x2191 PUSH1 0x25 DUP4 PUSH2 0x1665 JUMP JUMPDEST SWAP2 POP PUSH2 0x219C DUP3 PUSH2 0x2137 JUMP JUMPDEST PUSH1 0x40 DUP3 ADD SWAP1 POP SWAP2 SWAP1 POP JUMP JUMPDEST PUSH0 PUSH1 0x20 DUP3 ADD SWAP1 POP DUP2 DUP2 SUB PUSH0 DUP4 ADD MSTORE PUSH2 0x21BE DUP2 PUSH2 0x2185 JUMP JUMPDEST SWAP1 POP SWAP2 SWAP1 POP JUMP JUMPDEST PUSH32 0x496E73756666696369656E742062616C616E636520666F7220657870656E7365 PUSH0 DUP3 ADD MSTORE POP JUMP JUMPDEST PUSH0 PUSH2 0x21F9 PUSH1 0x20 DUP4 PUSH2 0x1665 JUMP JUMPDEST SWAP2 POP PUSH2 0x2204 DUP3 PUSH2 0x21C5 JUMP JUMPDEST PUSH1 0x20 DUP3 ADD SWAP1 POP SWAP2 SWAP1 POP JUMP JUMPDEST PUSH0 PUSH1 0x20 DUP3 ADD SWAP1 POP DUP2 DUP2 SUB PUSH0 DUP4 ADD MSTORE PUSH2 0x2226 DUP2 PUSH2 0x21ED JUMP JUMPDEST SWAP1 POP SWAP2 SWAP1 POP JUMP JUMPDEST PUSH0 PUSH1 0x60 DUP3 ADD SWAP1 POP PUSH2 0x2240 PUSH0 DUP4 ADD DUP8 PUSH2 0x1419 JUMP JUMPDEST DUP2 DUP2 SUB PUSH1 0x20 DUP4 ADD MSTORE PUSH2 0x2253 DUP2 DUP6 DUP8 PUSH2 0x20CD JUMP JUMPDEST SWAP1 POP PUSH2 0x2262 PUSH1 0x40 DUP4 ADD DUP5 PUSH2 0x1419 JUMP JUMPDEST SWAP6 SWAP5 POP POP POP POP POP JUMP JUMPDEST PUSH0 PUSH2 0x2275 DUP3 PUSH2 0x1410 JUMP JUMPDEST SWAP2 POP PUSH32 0xFFFFFFFFFFFFFFFFFFFFFFFFFFFFFFFFFFFFFFFFFFFFFFFFFFFFFFFFFFFFFFFF DUP3 SUB PUSH2 0x22A7 JUMPI PUSH2 0x22A6 PUSH2 0x206D JUMP JUMPDEST JUMPDEST PUSH1 0x1 DUP3 ADD SWAP1 POP SWAP2 SWAP1 POP JUMP JUMPDEST PUSH32 0x4E487B7100000000000000000000000000000000000000000000000000000000 PUSH0 MSTORE PUSH1 0x12 PUSH1 0x4 MSTORE PUSH1 0x24 PUSH0 REVERT JUMPDEST PUSH0 PUSH2 0x22E9 DUP3 PUSH2 0x1410 JUMP JUMPDEST SWAP2 POP PUSH2 0x22F4 DUP4 PUSH2 0x1410 JUMP JUMPDEST SWAP3 POP DUP3 PUSH2 0x2304 JUMPI PUSH2 0x2303 PUSH2 0x22B2 JUMP JUMPDEST JUMPDEST DUP3 DUP3 DIV SWAP1 POP SWAP3 SWAP2 POP POP JUMP JUMPDEST PUSH0 PUSH2 0x2319 DUP3 PUSH2 0x1410 JUMP JUMPDEST SWAP2 POP PUSH2 0x2324 DUP4 PUSH2 0x1410 JUMP JUMPDEST SWAP3 POP DUP3 PUSH2 0x2334 JUMPI PUSH2 0x2333 PUSH2 0x22B2 JUMP JUMPDEST JUMPDEST DUP3 DUP3 MOD SWAP1 POP SWAP3 SWAP2 POP POP JUMP JUMPDEST PUSH0 PUSH2 0x2349 DUP3 PUSH2 0x1410 JUMP JUMPDEST SWAP2 POP PUSH0 DUP3 SUB PUSH2 0x235B JUMPI PUSH2 0x235A PUSH2 0x206D JUMP JUMPDEST JUMPDEST PUSH1 0x1 DUP3 SUB SWAP1 POP SWAP2 SWAP1 POP JUMP JUMPDEST PUSH32 0x4E487B7100000000000000000000000000000000000000000000000000000000 PUSH0 MSTORE PUSH1 0x32 PUSH1 0x4 MSTORE PUSH1 0x24 PUSH0 REVERT INVALID LOG2 PUSH5 0x6970667358 0x22 SLT KECCAK256 DUP15 LOG3 0xDA 0xE8 0xD4 GT SLOAD 0xC1 0xB7 GASPRICE CREATE PUSH4 0x665EB901 PUSH1 0xD5 SMOD SWAP8 BYTE PUSH13 0xA94D1CA2ECF39E3EE2DC64736F PUSH13 0x634300081A0033000000000000 "
				},
				"gasEstimates": {
					"creation": {
						"codeDepositCost": "1832200",
						"executionCost": "infinite",
						"totalCost": "infinite"
					},
					"external": {
						"charityAddress()": "2531",
						"donate(string)": "infinite",
						"donations(uint256)": "infinite",
						"expenses(uint256)": "infinite",
						"getDonationCount()": "2484",
						"getDonations()": "infinite",
						"getExpenses()": "infinite",
						"isPaused()": "2511",
						"logExpense(uint256,string)": "infinite",
						"maxDonation()": "2514",
						"minDonation()": "2471",
						"owner()": "2582",
						"pause()": "infinite",
						"renounceOwnership()": "infinite",
						"setCharityAddress(address)": "infinite",
						"totalDonations()": "2536",
						"transferOwnership(address)": "infinite",
						"unPause()": "infinite",
						"withdraw(uint256)": "infinite",
						"withdrawAll()": "infinite"
					},
					"internal": {
						"uint2str(uint256)": "infinite"
					}
				},
				"methodIdentifiers": {
					"charityAddress()": "afcf2fc4",
					"donate(string)": "b5aebc80",
					"donations(uint256)": "f8626af8",
					"expenses(uint256)": "af4afe0a",
					"getDonationCount()": "e55a62a8",
					"getDonations()": "e25f8416",
					"getExpenses()": "83a36a91",
					"isPaused()": "b187bd26",
					"logExpense(uint256,string)": "d6176359",
					"maxDonation()": "a8681fd9",
					"minDonation()": "1c0e0225",
					"owner()": "8da5cb5b",
					"pause()": "8456cb59",
					"renounceOwnership()": "715018a6",
					"setCharityAddress(address)": "0c9be46d",
					"totalDonations()": "de2ed893",
					"transferOwnership(address)": "f2fde38b",
					"unPause()": "f7b188a5",
					"withdraw(uint256)": "2e1a7d4d",
					"withdrawAll()": "853828b6"
				}
			},
			"storageLayout": {
				"storage": [
					{
						"astId": 8,
						"contract": "contracts/Charity.sol:Charity",
						"label": "_owner",
						"offset": 0,
						"slot": "0",
						"type": "t_address"
					},
					{
						"astId": 204,
						"contract": "contracts/Charity.sol:Charity",
						"label": "expenses",
						"offset": 0,
						"slot": "1",
						"type": "t_array(t_struct(Expense)200_storage)dyn_storage"
					},
					{
						"astId": 208,
						"contract": "contracts/Charity.sol:Charity",
						"label": "donations",
						"offset": 0,
						"slot": "2",
						"type": "t_array(t_struct(Donation)193_storage)dyn_storage"
					},
					{
						"astId": 210,
						"contract": "contracts/Charity.sol:Charity",
						"label": "totalDonations",
						"offset": 0,
						"slot": "3",
						"type": "t_uint256"
					},
					{
						"astId": 212,
						"contract": "contracts/Charity.sol:Charity",
						"label": "charityAddress",
						"offset": 0,
						"slot": "4",
						"type": "t_address"
					},
					{
						"astId": 215,
						"contract": "contracts/Charity.sol:Charity",
						"label": "minDonation",
						"offset": 0,
						"slot": "5",
						"type": "t_uint256"
					},
					{
						"astId": 218,
						"contract": "contracts/Charity.sol:Charity",
						"label": "maxDonation",
						"offset": 0,
						"slot": "6",
						"type": "t_uint256"
					},
					{
						"astId": 221,
						"contract": "contracts/Charity.sol:Charity",
						"label": "isPaused",
						"offset": 0,
						"slot": "7",
						"type": "t_bool"
					}
				],
				"types": {
					"t_address": {
						"encoding": "inplace",
						"label": "address",
						"numberOfBytes": "20"
					},
					"t_array(t_struct(Donation)193_storage)dyn_storage": {
						"base": "t_struct(Donation)193_storage",
						"encoding": "dynamic_array",
						"label": "struct Charity.Donation[]",
						"numberOfBytes": "32"
					},
					"t_array(t_struct(Expense)200_storage)dyn_storage": {
						"base": "t_struct(Expense)200_storage",
						"encoding": "dynamic_array",
						"label": "struct Charity.Expense[]",
						"numberOfBytes": "32"
					},
					"t_bool": {
						"encoding": "inplace",
						"label": "bool",
						"numberOfBytes": "1"
					},
					"t_string_storage": {
						"encoding": "bytes",
						"label": "string",
						"numberOfBytes": "32"
					},
					"t_struct(Donation)193_storage": {
						"encoding": "inplace",
						"label": "struct Charity.Donation",
						"members": [
							{
								"astId": 184,
								"contract": "contracts/Charity.sol:Charity",
								"label": "donor",
								"offset": 0,
								"slot": "0",
								"type": "t_address"
							},
							{
								"astId": 186,
								"contract": "contracts/Charity.sol:Charity",
								"label": "amount",
								"offset": 0,
								"slot": "1",
								"type": "t_uint256"
							},
							{
								"astId": 188,
								"contract": "contracts/Charity.sol:Charity",
								"label": "timestamp",
								"offset": 0,
								"slot": "2",
								"type": "t_uint256"
							},
							{
								"astId": 190,
								"contract": "contracts/Charity.sol:Charity",
								"label": "purpose",
								"offset": 0,
								"slot": "3",
								"type": "t_string_storage"
							},
							{
								"astId": 192,
								"contract": "contracts/Charity.sol:Charity",
								"label": "acknowledgment",
								"offset": 0,
								"slot": "4",
								"type": "t_string_storage"
							}
						],
						"numberOfBytes": "160"
					},
					"t_struct(Expense)200_storage": {
						"encoding": "inplace",
						"label": "struct Charity.Expense",
						"members": [
							{
								"astId": 195,
								"contract": "contracts/Charity.sol:Charity",
								"label": "amount",
								"offset": 0,
								"slot": "0",
								"type": "t_uint256"
							},
							{
								"astId": 197,
								"contract": "contracts/Charity.sol:Charity",
								"label": "description",
								"offset": 0,
								"slot": "1",
								"type": "t_string_storage"
							},
							{
								"astId": 199,
								"contract": "contracts/Charity.sol:Charity",
								"label": "timestamp",
								"offset": 0,
								"slot": "2",
								"type": "t_uint256"
							}
						],
						"numberOfBytes": "96"
					},
					"t_uint256": {
						"encoding": "inplace",
						"label": "uint256",
						"numberOfBytes": "32"
					}
				}
			},
			"userdoc": {
				"kind": "user",
				"methods": {},
				"version": 1
			}
		}
	}
}